S0160000496D706C656D656E746174696F6E2E7372656348
S113000045C00000B1C10000B9C10000C1C1000079
S113001083C100008BC1000093C100009BC100009C
S11300206EC50000B9C30000F3C300008AC300001A
S11300302BC300009EC20000FCC200006FC200007F
S113004042C0000040C000003EC000001EC20000CC
S11300503AC0000038C0000036C0000034C00000C0
S113006032C0000030C000002EC000002CC00000D0
S11300702AC0000028C0000026C0000024C00000E0
S113008022C0000020C000001EC0000011241FBEBA
S1130090CFEFD0E4DEBFCDBF11E0A0E0B1E0E4EDEE
S11300A0FCE000E00BBF02C007900D92A230B10744
S11300B0D9F721E0A2E0B1E001C01D92AB34B20750
S11300C0E1F702D005C69CCF23D144D513D02AD062
S11300D03FD054D02FEF80E792E0215080409040F1
S11300E0E1F700C00000F3CF80910A0190910B0169
S11300F0FCC00895EAE0F1E08FEF818387E080831C
S1130100ECE0F1E081E0858395E09483138216822C
S113011082838183808380910A0190910B013AD07C
S1130120E3CF089520910C0130910D0140910E010F
S113013050910F0160911001709111018091120191
S113014061D580930201813410F482E43BC50895A3
S113015020910C0130910D0140910E0150910F013D
S11301606091100170911101809112014BD580931F
S11301700201873E10F087E525C50895D3DF892B5A
S113018041F4E6DF892B29F480910A0190910B0157
S1130190BAC008951F93CF93DF93D82FC92F82FB42
S11301A0442740F962E08AE790E018D1D1FB442764
S11301B040F961E08AE790E011D14D2F417060E091
S11301C08AE790E00BD1CF3F29F465E08AE790E01D
S11301D029D118C065E08AE790E018D1C2FB442712
S11301E040F962E08BE790E0F9D0C1FB442740F985
S11301F061E08BE790E0F2D04C2F417060E08BE738
S113020090E0ECD0DF91CF911F910895FF920F936E
S11302101F93CF93DF93F92ED42FC52F142F052FBF
S1130220ECE7F0E08081807E682B608380910001A0
S1130230581769F051FB442740F967E08CE790E0D8
S1130240CDD04C2F417066E08CE790E0C7D04D2FA5
S113025065E08CE790E0C2D08FEFF8121DC066E035
S11302608AE790E0D3D0EAE7F0E0808184FFFDCF15
S113027080910001081711F164E08AE790E0C6D08C
S113028066E08AE790E0C2D0EAE7F0E0808184FF8C
S1130290FDCFC093000112C064E08AE790E0B6D0BD
S11302A0EAE7F0E0808184FFFDCF64E08AE790E034
S11302B0ADD0EAE7F0E0808184FFFDCF112331F077
S11302C0113059F48091790090E009C08091780050
S11302D02091790090E0922B02C080E090E0DF91C1
S11302E0CF911F910F91FF900895CF93C92F67E08D
S11302F08AE790E08BD0CF3F21F066E08AE790E078
S113030085D0CF91089567E08AE790E08BC0089587
S113031080E885BF85BF08951F920F920FB60F9294
S113032011240F900FBE0F901F9018951F920F92DB
S11303300FB60F9211240F900FBE0F901F901895B7
S11303401F920F920FB60F9211240F900FBE0F90B1
S11303501F9018951F920F920FB60F9211240F90B1
S11303600FBE0F901F9018951F920F920FB60F9209
S113037011240F900FBE0F901F9018951F920F928B
S11303800FB60F9211240F900FBE0F901F90189567
S11303901F920F920FB60F9211240F900FBE0F9061
S11303A01F901895613059F028F0623069F063307D
S11303B081F00895672F82E290E028C00895672FA6
S11303C085E290E023C00895672F88E290E01EC084
S11303D00895672F8BE290E019C00895FC01942FD3
S11303E0208141E050E0062E02C0440F551F0A94BC
S11303F0E2F7409550952423492F50E002C0440F62
S1130400551F6A95E2F7422B40830895FC01408111
S113041021E030E002C0220F331F6A95E2F7242B5B
S113042020830895FC01908121E030E002C0220F76
S1130430331F6A95E2F7209529232083089590E0DD
S113044002C0959587956A95E2F781700895CF92D9
S1130450DF92EF92FF9269017A019B01AC012C19A2
S11304603D094E095F09A8EEB3E028D4A70196011F
S1130470F4D3C901992324F488279927821B930B69
S1130480FF90EF90DF90CF9008951F920F920FB6D8
S11304900F9211240BB60F928F939F93EF93FF93B8
S11304A0E0911801F0E08EB5E75EFE4F8083809105
S11304B01801893030F4809118018F5F80931801FE
S11304C002C01092180181E08093170190911501E8
S11304D080912E019817A1F0E0911501F0E0ED5DF7
S11304E0FE4F80818EBD80911501893030F480915A
S11304F015018F5F8093150106C01092150103C08A
S113050081E080932D01FF91EF919F918F910F9046
S11305100BBE0F900FBE0F901F9018951F920F9255
S11305200FB60F9211240BB60F922F933F934F9354
S11305305F936F937F938F939F93AF93BF93EF9347
S1130540FF93E0912F01F09130010995FF91EF9114
S1130550BF91AF919F918F917F916F915F914F91D7
S11305603F912F910F900BBE0F900FBE0F901F90D5
S113057018951F920F920FB60F9211240BB60F927B
S11305800F931F932F933F934F935F936F937F9397
S11305908F939F93AF93BF93CF93DF93EF93FF9387
S11305A0C1E8D0E0888164E04ADF182F888163E0E5
S11305B046DFC12FCC0FCC0FCC0F24E0829FC001AB
S11305C01124C82B00E810E0F801808161E037DFD6
S11305D0D82FF801808160E032DFDD0F8C2B8D2B6A
S11305E0883018F4843019F408C080FD06C0E09106
S11305F03101F0913201099505C0E0912F01F0918C
S113060030010995FF91EF91DF91CF91BF91AF91A7
S11306109F918F917F916F915F914F913F912F9116
S11306201F910F910F900BBE0F900FBE0F901F9054
S113063018951F920F920FB60F9211240BB60F92BA
S11306402F933F934F935F936F937F938F939F93D6
S1130650AF93BF93EF93FF93E0913301F091340193
S11306600995FF91EF91BF91AF919F918F917F91E8
S11306706F915F914F913F912F910F900BBE0F900F
S11306800FBE0F901F9018951F920F920FB60F92E6
S113069011240BB60F920F931F932F933F934F93F5
S11306A05F936F937F938F939F93AF93BF93CF93F6
S11306B0DF93EF93FF93C1E8D0E0888164E0BFDE6D
S11306C0182F888163E0BBDEC12FCC0FCC0FCC0F79
S11306D024E0829FC0011124C82B00E810E0F80137
S11306E0808161E0ACDED82FF801808160E0A7DE74
S11306F0DD0F8C2B8D2B883010F080FF06C0E0912D
S11307003501F0913601099505C0E0912F01F09172
S113071030010995FF91EF91DF91CF91BF91AF9196
S11307209F918F917F916F915F914F913F912F9105
S11307301F910F910F900BBE0F900FBE0F901F9043
S113074018951F920F920FB60F9211240BB60F92A9
S11307502F933F934F935F936F937F938F939F93C5
S1130760AF93BF93EF93FF93E0913901F0913A0176
S11307700995FF91EF91BF91AF919F918F917F91D7
S11307806F915F914F913F912F910F900BBE0F90FE
S11307900FBE0F901F9018951F920F920FB60F92D5
S11307A011240BB60F922F933F934F935F936F9344
S11307B07F938F939F93AF93BF93EF93FF93809116
S11307C0B10063E03CDE81110BC08091B000837006
S11307D0823031F0E0913B01F0913C01099505C074
S11307E0E0913901F0913A010995FF91EF91BF91A0
S11307F0AF919F918F917F916F915F914F913F91B5
S11308002F910F900BBE0F900FBE0F901F90189555
S11308101F920F920FB60F9211240BB60F922F93C3
S11308203F934F935F936F937F938F939F93AF9374
S1130830BF93EF93FF93E0913D01F0913E01099541
S1130840FF91EF91BF91AF919F918F917F916F91A4
S11308505F914F913F912F910F900BBE0F900FBE60
S11308600F901F9018954F925F926F927F928F9284
S11308709F92AF92BF92CF92DF92EF92FF92CF936B
S1130880DF934B015C01EA010F2EF0E24F2EF1EAF7
S11308905F2EF7E06F2E712CF02DC301B201A5017C
S11308A09401DBD169017A01C301B201D6D1CA0135
S11308B0B901A5019401CBDD449730F4D701C601F9
S11308C00197A109B1090EC081E0888360E472E454
S11308D08FE090E0A5019401C0D1DA01C90101972C
S11308E0A109B109DF91CF91FF90EF90DF90CF90F4
S11308F0BF90AF909F908F907F906F905F904F903C
S113090008950F931F93CF93DF93CDB7DEB72B9743
S11309100FB6F894DEBF0FBECDBF0A831B832C83B2
S11309203D834E835F83688779878A879B87198293
S113093001117CC0192FE2ECF0E080818F73808379
S11309406B817C818D819E81AE014F5F5F4F8BDF18
S11309509093C5008093C400498161E080EC90E0ED
S11309603DDD8985823031F128F4882349F08130D6
S1130970A1F046C0833059F1843009F435C040C039
S113098061E082EC90E04EDD62E082EC90E04ADDD2
S113099062E081EC90E046DD33C061E082EC90E0FF
S11309A035DD62E082EC90E03DDD62E081EC90E0D8
S11309B039DD26C061E082EC90E034DD62E082EC57
S11309C090E024DD62E081EC90E02CDD19C061E070
S11309D082EC90E01BDD62E082EC90E017DD62E0E7
S11309E081EC90E01FDD0CC061E082EC90E00EDD54
S11309F062E082EC90E00ADD62E081EC90E006DDEA
S1130A004A8563E082EC90E0E9DC123031F4E2ECF8
S1130A10F0E080818F7C808309C065E082EC90E007
S1130A20F5DC412F64E082EC90E0D8DC2B960FB625
S1130A30F894DEBF0FBECDBFDF91CF911F910F9110
S1130A4008950F931F93CF93DF93CDB7DEB72A9703
S1130A500FB6F894DEBF0FBECDBF6F8301110AC07D
S1130A60452F64E081EC90E0B9DC4F8163E081ECD8
S1130A7090E0B4DC2A960FB6F894DEBF0FBECDBF6B
S1130A80DF91CF911F910F910895EF92FF920F93F1
S1130A901F93CF93DF93CDB7DEB72A970FB6F894A1
S1130AA0DEBF0FBECDBF09831A832B833C834D83E6
S1130AB05E836F83788789879A87011113C000EC5E
S1130AC010E0F801808165E0BADC8823D1F38885E1
S1130AD0843031F44F2D417060E081EC90E07EDC95
S1130AE0E092C6002A960FB6F894DEBF0FBECDBFC3
S1130AF0DF91CF911F910F91FF90EF9008951F9276
S1130B000F920FB60F9211240BB60F922F933F93AF
S1130B104F935F936F937F938F939F93AF93BF9301
S1130B20EF93FF93E0913F01F09140010995FF910C
S1130B30EF91BF91AF919F918F917F916F915F9151
S1130B404F913F912F910F900BBE0F900FBE0F90BE
S1130B501F9018950F931F93E1E4F1E080E0182FA4
S1130B6081838BE482831382148283E0782F8783CA
S1130B70118610821086158281E0682F868300E03A
S1130B8020914301309144014091450150E080E0BF
S1130B9090E0B7DE009141011091420120914301A0
S1130BA030914401409145015091460160914701C3
S1130BB0709148018091490190914A0142DF1F914F
S1130BC00F910895EF92FF920F931F93E82EF12C4B
S1130BD0009141011091420120914301309144015F
S1130BE0409145015091460160914701709148013F
S1130BF08091490190914A0148DF1F910F91FF9024
S1130C00EF900895CF93DF93CDB7DEB727970FB654
S1130C10F894DEBF0FBECDBF29833A834B835C8338
S1130C206D837E838F836C817D818E819F81BADB0E
S1130C3088EC00008150E9F749815A816B818091E9
S1130C400A0190910B01E2DA27960FB6F894DEBF01
S1130C500FBECDBFDF91CF910895A1E21A2EAA1B3A
S1130C60BB1BFD010DC0AA1FBB1FEE1FFF1FA21758
S1130C70B307E407F50720F0A21BB30BE40BF50B55
S1130C80661F771F881F991F1A9469F760957095DE
S1130C90809590959B01AC01BD01CF010895A29F61
S1130CA0B001B39FC001A39F700D811D1124911D3C
S1130CB0B29F700D811D1124911D0895F0DFA59F31
S1130CC0900DB49F900DA49F800D911D1124089543
S1070CD0F894FFCFC2
S1050CD4030017
S9030000FC
