S0160000496D706C656D656E746174696F6E2E7372656348
S11300004CC00000A2C10000AAC10000B2C100009F
S113001074C100007CC1000084C100008CC10000D8
S11300200C94750C0BC7000045C70000DCC600002B
S11300307DC60000F0C500004EC60000C1C500002A
S11300404AC0000048C0000046C00000FAC30000D7
S11300500C944C0A0C94A60A0C94030B3CC00000AC
S11300603AC0000038C0000036C0000034C00000B0
S113007032C0000030C000002EC000002CC00000C0
S11300802AC0000028C0000026C0000062086B08D7
S113009074087D0886088F08980811241FBECFEFC6
S11300A0D0E4DEBFCDBF11E0A0E0B1E0E2EBF6E2C8
S11300B000E00BBF02C007900D92A030B107D9F742
S11300C021E0A0E0B1E001C01D92AD37B207E1F735
S11300D090D00C94571394CF80910001909101011A
S11300E0A0910201B09103010196A11DB11D80935D
S11300F0000190930101A0930201B09303010895BC
S11301000F931F93E7E0F1E0108280E0182F8183C2
S11301108BE482831382148283E0782F878392E0B6
S11301209187108681E0582F8583682F868300E0AD
S11301302091090130910A0140910B0180E00E9455
S11301402A0B0091070110910801209109013091B7
S11301500A0140910B0150910C0160910D017091C5
S11301600E0180910F01909110010E94E60B1F91E6
S11301700F9108950F931F93E1E1F1E088EE582F5A
S1130180818383E082831382148281E0482F8083F9
S1130190609113017091140180911501B6D60CE69B
S11301A010E020E04091110150911201609113017F
S11301B070911401809115010E94D20920E04091B0
S11301C011015091120160911301709114018091F9
S11301D015010E941609409111015091120160917C
S11301E013017091140180911501DBD71F910F91B8
S11301F008955FD085DF0E94C712BCDF78940E9407
S1130200F0120E940913EC01E12CF12C009107017A
S1130210109108012091090130910A0140910B01CC
S113022050910C0160910D0170910E0180910F01AC
S1130230909110010E940C0C7E01FF240091070193
S1130240109108012091090130910A0140910B019C
S113025050910C0160910D0170910E0180910F017C
S1130260909110010E940C0C0F2EFAE0EF2EF12C4D
S1130270F02D00910701109108012091090130919E
S11302800A0140910B0150910C0160910D01709194
S11302900E0180910F01909110010E940C0C2FEF20
S11302A080E792E0215080409040E1F700C00000D8
S11302B0A8CF80E885BF85BF0895613061F028F03C
S11302C0623079F0633099F00895482F672F81E206
S11302D090E05EC20895482F672F84E290E058C2F0
S11302E00895482F672F87E290E052C20895482F5F
S11302F0672F8AE290E04CC208951F920F920FB6C6
S11303000F9211240F900FBE0F901F9018951F92FB
S11303100F920FB60F9211240F900FBE0F901F90E3
S113032018951F920F920FB60F9211240F900FBEC3
S11303300F901F9018951F920F920FB60F921124D1
S11303400F900FBE0F901F9018951F920F920FB62B
S11303500F9211240F900FBE0F901F9018951F92AB
S11303600F920FB60F9211240F900FBE0F901F9093
S113037018951F920F920FB60F9211240F900FBE73
S11303800F901F9018950F931F93CF93DF93C62F51
S1130390172FD82F092F91DFD11123C0C13081F03D
S11303A028F0C23099F0C330B9F01BC0402F612F40
S11303B082E290E0EDD1612F8EE790E00DD211C082
S11303C0402F612F85E290E0E3D10BC0402F612FD5
S11303D088E290E0DDD105C0402F612F8BE290E0F0
S11303E0D7D1DF91CF911F910F910895613059F0CA
S11303F028F0623069F0633081F00895672F82E25B
S113040090E0DEC10895672F85E290E0D9C1089598
S1130410672F88E290E0D4C10895672F8BE290E0C3
S1130420CFC108950F931F93CF93DF938B019C014A
S1130430EA0160E072E18AE790E0A90198010E9474
S11304401313BA01A9014051510961097109DB0172
S1130450CA01B695A795979587958F3F9105A105F4
S1130460B10509F010F4188232C0DB01CA016894A6
S113047012F8B695A795979587951694D1F78F3F5F
S11304809105A105B10509F018F421E028831FC0E6
S1130490DB01CA01689414F8B695A79597958795DA
S11304A01694D1F78F3F9105A105B10509F018F411
S11304B022E028830CC083E08883DB01CA016894AE
S11304C016F8B695A795979587951694D1F7DF9169
S11304D0CF911F910F910895CF93C091B90064E01B
S11304E08CEB90E06DD18C2F887FCF910895CF93C2
S11304F0DF9300D000D000D0CDB7DEB75B836C8330
S11305007D838E836B817C818D819E81AE014F5F63
S11305105F4F88DF8093B80060E089816AD1482FFB
S113052060E089EB90E034D161E0898162D1482FA9
S113053061E089EB90E02CD162E071E080E091E031
S113054022DF62E070E080E091E01DDF26960FB6C6
S1130550F894DEBF0FBECDBFDF91CF91089562E066
S11305608CEB90E02DC10895AF92BF92CF92DF92B1
S1130570EF92FF920F931F93CF93DF93182F6B018A
S1130580E42E65E08CEB90E01BD167E08CEB90E00F
S113059017D1CCEBD0E0888167E02BD18823D9F345
S11305A08091B900887F883009F047C0110F1093FB
S11305B0BB0060E08BEB90E00FD165E08CEB90E04A
S11305C00BD1CCEBD0E0888167E013D18823D9F339
S11305D08091B900887F883171F5EE2081F1860120
S11305E0EA94F12C8FEFE81AF80AEC0CFD1C0F2E9C
S11305F0FBEBAF2EB12CF02DCCEBD0E00F2EF9EBB2
S1130600CF2ED12CF02DF80181918F01F50180833B
S113061067E0CE01D5D0888167E0EBD08823D9F399
S1130620F6018081887F883211F056DF13C00E15E1
S11306301F0549F704C050DF0DC04EDF0BC064E056
S11306408CEB90E0BDD0CCEBD0E0888164E0D1D0DD
S11306508111FBCFDF91CF911F910F91FF90EF900C
S1130660DF90CF90BF90AF900895AF92BF92CF929A
S1130670DF92EF92FF920F931F93CF93DF93182F84
S11306806B01E42E65E08CEB90E09AD067E08CEB94
S113069090E096D0CCEBD0E0888167E0AAD08823A4
S11306A0D9F38091B900887F883009F047C0110FD1
S11306B01093BB0060E08BEB90E082D065E08CEBA4
S11306C090E08AD0CCEBD0E0888167E092D0882398
S11306D0D9F38091B900887F803471F5EE2081F1DF
S11306E08601EA94F12C8FEFE81AF80AEC0CFD1C51
S11306F0CCEBD0E00F2EF9EBCF2ED12CF02D0F2E1A
S1130700FBEBAF2EB12CF02D66E0CE0159D08881E1
S113071067E06FD08823D9F3F6018081887F803524
S113072011F0DADE2AC0F5018081F80181938F018E
S1130730EE15FF0549F704C0CFDE1FC0CDDE1DC096
S113074066E08CEB90E048D0CCEBD0E0888167E0A9
S113075050D08823D9F38091B900887F883561F41B
S113076064E08CEB90E02CD0CCEBD0E0888164E0AA
S113077040D08111FBCF01C080E0DF91CF911F9168
S11307800F91FF90EF90DF90CF90BF90AF900895BE
S1130790FC01942F208141E050E0062E02C0440F5A
S11307A0551F0A94E2F7409550952423492F50E0B1
S11307B002C0440F551F6A95E2F7422B4083089507
S11307C0FC01408121E030E002C0220F331F6A9512
S11307D0E2F7242B20830895FC01908121E030E08E
S11307E002C0220F331F6A95E2F720952923208344
S11307F0089590E002C0959587956A95E2F7817017
S11308000895CF92DF92EF92FF9269017A019B01E2
S1130810AC012C193D094E095F09A8EEB3E00E9412
S11308204D13A70196010E941313C901992324F4BF
S113083088279927821B930BFF90EF90DF90CF902E
S113084008951F920F920FB60F9211240BB60F92B8
S11308508F939F93EF93FF93E0911B01F0E08EB58C
S1130860E45EFE4F808380911B01893030F48091D7
S11308701B018F5F80931B0102C010921B0181E05A
S113088080931A0190911801809131019817A1F079
S1130890E0911801F0E0EA5DFE4F80818EBD809109
S11308A01801893030F4809118018F5F809318010A
S11308B006C01092180103C081E080933001FF91BB
S11308C0EF919F918F910F900BBE0F900FBE0F90E1
S11308D01F9018958F929F92AF92BF92EF92FF92C2
S11308E00F931F93CF93DF9300D000D01F92CDB707
S11308F0DEB748015901413021F0423009F488C083
S11309004CC160E072E18AE790E0A90198010E947D
S11309101313DA01C9010197A109B109009721E074
S1130920A207B10550F449EF5FEF6FEF70E0F701F4
S1130930408351836283738333C160E472E48FE044
S113094090E0A50194010E941313DA01C9010197F3
S1130950A109B1090097F1E0AF07B10550F44AEFDE
S11309605FEF6FEF70E0F70140835183628373831D
S113097017C168E478EE81E090E0A50194010E943B
S11309801313DA01C9010197A109B1090097F1E034
S1130990AF07B10550F44CEF5FEF6FEF70E0F70174
S11309A04083518362837383FBC062E17AE780E012
S11309B090E0A50194010E941313DA01C901019783
S11309C0A109B1090097F1E0AF07B10550F44EEF6A
S11309D05FEF6FEF70E0F7014083518362837383AD
S11309E0DFC08FEF9FEFAFEFB0E0F701808391831B
S11309F0A283B38364E87EE180E090E0A5019401E2
S1130A000E941313DA01C9010197A109B109C8C0F1
S1130A1060E072E18AE790E0A90198010E94131353
S1130A20DA01C9010197A109B1098F3F9105A10517
S1130A30B10509F050F449EF5FEF6FEF70E0F70193
S1130A404083518362837383ABC060E472E48FE0BC
S1130A5090E0A50194010E941313DA01C9010197E2
S1130A60A109B1098F3F9105A105B10509F050F421
S1130A704AEF5FEF6FEF70E0F701408351836283C9
S1130A8073838EC060E970ED83E090E0A50194016A
S1130A900E941313DA01C9010197A109B1098F3F1B
S1130AA09105A105B10509F050F44BEF5FEF6FEF2D
S1130AB070E0F701408351836283738371C068E4FB
S1130AC078EE81E090E0A50194010E941313DA010D
S1130AD0C9010197A109B1098F3F9105A105B1058C
S1130AE009F050F44CEF5FEF6FEF70E0F7014083D3
S1130AF051836283738354C064E274EF80E090E0B6
S1130B00A50194010E941313DA01C9010197A109F7
S1130B10B1098F3F9105A105B10509F050F44DEFDE
S1130B205FEF6FEF70E0F70140835183628373835B
S1130B3037C062E17AE780E090E0A50194010E9469
S1130B401313DA01C9010197A109B1098F3F910576
S1130B50A105B10509F050F44EEF5FEF6FEF70E0BF
S1130B60F70140835183628373831AC08FEF9FEF31
S1130B70AFEFB0E0F70180839183A283B38364E88D
S1130B807EE180E090E0A50194010E941313DA0154
S1130B90C9010197A109B10903C080E090E0DC011B
S1130BA00F900F900F900F900F90DF91CF911F91A6
S1130BB00F91FF90EF90BF90AF909F908F9008950A
S1130BC01F920F920FB60F9211240BB60F922F9310
S1130BD03F934F935F936F937F938F939F93AF93C1
S1130BE0BF93EF93FF93E0913201F09133010995A4
S1130BF0FF91EF91BF91AF919F918F917F916F91F1
S1130C005F914F913F912F910F900BBE0F900FBEAC
S1130C100F901F9018951F920F920FB60F921124E8
S1130C200BB60F920F931F932F933F934F935F93A2
S1130C306F937F938F939F93AF93BF93CF93DF93E0
S1130C40EF93FF93C1E8D0E0888164E0D2DD182FF0
S1130C50888163E0CEDDC12FCC0FCC0FCC0F24E014
S1130C60829FC0011124C82B00E810E0F8018081A4
S1130C7061E0BFDDD82FF801808160E0BADDDD0FCF
S1130C808C2B8D2B883018F4843019F408C080FD27
S1130C9006C0E0913401F0913501099505C0E09159
S1130CA03201F09133010995FF91EF91DF91CF91DA
S1130CB0BF91AF919F918F917F916F915F914F9170
S1130CC03F912F911F910F910F900BBE0F900FBE6C
S1130CD00F901F9018951F920F920FB60F92112428
S1130CE00BB60F922F933F934F935F936F937F9322
S1130CF08F939F93AF93BF93EF93FF93E09136014C
S1130D00F09137010995FF91EF91BF91AF919F91B8
S1130D108F917F916F915F914F913F912F910F90A0
S1130D200BBE0F900FBE0F901F9018951F920F923D
S1130D300FB60F9211240BB60F920F931F932F939C
S1130D403F934F935F936F937F938F939F93AF934F
S1130D50BF93CF93DF93EF93FF93C1E8D0E08881F3
S1130D6064E047DD182F888163E043DDC12FCC0F99
S1130D70CC0FCC0F24E0829FC0011124C82B00E8C3
S1130D8010E0F801808161E034DDD82FF801808122
S1130D9060E02FDDDD0F8C2B8D2B883010F080FF71
S1130DA006C0E0913801F0913901099505C0E09140
S1130DB03201F09133010995FF91EF91DF91CF91C9
S1130DC0BF91AF919F918F917F916F915F914F915F
S1130DD03F912F911F910F910F900BBE0F900FBE5B
S1130DE00F901F9018951F920F920FB60F92112417
S1130DF00BB60F922F933F934F935F936F937F9311
S1130E008F939F93AF93BF93EF93FF93E0913C0134
S1130E10F0913D010995FF91EF91BF91AF919F91A1
S1130E208F917F916F915F914F913F912F910F908F
S1130E300BBE0F900FBE0F901F9018951F920F922C
S1130E400FB60F9211240BB60F922F933F934F932B
S1130E505F936F937F938F939F93AF93BF93EF931E
S1130E60FF938091B10063E0C4DC81110BC08091D9
S1130E70B0008370823031F0E0913E01F0913F0187
S1130E80099505C0E0913C01F0913D010995FF9160
S1130E90EF91BF91AF919F918F917F916F915F91EE
S1130EA04F913F912F910F900BBE0F900FBE0F905B
S1130EB01F9018951F920F920FB60F9211240BB624
S1130EC00F922F933F934F935F936F937F938F93DF
S1130ED09F93AF93BF93EF93FF93E0914001F09101
S1130EE041010995FF91EF91BF91AF919F918F912E
S1130EF07F916F915F914F913F912F910F900BBE16
S1130F000F900FBE0F901F901895EF92FF920F93C2
S1130F101F93CF93DF93CDB7DEB729970FB6F8941D
S1130F20DEBF0FBECDBF4D835E836F837887898715
S1130F300E811F812885398519821A821B821C82A1
S1130F40413021F0423009F495C01EC1093F8FEFB2
S1130F5018072807310528F009831A832B833C835B
S1130F6015C0CE0101967C014D815E816F8178852B
S1130F708985B0DC909387008093860064E081E8E3
S1130F8090E01EDC63E081E890E01ADC89819A81BC
S1130F90AB81BC818C3F2FEF9207A207B10559F1B9
S1130FA060F4893F2FEF9207A207B10591F08A3FC1
S1130FB09F4FAF4FB105B1F038C08E3F2FEF92076E
S1130FC0A207B10509F18F3F9F4FAF4FB10529F13A
S1130FD02CC081E090E0A0E0B0E089839A83AB83E9
S1130FE0BC8323C082E090E0A0E0B0E089839A83D0
S1130FF0AB83BC831AC083E090E0A0E0B0E08983B7
S11310009A83AB83BC8311C084E090E0A0E0B0E09D
S113101089839A83AB83BC8308C085E090E0A0E019
S1131020B0E089839A83AB83BC8349815A816B8105
S11310307C817695679557954795769567955795ED
S11310404795417062E08AE391E0A2DB49815A81CD
S11310506B817C817695679557954795417061E0E2
S11310608AE391E095DB4981417060E08AE391E095
S11310708FDB8AC0093F8FEF18072807310528F056
S113108009831A832B833C830FC0CE0101967C0114
S11310904D815E816F81788589851CDC8093B300E6
S11310A061E080EB90E08CDB89819A81AB81BC812B
S11310B0FC013796E730F10508F042C0EA5BFF4FC8
S11310C00C94351381E090E0A0E0B0E089839A832A
S11310D0AB83BC8335C082E090E0A0E0B0E08983BC
S11310E09A83AB83BC832CC083E090E0A0E0B0E0A3
S11310F089839A83AB83BC8323C084E090E0A0E01F
S1131100B0E089839A83AB83BC831AC085E090E006
S1131110A0E0B0E089839A83AB83BC8311C086E0EE
S113112090E0A0E0B0E089839A83AB83BC8308C0DD
S113113087E090E0A0E0B0E089839A83AB83BC832E
S113114049815A816B817C8176956795579547953E
S11311507695679557954795417062E08BE391E0EA
S113116017DB49815A816B817C8176956795579508
S11311704795417061E08BE391E00ADB498141705E
S113118060E08BE391E004DB29960FB6F894DEBFB0
S11311900FBECDBFDF91CF911F910F91FF90EF90C4
S11311A00895CF93DF9300D000D01F92CDB7DEB760
S11311B0413019F04230D1F031C040913A0142FB44
S11311C0442740F962E081E890E0E2DA40913A0194
S11311D04695417061E081E890E0DADA40913A01A5
S11311E0417060E081E890E0D3DA18C040913B019F
S11311F042FB442740F962E081EB90E0C9DA409178
S11312003B014695417061E081EB90E0C1DA409189
S11312103B01417060E081EB90E0BADA0F900F90EF
S11312200F900F900F90DF91CF910895CF92DF929E
S1131230EF92FF920F931F93CF93DF9300D000D0D0
S11312401F92CDB7DEB749835A836B837C838D832A
S1131250022F413021F0423009F45EC095C00F2EB8
S1131260F1E8EF2EF12CF02DF701808164E0C1DA72
S1131270182FF701808163E0BCDA110F110F110FF1
S1131280F4E08F9FC0011124182B6894CC24C7F874
S1131290D12CF601808161E0ACDAF82EF601808170
S11312A060E0A7DAFF0C812B8F290130D9F028F0F8
S11312B0023021F1033039F167C0883038F48430CA
S11312C061F060E08FE690E07BDA5EC080FD05C0EF
S11312D065E08FE690E074DA57C061E08FE690E055
S11312E06FDA52C0883018F4843019F44DC080FD90
S11312F04BC061E08FE690E063DA46C062E08FE6BF
S113130090E05EDA41C0883010F080FF3DC065E0B7
S11313108FE690E055DA38C08091B10063E069DA75
S1131320182F0F2EF0EBEF2EF12CF02DF70180810A
S113133061E05FDA110F110F880F182BF70180811C
S113134060E057DA812B013091F018F00230C1F0DF
S11313501BC0843038F4823029F060E080E790E0EC
S11313602FDA12C061E080E790E02ADA0DC0843001
S113137058F4823049F061E080E790E021DA04C05B
S113138062E080E790E01CDA0F900F900F900F90CE
S11313900F90DF91CF911F910F91FF90EF90DF900D
S11313A0CF9008950F931F93CF93DF9300D000D075
S11313B01F92CDB7DEB7413019F0423051F011C061
S11313C0E22FF0E0EE0FFF1FEE5CFE4F118300836F
S11313D008C0E22FF0E0EE0FFF1FE45CFE4F118324
S11313E000830F900F900F900F900F90DF91CF918B
S11313F01F910F9108954F925F926F927F928F92F7
S11314009F92AF92BF92CF92DF92EF92FF92CF93CF
S1131410DF934B015C01EA010F2EF0E24F2EF1EA5B
S11314205F2EF7E06F2E712CF02DC301B201A501E0
S113143094010E94131369017A01C301B2010E944D
S11314401313CA01B901A5019401DBD9449730F4FF
S1131450D701C6010197A109B1090FC081E08883B2
S113146060E472E48FE090E0A50194010E941313FC
S1131470DA01C9010197A109B109DF91CF91FF9068
S1131480EF90DF90CF90BF90AF909F908F907F9020
S11314906F905F904F9008951F920F920FB60F9226
S11314A011240BB60F922F933F934F935F936F9337
S11314B07F938F939F93AF93BF93EF93FF93809109
S11314C0C10062E096D9813099F4E0914401F0E0E2
S11314D08091C1002091C600827090E0982F8827E7
S11314E0822BEE0FFF1FEB5BFE4F918380830CC0BA
S11314F0E0914401F0E08091C60090E0EE0FFF1F00
S1131500EB5BFE4F9183808380914401893030F4FA
S1131510809144018F5F8093440102C01092440182
S113152081E080935A01FF91EF91BF91AF919F9118
S11315308F917F916F915F914F913F912F910F9078
S11315400BBE0F900FBE0F901F9018951F920F9215
S11315500FB60F9211240BB60F922F933F934F9314
S11315605F936F937F938F939F93AF93BF93EF9307
S1131570FF939091430180914201981769F1809102
S1131580C10062E036D9813079F4E0914301F0E0A2
S1131590EE0FFF1FE55AFE4F80819181E1ECF0E0F0
S11315A080819170892B8083E0914301F0E0EE0FFC
S11315B0FF1FE55AFE4F808191818093C600809180
S11315C04301893030F4809143018F5F809343015C
S11315D007C01092430104C065E081EC90E0FCD8A0
S11315E0FF91EF91BF91AF919F918F917F916F91F7
S11315F05F914F913F912F910F900BBE0F900FBEB3
S11316000F901F9018951F920F920FB60F921124EE
S11316100BB60F928F939F93EF93FF9380E090E02C
S1131620FC01EE0FFF1FE55AFE4F11821082019656
S11316308A309105A9F71092430110924201FF915B
S1131640EF919F918F910F900BBE0F900FBE0F9053
S11316501F9018950F931F93CF93DF93CDB7DEB7E9
S11316602B970FB6F894DEBF0FBECDBF0A831B8342
S11316702C833D834E835F83688779878A879B8722
S11316801982011198C0192FE2ECF0E080818F7368
S113169080836B817C818D819E81AE014F5F5F4F22
S11316A0AADE9093C5008093C400498161E080EC78
S11316B090E06ED88985823031F128F4882349F08E
S11316C08130A1F046C0833059F1843009F435C02B
S11316D040C061E082EC90E07FD862E082EC90E070
S11316E07BD862E081EC90E077D833C061E082EC93
S11316F090E066D862E082EC90E06ED862E081EC23
S113170090E06AD826C061E082EC90E065D862E09F
S113171082EC90E055D862E081EC90E05DD819C08D
S113172061E082EC90E04CD862E082EC90E048D832
S113173062E081EC90E050D80CC061E082EC90E073
S11317403FD862E082EC90E03BD862E081EC90E02C
S113175037D84A8563E082EC90E01AD8123031F42D
S1131760E2ECF0E080818F7C808309C065E082EC4C
S113177090E026D8412F64E082EC90E009D88F8174
S1131780882351F0109259011092440110925A0189
S113179067E081EC90E014D88885882361F010928A
S11317A042011092430166E081EC90E009D865E0C3
S11317B081EC90E005D82B960FB6F894DEBF0FBEEF
S11317C0CDBFDF91CF911F910F9108950F931F9378
S11317D0CF93DF93CDB7DEB72A970FB6F894DEBF69
S11317E00FBECDBF6F8301110CC0452F64E081ECA7
S11317F090E00E94C8034F8163E081EC90E00E9476
S1131800C8032A960FB6F894DEBF0FBECDBFDF9192
S1131810CF911F910F910895EF92FF920F931F9311
S1131820CF93DF93CDB7DEB72A970FB6F894DEBF18
S11318300FBECDBF09831A832B833C834D835E8304
S11318406F83788789879A87011142C000EC10E082
S1131850F801808165E00E94F9038823C9F3E091CF
S11318604201F0E0EE0FFF1FE55AFE4FF182E082E5
S113187080914201893030F4809142018F5F8093DE
S1131880420102C0109242018091C00065E00E94B2
S1131890F9038130E9F480914301893030F4809177
S11318A043018F5F8093430102C01092430165E0BE
S11318B081EC90E00E94E0038885843039F4E1EC07
S11318C0F0E080819F2D9170892B8083E092C60087
S11318D02A960FB6F894DEBF0FBECDBFDF91CF912D
S11318E01F910F91FF90EF9008951F920F920FB6E2
S11318F00F9211240BB60F922F933F934F935F9344
S11319006F937F938F939F93AF93BF93EF93FF93C3
S1131910E0916F01F09170010995FF91EF91BF91F2
S1131920AF919F918F917F916F915F914F913F9173
S11319302F910F900BBE0F900FBE0F901F90189514
S1131940CF93DF9300D0CDB7DEB789836A8341E0BC
S1131950BE016F5F7F4F89E20E94B40241E0BE0185
S11319606E5F7F4F89E20E94B4020F900F90DF9167
S1131970CF910895CF93DF9300D01F92CDB7DEB7F8
S11319808B83872F90E021E0892B09F420E02983C1
S11319906A8341E0BE016D5F7F4F89E20E94B40219
S11319A042E0BE016F5F7F4F89E20E94B4020F9054
S11319B00F900F90DF91CF9108950F931F93CF93C2
S11319C0DF9300D000D01F92CDB7DEB78D83072FF1
S11319D011272227332781E0012B022B032B09F443
S11319E080E08983CB01AA27BB2721E0892B8A2B9E
S11319F08B2B09F420E02A83BB27A72F962F852F52
S1131A0021E0892B8A2B8B2B09F420E02B834C8338
S1131A1041E0BE016B5F7F4F89E20E94B40244E063
S1131A20BE016F5F7F4F89E20E94B4020F900F9056
S1131A300F900F900F90DF91CF911F910F91089508
S1131A40CF93DF9300D0CDB7DEB78A8341E0BE01E8
S1131A506E5F7F4F89E20E94B40241E0BE016F5F76
S1131A607F4F89E20E94350389810F900F90DF91A7
S1131A70CF910895CF93DF9300D01F92CDB7DEB7F7
S1131A808B8341E0BE016D5F7F4F89E20E94B40207
S1131A9042E0BE016F5F7F4F89E20E943503898176
S1131AA090E0982F88272A81822B0F900F900F9017
S1131AB0DF91CF910895FF920F931F93CF93DF93FC
S1131AC01F92CDB7DEB789838B01F42E41E0BE01AE
S1131AD06F5F7F4F89E20E94B4024F2DB80189E203
S1131AE00E94B4020F90DF91CF911F910F91FF904C
S1131AF00895FF920F931F93CF93DF931F92CDB757
S1131B00DEB789838B01F42E41E0BE016F5F7F4F06
S1131B1089E20E94B4024F2DB80189E20E94350384
S1131B200F90DF91CF911F910F91FF900895811134
S1131B3005C080E585DF8F5F880F0895813029F423
S1131B4080E77EDF8F5F880F08958FEF0895CF922F
S1131B50DF92EF92FF926B017C0161E080E8F0DE9E
S1131B6061E08FEFEDDE60E080E0EADE6091740119
S1131B7081E9E6DE61E080E0E3DE60E08FEFE0DE55
S1131B8060E080E8DDDEC114D104E104F10491F0E9
S1131B9088EF70DF009731F0DC01A70196017DD555
S1131BA06B017C01B701A60184E007DF64E080E0FB
S1131BB0C7DE03C062E080E0C3DEFF90EF90DF90F9
S1131BC0CF900895CF93DF9380910001909101010C
S1131BD09093730180937201C0E0D1E017C08091AB
S1131BE0050190910601009789F02881398140917F
S1131BF0720150917301241B350B8217930730F443
S1131C0081E0809304018FEF9FEF0DC083E118DF23
S1131C10877029F38EE12EDFD82FC92F61E08BE086
S1131C208FDE8D2F9C2FDF91CF910895EF92FF923D
S1131C300F931F93CF93DF937C018B0161E080E8C6
S1131C407FDE61E08FEF7CDE60E080E079DE66E0DD
S1131C508FEF76DE83E8F4DE682F646083E870DE5D
S1131C6067E08FEF6DDE61E081E86ADE61E080E8C5
S1131C7067DE6BE684E964DE60E083E861DE809120
S1131C800001909101019093730180937201C0E06F
S1131C90D1E011C08091050190910601009759F09F
S1131CA0288139814091720150917301241B350BB5
S1131CB08217930760F183E8C3DE882359F361E058
S1131CC083E83EDE82E9BCDE982F9F77F70190839C
S1131CD0881F8827881FF801808360E081E830DE50
S1131CE066E08FEF2DDE83E8ABDE682F6B7F83E841
S1131CF027DE61E08FEF24DE61E080E021DE60E03A
S1131D008FEF1EDE60E080E81BDE81E001C080E032
S1131D10DF91CF911F910F91FF90EF900895CF9392
S1131D20DF93EC0181E08CDE84FB992790F99883A2
S1131D3083FB992790F99A8382FB992790F99983D9
S1131D4086FB992790F99B83881F8827881F8C839B
S1131D50DF91CF9108959C013327A90102C0440F5C
S1131D60551F9A95E2F7CA01019608950F931F93A0
S1131D70009719F1AC014150510960E070E0DB01BA
S1131D80CA018827892B8A2B8B2B79F080E090E07D
S1131D90769567955795479501968A019B0100278B
S1131DA0012B022B032BA1F702C080E090E0982FB7
S1131DB088275527842B952B02C080E090E01F9143
S1131DC00F9108954F925F926F927F928F929F929C
S1131DD0AF92BF92CF92DF92EF92FF923C01A62F77
S1131DE0B0E020E03FE24AE350E057D46B017C01CD
S1131DF024EFC20E21E0D21EE11CF11C0F2EF8EEDE
S1131E008F2EF3E09F2EA12CB12CF02DC701B6012B
S1131E10A501940108D4D30140D42B013C01C7018E
S1131E20B60120ED37E040E050E0FDD3C301B2013C
S1131E30620F731F841F951FA5019401F4D3CA0177
S1131E40B901FF90EF90DF90CF90BF90AF909F903B
S1131E508F907F906F905F904F9008950F931F9392
S1131E60CF93DF938C01EB0180E061DE90E09983F6
S1131E70888386E4E5DD90E001969D838C83688108
S1131E80A1DF6A877B878C879D8781E5F3DD63DF2C
S1131E909F838E83688196DF6E877F87888B998B7B
S1131EA081E045DE90E09B838A8381E7E3DD53DFB5
S1131EB099878887F8012381222331F02E813F817D
S1131EC0821B930B998788876A81888599857ADF35
S1131ED06A8B7B8B8C8B9D8BDF91CF911F910F91A4
S1131EE008950F931F93CF93DF93CDB7DEB76B970E
S1131EF00FB6F894DEBF0FBECDBFCE0101960FDF43
S1131F00BE016A5F7F4FCE010196A8DF89818823D5
S1131F1059F088899989AA89BB89BC01CD016C577C
S1131F20724F8F4F9F4F04C066E37BE080E090E0E8
S1131F302B81222389F0088919892A893B890E5427
S1131F401D4F2F4F3F4F000F111F221F331F600FD4
S1131F50711F821F931F0FC02A81222361F00889F9
S1131F6019892A893B890C561D4F2F4F3F4F600F0B
S1131F70711F821F931F2C81222361F00C891D89FC
S1131F802E893F890C561D4F2F4F3F4F600F711FF5
S1131F90821F931F2D81222361F0088D198D2A8DB4
S1131FA03B8D0A5D1D4F2F4F3F4F600F711F821FE6
S1131FB0931F6093790170937A0180937B019093CE
S1131FC07C016B960FB6F894DEBF0FBECDBFDF91D8
S1131FD0CF911F910F9108958F929F92AF92BF92CC
S1131FE0CF92DF92EF92FF924B015C01A42FB0E0FD
S1131FF020E03FE24AE350E050D36B017C0124EF40
S1132000C20E21E0D21EE11CF11CA8EEB3E0A50132
S1132010940143D34B015C01C701B60120ED37E0C5
S113202040E050E000D3820E931EA41EB51EC701EB
S1132030B60128EE33E040E050E0F5D2C501B4012A
S1132040F2D2CA01B901FF90EF90DF90CF90BF9018
S1132050AF909F908F900895CF92DF92EF92FF926E
S11320601F93CF93DF93CDB7DEB76B970FB6F8947A
S1132070DEBF0FBECDBF60322EE47207810591052D
S113208008F479C06B017C01CE01019648DEBE01E3
S11320906A5F7F4FCE010196E1DE8981882349F092
S11320A088899989AA89BB898A5C944FAF4FBF4FAD
S11320B004C088EE98E0A0E0B0E02B81222389F0F0
S11320C0488959896A897B894E545D4F6F4F7F4F88
S11320D0440F551F661F771F840F951FA61FB71F38
S11320E00FC02A81222361F0488959896A897B8932
S11320F04C565D4F6F4F7F4F840F951FA61FB71F20
S11321001C81112361F04C895D896E897F894C564D
S11321105D4F6F4F7F4F840F951FA61FB71F2D81F3
S1132120222359F18A5D9D4FAF4FBF4FC816D90680
S1132130EA06FB0620F1A7019601281B390B4A0B7E
S11321405B0BCA01B901488547DF9B01112321F0CC
S11321502C853D85260F371FC90108DEBC0181E7A8
S113216009DCC0927901D0927A01E0927B01F0926D
S11321707C0181E005C080E003C081E001C080E013
S11321806B960FB6F894DEBF0FBECDBFDF91CF9133
S11321901F91FF90EF90DF90CF900895CF93DF933E
S11321A0682F616080E0CCDB809100019091010197
S11321B09093730180937201C0E0D1E011C08091CB
S11321C0050190910601009759F0288139814091C9
S11321D0720150917301241B350B8217930760F031
S11321E083E12EDC877059F361E08BE0A9DB60E0CA
S11321F080E0A6DB81E001C080E0DF91CF9108950B
S1132200CF93DF93CDB7DEB728970FB6F894DEBF30
S11322100FBECDBF882331F089E812DC682F6160DE
S113222089E88EDB60E088E88BDB61E080E888DBAE
S113223061E08FEF85DB60E080E082DB81E900DC38
S11322408093740161E080E07BDB60E08FEF78DBFA
S113225060E080E875DB80E6F3DB682F626180E68E
S11322606FDB60E270E084E485DB6FEF81E068DBC4
S1132270BE016E5F7F4FCE010196D8DC882309F43E
S11322807DC146E0BE016D5F7F4F80EB32DC61E0D3
S11322908FEF56DB60E08FE453DB6CE28EE450DBBF
S11322A060E08FEF4DDB64EB86EB4ADB8A818111C2
S11322B002C060E001C06CE0A98180E070E041E010
S11322C050E0861710F0A71318C0982F969596958E
S11322D09695E3E0F0E0EC0FFD1FE90FF11D982F58
S11322E097709A0102C0220F331F9A95E2F7922F3A
S11322F0909520819223908315C0982F969596955A
S11323009695E3E0F0E0EC0FFD1FE90FF11D20814D
S113231030E0982F977002C0359527959A95E2F78B
S113232020FD7F5F8F5F803361F646E0BE016D5F05
S11323307F4F80EBC0DB61E08FEF02DB60E080E089
S1132340FFDA60E08FEFFCDA60E089E0F9DA60E060
S113235080E1F6DA60E081E1F3DA61E084E2F0DA68
S11323606FEF85E2EDDA60E085E7EADA61E08FEFAE
S1132370E7DA6CE28EE4E4DA60E088E4E1DA60E271
S113238080E3DEDA60E08FEFDBDA69E080E3D8DA5D
S113239060E084E5D5DA64E081E3D2DA63E082E3E5
S11323A0CFDA63E880E4CCDA65E286E4C9DA60E097
S11323B080E6C6DA60E087E2C3DA66E080E5C0DA88
S11323C060E081E5BDDA66E982E5BADA68E086E5CF
S11323D0B7DA60E387E5B4DA60E081E6B1DA60E0B9
S11323E082E6AEDA60E084E6ABDA60E085E6A8DA9D
S11323F060EA86E6A5DA61E08FEFA2DA62E382E2C0
S11324009FDA64E187E49CDA6FEF89E499DA60E0AB
S11324108AE496DA60E08FEF93DA6AE08AE790DA8A
S113242060E08BE78DDA61E288E78ADA61E08FEFBA
S113243087DA64E383E284DA60E082E481DA6FEFCE
S113244084E47EDA66E285E47BDA65E086E478DAC1
S113245060E480E475DA66E08EE072DA6AE180E2D4
S11324606FDA60E483E46CDA60E08FEF69DA63E0EA
S113247084E366DA64E485E363DA61E08FEF60DACB
S113248064E081E35DDA69E08BE45ADA65E08CE4C8
S113249057DA64E08DE454DA60E08FEF51DA60E0FB
S11324A084E44EDA60E285E44BDA68E087E448DAF3
S11324B068E288E445DA60E087E642DA64E080E7CF
S11324C03FDA61E081E73CDA6EEF82E739DA60E017
S11324D086E736DA60E087E733DA61E08FEF30DAF7
S11324E061E08DE02DDA60E08FEF2ADA61E080E8C8
S11324F027DA68EF81E024DA61E08FEF21DA61E026
S11325008EE81EDA61E080E01BDA60E08FEF18DA13
S113251060E080E815DA64E08AE012DA84E890DAB0
S1132520682F6F7E84E80CDA61E08BE009DAD9DC8D
S11325306093790170937A0180937B0190937C017D
S113254068EE81E0FDD96091790170917A01809102
S11325507B0190917C0180DD61E081E0F1D980E430
S11325601DDE882359F062E081E0EAD980E016DEBE
S1132570882321F068EE81E0E3D981E028960FB644
S1132580F894DEBF0FBECDBFDF91CF910895CF93F6
S1132590DF9300D000D01F92CDB7DEB7E5E7F1E0BE
S11325A082E08083818381E082831382609175015C
S11325B07091760180917701909178010E94C30116
S11325C080EA582F41E066E871E080E00E947702DB
S11325D00F900F900F900F900F90DF91CF9108956F
S11325E060917501709176018091770190917801E5
S11325F00E94F6010E94AF0281E002DE84EF91E0C6
S1132600909306018093050160E070E0CB019FCABE
S11326100895D8DA2091040110920401222311F0C4
S11326208FEF9FEF0895A1E21A2EAA1BBB1BFD0199
S11326300DC0AA1FBB1FEE1FFF1FA217B307E4079D
S1132640F50720F0A21BB30BE40BF50B661F771FF5
S1132650881F991F1A9469F76095709580959095D5
S11326609B01AC01BD01CF010895EE0FFF1F0024B3
S1132670001C0BBE0790F691E02D0994A29FB001B7
S1132680B39FC001A39F700D811D1124911DB29FA2
S1132690700D811D1124911D0895F0DFA59F900DEB
S11326A0B49F900DA49F800D911D11240895F8945A
S10526B0FFCF56
S9030000FC
