S0160000496D706C656D656E746174696F6E2E7372656348
S11300004CC000003FC1000047C100004FC10000C8
S113001011C1000019C1000021C1000029C1000064
S11300200C94E10AA2C60000DCC6000073C60000FE
S113003014C6000087C50000E5C5000058C50000CF
S11300404AC0000048C0000046C0000091C3000040
S113005042C0000040C000003EC000003CC00000A0
S11300603AC0000038C0000036C0000034C00000B0
S113007032C0000030C000002EC000002CC00000C0
S11300802AC0000028C0000026C00000F9070208AA
S11300900B0814081D0826082F0811241FBECFEFD3
S11300A0D0E4DEBFCDBF11E0A0E0B1E0E2E9F6E2CA
S11300B000E00BBF02C007900D92A030B107D9F742
S11300C021E0A0E0B1E001C01D92A035B207E1F744
S11300D003D00C94471394CF89D00E940C0B02D008
S11300E04FD0FFCF0F931F93E4E0F1E088EE582F39
S11300F0818383E082831382148281E0482F80838A
S113010060910601709107018091080195D60FEE68
S113011012E120E040910401509105016091060133
S113012070910701809108010E94690920E04091C3
S113013004015091050160910601709107018091BD
S113014008010E94AD08409104015091050160919D
S113015006017091070180910801BAD7E9E0F1E046
S113016089E2808384E690E09283818382E08483C1
S113017085837894CF010E9427101F910F910895D1
S113018089E091E00E944E104EE150E060E070E0A2
S113019089E091E00E948C12C0E00BC089E091E0FC
S11301A00E94D5128F3F2FEF920719F00E94440B43
S11301B0CF5FC43698F389E091E00E9484128FEFF8
S11301C09DE329E4815090402040E1F700C0000005
S11301D089E091E00E944E104EE150E060E070E052
S11301E089E091E00E948C12C0E0E3CF80E885BFF3
S11301F085BF0895613061F028F0623079F0633092
S113020099F00895482F672F81E290E058C208952D
S1130210482F672F84E290E052C20895482F672F39
S113022087E290E04CC20895482F672F8AE290E05D
S113023046C208951F920F920FB60F9211240F9089
S11302400FBE0F901F9018951F920F920FB60F922A
S113025011240F900FBE0F901F9018951F920F92AC
S11302600FB60F9211240F900FBE0F901F90189588
S11302701F920F920FB60F9211240F900FBE0F9082
S11302801F9018951F920F920FB60F9211240F9082
S11302900FBE0F901F9018951F920F920FB60F92DA
S11302A011240F900FBE0F901F9018951F920F925C
S11302B00FB60F9211240F900FBE0F901F90189538
S11302C00F931F93CF93DF93C62F172FD82F092F88
S11302D091DFD11123C0C13081F028F0C23099F0F0
S11302E0C330B9F01BC0402F612F82E290E0E7D108
S11302F0612F8EE790E007D211C0402F612F85E275
S113030090E0DDD10BC0402F612F88E290E0D7D17F
S113031005C0402F612F8BE290E0D1D1DF91CF91C6
S11303201F910F91089521E0FC0122836081718166
S1130330828193815FCF0895613059F028F0623053
S113034069F0633081F00895672F82E290E0CFC1B5
S11303500895672F85E290E0CAC10895672F88E267
S113036090E0C5C10895672F8BE290E0C0C1089565
S1130370613059F028F0623069F0633081F00895FB
S1130380672F82E290E0BFC10895672F85E290E075
S1130390BAC10895672F88E290E0B5C10895672F28
S11303A08BE290E0B0C108950F931F93CF93DF9336
S11303B08B019C01EA0160E072E18AE790E0A90107
S11303C098010E940313BA01A9014051510961091E
S11303D07109DB01CA01B695A795979587958F3F5B
S11303E09105A105B10509F010F4188232C0DB01B2
S11303F0CA01689412F8B695A795979587951694AF
S1130400D1F78F3F9105A105B10509F018F421E05A
S113041028831FC0DB01CA01689414F8B695A79518
S1130420979587951694D1F78F3F9105A105B1054E
S113043009F018F422E028830CC083E08883DB01F0
S1130440CA01689416F8B695A7959795879516945A
S1130450D1F7DF91CF911F910F910895CF93DF933F
S11304601F92CDB7DEB7AE014F5F5F4F9DDF809324
S1130470B80060E0898154D1482F60E089EB90E0B6
S11304801ED161E089814CD1482F61E089EB90E075
S113049016D162E071E080E091E012DF62E070E08A
S11304A080E091E00DDF0F90DF91CF91089562E03D
S11304B08CEB90E01CC10895FF920F931F93CF9390
S11304C0DF93F82ECCEBD0E0888162E029D128813B
S11304D034E0839FC0011124806A822B8883CEEF8D
S11304E0DFEF0CEB10E0F801808167E019D1811196
S11304F033C02197C1F78FEF3BC08091B900887F4B
S1130500803121F08091B900887F32C0F092BB0025
S1130510CCEBD0E0888162E003D1F4E08F9FC0018E
S1130520112480688883CEEFDFEF0CEB10E0F80134
S1130530808167E0F5D0811115C02197C1F78FEF55
S113054017C08091B900887F803421F08091B90070
S1130550887F0EC080E00CC08091B900887F88300D
S113056061F6D4CF8091B900887F883151F780E05B
S1130570DF91CF911F910F91FF9008959DCF089522
S11305800F931F93CF93DF93CCEBD0E0888162E08D
S1130590C7D0288134E0839FC00111248069822B55
S11305A08883CEEFDFEF0CEB10E0F801808164E08C
S11305B0B7D0882311F02197C1F7DF91CF911F9114
S11305C00F9108950F931F93CF93DF938093BB00F4
S11305D0CCEBD0E0888162E0A3D024E0829FC0010C
S11305E0112480688883CEEFDFEF0CEB10E0F80174
S11305F0808167E095D081110FC02197C1F78FEFFB
S113060011C08091B900887F803421F08091B900B5
S1130610887F08C080E006C08091B900887F883157
S113062081F780E0DF91CF911F910F9108950F938F
S11306301F93CF93DF93CCEBD0E0888162E070D03E
S113064024E0829FC0011124806C8883CEEFDFEF09
S11306500CEB10E0F801808167E062D0882319F088
S11306608091BB0003C02197A9F78FEFDF91CF9151
S11306701F910F9108950F931F93CF93DF93CCEBAA
S1130680D0E0888162E04CD024E0829FC001112434
S113069080688883CEEFDFEF0CEB10E0F8018081F7
S11306A067E03ED0882319F08091BB0003C02197F6
S11306B0A9F78FEFDF91CF911F910F910895FC015E
S11306C0942F208141E050E0062E02C0440F551FB4
S11306D00A94E2F7409550952423492F50E002C034
S11306E0440F551F6A95E2F7422B40830895FC019D
S11306F0408121E030E002C0220F331F6A95E2F707
S1130700242B20830895FC01908121E030E002C075
S1130710220F331F6A95E2F7209529232083089539
S113072090E002C0959587956A95E2F781700895E7
S1130730CF92DF92EF92FF9269017A019B01AC01A3
S11307402C193D094E095F09A8EEB3E00E943D1340
S1130750A70196010E940313C901992324F4882751
S11307609927821B930BFF90EF90DF90CF90089511
S11307701F920F920FB60F9211240BB60F928F9304
S11307809F93EF93FF93E0911901F0E08EB5E65E3D
S1130790FE4F808380911901893030F480911901D2
S11307A08F5F8093190102C01092190181E0809338
S11307B018019091160180912F019817A1F0E091F2
S11307C01601F0E0EC5DFE4F80818EBD8091160134
S11307D0893030F4809116018F5F8093160106C032
S11307E01092160103C081E080932E01FF91EF91D6
S11307F09F918F910F900BBE0F900FBE0F901F9083
S113080018958F929F92AF92BF92EF92FF920F939F
S11308101F93CF93DF9300D000D01F92CDB7DEB7E4
S113082048015901413021F0423009F488C04CC1DB
S113083060E072E18AE790E0A90198010E94031345
S1130840DA01C9010197A109B109009721E0A207C2
S1130850B10550F449EF5FEF6FEF70E0F7014083AB
S113086051836283738333C160E472E48FE090E068
S1130870A50194010E940313DA01C9010197A1099A
S1130880B1090097F1E0AF07B10550F44AEF5FEF0B
S11308906FEF70E0F701408351836283738317C164
S11308A068E478EE81E090E0A50194010E940313CE
S11308B0DA01C9010197A109B1090097F1E0AF0775
S11308C0B10550F44CEF5FEF6FEF70E0F701408338
S11308D0518362837383FBC062E17AE780E090E036
S11308E0A50194010E940313DA01C9010197A1092A
S11308F0B1090097F1E0AF07B10550F44EEF5FEF97
S11309006FEF70E0F7014083518362837383DFC02C
S11309108FEF9FEFAFEFB0E0F70180839183A28365
S1130920B38364E87EE180E090E0A50194010E9435
S11309300313DA01C9010197A109B109C8C060E034
S113094072E18AE790E0A90198010E940313DA0199
S1130950C9010197A109B1098F3F9105A105B1050D
S113096009F050F449EF5FEF6FEF70E0F701408357
S1130970518362837383ABC060E472E48FE090E0E0
S1130980A50194010E940313DA01C9010197A10989
S1130990B1098F3F9105A105B10509F050F44AEF63
S11309A05FEF6FEF70E0F7014083518362837383DD
S11309B08EC060E970ED83E090E0A50194010E948F
S11309C00313DA01C9010197A109B1098F3F910508
S11309D0A105B10509F050F44BEF5FEF6FEF70E044
S11309E0F701408351836283738371C068E478EEB6
S11309F081E090E0A50194010E940313DA01C9018A
S1130A000197A109B1098F3F9105A105B10509F02D
S1130A1050F44CEF5FEF6FEF70E0F70140835183C8
S1130A206283738354C064E274EF80E090E0A501B4
S1130A3094010E940313DA01C9010197A109B109C4
S1130A408F3F9105A105B10509F050F44DEF5FEF1B
S1130A506FEF70E0F701408351836283738337C083
S1130A6062E17AE780E090E0A50194010E9403131B
S1130A70DA01C9010197A109B1098F3F9105A105C7
S1130A80B10509F050F44EEF5FEF6FEF70E0F7013E
S1130A9040835183628373831AC08FEF9FEFAFEF5C
S1130AA0B0E0F70180839183A283B38364E87EE19D
S1130AB080E090E0A50194010E940313DA01C901CA
S1130AC00197A109B10903C080E090E0DC010F9017
S1130AD00F900F900F900F90DF91CF911F910F9176
S1130AE0FF90EF90BF90AF909F908F9008951F92CA
S1130AF00F920FB60F9211240BB60F922F933F93C0
S1130B004F935F936F937F938F939F93AF93BF9311
S1130B10EF93FF93E0913001F09131010995FF913A
S1130B20EF91BF91AF919F918F917F916F915F9161
S1130B304F913F912F910F900BBE0F900FBE0F90CE
S1130B401F9018951F920F920FB60F9211240BB697
S1130B500F920F931F932F933F934F935F936F9332
S1130B607F938F939F93AF93BF93CF93DF93EF9331
S1130B70FF93C1E8D0E0888164E0D2DD182F88813A
S1130B8063E0CEDDC12FCC0FCC0FCC0F24E0829FCD
S1130B90C0011124C82B00E810E0F801808161E055
S1130BA0BFDDD82FF801808160E0BADDDD0F8C2B2A
S1130BB08D2B883018F4843019F408C080FD06C0E9
S1130BC0E0913201F0913301099505C0E0913001C3
S1130BD0F09131010995FF91EF91DF91CF91BF9190
S1130BE0AF919F918F917F916F915F914F913F91C1
S1130BF02F911F910F910F900BBE0F900FBE0F906E
S1130C001F9018951F920F920FB60F9211240BB6D6
S1130C100F922F933F934F935F936F937F938F9391
S1130C209F93AF93BF93EF93FF93E0913401F091BF
S1130C3035010995FF91EF91BF91AF919F918F91EC
S1130C407F916F915F914F913F912F910F900BBEC8
S1130C500F900FBE0F901F9018951F920F920FB612
S1130C600F9211240BB60F920F931F932F933F9360
S1130C704F935F936F937F938F939F93AF93BF93A0
S1130C80CF93DF93EF93FF93C1E8D0E0888164E0D2
S1130C9047DD182F888163E043DDC12FCC0FCC0FD3
S1130CA0CC0F24E0829FC0011124C82B00E810E07F
S1130CB0F801808161E034DDD82FF801808160E0A3
S1130CC02FDDDD0F8C2B8D2B883010F080FF06C0BC
S1130CD0E0913601F0913701099505C0E0913001AA
S1130CE0F09131010995FF91EF91DF91CF91BF917F
S1130CF0AF919F918F917F916F915F914F913F91B0
S1130D002F911F910F910F900BBE0F900FBE0F905C
S1130D101F9018951F920F920FB60F9211240BB6C5
S1130D200F922F933F934F935F936F937F938F9380
S1130D309F93AF93BF93EF93FF93E0913A01F091A8
S1130D403B010995FF91EF91BF91AF919F918F91D5
S1130D507F916F915F914F913F912F910F900BBEB7
S1130D600F900FBE0F901F9018951F920F920FB601
S1130D700F9211240BB60F922F933F934F935F93CF
S1130D806F937F938F939F93AF93BF93EF93FF934F
S1130D908091B10063E0C4DC81110BC08091B0008C
S1130DA08370823031F0E0913C01F0913D0109956E
S1130DB005C0E0913A01F0913B010995FF91EF9153
S1130DC0BF91AF919F918F917F916F915F914F915F
S1130DD03F912F910F900BBE0F900FBE0F901F905D
S1130DE018951F920F920FB60F9211240BB60F9203
S1130DF02F933F934F935F936F937F938F939F931F
S1130E00AF93BF93EF93FF93E0913E01F0913F01C5
S1130E100995FF91EF91BF91AF919F918F917F9130
S1130E206F915F914F913F912F910F900BBE0F9057
S1130E300FBE0F901F901895EF92FF920F931F9380
S1130E40CF93DF93CDB7DEB729970FB6F894DEBF03
S1130E500FBECDBF4D835E836F83788789870E81F4
S1130E601F812885398519821A821B821C82413090
S1130E7021F0423009F495C01EC1093F8FEF1807D5
S1130E802807310528F009831A832B833C8315C076
S1130E90CE0101967C014D815E816F8178858985C3
S1130EA0B0DC909387008093860064E081E890E052
S1130EB01EDC63E081E890E01ADC89819A81AB81D1
S1130EC0BC818C3F2FEF9207A207B10559F160F462
S1130ED0893F2FEF9207A207B10591F08A3F9F4FF8
S1130EE0AF4FB105B1F038C08E3F2FEF9207A20784
S1130EF0B10509F18F3F9F4FAF4FB10529F12CC0C8
S1130F0081E090E0A0E0B0E089839A83AB83BC8366
S1130F1023C082E090E0A0E0B0E089839A83AB83B1
S1130F20BC831AC083E090E0A0E0B0E089839A8398
S1130F30AB83BC8311C084E090E0A0E0B0E089837F
S1130F409A83AB83BC8308C085E090E0A0E0B0E066
S1130F5089839A83AB83BC8349815A816B817C8169
S1130F6076956795579547957695679557954795DF
S1130F70417062E088E391E0A2DB49815A816B8190
S1130F807C817695679557954795417061E088E334
S1130F9091E095DB4981417060E088E391E08FDB6B
S1130FA08AC0093F8FEF18072807310528F0098305
S1130FB01A832B833C830FC0CE0101967C014D81A3
S1130FC05E816F81788589851CDC8093B30061E044
S1130FD080EB90E08CDB89819A81AB81BC81FC0140
S1130FE03796E730F10508F042C0EA5BFF4F0C94F6
S1130FF0251381E090E0A0E0B0E089839A83AB837D
S1131000BC8335C082E090E0A0E0B0E089839A839D
S1131010AB83BC832CC083E090E0A0E0B0E0898384
S11310209A83AB83BC8323C084E090E0A0E0B0E06B
S113103089839A83AB83BC831AC085E090E0A0E0E7
S1131040B0E089839A83AB83BC8311C086E090E0CF
S1131050A0E0B0E089839A83AB83BC8308C087E0B7
S113106090E0A0E0B0E089839A83AB83BC8349819C
S11310705A816B817C8176956795579547957695CE
S1131080679557954795417062E089E391E017DBD6
S113109049815A816B817C817695679557954795EF
S11310A0417061E089E391E00ADB4981417060E0CD
S11310B089E391E004DB29960FB6F894DEBF0FBEF6
S11310C0CDBFDF91CF911F910F91FF90EF900895C5
S11310D0CF93DF9300D000D01F92CDB7DEB741305D
S11310E019F04230D1F031C04091380142FB44271D
S11310F040F962E081E890E0E2DA409138014695F7
S1131100417061E081E890E0DADA409138014170A1
S113111060E081E890E0D3DA18C04091390142FBE5
S1131120442740F962E081EB90E0C9DA409139014B
S11311304695417061E081EB90E0C1DA409139015C
S1131140417060E081EB90E0BADA0F900F900F905D
S11311500F900F90DF91CF910895CF92DF92EF928D
S1131160FF920F931F93CF93DF9300D000D01F9271
S1131170CDB7DEB749835A836B837C838D83022F7B
S1131180413021F0423009F45EC095C00F2EF1E8E1
S1131190EF2EF12CF02DF701808164E0C1DA182FD5
S11311A0F701808163E0BCDA110F110F110FF4E035
S11311B08F9FC0011124182B6894CC24C7F8D12C1C
S11311C0F601808161E0ACDAF82EF601808160E0FE
S11311D0A7DAFF0C812B8F290130D9F028F00230D7
S11311E021F1033039F167C0883038F4843061F07C
S11311F060E08FE690E07BDA5EC080FD05C065E0CC
S11312008FE690E074DA57C061E08FE690E06FDA21
S113121052C0883018F4843019F44DC080FD4BC09E
S113122061E08FE690E063DA46C062E08FE690E02A
S11312305EDA41C0883010F080FF3DC065E08FE683
S113124090E055DA38C08091B10063E069DA182F74
S11312500F2EF0EBEF2EF12CF02DF701808161E0E1
S11312605FDA110F110F880F182BF701808160E0EE
S113127057DA812B013091F018F00230C1F01BC015
S1131280843038F4823029F060E080E790E02FDA8F
S113129012C061E080E790E02ADA0DC0843058F48F
S11312A0823049F061E080E790E021DA04C062E036
S11312B080E790E01CDA0F900F900F900F900F9042
S11312C0DF91CF911F910F91FF90EF90DF90CF901E
S11312D008950F931F93CF93DF9300D000D01F92F4
S11312E0CDB7DEB7413019F0423051F011C0E22FD2
S11312F0F0E0EE0FFF1FE05DFE4F1183008308C096
S1131300E22FF0E0EE0FFF1FE65CFE4F1183008337
S11313100F900F900F900F900F90DF91CF911F912E
S11313200F9108954F925F926F927F928F929F9246
S1131330AF92BF92CF92DF92EF92FF92CF93DF935F
S11313404B015C01EA010F2EF0E24F2EF1EA5F2E11
S1131350F7E06F2E712CF02DC301B201A5019401A9
S11313600E94031369017A01C301B2010E940313AD
S1131370CA01B901A5019401DBD9449730F4D7011E
S1131380C6010197A109B1090FC081E0888360E417
S113139072E48FE090E0A50194010E940313DA0146
S11313A0C9010197A109B109DF91CF91FF90EF9095
S11313B0DF90CF90BF90AF909F908F907F906F9071
S11313C05F904F9008950F931F93CF93DF93CDB702
S11313D0DEB72B970FB6F894DEBF0FBECDBF0A83DE
S11313E01B832C833D834E835F83688779878A8739
S11313F09B87198201117CC0192FE2ECF0E08081F7
S11314008F7380836B817C818D819E81AE014F5F60
S11314105F4F88DF9093C5008093C400498161E0E9
S113142080EC90E04CD98985823031F128F488230E
S113143049F08130A1F046C0833059F1843009F479
S113144035C040C061E082EC90E05DD962E082EC9E
S113145090E059D962E081EC90E055D933C061E065
S113146082EC90E044D962E082EC90E04CD962E0F6
S113147081EC90E048D926C061E082EC90E043D949
S113148062E082EC90E033D962E081EC90E03BD9F9
S113149019C061E082EC90E02AD962E082EC90E02D
S11314A026D962E081EC90E02ED90CC061E082EC98
S11314B090E01DD962E082EC90E019D962E081EC01
S11314C090E015D94A8563E082EC90E0F8D81230B8
S11314D031F4E2ECF0E080818F7C808309C065E028
S11314E082EC90E004D9412F64E082EC90E0E7D8EC
S11314F02B960FB6F894DEBF0FBECDBFDF91CF9110
S11315001F910F9108950F931F93CF93DF93CDB73E
S1131510DEB72A970FB6F894DEBF0FBECDBF6F8338
S113152001110AC0452F64E081EC90E0C8D84F81D6
S113153063E081EC90E0C3D82A960FB6F894DEBF3E
S11315400FBECDBFDF91CF911F910F910895EF9200
S1131550FF920F931F93CF93DF93CDB7DEB72A97F4
S11315600FB6F894DEBF0FBECDBF09831A832B8359
S11315703C834D835E836F83788789879A870111C3
S113158013C000EC10E0F801808165E0C9D888231D
S1131590D1F38885843031F44F2D417060E081ECC3
S11315A090E08DD8E092C6002A960FB6F894DEBF7C
S11315B00FBECDBFDF91CF911F910F91FF90EF90A0
S11315C008951F920F920FB60F9211240BB60F922B
S11315D02F933F934F935F936F937F938F939F9337
S11315E0AF93BF93EF93FF93E0914001F0914101DA
S11315F00995FF91EF91BF91AF919F918F917F9149
S11316006F915F914F913F912F910F900BBE0F906F
S11316100FBE0F901F9018950F931F93E2E4F1E013
S113162080E0182F818381EE82831382148283E009
S1131630782F878392E0918710821086158281E04B
S1131640682F868300E02091440130914501409148
S1131650460150E080E0B7DE009142011091430161
S11316602091440130914501409146015091470138
S1131670609148017091490180914A0190914B0118
S113168042DF1F910F910895CF92DF92EF92FF9264
S11316900F931F93CF93DF93EC019C013295229516
S11316A02F7023273F702327A7E4B3E0D7D77C010B
S11316B0F694E794F694E794F694E7949701ADECE6
S11316C0BCECCCD7969587959695879596958795F6
S11316D09C01220F331F880F991F880F991F880FB1
S11316E0991F820F931FE81AF90A80E3E80EF11C90
S11316F00091420110914301209144013091450130
S1131700409146015091470160914801709149010F
S113171080914A0190914B011ADF9E0136952795DD
S11317203695279536952795A5ECB0E297D77C0199
S1131730F694E794F694E794F694E794F694E79491
S11317409701ADECBCEC8AD79695879596958795CD
S1131750969587959C01220F331F880F991F880F38
S1131760991F880F991F820F931FE81AF90A80E3C3
S1131770E80EF11C009142011091430120914401B3
S113178030914501409146015091470160914801D3
S11317907091490180914A0190914B01D8DE9E01DC
S11317A03695279536952795ABE7B4E157D77C0155
S11317B0F694E7949701ADECBCEC50D796958795D9
S11317C096958795969587959C01220F331F880FD0
S11317D0991F880F991F880F991F820F931FE81A6A
S11317E0F90A80E3E80EF11C0091420110914301D3
S11317F020914401309145014091460150914701A7
S1131800609148017091490180914A0190914B0186
S11318109EDE9E01ADECBCEC21D76C01D694C7943E
S1131820D694C794D694C794960118D7969587955D
S113183096958795969587959C01220F331F880F5F
S1131840991F880F991F880F991F820F931F760184
S1131850E81AF90A80E3E80EF11C009142011091A4
S1131860430120914401309145014091460150913A
S11318704701609148017091490180914A0190911A
S11318804B0165DEC601880F991FCC0CDD1CCC0C06
S1131890DD1CCC0CDD1CC80ED91E7E01EC18FD0825
S11318A080E3E80EF11C0091420110914301209164
S11318B044013091450140914601509147016091A6
S11318C048017091490180914A0190914B013FDE9A
S11318D00F2EFAE0EF2EF12CF02D00914201109121
S11318E043012091440130914501409146015091BA
S11318F04701609148017091490180914A0190919A
S11319004B0125DEDF91CF911F910F91FF90EF9056
S1131910DF90CF90089540910001509101016091B2
S1131920020170910301FC015187408708950F93D0
S11319301F93FC014181528141155105C1F0009171
S11319400001109101012091020130910301808571
S11319509185081B190B2109310960E070E081E0D1
S1131960401751076207730718F080E001C080E058
S11319701F910F910895CF93DF93D62FC42FFC01AD
S11319808081880F0E945C028D2F0E94E2028C2FBE
S11319900E94E2020E94C002DF91CF9108951F933A
S11319A0CF93DF93162FC42FD52FFC018081880F8E
S11319B00E945C02812F0E94E2028D2F0E94E202AB
S11319C08C2F0E94E2020E94C002DF91CF911F91EE
S11319D00895FF920F931F93CF93DF93F62EC22F98
S11319E0D32F142F052FFC018081880F0E945C02E5
S11319F08F2D0E94E202802F0E94E202812F0E941A
S1131A00E2028D2F0E94E2028C2F0E94E2020E94C9
S1131A10C002DF91CF911F910F91FF9008951F9302
S1131A20CF93DF93EC01162F8881880F0E945C020C
S1131A30812F0E94E2028881880F81600E94BE0289
S1131A400E943B03C82F0E94C0028C2FDF91CF91CC
S1131A501F9108951F93CF93DF93EC01162F888174
S1131A60880F0E945C02812F0E94E2028881880F05
S1131A7081600E94BE020E941703C82FD0E0DC2FB1
S1131A80CC270E943B03C82B0E94C002CE01DF91E9
S1131A90CF911F910895EF92FF920F931F93CF93CD
S1131AA0DF93D62F7A01C22FFC018081880F0E9418
S1131AB05C028D2F0E94E2028FEF8C0FCC2369F021
S1131AC0E701082F10E00F5F1F4F0E0D1F1D8991B6
S1131AD00E94E202C017D107D1F70E94C002DF9131
S1131AE0CF911F910F91FF90EF900895EF92FF9285
S1131AF00F931F93CF93DF938C01D62FE42EF52EF3
S1131B00C22FFC018081880F0E945C028D2F0E94ED
S1131B10E202F8018081880F81600E94BE02CC231A
S1131B2091F00E2D1F2DC23028F00E941703F801EA
S1131B30808304C00E943B03F8018083C1500F5F7F
S1131B401F4FC111F0CF0E94C002DF91CF911F91AE
S1131B500F91FF90EF900895EF92FF920F931F93D0
S1131B60CF93DF93EC017B018A0141E060E803DF5E
S1131B7041E06FEFCE01FFDE40E060E0CE01FBDE2E
S1131B8046E06FEFCE01F7DE63E8CE0148DF482F71
S1131B90446063E8CE01EFDE47E06FEFCE01EBDE99
S1131BA041E061E8CE01E7DE41E060E8CE01E3DE3A
S1131BB04BE664E9CE01DFDE40E063E8CE01DBDE24
S1131BC0CE01A9DE04C0CE01B2DE811137C063E8C4
S1131BD0CE0125DF8823B9F341E063E8CE01CBDEF3
S1131BE062E9CE011CDF982F9F77F7019083881F4D
S1131BF08827881FF801808340E061E8CE01BBDEBE
S1131C0046E06FEFCE01B7DE63E8CE0108DF482F70
S1131C104B7F63E8CE01AFDE41E06FEFCE01ABDE78
S1131C2041E060E0CE01A7DE40E06FEFCE01A3DE2D
S1131C3040E060E8CE019FDE81E001C080E0DF91FA
S1131C40CF911F910F91FF90EF900895CF93DF9361
S1131C50EB0161E0E4DE84FB992790F9988383FB30
S1131C60992790F99A8382FB992790F9998386FBA7
S1131C70992790F99B83881F8827881F8C83DF917D
S1131C80CF9108950F931F93009719F1AC01415020
S1131C90510960E070E0DB01CA018827892B8A2B97
S1131CA08B2B79F080E090E0769567955795479572
S1131CB001968A019B010027012B022B032BA1F71C
S1131CC002C080E090E0982F88275527842B952B1D
S1131CD002C080E090E01F910F9108959C0133278A
S1131CE0A90102C0440F551F9A95E2F7CA01019653
S1131CF008954F925F926F927F928F929F92AF92CC
S1131D00BF92CF92DF92EF92FF923C01A62FB0E0F8
S1131D1020E03FE24AE350E0B0D46B017C0124EFC1
S1131D20C20E21E0D21EE11CF11C0F2EF8EE8F2E04
S1131D30F3E09F2EA12CB12CF02DC701B601A50113
S1131D40940161D4D30199D42B013C01C701B6019C
S1131D5020ED37E040E050E056D4C301B201620FF9
S1131D60731F841F951FA50194014DD4CA01B901A5
S1131D70FF90EF90DF90CF90BF90AF909F908F90A7
S1131D807F906F905F904F900895611105C060E55A
S1131D9046DE8F5F880F0895613029F460E73FDEE7
S1131DA08F5F880F08958FEF0895EF92FF920F933E
S1131DB01F93CF93DF938C017B01EA0160E0E5DFA1
S1131DC090E09983888366E4C80129DE90E0019657
S1131DD09D838C8368818DDF6A877B878C879D8751
S1131DE061E5C80137DE7ADF9F838E83688181DFF6
S1131DF06E877F87888B998B61E0C801C6DF90E08E
S1131E009B838A8361E7C80125DE68DF9987888719
S1131E10F7012381222331F02E813F81821B930B12
S1131E20998788876A818885998563DF6A8B7B8B2C
S1131E308C8B9D8BDF91CF911F910F91FF90EF9031
S1131E4008958F929F92AF92BF92CF92DF92EF92BA
S1131E50FF924B015C01A42FB0E020E03FE24AE393
S1131E6050E00BD46B017C0124EFC20E21E0D21EA2
S1131E70E11CF11CA8EEB3E0A5019401FED34B01D3
S1131E805C01C701B60120ED37E040E050E0BBD370
S1131E90820E931EA41EB51EC701B60128EE33E0C0
S1131EA040E050E0B0D3C501B401ADD3CA01B901DB
S1131EB0FF90EF90DF90CF90BF90AF909F908F9066
S1131EC00895CF93DF93EC01462F416060E053DD2A
S1131ED0CE0121DD04C0CE012ADD81110FC063E1F2
S1131EE0CE019DDD8770B9F341E06BE0CE0143DDA7
S1131EF040E060E0CE013FDD81E001C080E0DF91A1
S1131F00CF9108958F929F92AF92BF92DF92EF92FA
S1131F10FF920F931F93CF93DF93CDB7DEB76B97E9
S1131F200FB6F894DEBF0FBECDBF40322EE4520789
S1131F306105710508F474C04A015B017C01BE01AE
S1131F406F5F7F4F83DEAE014A5F5F4FBE016F5FFD
S1131F507F4FC7012ADF8981882349F008891989BD
S1131F602A893B890A5C144F2F4F3F4F04C008EE67
S1131F7018E020E030E08B81882389F088899989F2
S1131F80AA89BB898E549D4FAF4FBF4F880F991FAD
S1131F90AA1FBB1F080F191F2A1F3B1F0FC08A81CE
S1131FA0882361F088899989AA89BB898C569D4FB9
S1131FB0AF4FBF4F080F191F2A1F3B1FDC80DD20C6
S1131FC061F08C899D89AE89BF898C569D4FAF4F36
S1131FD0BF4F080F191F2A1F3B1F8D81882311F142
S1131FE00A5D1D4F2F4F3F4F80169106A206B30680
S1131FF0D8F0C501B401601B710B820B930B4885AB
S113200020DF9B01DD2021F02C853D85260F371F25
S1132010C90138DEAC0161E7C701C1DC81E005C05C
S113202080E003C081E001C080E06B960FB6F894B5
S1132030DEBF0FBECDBFDF91CF911F910F91FF90F7
S1132040EF90DF90BF90AF909F908F900895CF93C3
S1132050DF93EC0180E89AE1A6E0B0E080934C01C4
S113206090934D01A0934E01B0934F0160E87AE143
S113207086E090E00E942E020E9457021A82198282
S11320801B826C817D818E819F810E946001CE01C3
S113209004960E949301DF91CF9108950F931F93AB
S11320A0CF93DF93CDB7DEB728970FB6F894DEBF92
S11320B00FBECDBF8C01FC0164817581868197813F
S11320C00E949C0169E8C801AADC482F416069E8C4
S11320D0C80151DC40E068E8C8014DDC41E060E83B
S11320E0C80149DC41E06FEFC80145DC40E060E035
S11320F0C80141DC61E9C80192DCF801828741E052
S113210060E0C80138DC40E06FEFC80134DC40E037
S113211060E8C80130DC60E6C80181DC482F426118
S113212060E6C80128DC40E250E064E4C80137DC22
S11321304FEF61E0C8011FDCAE014E5F5F4FBE018F
S11321406F5F7F4FC80108DD882309F4D2C126E000
S1132150AE014D5F5F4F60EBC801C8DC41E06FEF3B
S1132160C80109DC40E06FE4C80105DC4CE26EE420
S1132170C80101DC40E06FEFC801FDDB44EB66EB16
S1132180C801F9DB8A81811102C060E001C06CE002
S1132190A98180E070E041E050E0861710F0A713B9
S11321A018C0982F969596959695E3E0F0E0EC0F7D
S11321B0FD1FE90FF11D982F97709A0102C0220F9D
S11321C0331F9A95E2F7922F909520819223908362
S11321D015C0982F969596959695E3E0F0E0EC0F50
S11321E0FD1FE90FF11D208130E0982F977002C088
S11321F0359527959A95E2F720FD7F5F8F5F8033B1
S113220061F626E0AE014D5F5F4F60EBC80143DC31
S113221041E06FEFC801AFDB40E060E0C801ABDB39
S113222040E06FEFC801A7DB40E069E0C801A3DB31
S113223040E060E1C8019FDB40E061E1C8019BDB55
S113224041E064E2C80197DB4FEF65E2C80193DB2C
S113225040E065E7C8018FDB41E06FEFC8018BDB2D
S11322604CE26EE4C80187DB40E068E4C80183DB2C
S113227040E260E3C8017FDB40E06FEFC8017BDB35
S113228049E060E3C80177DB40E064E5C80173DB43
S113229044E061E3C8016FDB43E062E3C8016BDB48
S11322A043E860E4C80167DB45E266E4C80163DB38
S11322B040E060E6C8015FDB40E067E2C8015BDB49
S11322C046E060E5C80157DB40E061E5C80153DB47
S11322D046E962E5C8014FDB48E066E5C8014BDB2F
S11322E040E367E5C80147DB40E061E6C80143DB42
S11322F040E062E6C8013FDB40E064E6C8013BDB46
S113230040E065E6C80137DB40EA66E6C80133DB36
S113231041E06FEFC8012FDB42E362E2C8012BDB2F
S113232044E167E4C80127DB4FEF69E4C80123DB1C
S113233040E06AE4C8011FDB40E06FEFC8011BDB2B
S11323404AE06AE7C80117DB40E06BE7C80113DB2A
S113235041E268E7C8010FDB41E06FEFC8010BDB26
S113236044E363E2C80107DB40E062E4C80103DB45
S11323704FEF64E4C801FFDA46E265E4C801FBDA22
S113238045E066E4C801F7DA40E460E4C801F3DA42
S113239046E06EE0C801EFDA4AE160E2C801EBDA38
S11323A040E463E4C801E7DA40E06FEFC801E3DA30
S11323B043E064E3C801DFDA44E465E3C801DBDA3F
S11323C041E06FEFC801D7DA44E061E3C801D3DA32
S11323D049E06BE4C801CFDA45E06CE4C801CBDA2C
S11323E044E06DE4C801C7DA40E06FEFC801C3DA26
S11323F040E064E4C801BFDA40E265E4C801BBDA46
S113240048E067E4C801B7DA48E268E4C801B3DA2F
S113241040E067E6C801AFDA44E060E7C801ABDA40
S113242041E061E7C801A7DA4EEF62E7C801A3DA29
S113243040E066E7C8019FDA40E067E7C8019BDA3D
S113244041E06FEFC80197DA41E06DE0C80193DA2B
S113245040E06FEFC8018FDA41E060E8C8018BDA31
S113246048EF61E0C80187DA41E06FEFC80183DA21
S113247041E06EE8C8017FDA41E060E0C8017BDA40
S113248040E06FEFC80177DA40E060E8C80173DA32
S113249044E06AE0C8016FDA64E8C801C0DA482F92
S11324A04F7E64E8C80167DA41E06BE0C80163DA93
S11324B048EE61E0C8015FDA4EE150E060E070E0B0
S11324C0C80120DD41E061E0C80155DA60E4C801DB
S11324D0F8DC882371F042E061E0C8014CDA60E086
S11324E0C801EFDC882329F048EE61E0C80143DA33
S11324F081E028960FB6F894DEBF0FBECDBFDF9102
S1132500CF911F910F910895FC016481758186819B
S113251097810C94B8010895CF92DF92EF92FF92C5
S1132520CF93DF93EC016A017B0141E060E823DA99
S113253041E06FEFCE011FDA40E060E0CE011BDA2C
S11325404A8561E9CE0117DA41E060E0CE0113DA91
S113255040E06FEFCE010FDA40E060E8CE010BDA25
S1132560C114D104E104F104A9F068EFCE0172DAD8
S1132570009731F0DC01A70196017FD06B017C014B
S1132580A701960164E0CE0124DA44E060E0CE01C4
S1132590F2D904C042E060E0CE01EDD9DF91CF91E1
S11325A0FF90EF90DF90CF9008950F931F93CF93F8
S11325B0DF93EC0163E133DA877049F06EE1CE0119
S11325C049DA8C0141E06BE0CE01D5D902C00FEFAE
S11325D01FEFC801DF91CF911F910F910895809152
S11325E0000190910101A0910201B09103010196B3
S11325F0A11DB11D8093000190930101A0930201DC
S1132600B09303010895A1E21A2EAA1BBB1BFD017E
S11326100DC0AA1FBB1FEE1FFF1FA217B307E407BD
S1132620F50720F0A21BB30BE40BF50B661F771F15
S1132630881F991F1A9469F76095709580959095F5
S11326409B01AC01BD01CF010895EE0FFF1F0024D3
S1132650001C0BBE0790F691E02D0994A29FB001D7
S1132660B39FC001A39F700D811D1124911DB29FC2
S1132670700D811D1124911D0895F0DFA59F900D0B
S1132680B49F900DA49F800D911D11240895F8947A
S1052690FFCF76
S9030000FC
