S0160000496D706C656D656E746174696F6E2E7372656348
S11300004CC000008AC1000092C100009AC10000E7
S11300105CC1000064C100006CC1000074C1000038
S11300200C945D0CF3C600002DC70000C4C600008C
S113003065C60000D8C5000036C60000A9C500008A
S11300404AC0000048C0000046C00000E2C30000EF
S11300500C94340A0C948E0A0C94EB0A3CC00000F5
S11300603AC0000038C0000036C0000034C00000B0
S113007032C0000030C000002EC000002CC00000C0
S11300802AC0000028C0000026C000004A08530807
S11300905C0865086E087708800811241FBECFEF3E
S11300A0D0E4DEBFCDBF13E0A0E0B1E0E6EFF6E6BA
S11300B000E00BBF02C007900D92AA3BB107D9F72D
S11300C025E0AAEBB3E001C01D92AE36B207E1F71A
S11300D090D00C94793394CF8091BA039091BB0360
S11300E0A091BC03B091BD030196A11DB11D8093E5
S11300F0BA039093BB03A093BC03B093BD030895CC
S11301000F931F93EEEBF3E0108280E0182F8183AE
S11301108BE482831382148283E0782F878392E0B6
S11301209187108681E0582F8583682F868300E0AD
S11301302091C0033091C1034091C20380E00E942A
S1130140120B0091BE031091BF032091C0033091A4
S1130150C1034091C2035091C3036091C4037091E1
S1130160C5038091C6039091C7030E94CE0B1F91D3
S11301700F9108950F931F93E8ECF3E088EE582F46
S1130180818383E082831382148281E0482F8083F9
S11301906091CA037091CB038091CC039ED60CE688
S11301A010E020E04091C8035091C9036091CA0354
S11301B07091CB038091CC030E94BA0920E0409156
S11301C0C8035091C9036091CA037091CB03809115
S11301D0CC030E94FE084091C8035091C90360916A
S11301E0CA037091CB038091CC03C3D71F910F91A5
S11301F0089547D085DFBEDF78940E94880C0E9462
S1130200DC0C0E942E0D0F2EF1E6EF2EF12CF02DBA
S11302100091BE031091BF032091C0033091C1032C
S11302204091C2035091C3036091C4037091C5030C
S11302308091C6039091C7030E94F40B0E947E0D27
S11302407C010091BE031091BF032091C003309143
S1130250C1034091C2035091C3036091C4037091E0
S1130260C5038091C6039091C7030E94F40B2FEF3E
S113027080E792E0215080409040E1F700C0000008
S1130280DDCF80E885BF85BF0895613061F028F037
S1130290623079F0633099F00895482F672F81E236
S11302A090E05EC20895482F672F84E290E058C220
S11302B00895482F672F87E290E052C20895482F8F
S11302C0672F8AE290E04CC208951F920F920FB6F6
S11302D00F9211240F900FBE0F901F9018951F922C
S11302E00F920FB60F9211240F900FBE0F901F9014
S11302F018951F920F920FB60F9211240F900FBEF4
S11303000F901F9018951F920F920FB60F92112401
S11303100F900FBE0F901F9018951F920F920FB65B
S11303200F9211240F900FBE0F901F9018951F92DB
S11303300F920FB60F9211240F900FBE0F901F90C3
S113034018951F920F920FB60F9211240F900FBEA3
S11303500F901F9018950F931F93CF93DF93C62F81
S1130360172FD82F092F91DFD11123C0C13081F06D
S113037028F0C23099F0C330B9F01BC0402F612F70
S113038082E290E0EDD1612F8EE790E00DD211C0B2
S1130390402F612F85E290E0E3D10BC0402F612F05
S11303A088E290E0DDD105C0402F612F8BE290E020
S11303B0D7D1DF91CF911F910F910895613059F0FA
S11303C028F0623069F0633081F00895672F82E28B
S11303D090E0DEC10895672F85E290E0D9C10895C9
S11303E0672F88E290E0D4C10895672F8BE290E0F4
S11303F0CFC108950F931F93CF93DF938B019C017B
S1130400EA0160E072E18AE790E0A90198010E94A4
S1130410CC32BA01A9014051510961097109DB01CA
S1130420CA01B695A795979587958F3F9105A10524
S1130430B10509F010F4188232C0DB01CA016894D6
S113044012F8B695A795979587951694D1F78F3F8F
S11304509105A105B10509F018F421E028831FC016
S1130460DB01CA01689414F8B695A795979587950A
S11304701694D1F78F3F9105A105B10509F018F441
S113048022E028830CC083E08883DB01CA016894DE
S113049016F8B695A795979587951694D1F7DF9199
S11304A0CF911F910F910895CF93C091B90064E04B
S11304B08CEB90E06DD18C2F887FCF910895CF93F2
S11304C0DF9300D000D000D0CDB7DEB75B836C8360
S11304D07D838E836B817C818D819E81AE014F5F94
S11304E05F4F88DF8093B80060E089816AD1482F2C
S11304F060E089EB90E034D161E0898162D1482FDA
S113050061E089EB90E02CD162E071E080E091E061
S113051022DF62E070E080E091E01DDF26960FB6F6
S1130520F894DEBF0FBECDBFDF91CF91089562E096
S11305308CEB90E02DC10895AF92BF92CF92DF92E1
S1130540EF92FF920F931F93CF93DF93182F6B01BA
S1130550E42E65E08CEB90E01BD167E08CEB90E03F
S113056017D1CCEBD0E0888167E02BD18823D9F375
S11305708091B900887F883009F047C0110F10932B
S1130580BB0060E08BEB90E00FD165E08CEB90E07A
S11305900BD1CCEBD0E0888167E013D18823D9F369
S11305A08091B900887F883171F5EE2081F1860150
S11305B0EA94F12C8FEFE81AF80AEC0CFD1C0F2ECC
S11305C0FBEBAF2EB12CF02DCCEBD0E00F2EF9EBE2
S11305D0CF2ED12CF02DF80181918F01F50180836C
S11305E067E0CE01D5D0888167E0EBD08823D9F3CA
S11305F0F6018081887F883211F056DF13C00E1512
S11306001F0549F704C050DF0DC04EDF0BC064E086
S11306108CEB90E0BDD0CCEBD0E0888164E0D1D00D
S11306208111FBCFDF91CF911F910F91FF90EF903C
S1130630DF90CF90BF90AF900895AF92BF92CF92CA
S1130640DF92EF92FF920F931F93CF93DF93182FB4
S11306506B01E42E65E08CEB90E09AD067E08CEBC4
S113066090E096D0CCEBD0E0888167E0AAD08823D4
S1130670D9F38091B900887F883009F047C0110F01
S11306801093BB0060E08BEB90E082D065E08CEBD4
S113069090E08AD0CCEBD0E0888167E092D08823C8
S11306A0D9F38091B900887F803471F5EE2081F10F
S11306B08601EA94F12C8FEFE81AF80AEC0CFD1C81
S11306C0CCEBD0E00F2EF9EBCF2ED12CF02D0F2E4A
S11306D0FBEBAF2EB12CF02D66E0CE0159D0888112
S11306E067E06FD08823D9F3F6018081887F803555
S11306F011F0DADE2AC0F5018081F80181938F01BF
S1130700EE15FF0549F704C0CFDE1FC0CDDE1DC0C6
S113071066E08CEB90E048D0CCEBD0E0888167E0D9
S113072050D08823D9F38091B900887F883561F44B
S113073064E08CEB90E02CD0CCEBD0E0888164E0DA
S113074040D08111FBCF01C080E0DF91CF911F9198
S11307500F91FF90EF90DF90CF90BF90AF900895EE
S1130760FC01942F208141E050E0062E02C0440F8A
S1130770551F0A94E2F7409550952423492F50E0E1
S113078002C0440F551F6A95E2F7422B4083089537
S1130790FC01408121E030E002C0220F331F6A9542
S11307A0E2F7242B20830895FC01908121E030E0BE
S11307B002C0220F331F6A95E2F720952923208374
S11307C0089590E002C0959587956A95E2F7817047
S11307D00895CF92DF92EF92FF9269017A019B0113
S11307E0AC012C193D094E095F09A8EEB3E00E9443
S11307F02233A70196010E94CC32C901992324F423
S113080088279927821B930BFF90EF90DF90CF905E
S113081008951F920F920FB60F9211240BB60F92E8
S11308208F939F93EF93FF93E091D203F0E08EB503
S1130830ED52FC4F80838091D203893030F4809153
S1130840D2038F5F8093D20302C01092D20381E05F
S11308508093D1039091CF038091E8039817A1F07E
S1130860E091CF03F0E0E352FC4F80818EBD809194
S1130870CF03893030F48091CF038F5F8093CF030F
S113088006C01092CF0303C081E08093E703FF9179
S1130890EF919F918F910F900BBE0F900FBE0F9011
S11308A01F9018958F929F92AF92BF92EF92FF92F2
S11308B00F931F93CF93DF9300D000D01F92CDB737
S11308C0DEB748015901413021F0423009F488C0B3
S11308D04CC160E072E18AE790E0A90198010E94AE
S11308E0CC32DA01C9010197A109B109009721E0CD
S11308F0A207B10550F449EF5FEF6FEF70E0F70125
S1130900408351836283738333C160E472E48FE074
S113091090E0A50194010E94CC32DA01C90101974B
S1130920A109B1090097F1E0AF07B10550F44AEF0E
S11309305FEF6FEF70E0F70140835183628373834D
S113094017C168E478EE81E090E0A50194010E946B
S1130950CC32DA01C9010197A109B1090097F1E08C
S1130960AF07B10550F44CEF5FEF6FEF70E0F701A4
S11309704083518362837383FBC062E17AE780E042
S113098090E0A50194010E94CC32DA01C9010197DB
S1130990A109B1090097F1E0AF07B10550F44EEF9A
S11309A05FEF6FEF70E0F7014083518362837383DD
S11309B0DFC08FEF9FEFAFEFB0E0F701808391834B
S11309C0A283B38364E87EE180E090E0A501940112
S11309D00E94CC32DA01C9010197A109B109C8C04A
S11309E060E072E18AE790E0A90198010E94CC32AC
S11309F0DA01C9010197A109B1098F3F9105A10548
S1130A00B10509F050F449EF5FEF6FEF70E0F701C3
S1130A104083518362837383ABC060E472E48FE0EC
S1130A2090E0A50194010E94CC32DA01C90101973A
S1130A30A109B1098F3F9105A105B10509F050F451
S1130A404AEF5FEF6FEF70E0F701408351836283F9
S1130A5073838EC060E970ED83E090E0A50194019A
S1130A600E94CC32DA01C9010197A109B1098F3F73
S1130A709105A105B10509F050F44BEF5FEF6FEF5D
S1130A8070E0F701408351836283738371C068E42B
S1130A9078EE81E090E0A50194010E94CC32DA0165
S1130AA0C9010197A109B1098F3F9105A105B105BC
S1130AB009F050F44CEF5FEF6FEF70E0F701408303
S1130AC051836283738354C064E274EF80E090E0E6
S1130AD0A50194010E94CC32DA01C9010197A10950
S1130AE0B1098F3F9105A105B10509F050F44DEF0F
S1130AF05FEF6FEF70E0F70140835183628373838C
S1130B0037C062E17AE780E090E0A50194010E9499
S1130B10CC32DA01C9010197A109B1098F3F9105CE
S1130B20A105B10509F050F44EEF5FEF6FEF70E0EF
S1130B30F70140835183628373831AC08FEF9FEF61
S1130B40AFEFB0E0F70180839183A283B38364E8BD
S1130B507EE180E090E0A50194010E94CC32DA01AC
S1130B60C9010197A109B10903C080E090E0DC014B
S1130B700F900F900F900F900F90DF91CF911F91D6
S1130B800F91FF90EF90BF90AF909F908F9008953A
S1130B901F920F920FB60F9211240BB60F922F9340
S1130BA03F934F935F936F937F938F939F93AF93F1
S1130BB0BF93EF93FF93E091E903F091EA03099562
S1130BC0FF91EF91BF91AF919F918F917F916F9121
S1130BD05F914F913F912F910F900BBE0F900FBEDD
S1130BE00F901F9018951F920F920FB60F92112419
S1130BF00BB60F920F931F932F933F934F935F93D3
S1130C006F937F938F939F93AF93BF93CF93DF9310
S1130C10EF93FF93C1E8D0E0888164E0D2DD182F20
S1130C20888163E0CEDDC12FCC0FCC0FCC0F24E044
S1130C30829FC0011124C82B00E810E0F8018081D4
S1130C4061E0BFDDD82FF801808160E0BADDDD0FFF
S1130C508C2B8D2B883018F4843019F408C080FD57
S1130C6006C0E091EB03F091EC03099505C0E09117
S1130C70E903F091EA030995FF91EF91DF91CF9198
S1130C80BF91AF919F918F917F916F915F914F91A0
S1130C903F912F911F910F910F900BBE0F900FBE9C
S1130CA00F901F9018951F920F920FB60F92112458
S1130CB00BB60F922F933F934F935F936F937F9352
S1130CC08F939F93AF93BF93EF93FF93E091ED03C3
S1130CD0F091EE030995FF91EF91BF91AF919F9130
S1130CE08F917F916F915F914F913F912F910F90D1
S1130CF00BBE0F900FBE0F901F9018951F920F926E
S1130D000FB60F9211240BB60F920F931F932F93CC
S1130D103F934F935F936F937F938F939F93AF937F
S1130D20BF93CF93DF93EF93FF93C1E8D0E0888123
S1130D3064E047DD182F888163E043DDC12FCC0FC9
S1130D40CC0FCC0F24E0829FC0011124C82B00E8F3
S1130D5010E0F801808161E034DDD82FF801808152
S1130D6060E02FDDDD0F8C2B8D2B883010F080FFA1
S1130D7006C0E091EF03F091F003099505C0E091FE
S1130D80E903F091EA030995FF91EF91DF91CF9187
S1130D90BF91AF919F918F917F916F915F914F918F
S1130DA03F912F911F910F910F900BBE0F900FBE8B
S1130DB00F901F9018951F920F920FB60F92112447
S1130DC00BB60F922F933F934F935F936F937F9341
S1130DD08F939F93AF93BF93EF93FF93E091F303AC
S1130DE0F091F4030995FF91EF91BF91AF919F9119
S1130DF08F917F916F915F914F913F912F910F90C0
S1130E000BBE0F900FBE0F901F9018951F920F925C
S1130E100FB60F9211240BB60F922F933F934F935B
S1130E205F936F937F938F939F93AF93BF93EF934E
S1130E30FF938091B10063E0C4DC81110BC0809109
S1130E40B0008370823031F0E091F503F091F60345
S1130E50099505C0E091F303F091F4030995FF911E
S1130E60EF91BF91AF919F918F917F916F915F911E
S1130E704F913F912F910F900BBE0F900FBE0F908B
S1130E801F9018951F920F920FB60F9211240BB654
S1130E900F922F933F934F935F936F937F938F930F
S1130EA09F93AF93BF93EF93FF93E091F703F09178
S1130EB0F8030995FF91EF91BF91AF919F918F91A5
S1130EC07F916F915F914F913F912F910F900BBE46
S1130ED00F900FBE0F901F901895EF92FF920F93F3
S1130EE01F93CF93DF93CDB7DEB729970FB6F8944E
S1130EF0DEBF0FBECDBF4D835E836F837887898746
S1130F000E811F812885398519821A821B821C82D1
S1130F10413021F0423009F495C01EC1093F8FEFE2
S1130F2018072807310528F009831A832B833C838B
S1130F3015C0CE0101967C014D815E816F8178855B
S1130F408985B0DC909387008093860064E081E813
S1130F5090E01EDC63E081E890E01ADC89819A81EC
S1130F60AB81BC818C3F2FEF9207A207B10559F1E9
S1130F7060F4893F2FEF9207A207B10591F08A3FF1
S1130F809F4FAF4FB105B1F038C08E3F2FEF92079E
S1130F90A207B10509F18F3F9F4FAF4FB10529F16A
S1130FA02CC081E090E0A0E0B0E089839A83AB8319
S1130FB0BC8323C082E090E0A0E0B0E089839A8300
S1130FC0AB83BC831AC083E090E0A0E0B0E08983E7
S1130FD09A83AB83BC8311C084E090E0A0E0B0E0CE
S1130FE089839A83AB83BC8308C085E090E0A0E04A
S1130FF0B0E089839A83AB83BC8349815A816B8136
S11310007C8176956795579547957695679557951D
S11310104795417062E081EF93E0A2DB49815A81F8
S11310206B817C817695679557954795417061E012
S113103081EF93E095DB4981417060E081EF93E0BB
S11310408FDB8AC0093F8FEF18072807310528F086
S113105009831A832B833C830FC0CE0101967C0144
S11310604D815E816F81788589851CDC8093B30016
S113107061E080EB90E08CDB89819A81AB81BC815B
S1131080FC013796E730F10508F042C0EA5BFF4FF8
S11310900C940A3381E090E0A0E0B0E089839A8365
S11310A0AB83BC8335C082E090E0A0E0B0E08983EC
S11310B09A83AB83BC832CC083E090E0A0E0B0E0D3
S11310C089839A83AB83BC8323C084E090E0A0E04F
S11310D0B0E089839A83AB83BC831AC085E090E037
S11310E0A0E0B0E089839A83AB83BC8311C086E01F
S11310F090E0A0E0B0E089839A83AB83BC8308C00E
S113110087E090E0A0E0B0E089839A83AB83BC835E
S113111049815A816B817C8176956795579547956E
S11311207695679557954795417062E082EF93E015
S113113017DB49815A816B817C8176956795579538
S11311404795417061E082EF93E00ADB4981417089
S113115060E082EF93E004DB29960FB6F894DEBFDB
S11311600FBECDBFDF91CF911F910F91FF90EF90F4
S11311700895CF93DF9300D000D01F92CDB7DEB790
S1131180413019F04230D1F031C04091F10342FBBB
S1131190442740F962E081E890E0E2DA4091F1030B
S11311A04695417061E081E890E0DADA4091F1031C
S11311B0417060E081E890E0D3DA18C04091F20316
S11311C042FB442740F962E081EB90E0C9DA4091A8
S11311D0F2034695417061E081EB90E0C1DA409101
S11311E0F203417060E081EB90E0BADA0F900F9067
S11311F00F900F900F90DF91CF910895CF92DF92CF
S1131200EF92FF920F931F93CF93DF9300D000D000
S11312101F92CDB7DEB749835A836B837C838D835A
S1131220022F413021F0423009F45EC095C00F2EE8
S1131230F1E8EF2EF12CF02DF701808164E0C1DAA2
S1131240182FF701808163E0BCDA110F110F110F21
S1131250F4E08F9FC0011124182B6894CC24C7F8A4
S1131260D12CF601808161E0ACDAF82EF6018081A0
S113127060E0A7DAFF0C812B8F290130D9F028F028
S1131280023021F1033039F167C0883038F48430FA
S113129061F060E08FE690E07BDA5EC080FD05C01F
S11312A065E08FE690E074DA57C061E08FE690E085
S11312B06FDA52C0883018F4843019F44DC080FDC0
S11312C04BC061E08FE690E063DA46C062E08FE6EF
S11312D090E05EDA41C0883010F080FF3DC065E0E8
S11312E08FE690E055DA38C08091B10063E069DAA6
S11312F0182F0F2EF0EBEF2EF12CF02DF70180813B
S113130061E05FDA110F110F880F182BF70180814C
S113131060E057DA812B013091F018F00230C1F00F
S11313201BC0843038F4823029F060E080E790E01C
S11313302FDA12C061E080E790E02ADA0DC0843031
S113134058F4823049F061E080E790E021DA04C08B
S113135062E080E790E01CDA0F900F900F900F90FE
S11313600F90DF91CF911F910F91FF90EF90DF903D
S1131370CF9008950F931F93CF93DF9300D000D0A5
S11313801F92CDB7DEB7413019F0423051F011C091
S1131390E22FF0E0EE0FFF1FE751FC4F11830083B3
S11313A008C0E22FF0E0EE0FFF1FED50FC4F118359
S11313B000830F900F900F900F900F90DF91CF91BB
S11313C01F910F9108954F925F926F927F928F9227
S11313D09F92AF92BF92CF92DF92EF92FF92CF9300
S11313E0DF934B015C01EA010F2EF0E24F2EF1EA8C
S11313F05F2EF7E06F2E712CF02DC301B201A50111
S113140094010E94CC3269017A01C301B2010E94A5
S1131410CC32CA01B901A5019401DBD9449730F457
S1131420D701C6010197A109B1090FC081E08883E2
S113143060E472E48FE090E0A50194010E94CC3254
S1131440DA01C9010197A109B109DF91CF91FF9098
S1131450EF90DF90CF90BF90AF909F908F907F9050
S11314606F905F904F9008951F920F920FB60F9256
S113147011240BB60F922F933F934F935F936F9367
S11314807F938F939F93AF93BF93EF93FF93809139
S1131490C10062E096D9813099F4E091FB03F0E059
S11314A08091C1002091C600827090E0982F882717
S11314B0822BEE0FFF1FE450FC4F918380830CC0FE
S11314C0E091FB03F0E08091C60090E0EE0FFF1F77
S11314D0E450FC4F918380838091FB03893030F486
S11314E08091FB038F5F8093FB0302C01092FB0388
S11314F081E080931104FF91EF91BF91AF919F918F
S11315008F917F916F915F914F913F912F910F90A8
S11315100BBE0F900FBE0F901F9018951F920F9245
S11315200FB60F9211240BB60F922F933F934F9344
S11315305F936F937F938F939F93AF93BF93EF9337
S1131540FF939091FA038091F903981769F18091C0
S1131550C10062E036D9813079F4E091FA03F0E019
S1131560EE0FFF1FEE5EFB4F80819181E1ECF0E016
S113157080819170892B8083E091FA03F0E0EE0F73
S1131580FF1FEE5EFB4F808191818093C6008091A6
S1131590FA03893030F48091FA038F5F8093FA0361
S11315A007C01092FA0304C065E081EC90E0FCD817
S11315B0FF91EF91BF91AF919F918F917F916F9127
S11315C05F914F913F912F910F900BBE0F900FBEE3
S11315D00F901F9018951F920F920FB60F9211241F
S11315E00BB60F928F939F93EF93FF9380E090E05D
S11315F0FC01EE0FFF1FEE5EFB4F1182108201967D
S11316008A309105A9F71092FA031092F903FF9119
S1131610EF919F918F910F900BBE0F900FBE0F9083
S11316201F9018950F931F93CF93DF93CDB7DEB719
S11316302B970FB6F894DEBF0FBECDBF0A831B8372
S11316402C833D834E835F83688779878A879B8752
S11316501982011198C0192FE2ECF0E080818F7398
S113166080836B817C818D819E81AE014F5F5F4F52
S1131670AADE9093C5008093C400498161E080ECA8
S113168090E06ED88985823031F128F4882349F0BE
S11316908130A1F046C0833059F1843009F435C05B
S11316A040C061E082EC90E07FD862E082EC90E0A0
S11316B07BD862E081EC90E077D833C061E082ECC3
S11316C090E066D862E082EC90E06ED862E081EC53
S11316D090E06AD826C061E082EC90E065D862E0D0
S11316E082EC90E055D862E081EC90E05DD819C0BE
S11316F061E082EC90E04CD862E082EC90E048D863
S113170062E081EC90E050D80CC061E082EC90E0A3
S11317103FD862E082EC90E03BD862E081EC90E05C
S113172037D84A8563E082EC90E01AD8123031F45D
S1131730E2ECF0E080818F7C808309C065E082EC7C
S113174090E026D8412F64E082EC90E009D88F81A4
S1131750882351F0109210041092FB03109211048C
S113176067E081EC90E014D88885882361F01092BA
S1131770F9031092FA0366E081EC90E009D865E081
S113178081EC90E005D82B960FB6F894DEBF0FBE1F
S1131790CDBFDF91CF911F910F9108950F931F93A8
S11317A0CF93DF93CDB7DEB72A970FB6F894DEBF99
S11317B00FBECDBF6F8301110CC0452F64E081ECD7
S11317C090E00E94B0034F8163E081EC90E00E94BE
S11317D0B0032A960FB6F894DEBF0FBECDBFDF91DB
S11317E0CF911F910F910895EF92FF920F931F9342
S11317F0CF93DF93CDB7DEB72A970FB6F894DEBF49
S11318000FBECDBF09831A832B833C834D835E8334
S11318106F83788789879A87011142C000EC10E0B2
S1131820F801808165E00E94E1038823C9F3E09117
S1131830F903F0E0EE0FFF1FEE5EFB4FF182E08252
S11318408091F903893030F48091F9038F5F80939C
S1131850F90302C01092F9038091C00065E00E9470
S1131860E1038130E9F48091FA03893030F4809106
S1131870FA038F5F8093FA0302C01092FA0365E0C3
S113188081EC90E00E94C8038885843039F4E1EC4F
S1131890F0E080819F2D9170892B8083E092C600B7
S11318A02A960FB6F894DEBF0FBECDBFDF91CF915D
S11318B01F910F91FF90EF9008951F920F920FB612
S11318C00F9211240BB60F922F933F934F935F9374
S11318D06F937F938F939F93AF93BF93EF93FF93F4
S11318E0E0912604F09127040995FF91EF91BF91AF
S11318F0AF919F918F917F916F915F914F913F91A4
S11319002F910F900BBE0F900FBE0F901F90189544
S11319101F93CF93DF9300D000D01F92CDB7DEB7D3
S1131920E8E2F4E082E08083818311E01283138291
S1131930609128047091290480912A0490912B04C9
S11319400E94AB0180E8582F8A8388E38B8381E06F
S11319508C831D82198341E068E371E080E00E947A
S11319605F020E949702609128047091290480917B
S11319702A0490912B040E94DE018FEC97E00197DA
S1131980F1F700C000008FE891E00197F1F700C083
S1131990000089E280936D058CE294E005D58CE229
S11319A094E00E94A3160F900F900F900F900F9049
S11319B0DF91CF911F910895CF93DF93CDB7DEB719
S11319C02F970FB6F894DEBF0FBECDBFAE014B5FAD
S11319D05F4FBE016F5F7F4F8CE294E00E9430182E
S11319E049815A816B817C812D818CE294E00E9433
S11319F02E18AE01495F5F4FBE016A5F7F4F8CE2D4
S1131A0094E0B4D24F816E818CE294E0ACD2BE01FA
S1131A10685F7F4F8CE294E08FD0488559856A8552
S1131A207B858CE294E085D0BE01645F7F4F8CE2BD
S1131A3094E057D24C855D856E857F858CE294E079
S1131A4016D261E08CE294E0D9D12F960FB6F894C7
S1131A50DEBF0FBECDBFDF91CF91089561E08CE270
S1131A6094E06DD08CE294E0ADC70895DF92EF92DC
S1131A70FF920F931F93CF93DF931F92CDB7DEB7DF
S1131A80182F69837A01D22E41E0BE016F5F7F4F28
S1131A900E949C02082F4D2DB701812F0E949C02A9
S1131AA0802B0F90DF91CF911F910F91FF90EF90BA
S1131AB0DF900895DF92EF92FF920F931F93CF93DD
S1131AC0DF931F92CDB7DEB7182F69837A01D22E28
S1131AD041E0BE016F5F7F4F0E949C02082F4D2D95
S1131AE0B701812F0E941D03802B0F90DF91CF91AE
S1131AF01F910F91FF90EF90DF900895CF93DF93A4
S1131B00CDB7DEB769970FB6F894DEBF0FBECDBF71
S1131B10BE016F5F7F4F8CE294E067D5898D90E0C2
S1131B2069960FB6F894DEBF0FBECDBFDF91CF919B
S1131B3008950C94321808950C946818089563302D
S1131B4041F018F4623028F008C02CEE260F223041
S1131B5020F4FC01608B80E0089588EF0895CF9312
S1131B60DF93EB01AB0169E00E945432811103C0A1
S1131B70988191709883DF91CF9108950C94C82730
S1131B8008950C949F270895DF92EF92FF920F938C
S1131B901F93CF93DF931F92CDB7DEB77C01062F3F
S1131BA0D42E1982AE014F5F5F4F61E00E94543220
S1131BB0182F811156C0898191E0D9121CC00230BE
S1131BC089F028F4002341F0013049F044C0033087
S1131BD061F0043069F03FC0082F006140C0082F55
S1131BE008623DC0082F04603AC0082F006437C063
S1131BF0082F006834C0023089F028F4002341F033
S1131C00013049F02AC0033061F0043069F025C086
S1131C10082F0F7E24C0082F077D21C0082F0B7FBB
S1131C201EC0082F0F7B1BC0082F0F7718C0402F32
S1131C3061E0C7010E94E731182F811112C0F7013A
S1131C40E35EFE4F0083F7014289538964897589F5
S1131C50C70194DF06C01CEF04C01CEF02C0801350
S1131C60E6CF812F0F90DF91CF911F910F91FF90BD
S1131C70EF90DF9008956230D9F028F4662359F08C
S1131C80613079F004C06330D1F06430F9F0F901C7
S1131C9010828CEF089542954170F901408380E0F1
S1131CA0089543FB442740F9F901408380E00895F7
S1131CB042FB442740F9F901408380E0089546FB44
S1131CC0442740F9F901408380E00895441F4427E4
S1131CD0441FF901408380E00895EF92FF920F932F
S1131CE01F93CF93DF931F92CDB7DEB78C017B0197
S1131CF01982AE014F5F5F4F61E00E94543281113F
S1131D0020C09701498160E0C801B5DF811122C07C
S1131D1097012E5F3F4F498161E0C801ACDF81111B
S1131D2019C097012F5F3F4F498162E0C801A3DFCB
S1131D30811110C097012D5F3F4F498163E0C801B5
S1131D409ADF811107C097012C5F3F4F498164E0FE
S1131D50C80191DF0F90DF91CF911F910F91FF90F8
S1131D60EF900895CF92DF92EF92FF921F93CF935B
S1131D70DF9300D000D000D0CDB7DEB77C016B017B
S1131D80AE014F5F5F4F68EF0E946132182F8111DF
S1131D9026C0AE014D5F5F4F64E0C7010E948832E8
S1131DA0182F81111CC029813A812115310569F050
S1131DB040E050E06B817C818D819E810E94CC3219
S1131DC0F6012083318342835383F601808191811C
S1131DD0A281B381F701868B978BA08FB18F812F5E
S1131DE026960FB6F894DEBF0FBECDBFDF91CF911C
S1131DF01F91FF90EF90DF90CF900895CF93DF93E2
S1131E00EC01662391F0FC01E75CFE4F8081918137
S1131E10883E934091F44D8D5E8D6F8D78A110C0F6
S1131E201A8E1CC091E09A8F19C040E050E060E225
S1131E300E940032811112C0F3CF40E050E0BA0199
S1131E40689412F876956795579547951694D1F747
S1131E5060E2CE010E940032882321F3DF91CF910A
S1131E600895FC01828DFB01808380E00895CF9268
S1131E70DF92EF92FF92CF93DF93FC01228D211129
S1131E8006C0458F568F678F70A380E023C0FC0186
S1131E90E75CFE4F20813181283E334061F46A01C2
S1131EA07B01689412F8F694E794D794C794169437
S1131EB0D1F7960102C020E030E06A017B01EC0119
S1131EC0A90160E20E940032811104C0CD8EDE8E31
S1131ED0EF8EF8A2DF91CF91FF90EF90DF90CF903B
S1131EE00895EF92FF920F931F93CF93DF9300D047
S1131EF0CDB7DEB78C017B01AE014F5F5F4F60E26F
S1131F000E946132811126C049815A8141155105CF
S1131F1069F4F801458D568D678D70A1F7014083F2
S1131F20518362837383F801128E14C0440F551FCA
S1131F30440F551F440F551F60E070E0F7014083C4
S1131F40518362837383F801458F568F678F70A323
S1131F5091E0928F0F900F90DF91CF911F910F918D
S1131F60FF90EF9008950C94612008950C948620BE
S1131F7008958F929F92AF92BF92EF92FF921F9318
S1131F80CF93DF936630710508F047C0442309F40A
S1131F9048C0FB01EE0FFF1FEE0FFF1FE80FF91FF4
S1131FA081A892A8A3A8B4A820E031E03FC0F7011B
S1131FB035A326C0B501A401032E39E076956795B3
S1131FC0579547953A95D1F7302D64E4C7010E949F
S1131FD0003214C0F70137A313C0F70130A710C0B3
S1131FE0220F4EEF60E6C7010E941B3207C0229504
S1131FF0207F4FEE60E6C7010E941B3281112DC085
S1132000111105C0CE0DDF1D1DA280E026C0CE0D2E
S1132010DF1D81E08DA380E020C08CEF1EC08CEF1B
S11320201CC021E030E0812C912C5401142FEB01D1
S11320307C016230710571F240F4209709F4B7CF46
S11320406130710509F4B6CFEACF6430710541F20D
S113205020F26530710559F2E2CFDF91CF911F91E3
S1132060FF90EF90BF90AF909F908F90089566304F
S1132070710520F0FA0110828CEF0895FC01E60F3F
S1132080F71F85A1FA01808380E00895CF92DF9243
S1132090EF92FF920F931F93CF93DF93FC01E60F10
S11320A0F71FE5A1E1110DC0660F771F660F771FBB
S11320B0EC01C60FD71F29AB3AAB4BAB5CAB80E04E
S11320C056C069017A01EB018C016230710519F186
S11320D030F4209759F06130710571F038C06330E5
S11320E07105F9F06630710518F131C0FC0121ABBE
S11320F032AB43AB54AB2EC0BA01A901032E39E075
S113210076956795579547953A95D1F7302D64E4C0
S11321100E9400321DC0FC0121AF32AF43AF54AF67
S113212019C0FC01FD96208331834283538312C07E
S1132130BA01A901032E39E076956795579547951D
S11321403A95D1F7302D64E60E94003201C08CEF3D
S113215081110DC0BE01660F771F660F771FE8015E
S1132160C60FD71FC9AADAAAEBAAFCAA80E0DF919E
S1132170CF911F910F91FF90EF90DF90CF90089532
S1132180EF92FF920F931F93CF93DF9300D0CDB7BD
S1132190DEB78C017A016230710551F138F46115B2
S11321A0710559F06130710571F059C063307105E2
S11321B029F16630710548F152C0FC0181A992A948
S11321C0A3A9B4A94EC0AE014F5F5F4F64E40E945F
S11321D0613281114CC0998140E050E0592F550F74
S11321E060E070E04115510561057105F1F02AC008
S11321F0FC0181AD92ADA3ADB4AD33C0FC01FD963D
S113220080819181A281B3812CC0AE014F5F5F4F69
S113221064E60E94613281112AC0298180E090E045
S1132220922F990FA0E0B0E01CC0F80145A956A96F
S113223067A970ADF7014083518362837383F8010A
S113224016A215C0F7014083518362837383F8019A
S113225045AB56AB67AB70AF91E096A308C08CEF6B
S113226006C0F70180839183A283B38380E00F903B
S11322700F90DF91CF911F910F91FF90EF900895F0
S1132280EF92FF920F931F93CF93DF931F92CDB7DB
S1132290DEB78C017B01AE014F5F5F4F61E00E94AE
S11322A05432811113C09981F801E35EFE4F90838B
S11322B0992324F491E0F701908302C0F70110827E
S11322C0F7019081F801E75BFF4F90830F90DF9156
S11322D0CF911F910F91FF90EF9008958F929F924D
S11322E0AF92BF92CF92DF92EF92FF920F931F9320
S11322F0CF93DF93EC017B018889FB0180836A5FC4
S11323007F4FCE012FDD811133C0F7011286B70153
S1132310635F7F4FCE01E5DD811139C0B7016F5E88
S11323207F4FCE01D5D6811132C087010F5D1F4F7B
S11323305E01F5E2AF0EB11C670185E1C80ED11C48
S1132340812C912CA801B401CE011ADF81111FC088
S1132350F50181915F01F60181936F01FFEF8F1AFF
S11323609F0A0C5F1F4F86E08816910459F702C03C
S113237081110DC0B701675C7F4FCE0181DF8111F0
S113238006C0B7016E5F7F4FCE010E94AD28DF917A
S1132390CF911F910F91FF90EF90DF90CF90BF905E
S11323A0AF909F908F900895EF92FF920F931F9399
S11323B0CF93DF93CDB7DEB7EB970FB6F894DEBFBC
S11323C00FBECDBF8C0121E04EEF69E80E941B32A5
S11323D0811105C040E068E8C8010E94E731F801B6
S11323E0E152FF4F108288EE93E0E65AFF4F91834B
S11323F0808380E991E032969183808385E89BE62F
S1132400A1E0B0E0329680839183A283B38384EA0F
S113241090E7A9E0B0E0E557F10980839183A283B6
S1132420B383F801158E168E178E10A2BE016F5F4E
S11324307F4FC80153DFF82E81110BC019821A8215
S11324408AE3FE013196D801509601900D928A9547
S1132450E1F784E690E0F801EF5DFE4F918380831D
S113246084E893E032969183808384EF91E03296FE
S11324709183808380E09AE033969183808381E026
S11324807096808341E060E8C8010E94E731E82E3D
S113249041E06FEFC8010E94E7318E29F82A40E03D
S11324A060E0C8010E94E731F82AAE01455C5F4F45
S11324B061E9C8010E945432F82A8BADF801E95D44
S11324C0FE4F808341E060E0C8010E94E731F82AB2
S11324D040E06FEFC8010E94E731F82A40E060E86D
S11324E0C8010E94E7318F2909F469C014C0811121
S11324F012C041E0B701C8013CDDFFEFEF1AFF0A4B
S113250096E0E916F10499F781111AC040E062E0FF
S113251070E0C8012EDD81111DC040E063E070E071
S1132520C80127DD811120C040E064E070E0C801EB
S113253020DD811123C040E065E070E0C80119DDB1
S1132540811125C020E030E042E150E060E070E01D
S1132550C8019CDD81112CC020E030E440E050E053
S113256061E070E0C80192DD811132C020E030E00A
S113257043E250E062E070E0C80188DD811128C0C8
S113258020E030E0A90163E070E0C8017FDD811143
S11325901FC08FEFF801E35EFE4F80834FEF61E0D1
S11325A0C8010E94E73191E0F801E15EFE4F90839B
S11325B081110EC0F801EC5FFE4F108209C041E0AA
S11325C060E070E0C801D5DCEE24E394F12C8FCFF9
S11325D0EB960FB6F894DEBF0FBECDBFDF91CF915F
S11325E01F910F91FF90EF9008952F923F924F9279
S11325F05F926F927F928F929F92AF92BF92CF928F
S1132600DF92EF92FF920F931F93CF93DF93CDB797
S1132610DEB7A6970FB6F894DEBF0FBECDBF4C0150
S11326205B010CE010E020E030E0AE014E5F5F4F54
S113263064E10E94CE318111FBC0D50156961C92F3
S11326405697F50110821182128213822C8530E094
S1132650322F22278D85280F311D14961D921D922D
S11326601D921C9217974984512C542C4424550CC8
S1132670612C712C44865586668677868B8590E01E
S1132680982F8827990FA0E0B0E0808B918BA28BC4
S1132690B38B0C8110E0102F00278D81080F111DC2
S11326A0158B048B3A80F401E75CFE4F4081518125
S11326B07B972080483EF3E05F0709F446C0249FDF
S11326C0C001259F900D349F900D11249C012C5026
S11326D03E4F369527953695279536952795A5EC43
S11326E0B0E20E9413339C01329522952F70232768
S11326F03F702327D4015D964D915D916D917C913E
S113270090975A968C91882301F1049F6001059F4C
S1132710D00C149FD00C1124CD2CDD24E12CF12CF1
S11327204C145D046E047F0429F4211011C020EEC2
S11327303AE81EC0D901A30192010E9422332C1948
S11327403D094E095F090E94CC32222089F002C063
S113275028EB32E2C9019695879596958795F50100
S1132760918780872295220F220F207C278B07C018
S1132770D50119963C932E93189757961C92FE01F7
S113278031966F017501A3019201632DC4010E946A
S1132790013081114DC09981D50158969C93BAE4BA
S11327A08B0E911C29E1F401DE011E9601900D921D
S11327B02A95E1F7D5011896ED91FC911997579652
S11327C03C9057971A966D917C911B971C964D904F
S11327D05D906D907C901F975096CD90DD90ED901C
S11327E0FC90539754964D915C91559714960D9186
S11327F01D912D913C9117970A8B1B8B2C8B3D8B34
S1132800FF8BEE8B798F688F4A8E5B8E6C8E7D8EFC
S1132810CE8EDF8EE8A2F9A25BA34AA33DA29EA3BB
S113282099E1FE013E96D40101900D929A95E1F74B
S1132830A6960FB6F894DEBF0FBECDBFDF91CF9141
S11328401F910F91FF90EF90DF90CF90BF90AF90CA
S11328509F908F907F906F905F904F903F902F90BC
S11328600895CF92DF92EF92FF920F931F93CF932D
S1132870DF9300D0CDB7DEB78C016A017901AE01D8
S11328804F5F5F4F6EE00E94613249815A815F70F1
S113289060E070E0032E31E1440F551F661F771F7F
S11328A03A95D1F7302DF6014083518362837383C7
S11328B081111AC0AE014F5F5F4F6CE0C8010E94E6
S11328C0613249815A815F7060E070E0032E31E12A
S11328D0440F551F661F771F3A95D1F7302DF70126
S11328E040835183628373830F900F90DF91CF9164
S11328F01F910F91FF90EF90DF90CF900895EF928A
S1132900FF921F93CF93DF93CDB7DEB728970FB60F
S1132910F894DEBF0FBECDBF9C01FC01E253FF4F14
S113292090819150933008F040C0162F79019E0198
S11329302B5F3F4FAE014F5F5F4F61E0C70191DFF7
S113294049815A816B817C81413051056F4F7105FA
S113295048F44D815E816F817885413051056F4F18
S1132960710520F1811122C0112331F060E071E082
S1132970C7010E94A6291AC044E06FEFC7010E9454
S1132980E731182F40E060E7C7010E94E731182BB8
S113299040E06FEFC7010E94E731182B40E060E888
S11329A0C7010E94E731812B01C080E028960FB651
S11329B0F894DEBF0FBECDBFDF91CF911F91FF9082
S11329C0EF900895CF92DF92EF92FF920F931F93AF
S11329D0CF93DF931F92CDB7DEB78C01FC01F08853
S11329E041E060E80E94E73141E06FEFC8010E94D6
S11329F0E73140E060E0C8010E94E731F801E95D99
S1132A00FE4F408161E9C8010E94E73141E060E086
S1132A10C8010E94E73140E06FEFC8010E94E7312E
S1132A2040E060E8C8010E94E731F1E0FF16E9F1F7
S1132A30FF1628F093E0F91609F449C05AC041E0A2
S1132A4060E0C8010E94E73191E09983882371F026
S1132A5051C0C114D104E104F10459F0AE014F5F37
S1132A605F4F60E0C8010E94543203C0C12CD12CD6
S1132A707601EFEFCE1ADE0AEE0AFE0A998190FF84
S1132A800BC0811109C0F0EDCF16F7E0DF06E104B9
S1132A90F104F9F689EF2EC090EDC91697E0D90636
S1132AA0E104F10438F189EF25C0811103C061E02C
S1132AB0C80125DF42E060E0C8010E94E7318111CE
S1132AC019C0F801E15EFE4F94E0908313C08111B8
S1132AD003C061E0C80113DF44E060E0C8010E9464
S1132AE0E731811107C0F801E15EFE4F94E0908365
S1132AF001C088EF0F90DF91CF911F910F91FF904C
S1132B00EF90DF90CF9008951F93CF93DF93EC0164
S1132B101889111104C056DF811112C00CC00E9423
S1132B209D2081110DC011110BC0C15EDE4F83E0E9
S1132B30888380E005C0CE010E949D208823A9F3EC
S1132B40DF91CF911F910895EF92FF920F931F93FE
S1132B50CF93DF931F92CDB7DEB77C0100E041E055
S1132B606BE0C7010E94E731182F40E06BE0C7011A
S1132B700E94E731182BAE014F5F5F4F63E1C7013D
S1132B800E945432812B0F5F9981977029F0033092
S1132B9039F0882321F305C0033018F084EF01C015
S1132BA084EF0F90DF91CF911F910F91FF90EF90E1
S1132BB008950F931F93CF93DF93EC018B0160E093
S1132BC00E949F0D81110EC0CE019EDF81110AC0AB
S1132BD0B801CE010ADD811105C040E050E0BA0120
S1132BE0CE01B2DFDF91CF911F910F9108950F9322
S1132BF01F93CF93DF9361119BC0122FEC014431DB
S1132C0051F4002311F041E001C040E164E8CE0139
S1132C100E94E73193C0453109F05AC041E06FEF9B
S1132C200E94E731182F40E060E0CE010E94E731B6
S1132C30182B40E06FEFCE010E94E731182B41E0E2
S1132C4060E8CE010E94E731182B42E065E8CE012E
S1132C500E94E731182B44E06FEFCE010E94E73168
S1132C60182B40E06DECCE010E94E731182B41E1B6
S1132C706CECCE010E94E731182B47E06FEFCE01D8
S1132C800E94E731182B40E06EEBCE010E94E73141
S1132C90182B46E06FEFCE010E94E731182B49E074
S1132CA06CECCE010E94E731182B40E06FEFCE01AF
S1132CB00E94E731182B41E06FEFCE010E94E7310B
S1132CC0182B40E060E0CE010E94E731812B36C032
S1132CD0223059F028F4222361F0213059F10FC039
S1132CE0233051F1243019F00AC042E003C044E01B
S1132CF001C040E06AE0CE010E94E73101C085EFE7
S1132D0081111CC0002311F020E101C020E04FEE2E
S1132D1064E8CE010E941B32811110C0FE01E2530F
S1132D20FF4F108340E050E0BA01CE010DDF06C032
S1132D3086EF04C041E0DECF43E0DCCFDF91CF91EA
S1132D401F910F910895EF92FF920F931F93CF93CA
S1132D50DF93CDB7DEB7C754D1090FB6F894DEBF01
S1132D600FBECDBF7C01FE0131968AE3DF011D92C7
S1132D708A95E9F71CAE1BAE1DAE1EAE23961CAEA3
S1132D801DAE1EAE1FAE239761E0C7010E947321E2
S1132D90F701ED5FFE4F20812230A0F4319740818E
S1132DA050E060E070E0213031F4413251056105BA
S1132DB0710540F410C021110EC04D30510561055C
S1132DC0710548F0AE01425C5F4FBE01615C7F4F0C
S1132DD0C7013ED702C0C701B8D4811126C0F7018C
S1132DE0E85CFE4F80818111BEC0329760817181A1
S1132DF0BCC000E024E040E060E0C701F8DE8111DF
S1132E006CC041E06FEFC7010E94E731182FAE019B
S1132E10455C5F4F64E8C7010E946132182B40E0B3
S1132E206FEFC7010E94E731812B8111A5C0F70123
S1132E30E853FF4F8BAD9CAD82959295907F982778
S1132E40807F9827A0E0B0E080839183A283B3833E
S1132E50BE016F5F7F4FC70141DA811129C0BE01F6
S1132E60635C7F4FC7010E94AF0D811121C08DADFE
S1132E70F701E25EFE4F80838AE3FE013196D701BB
S1132E80509601900D928A95E1F7AE01435C5F4F35
S1132E9061E0C7010E945432811171C08DADF70108
S1132EA0E35EFE4F808340E060E0C7010E94C40DF2
S1132EB0811165C040E062E0C7010E94C40D811128
S1132EC01CC083E0F701E15EFE4F8083AE014D5BE1
S1132ED05F4F60E0C7010E949F2781111EC02496A6
S1132EE08FAD2497F701E852FF4F8083AE014D5B0D
S1132EF05F4F61E0C7010E949F27811124C024967F
S1132F008FAD2497F701ED52FF4F8083AE014C5BE8
S1132F105F4F63E0C7010E94D625811130C0289617
S1132F208CAD9DADAEADBFAD2897F701EC52FF4F10
S1132F3080839183A283B383AE014C5B5F4F64E0D3
S1132F40C7010E94D62581111AC0F701E153FF4F32
S1132F5028964CAD5DAD6EAD7FAD2897408351830F
S1132F60628373830CC066EB72E0C7010E94A629DA
S1132F70882309F43ECF71CF882309F486CFC95B37
S1132F80DF4F0FB6F894DEBF0FBECDBFDF91CF91F8
S1132F901F910F91FF90EF9008950F931F93CF937C
S1132FA0DF931F92CDB7DEB78B01AE014F5F5F4F4A
S1132FB063E10E9454329981492F477050E060E0E8
S1132FC070E0F8014083518362837383987109F040
S1132FD08AEF0F90DF91CF911F910F9108950F9376
S1132FE01F93CF93DF9300D000D01F92CDB7DEB7ED
S1132FF08B01FC01E253FF4F20812430A1F4BE0178
S11330006E5F7F4FCADF4A815B816C817D81443072
S113301051056105710521F491E0F801908314C014
S1133020F801108211C0AE014F5F5F4F64E10E944E
S11330305432811109C0998190FF04C091E0F801D4
S1133040908302C0F80110820F900F900F900F90A0
S11330500F90DF91CF911F910F91089576C308953A
S11330601CC40895CF93DF93EC01411520E352076C
S113307028EF62072FEF720724F440E050E368EF73
S11330807FEFCB01BA0169312CEC720727E082078C
S1133090910524F068E17CEC87E090E099233CF012
S11330A02AEF30E040E050E00E94EE3209C02AEFFF
S11330B030E040E050E00E94EE32305F4F4F5F4F0F
S11330C0A90168E2CE010E940032DF91CF910895F8
S11330D00F931F93CF93DF9300D0CDB7DEB78B014F
S11330E0AE014F5F5F4F68E20E946132811127C0D9
S11330F029813A813F70211598E0390788F03051D1
S11331009AEF929FA001939F500D1124052E000C5D
S1133110660B770BF80140835183628373830FC07E
S11331209AEF929FA001939F500D1124052E000C3D
S1133130660B770BF80140835183628373830F908E
S11331400F90DF91CF911F910F9108957F928F92ED
S11331509F92AF92BF92CF92DF92EF92FF920F9322
S11331601F93CF93DF93E701CC24CA94DC2C760120
S1133170C882D982EA82FB8268017901689412F8D4
S1133180F694E794D794C7941694D1F7480159015B
S1133190E7E08E229924AA24BB24C416D506E606A9
S11331A0F70608F047C0FC01EC0DFD1DD701C60170
S11331B07190C816D906EA06FB0661F4272D30E0A3
S11331C0082C02C0359527950A94E2F7722E9501D2
S11331D0840103C000E010E0980170FE18C002C032
S11331E070FE15C0880F991FAA1FBB1F880F991F57
S11331F0AA1FBB1F880F991FAA1FBB1F080F191FE7
S11332002A1F3B1F088319832A833B8313C07694A8
S11332100F5F1F4F2F4F3F4F083011052105310518
S1133220F8F20196A11DB11D84179507A607B707EB
S113323008F4BECFDF91CF911F910F91FF90EF90D3
S1133240DF90CF90BF90AF909F908F907F90089524
S1133250DC01CB01689415F8B695A79597958795E9
S11332601694D1F7BC01660F771F660F771FFB0119
S1133270E755FC4F81E04081518162817381452B88
S1133280462B472B09F480E00895CF92DF92EF920A
S1133290FF920F931F9368017901689412F8F694D2
S11332A0E794D794C7941694D1F70770112722276F
S11332B03327C416D506E606F70678F4FC01EC0DB0
S11332C0FD1D81E090E002C0880F991F0A95E2F786
S11332D09081892B808380E001C08EEC1F910F9137
S11332E0FF90EF90DF90CF9008952F923F924F92EE
S11332F05F926F927F928F929F92AF92BF92CF9282
S1133300DF92EF92FF920F931F93CF93DF93CDB78A
S1133310DEB72B970FB6F894DEBF0FBECDBF9E83EA
S11333208D83F701D986C886D901C801689412F83B
S1133330B695A795979587951694D1F789839A831F
S1133340AB83BC832801390197E0492255246624C4
S1133350772489819A81AB81BC8184179507A6075C
S1133360B70718F09EEC9F8301C01F821082118260
S11333701282138289809A80AB80BC80A1E08A1A71
S11333809108A108B1082D803E8030E0C12CD12CD9
S1133390760111E0012F68857985D1012D911D01F8
S11333A080E090E0DC01FB87EA877987688720FF6B
S11333B026C0EA85FB8540815181628173814F5F1C
S11333C05F4F6F4F7F4F408351836283738331110B
S11333D016C0E885F9851083F2E0CF16D104E10424
S11333E0F10450F484309105A105B10538F4E88561
S11333F0F9851082302F03C0302F01C0302F26955D
S11334000196A11DB11D89309105A105B10579F67B
S1133410EA85FB85688579854FEFC41AD40AE40AE6
S1133420F40A8C149D04AE04BF0408F0B6CFAD8139
S1133430BE8189819A81A80FB91F2C9180E090E008
S1133440DC012170222361F040815181628173810A
S11334504F5F5F4F6F4F7F4F40835183628373830E
S11334600196A11DB11D481659066A067B0650F740
S11334708F812B960FB6F894DEBF0FBECDBFDF91C0
S1133480CF911F910F91FF90EF90DF90CF90BF905D
S1133490AF909F908F907F906F905F904F903F90F0
S11334A02F9008950F931F93AB0106E010E020E0E6
S11334B030E060EB0E94B5311F910F9108950F9396
S11334C01F93AB0106E010E020E030E060EB0E94C7
S11334D0CE311F910F9108953F924F925F926F9258
S11334E07F928F929F92AF92BF92CF92DF92EF9290
S11334F0FF920F931F93CF93DF93CDB7DEB76497FB
S11335000FB6F894DEBF0FBECDBF9C8B8B8B362ECF
S11335105A8B498B388B2F87EB86FC860D871E8749
S11335202501360128A539A54AA55BA529833A8337
S11335304B835C838CA59DA5AEA5BFA5892B8A2B47
S11335408B2B09F47AC0812C912C5401DE01119645
S11335507D0108A519A52AA53BA54B855C856D852C
S11335607E8589899A89F2DDC980DA80EB80FC80C6
S1133570BFEFCB16DB06EB06FB0609F472C0C701EE
S1133580B601640D751D861D971D62DE831169C029
S1133590970186014B855C856D857E858F8598892D
S11335A074DEA70196012F5F3F4F4F4F5F4F28A74F
S11335B039A74AA75BA73FEF831A930AA30AB30A62
S11335C08CA59DA5AEA5BFA588159905AA05BB0523
S11335D009F0BCCF32C0BE016B5F7F4F8B899C89E1
S11335E06EDF2B853C854D855E85232B242B252B77
S11335F009F443C0AF85B8892C919D81291319C062
S11336001196FE01369640E050E0BA01CB84DC848A
S1133610ED84FE8404C02D91919129130CC04F5F59
S11336205F4F6F4F7F4FC416D506E606F70699F72E
S113363024C08EEC22C08EEC20C028A539A54AA552
S11336405BA5A8A9B9A92D933D934D935C931397BA
S11336506F8578898B899C8925DF882309F4BBCF02
S11336600CC028A539A54AA55BA5A8A9B9A92D937D
S11336703D934D935C9313978EEC64960FB6F89438
S1133680DEBF0FBECDBFDF91CF911F910F91FF9091
S1133690EF90DF90CF90BF90AF909F908F907F90EE
S11336A06F905F904F903F900895CF92DF92FF927A
S11336B00F931F93CF93DF93CDB7DEB769970FB600
S11336C0F894DEBF0FBECDBF8C016B01FC01E35E3D
S11336D0FE4FF08040EC61E00E94E73181111AC096
S11336E0BE016F5F7F4FC80164DA811120C041E0E1
S11336F06FEFC8010E94E731811119C0A60166EB82
S1133700C8010E946132811112C040E06FEFC8010C
S11337100E94E73181110BC04F2D61E0C8010E9466
S1133720E731811104C0F801E35EFE4FF08269962F
S11337300FB6F894DEBF0FBECDBFDF91CF911F91BE
S11337400F91FF90DF90CF9008956F927F928F92A8
S11337509F92AF92BF92CF92DF92EF92FF920F931C
S11337601F93CF93DF9300D000D0CDB7DEB74C01C9
S1133770642E152F062FB72E722E41E06FEF0E9494
S1133780E73181111AC040E06FE4C4010E94E731BF
S1133790811113C04CE26EE4C4010E94E73181112F
S11337A00CC040E06FEFC4010E94E731811105C0F5
S11337B044EB66EBC4010E94E731F401EF5EFE4F77
S11337C01082319610823196108231961082319691
S11337D010823196108271100AC0C12CD12C76014E
S11337E018C02FEFC21AD20AE20AF20A03C0C12C8F
S11337F0D12C7601C701B6016C547F4F8F4F9F4F78
S113380027DD811106C03CE2C316D104E104F104B2
S113381041F7CE0101969F938F93BF920F931F930D
S11338206F92FF92EF92DF92CF920F2EF4EBAF2EB6
S1133830B12CC12CD12CF02D16E0E12EF12C00E09E
S113384010E094012F5E3E4FA401495E5E4F672D48
S1133850C40142DE0FB6F894DEBF0FBECDBF8111A6
S113386009C0F401EC5FFE4F91E0908332976082CF
S1133870319670820F900F900F900F90DF91CF913F
S11338801F910F91FF90EF90DF90CF90BF90AF907A
S11338909F908F907F906F9008956F927F928F92F8
S11338A09F92AF92BF92CF92DF92EF92FF920F93CB
S11338B01F93CF93DF93CDB7DEB72B970FB6F89452
S11338C0DEBF0FBECDBF1B86FC01EC5FFE4F208127
S11338D0213091F432978080912CA12CB12CFB01E2
S11338E080829182A282B382FC01ED5FFE4F8081CF
S11338F0FA01808380E030C05A014B013C01BE01D3
S11339006F5F7F4FDCDD811127C0CE010B966C0108
S1133910FE0137967F010CE210E020E030E046E043
S113392050E060E070E00A97E0DC811115C02F815F
S1133930488539859A85F4012083418332839383B2
S11339409B85F5019083F301EC5FFE4F31E03083FA
S113395032972083319690832B960FB6F894DEBF6E
S11339600FBECDBFDF91CF911F910F91FF90EF90CC
S1133970DF90CF90BF90AF909F908F907F906F908B
S11339800895CF93DF93EC01462F416060E00E94DD
S1133990E731811110C0CE01D0D381110CC040E0B9
S11339A050E0BA01CE01D0D8811105C040E060E0FA
S11339B0CE010E94E731DF91CF9108955F926F921B
S11339C07F928F929F92AF92BF92CF92DF92EF92AB
S11339D0FF920F931F93CF93DF931F92CDB7DEB760
S11339E04C01D62E542EB22E3801198241E06FEFCD
S11339F00E94E731182F40E060E0C4010E94E731E3
S1133A00182B40E06FEFC4010E94E731182BDD2032
S1133A1099F0CC2031F0A3016BECC4010E94543224
S1133A20182BAA20D1F0AE014F5F5F4F6EEEC40198
S1133A300E945432182B11C0CC2031F0452D6BEC70
S1133A40C4010E94E731182BAA2039F02B2D40E83D
S1133A506EEEC4010E941B32182B41E06FEFC401CB
S1133A600E94E731182B41E060E0C4010E94E73175
S1133A70182B40E06FEFC4010E94E73199819F7ECB
S1133A80F7019083812B0F90DF91CF911F910F91BC
S1133A90FF90EF90DF90CF90BF90AF909F908F906A
S1133AA07F906F905F9008958F929F92AF92BF9294
S1133AB0CF92DF92EF92FF920F931F93CF93DF93F6
S1133AC01F92CDB7DEB74C018B01F42ED22E198292
S1133AD0222329F0FC01E35EFE4FB08001C0B12C2B
S1133AE041E061E0C4010E94E731811114C060E447
S1133AF0C40147DF81110FC091E0F9120CC0A12C61
S1133B00CC24C394FE0131967F0120E040E061E0C3
S1133B10C40154DF02C0F801108281110DC0DD2000
S1133B2059F04B2D61E0C4010E94E731811104C0BA
S1133B30F401E35EFE4FB0820F90DF91CF911F91AD
S1133B400F91FF90EF90DF90CF90BF90AF909F9038
S1133B508F9008958F929F92AF92BF92CF92DF92EF
S1133B60EF92FF920F931F93CF93DF931F92CDB7E2
S1133B70DEB74C017B01142FD22E222329F0FC0145
S1133B80E35EFE4FB08001C0B12C42E061E0C401AD
S1133B900E94E731811113C060E0C401F2DE81119B
S1133BA00EC0113061F4AA24A394C12C8E010F5FBE
S1133BB01F4F20E040E061E0C40100DF02C0F701D4
S1133BC0108281110DC0DD2059F04B2D61E0C4013C
S1133BD00E94E731811104C0F401E35EFE4FB0821C
S1133BE00F90DF91CF911F910F91FF90EF90DF9095
S1133BF0CF90BF90AF909F908F900895EF92FF92D7
S1133C000F931F93CF93DF93EC017A01122FFC01E2
S1133C10E35EFE4F008120E0412F46DF811111C099
S1133C2020E0412FB701CE0195DF81110AC0402F5A
S1133C3061E0CE010E94E731811103C0C35EDE4F13
S1133C400883DF91CF911F910F91FF90EF9008951A
S1133C502F923F924F925F926F927F928F929F9298
S1133C60AF92BF92CF92DF92EF92FF920F931F9386
S1133C70CF93DF93CDB7DEB7A7970FB6F894DEBF27
S1133C800FBECDBF4C017CA36BA35EA34DA31F82CB
S1133C90188619861A861B861C861D861E86198A16
S1133CA01A8AFC01E85DFE4F60807180779710826C
S1133CB0319610823196108231961082319610829C
S1133CC03196108241E06FEF0E94E73181111AC0F2
S1133CD040E06FE4C4010E94E73181111AC04CE254
S1133CE06EE4C4010E94E73181111EC040E06FEF11
S1133CF0C4010E94E731811144C044EB66EBC40166
S1133D000E94E7318111C4C140E060E8C4010E940F
S1133D10E731811176C120E0AE014E5E5F4FBE01F6
S1133D206F5E7F4FC4016ADF8111B2C11F821886A2
S1133D3019861A86CE0107969F938F931F921F921E
S1133D401F9283E08F931F921F921F921F920F2E38
S1133D50F4EBAF2EB12CC12CD12CF02D16E0E12EBA
S1133D60F12C00E010E094012F5E3E4FA401495E67
S1133D705E4F60E0C401B0DB0FB6F894DEBF0FBE47
S1133D80CDBF811185C1AF80B884C984DA84BE01F6
S1133D90615F7F4FC40189DC81117AC18F85988965
S1133DA06816790608F057C1F401EF5EFE4F1082E1
S1133DB0319610823196108231961082319610829B
S1133DC03196108205C03FEFA31AB30AC30AD30A7F
S1133DD0C601B5016C547F4F8F4F9F4F39DA811163
S1133DE006C04CE2A416B104C104D10460F3CE01B0
S1133DF007969F938F931F921F921F9283E08F9336
S1133E00DF92CF92BF92AF920F2EF4EBAF2EB12C74
S1133E10C12CD12CF02D16E0E12EF12C00E010E0A5
S1133E2094012F5E3E4FA401495E5E4F61E0C401E0
S1133E3053DB0FB6F894DEBF0FBECDBF811128C18E
S1133E40AF80B884C984DA84BE01615F7F4FC40146
S1133E502CDC81111DC18F8598896816790608F0BC
S1133E6003C1B1E0BFA30F2EF3E02F2E312C412C60
S1133E70512CF02D21E030E040E050E0298F3A8FC2
S1133E804B8F5C8FFDC0398D3FA326E0F401EF5EBC
S1133E90FE4FDE01119601900D922A95E1F78619E5
S1133EA097099C0122F422273327281B390BC901C7
S1133EB0330FAA0BBB0B8F8F98A3A9A3BAA323E03C
S1133EC030E040E050E02D8B3E8B4F8B588FA401A7
S1133ED0495E5E4F5E8F4D8FC4018F5E9E4F9C8BFB
S1133EE08B8BDE011B967D019601850146E050E037
S1133EF060E070E08D8D9E8D29D9CB84DC84ED84C7
S1133F00FE84BFEFCB16DB06EB06FB0609F4BFC04D
S1133F10C701B6016C547F4F8F4F9F4F99D990E0E2
S1133F20A0E0B0E0298D3A8D4B8D5C8D821793070C
S1133F30A407B50709F071C02D883E884F88588CB6
S1133F403FEF231A330A430A530A9701860146E0D6
S1133F5050E060E070E08B899C8997D9811198C00A
S1133F60560167014FEFA41AB40AC40AD40A6B8934
S1133F707C89C40197DA81118BC0BE01615F7F4FD8
S1133F80C40193DB811184C08F8598899C01261913
S1133F903709A90122F444275527421B530B052E48
S1133FA0000C660B770B68167906C8F48F8D98A100
S1133FB0A9A1BAA184179507A607B70790F5BE0172
S1133FC06F5F7F4FC4016EDA96E0FE013196D40133
S1133FD0AF5EBE4F01900D929A95E1F717C086E04F
S1133FE0EB89FC89DE01119601900D928A95E1F727
S1133FF02D8A3E8A4F8A588E4F8F58A369A37AA37D
S113400070CF1FA21D8A1E8A1F8A188E811140C07C
S11340102D883E884F88588C04C02D883E884F8850
S1134020588CABA1BCA12D923D924D925C921397FA
S11340302FA1EDA1FEA12083F401EC5FFE4F81E0EE
S1134040808332978C918083ADA1BEA18C913196EF
S1134050808380E01DC01FA2212C312C2101198EE8
S11340601A8E1B8E1C8E0CC01FA2212C312C2101F8
S113407021E030E040E050E0298F3A8F4B8F5C8F95
S11340808F8598898615970508F4FDCECACF8EECE6
S1134090A7960FB6F894DEBF0FBECDBFDF91CF91C8
S11340A01F910F91FF90EF90DF90CF90BF90AF9052
S11340B09F908F907F906F905F904F903F902F9044
S11340C00895AF92CF92EF92FF920F931F93CF93E5
S11340D0DF9300D0CDB7DEB7242FAA24A394CC2439
S11340E0C394AE014E5F5F4F7A018E010F5F1F4F85
S11340F0462F60E063DC0F900F90DF91CF911F910A
S11341000F91FF90EF90CF90AF900895AF92CF9220
S1134110EF92FF920F931F93AA24A394CC24C394E9
S11341207A018B0120E040E061E048DC1F910F91AF
S1134130FF90EF90CF90AF900895EF92FF920F937E
S11341401F93CF93DF931F92CDB7DEB77C01198203
S113415000E010E0BE016F5F7F4FC7010E94EF17C0
S113416081110EC09981913059F00F5F1F4F003DAE
S113417087E0180721F0C7010E94BB32EBCF89EF1B
S11341800F90DF91CF911F910F91FF90EF900895C1
S1134190CF92DF92EF92FF920F931F938B019C01BA
S11341A001151105210580E43807B0F480E090E0A2
S11341B0A0E0B0E4B695A79597958795B695A79591
S11341C097958795081719072A073B0798F30097CF
S11341D0A105B10529F430C080E090E0A0E0B0E48E
S11341E040E050E0BA016A017B01C80ED91EEA1E04
S11341F0FB1E0C151D052E053F0568F00C191D0945
S11342002E093F097695679557954795480F591F8D
S11342106A1F7B1F04C07695679557954795B69599
S1134220A79597958795B695A795979587950097A0
S1134230A105B105C1F603C040E050E0BA01CB01CD
S1134240BA011F910F91FF90EF90DF90CF900895E6
S1134250AF92BF92CF92DF92EF92FF921F93CF93D0
S1134260DF931F92CDB7DEB75C0140E063E80E94A4
S1134270E731182F811126C0C12CD12C7601AE0153
S11342804F5F5F4F63E8C5010E945432182F898144
S1134290811110C011110EC08FEFC81AD80AE80A94
S11342A0F80A80EDC81687E0D806E104F10439F76E
S11342B019EF08C080EDC81687E0D806E104F104C0
S11342C008F019EF41E063E8C5010E94E731812B52
S11342D00F90DF91CF911F91FF90EF90DF90CF90DF
S11342E0BF90AF9008952F923F924F925F926F923A
S11342F07F928F929F92AF92BF92CF92DF92EF9272
S1134300FF920F931F93CF93DF93CDB7DEB7AA9796
S11343100FB6F894DEBF0FBECDBF188619861A8675
S11343201B861C861D861E861F86FC01E152FF4FDC
S1134330D08027E0D21609F476C3062F7C0141E031
S113434060E80E94E731182F41E06FEFC7010E9437
S1134350E731182B40E060E0C7010E94E731182BD9
S113436046E06FEFC7010E94E731182BAE014F5FA3
S11343705F4F63E8C7010E945432182B498144609F
S113438063E8C7010E94E731182B47E06FEFC701CC
S11343900E94E731182B41E061E8C7010E94E73130
S11343A0182BC7010E94BB32182B41E060E8C701FB
S11343B00E94E731182B802F8170282E00FF56C0F1
S11343C0D0FC57C04BE664E9C7010E94E731C82E10
S11343D0C7013EDF8C29182BAE014E5F5F4F60E9A9
S11343E0C7010E948832182B8A819B81AC81BD81D0
S11343F0E92FEF77E9A7072E7FE0B695A795979564
S113440087957A95D1F7702DF82FF170FAA744E2C9
S113441064E9C7010E94E731182BC70119DF182B83
S1134420AE014E5F5F4F60E9C7010E948832182BCE
S11344308A819B812C813D813BA32CA39DA38EA3C8
S113444045E264E9C7010E94E731182BC70100DF88
S1134450182BAE014E5F5F4F60E9C7010E9488329E
S1134460182B8C819D819FA388A705C01AA619A625
S113447002C01AA619A6202F2270322E01FF60C195
S1134480D1FC5EC142E064E9C7010E94E731C82E55
S1134490C701DEDE8C29182BAE014A5F5F4F60E94D
S11344A0C7010E945432182B4BE764E9C7010E94EC
S11344B0E731182BC701CCDE182BAE01495F5F4FE3
S11344C060E9C7010E945432182B47E764E9C70129
S11344D00E94E731182BC701BBDE182BAE014E5FDB
S11344E05F4F60E9C7010E948832182B4A815B81C3
S11344F06C817D81DB01CA01072E79E1B695A79510
S1134500979587957A95D1F7702D8F77888BDB01F6
S1134510CA01072E72E1B695A795979587957A9566
S1134520D1F7702D8F77898BDB01CA01072E7BE0D1
S1134530B695A795979587957A95D1F7702D8F772E
S11345408A8BDB01CA01689413F8B695A7959795F1
S113455087951694D1F78F778B8B4F70440F440F48
S1134560440F498348E764E9C7010E94E731182BE7
S1134570C7016EDE182BAE014E5F5F4F60E9C701C5
S11345800E948832182B8A819B81AC81BD81AC0149
S1134590BD01032E3DE176956795579547953A956C
S11345A0D1F7302D4F773981242F230F2C8BAC0179
S11345B0BD01032E36E176956795579547953A9553
S11345C0D1F7302D4F774D8BAC01BD01032E3FE069
S11345D076956795579547953A95D1F7302D4F774E
S11345E04E8B292F2F772F8BAC01BD0176956795C4
S11345F0579547954F77488F982F91709295990FBB
S1134600990F907C998349E764E9C7010E94E731D7
S1134610182BC7011DDE182BAE014E5F5F4F60E9FA
S1134620C7010E948832182B8A819B81AC81BD818D
S1134630AC01BD01032E3AE17695679557954795F0
S11346403A95D1F7302D4F773981242F230F298FB5
S1134650AC01BD01032E33E17695679557954795D7
S11346603A95D1F7302D4F774A8FAC01BD01032E17
S11346703CE076956795579547953A95D1F7302D57
S11346804F774B8FAC01BD01689414F8769567950C
S1134690579547951694D1F74F774C8F982F9F7164
S11346A0990F990F99834AE764E9C7010E94E7319A
S11346B0182BC701CDDD182BAE014E5F5F4F60E9AB
S11346C0C7010E948832182B8A819B81AC81BD81ED
S11346D0AC01BD01032E3EE176956795579547954C
S11346E03A95D1F7302D4F773981242F230F2D8F11
S11346F0AC01BD01032E37E1769567955795479533
S11347003A95D1F7302D4F774E8F2A2F2F772F8F51
S1134710AC01BD01032E39E0769567955795479511
S11347203A95D1F7302D4F7748A3B695A79597952D
S11347308795B695A795979587958F7789A31AA29C
S1134740802F8470C82E02FF98C0D2FC9DC04BE716
S113475064E9C7010E94E731B82EC70179DD8B29CE
S1134760182BAE01485F5F4F60E9C7010E94883291
S1134770182B4CE764E9C7010E94E731182BC701E5
S113478067DD182BAE01445F5F4F60E9C7010E94EB
S11347908832182B43E764E9C7010E94E731182BDC
S11347A0C70156DD182BAE014E5F5F4F60E9C701AC
S11347B00E948832182B8A809B80AC80BD80BA2CE2
S11347C0A92C982C8824240135016624772444E7F5
S11347D064E9C7010E94E731182BC70139DD182BA2
S11347E0AE014E5F5F4F60E9C7010E948832182B0B
S11347F08A809B80AC80BD808B2C9924AA24BB2406
S113480084289528A628B72845E764E9C7010E94AB
S1134810E731182BC7011CDD182BAE014E5F5F4F2B
S113482060E9C7010E948832182B4A805B806C8043
S11348307D80762C652C542C44246624772446E70A
S113484064E9C7010E94E731182BC70101DD182B69
S1134850AE014E5F5F4F60E9C7010E948832182B9A
S11348608A819B81AC81BD818B2F9927AA27BB2785
S1134870482A592A6A2A7B2A0DC0812C912C54017A
S1134880412C512C320106C0812C912C5401412C15
S1134890512C320140E061E8C7010E94E731182B36
S11348A046E06FEFC7010E94E731182BAE014F5F5E
S11348B05F4F63E8C7010E945432182B49814B7F34
S11348C063E8C7010E94E731182B41E06FEFC7018D
S11348D00E94E731182B41E060E0C7010E94E731F4
S11348E0182B40E06FEFC7010E94E731182B40E01E
S11348F060E8C7010E94E731182B09F095C0222017
S1134900B9F0D0FC15C0F701EE5FFE4F29A5208356
S113491031968AA58083FE01B396D701A95EBE4F66
S11349209E01275D3F4F81918D932E173F07D9F745
S1134930332029F1D1FC23C08E81F701E052FF4FCF
S113494080838F813196808397012E513F4F9889C0
S1134950992381F080E0F901E80FF11D90838F5FC6
S1134960E0E1F0E0EC0FFD1FE80FF11D90819111E3
S1134970F2CF01C080E0F901E80FF11D1082CC20D4
S113498009F44BC0D2FC49C088859985AA85BB85AA
S1134990F701EB5FFE4F80839183A283B3838C8501
S11349A09D85AE85BF85349680839183A283B3832E
S11349B03496072E79E0880C991CAA1CBB1C7A95A6
S11349C0D1F7702D80829182A282B3824114510466
S11349D061047104B9F0A3019201395141095109EB
S11349E0A8EEB3E00E942233DC01CB01689413F8F3
S11349F0B695A795979587951694D1F79195819536
S1134A00910902C080E090E0092E000CAA0BBB0BB8
S1134A10F70184879587A687B787F701E152FF4F8F
S1134A200D29008301C010E0812FAA960FB6F894D7
S1134A30DEBF0FBECDBFDF91CF911F910F91FF90CD
S1134A40EF90DF90CF90BF90AF909F908F907F902A
S1134A506F905F904F903F902F9008950F931F9306
S1134A60611571058105910521F1AB01BC0141502E
S1134A70510961097109DB01CA018827892B8A2B35
S1134A808B2B79F080E090E0769567955795479564
S1134A9001968A019B010027012B022B032BA1F70E
S1134AA002C080E090E0982F88275527840F951F37
S1134AB002C080E090E01F910F9108958F929F9221
S1134AC0AF92BF92CF92DF92EF92FF924A015B01C5
S1134AD0A22FB0E020E03FE24AE350E00E942233FC
S1134AE06B017C0124EFC20E21E0D21EE11CF11CFB
S1134AF0A8EEB3E0A50194010E9422334B015C01AE
S1134B00C701B60120ED37E040E050E00E94CC320E
S1134B10820E931EA41EB51EC701B60128EE33E013
S1134B2040E050E00E94CC32C501B4010E94CC3276
S1134B30CA01B901FF90EF90DF90CF90BF90AF9082
S1134B409F908F900895CF92DF92EF92FF92CF9330
S1134B50DF93EB01A42FB0E020E03FE24AE350E012
S1134B600E9422336C507E4F8F4F9F4F0F2EF8EED2
S1134B70CF2EF3E0DF2EE12CF12CF02DA7019601CE
S1134B800E94CC32DE010E9422336C507E4F8F4F44
S1134B909F4FA70196010E94CC32CA01B901DF914F
S1134BA0CF91FF90EF90DF90CF900895AF92BF9296
S1134BB0CF92DF92EF92FF921F93CF93DF93CDB703
S1134BC0DEB72B970FB6F894DEBF0FBECDBF7C01C6
S1134BD06A011A821C821B82633000F5AE014F5FAA
S1134BE05F4F60E00E94C10D182F811108C0AE0113
S1134BF04E5F5F4F66E4C7010E945432182F6A81EA
S1134C00862F90E0A0E0B0E0BC01CD016F5F7F4F44
S1134C108F4F9F4F4981C70196DFA4C0633099F538
S1134C20AE014F5F5F4F60E00E94C10D182F8111EC
S1134C3091C0AE014F5F5F4F60E0C7010E94C10D9C
S1134C40182F811108C0AE014D5F5F4F61E5C701A8
S1134C500E946132182F2B813C81B9017727CB0147
S1134C60A0E0B0E004C0880F991FAA1FBB1F3A95AB
S1134C70D2F7BC01CD016F5F7F4F8F4F9F4F4981AA
S1134C80C70161DF6FC0643009F068C0BE01695FAD
S1134C907F4F0E946D0E8A85882331F1AE014F5FEC
S1134CA05F4F60E0C7010E94C10D182F811141C000
S1134CB0AE014D5F5F4F61E5C7010E946132182F5D
S1134CC02B813C81C9019927A0E0B0E004C0880F82
S1134CD0991FAA1FBB1F3A95D2F70196A11DB11DBA
S1134CE05C0111112BC002C0A12CB12CAE014F5F8D
S1134CF05F4F61E0C7010E94C10D182F811121C0CF
S1134D00AE014B5F5F4F61E7C7010E946132182F0C
S1134D102D813E81C9019927A0E0B0E004C0880F2D
S1134D20991FAA1FBB1F3A95D2F70196A11DB11D69
S1134D300AC0A12CB12C80E090E005C080E090E096
S1134D4002C080E090E0BC016A197B094981C70177
S1134D50FADE08C060E070E0CB0104C060E070E0FF
S1134D60CB0110E0F6016083718382839383812FEA
S1134D702B960FB6F894DEBF0FBECDBFDF91CF9157
S1134D801F91FF90EF90DF90CF90BF90AF90089568
S1134D908F929F92AF92BF92CF92DF92EF92FF9247
S1134DA00F931F93CF93DF93CDB7DEB728970FB63A
S1134DB0F894DEBF0FBECDBF8C0149015A016330A8
S1134DC018F5AE014F5F5F4F60E00E94C10DF82EF1
S1134DD08111A1C02981B501A401C8016FDE613030
S1134DE021E0720718F44FEF460F01C04FEFF801AE
S1134DF0E453FF4F842F90E09183808366E4C801DD
S1134E000E94E731F82E87C0633041F5AE014F5F51
S1134E105F4F60E00E94C10DF82E2981B501A40105
S1134E20C8014CDE8827992719DE9B838A83F80101
S1134E30E453FF4F91838083F1106DC0AC0161E5B1
S1134E40C8010E940032F82E811165C0F801EC52AD
S1134E50FF4F80829182A282B3825DC0643009F0E8
S1134E6056C0BE016C5F7F4F0E946D0E8F818823F8
S1134E7041F1AE014F5F5F4F60E0C8010E94C10D78
S1134E80F82E811148C0AE014E5F5F4F61E5C80145
S1134E900E946132F82E81113EC08A819B816C018F
S1134EA0DD24E12CF12C04C0CC0CDD1CEE1CFF1C19
S1134EB09A95D2F7D701C6010196A11DB11D6C01C7
S1134EC002C0C12CD12CAE014F5F5F4F61E0C8011D
S1134ED00E94C10DF82E81111EC02981B501A401C3
S1134EE0C801ECDD6C0D7D1D811D911DB7DDAC018C
S1134EF061E7C8010E940032F82E81110CC0F8014C
S1134F00E153FF4F80829182A282B38204C00F2EAC
S1134F10FCEFFF2EF02D8F2D28960FB6F894DEBFF0
S1134F200FBECDBFDF91CF911F910F91FF90EF90F6
S1134F30DF90CF90BF90AF909F908F9008950F9384
S1134F401F93CF93DF931F92CDB7DEB78A016623F9
S1134F5019F0613041F00EC0AE014F5F5F4F60E564
S1134F600E94543208C0AE014F5F5F4F60E70E9459
S1134F70543201C08CEF811105C099819F5F990F54
S1134F80F80190830F90DF91CF911F910F910895B5
S1134F908F929F92AF92BF92CF92DF92EF92FF9245
S1134FA00F931F93CF93DF93CDB7DEB72D970FB633
S1134FB0F894DEBF0FBECDBF0F2EF0EDCF2EF7E07D
S1134FC0DF2EE12CF12CF02DCE82DF82E886F986EB
S1134FD01A861B861C861D8640322EE45207610504
S1134FE0710508F494C06A017B018C01BE016F5FF6
S1134FF07F4F0E946D0E81119DC04601570186E3CB
S1135000881A8BE0980AA108B1088981811107C028
S11350108A81811104C08B81882309F484C0AE0184
S11350204A5F5F4F62E0C801C1DD811183C089819D
S1135030882309F474C08E819F81A885B985825B19
S11350409D4FAF4FBF4F88159905AA05BB0508F0C2
S113505060C0881A990AAA0ABB0A61C08E819F811E
S1135060A885B9858E549D4FAF4FBF4F880F991FA8
S1135070AA1FBB1F88159905AA05BB0508F057C0D0
S1135080881A990AAA0ABB0A4EC08A81882309F49D
S11350904AC08E819F81A885B9858C569D4FAF4F9C
S11350A0BF4F88159905AA05BB0508F042C0881AA8
S11350B0990AAA0ABB0A37C0AE01465F5F4F63E094
S11350C0C80174DD4A855B856C857D854C565D4FD2
S11350D06F4F7F4F481559056A057B05E0F4811130
S11350E029C0841A950AA60AB70A8D818823A9F0D3
S11350F0A5019401265232404109510964E0C801D6
S113510047DEF801C28AD38AE48AF58A13C08CEF99
S113511011C08CEF0FC08CEF0DC080E00BC08B81F1
S113512081119CCFB2CF8C818823F9F2C5CF8CEF4B
S113513001C08CEF2D960FB6F894DEBF0FBECDBF25
S1135140DF91CF911F910F91FF90EF90DF90CF905F
S1135150BF90AF909F908F9008958F929F92AF923F
S1135160BF92CF92DF92FF920F931F93CF93DF935F
S1135170CDB7DEB761970FB6F894DEBF0FBECDBFD3
S11351806C018B0180ED97E0A0E0B0E08A879B87FB
S1135190AC87BD871E861F86188A198A86E39BE022
S11351A0A0E0B0E0FB0180839183A283B383BE01BE
S11351B06F5F7F4FC6010E946D0EF82E8111B3C040
S11351C08981811107C08A81811104C08B81882360
S11351D009F4A5C0AE01465F5F4F62E0C601E6DC9C
S11351E0811197C089818823A9F08A859B85AC8524
S11351F0BD85825B9D4FAF4FBF4FF8014081518108
S113520062817381840F951FA61FB71F80839183CA
S1135210A283B3838B818823D1F08A859B85AC8557
S1135220BD858E549D4FAF4FBF4F880F991FAA1F46
S1135230BB1FF8014081518162817381840F951FE6
S1135240A61FB71F80839183A283B38368C08A811A
S1135250882309F464C08A859B85AC85BD858C56FA
S11352609D4FAF4FBF4FF8014081518162817381DF
S1135270840F951FA61FB71F80839183A283B383D6
S11352804EC0AE01425F5F4F63E0C6018FDC4E85C6
S11352905F85688979894C565D4F6F4F7F4FF80160
S11352A080809180A280B380480D591D6A1D7B1DAA
S11352B0408351836283738381112DC08D81882340
S11352C0E9F0AE014A5F5F4F64E0C6016FDC4E81D6
S11352D05F81688579854A5D5D4F6F4F7F4FF80127
S11352E080809180A280B380480D591D6A1D7B1D6A
S11352F0408351836283738381110FC0F8018081DD
S11353009181A281B381F601828B938BA48BB58B9F
S11353100AC0F82E08C0F82E06C0F82E04C08C81EE
S1135320882361F2AECF8F2D61960FB6F894DEBF5D
S11353300FBECDBFDF91CF911F910F91FF90DF90F2
S1135340CF90BF90AF909F908F9008952F923F92EF
S11353504F925F926F927F928F929F92AF92BF9281
S1135360CF92DF92EF92FF920F931F93CF93DF932D
S113537000D000D0CDB7DEB75C016B01E12CF12C7D
S113538080E035012DED621A2EEF720A45019FED82
S1135390891A9EEF990A2501EBED4E1AEEEF5E0A8B
S11353A01501F8ED2F1AFEEF3F0A90C097012F5F09
S11353B03F4F0F3F09F05FC0A7014E5F5F4FF601FB
S11353C0E20FF31F90819130D1F028F0923059F11F
S11353D09330E9F176C0F601EE0DFF1D938124E0D0
S11353E0E20EF11CF601E40FF51F208130E0322FAC
S11353F02227290F311DF4013183208367C0F60170
S1135400EE0DFF1D9381F4E0EF0EF11CF601E40FA5
S1135410F51F208130E0322F2227290F311DF3019F
S11354203183208353C0F601EE0DFF1D9381F4E018
S1135430EF0EF11CF601E40FF51F208130E0322F4E
S11354402227290F311DF201318320833FC0F60149
S1135450EE0DFF1D9381F4E0EF0EF11CF601E40F55
S1135460F51F208130E0322F2227290F311DF10151
S1135470318320832BC0053038F5F601E20FF31F8A
S11354806081F2E0EF0EF11C002391F09701D60148
S1135490AE0DBF1DFE013196E02EF12CCF018E0D15
S11354A09F1D4D914193E817F907D9F7E20EF31EBA
S11354B010E020E030E0AE014F5F5F4FC50155D7EB
S11354C005C07A018CEF02C079018CEFF601EE0D74
S11354D0FF1D0081002319F0882309F467CF0F9082
S11354E00F900F900F90DF91CF911F910F91FF902C
S11354F0EF90DF90CF90BF90AF909F908F907F9070
S11355006F905F904F903F902F900895CF92DF92CD
S1135510EF92FF920F931F93CF93DF931F92CDB718
S1135520DEB77C016B018A01DA011D921D921D9286
S11355301C921397BE016F5F7F4F0E94310FE82FBB
S1135540811122C089818823F9F0D60154968D9166
S11355509C915597D7015D962D913D914D915C910C
S11355609097DC010E942233DC01CB0180589F4FCD
S1135570AF4FBF4F492F5A2F6B2F7727D8014D9329
S11355805D936D937C9313978E2F0F90DF91CF9142
S11355901F910F91FF90EF90DF90CF900895CF92DD
S11355A0DF92EF92FF920F931F93CF93DF9300D07C
S11355B000D0CDB7DEB78A01FB01C484D584E6846C
S11355C0F784FA01C082D182E282F382AE014F5F96
S11355D05F4F9CDF811111C0F801C080D180E2804F
S11355E0F38049815A816B817C814C0D5D1D6E1D58
S11355F07F1D40835183628373830F900F900F90BC
S11356000F90DF91CF911F910F91FF90EF90DF905A
S1135610CF9008954F925F926F927F928F929F9254
S1135620AF92BF92CF92DF92EF92FF920F931F93AC
S1135630CF93DF93CDB7DEB764970FB6F894DEBF90
S11356400FBECDBF49875A876B877C8709831A832E
S11356502B833C83FC01E55CFE4F208131812901D1
S1135660612C712C32966081718182819381A301B6
S1135670920183D7DC01CB0180589F4FAF4FBF4FBE
S1135680692F7A2F8B2F992778D76D877E878F87FD
S1135690988B29813A814B815C8121153105410523
S11356A05105B1F149845A846B847C84032E3AE019
S11356B0440C551C661C771C3A95D1F7302DDA0141
S11356C0C901B695A79597958795BC01CD01640D41
S11356D0751D861D971D60D7DA01C901880F991FB2
S11356E0AA1FBB1FBC01CD01620F731F841F951F2E
S11356F09B01AC0142D7DC01CB019058AF4FBF4FA7
S11357009D014427552729873A874B875C8704C026
S113571019861A861B861C86A7019601C501B40149
S11357202CD7DC01CB019058AF4FBF4FBD01882768
S113573099279B01AC0121D7698B7A8B8B8B9C8B2E
S11357408FA198A5A9A5BAA59058AF4FBF4FCD0179
S1135750AA27BB27BC01CD016D5F7F4F8F4F9F4FA1
S11357602BEA3AEA4AEA5AEA77D700E29ED7822E2F
S1135770932EA42EB52EB501A40176956795579561
S113578047957695679557954795DB01CA01880F2C
S1135790991FAA1FBB1F880F991FAA1FBB1F880F21
S11357A0991FAA1FBB1F841B950BA60BB70B009751
S11357B0A140B10508F03EC06FA178A589A59AA5BE
S11357C06D5F7F4F8F4F9F4F2BEA3AEA4AEA5AEABE
S11357D043D76BD729833A834B835C836D837E8362
S11357E08F83988749805A806B807C8076946794F5
S11357F0579447947694679457944794D301C2017D
S1135800880F991FAA1FBB1F880F991FAA1FBB1FB0
S1135810880F991FAA1FBB1F84199509A609B709E8
S11358209058AF4FBF4FBD01882799279B01AC010A
S1135830A4D604C060E070E080EF9FEF4BA45CA4AA
S11358406DA47EA47694679457944794C988DA88A3
S1135850EB88FC88C40CD51CE61CF71C6C0D7D1D64
S11358608E1D9F1D2BA53CA54DA55EA595D6DA01E1
S1135870C901072E7EE0880F991FAA1FBB1F7A95C6
S1135880D1F7702DBC01CD0161587F4F8F4F9F4FD1
S11358902EEF30E040E050E07FD6CA01B9012985FF
S11358A03A854B855C8569D66C507E4F8F4F9F4FF0
S11358B00F2EF8EE8F2EF3E09F2EA12CB12CF02D9D
S11358C0A501940169D669017A01CC0CDD1CEE1C9A
S11358D0FF1CCC0CDD1CEE1CFF1CCC0CDD1CEE1CD8
S11358E0FF1CCC0CDD1CEE1CFF1C44EFC40E41E07D
S11358F0D41EE11CF11CC701B601A50194014CD6CC
S113590049015A018D859E85AF85B8898096A11D70
S1135910B11DBC01CD01689415F8969587957795CE
S113592067951694D1F70E94C8202B013C0181147D
S11359309104A104B104A9F0C701B60120ED37E038
S113594040E050E029D66D857E858F859889620F69
S1135950731F841F951FA50194011ED6CA01B901A6
S113596003C060E070E0CB010E94C8206415750597
S11359708605970540F0AFA5B8A94D925D926D924A
S11359807C92139706C0EFA5F8A960837183828384
S1135990938380E064960FB6F894DEBF0FBECDBF4C
S11359A0DF91CF911F910F91FF90EF90DF90CF90F7
S11359B0BF90AF909F908F907F906F905F904F902B
S11359C008952F923F924F925F926F927F928F929F
S11359D09F92AF92BF92CF92DF92EF92FF920F937A
S11359E01F93CF93DF93CDB7DEB7E5970FB6F89447
S11359F0DEBF0FBECDBF1C017A8769875C8F4B8FDA
S1135A003A8F298FFC01858D968DA78DB0A189834E
S1135A109A83AB83BC83DB0150962D913D914D91CC
S1135A205C9153972D873E874F87588B1C962D91F9
S1135A303D914D915C911F9729A33AA34BA35CA37D
S1135A40AE014B5F5F4FC101AADDAE014F5F5F4FF7
S1135A5069857A85C1015ADD182F8111B8C2F10117
S1135A60E153FF4F20813181428153812DA33EA315
S1135A704FA358A734960081202F4DA15EA16FA19A
S1135A8078A5C1011BD82B013C01F101EC52FF4F59
S1135A9080819181A281B38189A79AA7ABA7BCA772
S1135AA034962081AC01BD01C10108D84B015C01D1
S1135AB0083049F422E030E040E050E02D8B3E8B8A
S1135AC04F8B588F08C083E090E0A0E0B0E08D8B4E
S1135AD09E8BAF8BB88FCD80DE80EF80F884A8EEEC
S1135AE0B3E0A7019601AED5DC01CB019058AF4FCE
S1135AF0BF4F9D0144275527298B3A8B4B8B5C8BD9
S1135B0089819A81AB81BC818EA79FA7A8ABB9ABD1
S1135B1090E8C90ED11CE11CF11CCD2CDE2CEF2C1D
S1135B20FF245E2D4D2D3C2D22272D8F3E8F4F8F30
S1135B3058A32D833E834F83588789899A89AB89DB
S1135B40BC89892B8A2B8B2BC9F48EEA97E8AFE8A2
S1135B50B2E0EB8DFC8D80839183A283B383F1014A
S1135B60E65DFE4F80839183A283B383A98DBA8DB2
S1135B701D921D921D921C92139729C2840C951C90
S1135B80A61CB71CA5019401012E1BE0220F331F94
S1135B90441F551F1A95D1F7102D6D897E898F8961
S1135BA0988DEBD46C507E4F8F4F9F4F0F2EF8EE95
S1135BB08F2EF3E09F2EA12CB12CF02DA501940182
S1135BC0EBD4A7E7B6E03ED56C507E4F8F4F9F4F86
S1135BD0A5019401E1D42D8B3DA7042F152FC701F6
S1135BE0B601CBD4DC01CB0180589F4FAF4FBF4FE0
S1135BF0492E5A2E6B2E77244114510461047104EA
S1135C0021F4412C512C32014394A8EEB3E02D85AC
S1135C103E854F85588916D56627772729893A897D
S1135C204B895C89B9D42736B6E63B074B07510547
S1135C3020F026E636E646E650E0A8E5B2E002D5D6
S1135C406D877E878F87988BD301C201880F991F38
S1135C50AA1FBB1F840D951DA61DB71DBC01CD0138
S1135C60660F771F881F991F660F771F881F991F5C
S1135C700E94C8209B01AC01220F331F441F551FF3
S1135C802AAB3BAB4CAB5DABE985FA85A085B1850E
S1135C90808D81118BC029893A894B895C8959018E
S1135CA0992488242AE939E946E050E0CBD42CE54C
S1135CB032E140E050E070D429873A874B875C8713
S1135CC0A8EEB3E02EA53FA548A959A9BBD46130DD
S1135CD0710532E38307910520F060E070E082E310
S1135CE090E0DC01CB01880F991FAA1FBB1FA501FF
