S0160000496D706C656D656E746174696F6E2E7372656348
S11300004CC000002DC1000035C100003DC10000FE
S1130010FFC0000007C100000FC1000017C10000AD
S11300200C94F508E1C500001BC60000B2C5000031
S113003053C50000C6C4000024C5000097C40000D6
S11300404AC0000048C0000046C00000DCC20000F6
S1130050EEC700000C9471080C94CE083CC000005C
S11300603AC0000038C0000036C0000034C00000B0
S113007032C0000030C000002EC000002CC00000C0
S11300802AC0000028C0000026C00000370740072F
S1130090490752075B0764076D0711241FBECFEFA2
S11300A0D0E4DEBFCDBF11E0A0E0B1E0E4EFF5E1C4
S11300B000E00BBF02C007900D92A030B107D9F742
S11300C021E0A0E0B1E001C01D92A937B207E1F739
S11300D003D00C94F80A94CF77D078940E94200926
S11300E00E947D092FEF8DE399E4215080409040D8
S11300F0E1F700C00000CEE18C2F0E947C0A2FEFB4
S113010080E792E0215080409040E1F700C0000079
S1130110CB5FC73389F72FEF8DE399E421508040FB
S11301209040E1F700C0000081E00E941F0A2FEF19
S113013083ED90E3215080409040E1F700C000003F
S113014082E00E941F0ACEE18C2F0E947C0A2FEFCE
S113015080E792E0215080409040E1F700C0000029
S1130160C65FC43689F72FEF81E19AE721508040BA
S11301709040E1F700C00000CEE18C2F0E947C0A81
S11301802FEF80E792E0215080409040E1F700C0DB
S11301900000C65FC43689F783E00E941F0A2FEF70
S11301A081E19AE7215080409040E1F700C00000CF
S11301B00E94F5092FEF83ED90E321508040904099
S11301C0E1F700C000008CCF80E885BF85BF0895AB
S11301D0613061F028F0623079F0633099F008956D
S11301E0482F672F81E290E0C4C00895482F672FFD
S11301F084E290E0BEC00895482F672F87E290E024
S1130200B8C00895482F672F8AE290E0B2C00895DD
S11302101F920F920FB60F9211240F900FBE0F90E2
S11302201F9018951F920F920FB60F9211240F90E2
S11302300FBE0F901F9018951F920F920FB60F923A
S113024011240F900FBE0F901F9018951F920F92BC
S11302500FB60F9211240F900FBE0F901F90189598
S11302601F920F920FB60F9211240F900FBE0F9092
S11302701F9018951F920F920FB60F9211240F9092
S11302800FBE0F901F9018951F920F920FB60F92EA
S113029011240F900FBE0F901F9018950F931F936A
S11302A0CF93DF93C62F172FD82F092F91DFD111AA
S11302B023C0C13081F028F0C23099F0C330B9F0C6
S11302C01BC0402F612F82E290E053D0612F8EE754
S11302D090E073D011C0402F612F85E290E049D0A7
S11302E00BC0402F612F88E290E043D005C0402F1F
S11302F0612F8BE290E03DD0DF91CF911F910F9160
S11303000895613059F028F0623069F0633081F06B
S11303100895672F82E290E044C00895672F85E234
S113032090E03FC00895672F88E290E03AC00895B6
S1130330672F8BE290E035C00895613059F028F0C2
S1130340623069F0633081F00895672F82E290E0B3
S113035034C00895672F85E290E02FC00895672F79
S113036088E290E02AC00895672F8BE290E025C0D0
S11303700895FC01942F208141E050E0062E02C034
S1130380440F551F0A94E2F7409550952423492FB2
S113039050E002C0440F551F6A95E2F7422B408398
S11303A00895FC01408121E030E002C0220F331F98
S11303B06A95E2F7242B20830895FC01908121E0C3
S11303C030E002C0220F331F6A95E2F720952923FB
S11303D02083089590E002C0959587956A95E2F789
S11303E081700895FC019B01DA010E94E90A9F01D2
S11303F040E050E00E94BE0AC9010895CF93DF9304
S1130400EC01488159816A817B818C8154D4888133
S1130410813009F062C08091880090918900892B15
S113042049F080918800909189009093870080938F
S1130430860006C08FEF9FEF90938700809386001D
S113044064E081E890E0ADDF60E080E890E0B5DF53
S11304508E81882319F0813051F019C063E081E85E
S113046090E09FDF61E080E890E09BDF10C063E0F4
S113047081E890E0A2DF8D81882329F061E080E8A3
S113048090E09BDF04C061E080E890E08ADF8F8128
S1130490882371F067E080E890E083DF488566E0B8
S11304A080E890E066DF63E075E081E090E0F6DEEE
S11304B08985882371F065E080E890E072DF4A85E1
S11304C064E080E890E055DF63E074E081E090E070
S11304D0E5DE1092010110920001DF91CF910895A1
S11304E0EF92FF920F931F93CF93DF93CDB7DEB7B5
S11304F02B970FB6F894DEBF0FBECDBF4E2D5F2DE8
S1130500602F712F822F22D52B960FB6F894DEBF61
S11305100FBECDBFDF91CF911F910F91FF90EF9050
S11305200895EF92FF920F931F93CF93DF93CDB76C
S1130530DEB72B970FB6F894DEBF0FBECDBF4E2D9E
S11305405F2D602F712F822F46D52B960FB6F8940E
S1130550DEBF0FBECDBFDF91CF911F910F91FF90F2
S1130560EF900895AF92CF92EF92FF920F931F9363
S1130570CF93DF93CDB7DEB72B970FB6F894DEBFDA
S11305800FBECDBF9E2DE982FA820B831C832D837F
S11305903E834F83588769877A878B87913021F50B
S11305A08C2DC11010C0A092010140918600509181
S11305B087006A2D70E084E690E014DF9093890050
S11305C08093880011C0813079F4A0920001409199
S11305D08600509187006A2D70E084E690E002DF87
S11305E090938B0080938A002B960FB6F894DEBF0D
S11305F00FBECDBFDF91CF911F910F91FF90EF9070
S1130600CF90AF9008951F920F920FB60F921124BE
S11306100BB60F928F939F93EF93FF93E091070193
S1130620F0E08EB5E85FFE4F80838091070189304A
S113063030F4809107018F5F8093070102C010920C
S1130640070181E0809306019091040180911D01CE
S11306509817A1F0E0910401F0E0EE5EFE4F808176
S11306608EBD80910401893030F4809104018F5F44
S11306708093040106C01092040103C081E08093BA
S11306801C01FF91EF919F918F910F900BBE0F90E2
S11306900FBE0F901F9018958F929F92AF92BF92AA
S11306A0EF92FF920F931F93CF93DF9300D000D06C
S11306B01F92CDB7DEB748015901413021F04230D5
S11306C009F483C040C160E072E18AE790E0A901C7
S11306D0980154D7DA01C9010197A109B10900971A
S11306E021E0A207B10550F449EF5FEF6FEF70E02E
S11306F0F701408351836283738328C160E472E409
S11307008FE090E0A501940139D7DA01C90101977E
S1130710A109B1090097F1E0AF07B10550F44AEF20
S11307205FEF6FEF70E0F70140835183628373835F
S11307300DC168E478EE81E090E0A50194011ED734
S1130740DA01C9010197A109B1090097F1E0AF07E6
S1130750B10550F44CEF5FEF6FEF70E0F7014083A9
S1130760518362837383F2C062E17AE780E090E0B0
S1130770A501940103D7DA01C9010197A109B109BF
S11307800097F1E0AF07B10550F44EEF5FEF6FEF64
S113079070E0F7014083518362837383D7C08FEF86
S11307A09FEFAFEFB0E0F70180839183A283B3831F
S11307B064E87EE180E090E0A5019401DFD6DA01EF
S11307C0C9010197A109B109C1C060E072E18AE7DA
S11307D090E0A9019801D2D6DA01C9010197A109D3
S11307E0B1098F3F9105A105B10509F050F449EF16
S11307F05FEF6FEF70E0F70140835183628373838F
S1130800A5C060E472E48FE090E0A5019401B6D63F
S1130810DA01C9010197A109B1098F3F9105A10529
S1130820B10509F050F44AEF5FEF6FEF70E0F701A4
S1130830408351836283738389C060E970ED83E0F0
S113084090E0A50194019AD6DA01C9010197A109A2
S1130850B1098F3F9105A105B10509F050F44BEFA3
S11308605FEF6FEF70E0F70140835183628373831E
S11308706DC068E478EE81E090E0A50194017ED635
S1130880DA01C9010197A109B1098F3F9105A105B9
S1130890B10509F050F44CEF5FEF6FEF70E0F70132
S11308A0408351836283738351C064E274EF80E0B8
S11308B090E0A501940162D6DA01C9010197A1096A
S11308C0B1098F3F9105A105B10509F050F44DEF31
S11308D05FEF6FEF70E0F7014083518362837383AE
S11308E035C062E17AE780E090E0A501940146D644
S11308F0DA01C9010197A109B1098F3F9105A10549
S1130900B10509F050F44EEF5FEF6FEF70E0F701BF
S1130910408351836283738319C08FEF9FEFAFEFDE
S1130920B0E0F70180839183A283B38364E87EE11E
S113093080E090E0A501940121D6DA01C901019774
S1130940A109B10903C080E090E0DC010F900F9091
S11309500F900F900F90DF91CF911F910F91FF9007
S1130960EF90BF90AF909F908F9008951F920F9239
S11309700FB60F9211240BB60F922F933F934F9300
S11309805F936F937F938F939F93AF93BF93EF93F3
S1130990FF93E0911E01F0911F010995FF91EF91E2
S11309A0BF91AF919F918F917F916F915F914F9183
S11309B03F912F910F900BBE0F900FBE0F901F9081
S11309C018951F920F920FB60F9211240BB60F9227
S11309D00F931F932F933F934F935F936F937F9343
S11309E08F939F93AF93BF93CF93DF93EF93FF9333
S11309F0C1E8D0E0888164E0EDDC182F888163E0F1
S1130A00E9DCC12FCC0FCC0FCC0F24E0829FC001B6
S1130A101124C82B00E810E0F801808161E0DADCE1
S1130A20D82FF801808160E0D5DCDD0F8C2B8D2B75
S1130A30883018F4843019F408C080FD06C0E091B1
S1130A402001F0912101099505C0E0911E01F0916A
S1130A501F010995FF91EF91DF91CF91BF91AF9164
S1130A609F918F917F916F915F914F913F912F91C2
S1130A701F910F910F900BBE0F900FBE0F901F9000
S1130A8018951F920F920FB60F9211240BB60F9266
S1130A902F933F934F935F936F937F938F939F9382
S1130AA0AF93BF93EF93FF93E0912201F091230161
S1130AB00995FF91EF91BF91AF919F918F917F9194
S1130AC06F915F914F913F912F910F900BBE0F90BB
S1130AD00FBE0F901F9018951F920F920FB60F9292
S1130AE011240BB60F920F931F932F933F934F93A1
S1130AF05F936F937F938F939F93AF93BF93CF93A2
S1130B00DF93EF93FF93C1E8D0E0888164E062DC77
S1130B10182F888163E05EDCC12FCC0FCC0FCC0F83
S1130B2024E0829FC0011124C82B00E810E0F801E2
S1130B30808161E04FDCD82FF801808160E04ADCDD
S1130B40DD0F8C2B8D2B883010F080FF06C0E091D8
S1130B502401F0912501099505C0E0911E01F09151
S1130B601F010995FF91EF91DF91CF91BF91AF9153
S1130B709F918F917F916F915F914F913F912F91B1
S1130B801F910F910F900BBE0F900FBE0F901F90EF
S1130B9018951F920F920FB60F9211240BB60F9255
S1130BA02F933F934F935F936F937F938F939F9371
S1130BB0AF93BF93EF93FF93E0912801F091290144
S1130BC00995FF91EF91BF91AF919F918F917F9183
S1130BD06F915F914F913F912F910F900BBE0F90AA
S1130BE00FBE0F901F9018951F920F920FB60F9281
S1130BF011240BB60F922F933F934F935F936F93F0
S1130C007F938F939F93AF93BF93EF93FF938091C1
S1130C10B10063E0DFDB81110BC08091B000837011
S1130C20823031F0E0912A01F0912B01099505C041
S1130C30E0912801F09129010995FF91EF91BF916D
S1130C40AF919F918F917F916F915F914F913F9160
S1130C502F910F900BBE0F900FBE0F901F90189501
S1130C601F920F920FB60F9211240BB60F922F936F
S1130C703F934F935F936F937F938F939F93AF9320
S1130C80BF93EF93FF93E0912C01F0912D0109950F
S1130C90FF91EF91BF91AF919F918F917F916F9150
S1130CA05F914F913F912F910F900BBE0F900FBE0C
S1130CB00F901F901895EF92FF920F931F93CF936D
S1130CC0DF93CDB7DEB729970FB6F894DEBF0FBE1A
S1130CD0CDBF4D835E836F83788789870E811F81A3
S1130CE02885398519821A821B821C82413021F0A1
S1130CF0423009F495C01DC1093F8FEF180728073A
S1130D00310528F009831A832B833C8315C0CE0157
S1130D1001967C014D815E816F8178858985BCDC7B
S1130D20909387008093860064E081E890E039DB4B
S1130D3063E081E890E035DB89819A81AB81BC81F5
S1130D408C3F2FEF9207A207B10559F160F4893F58
S1130D502FEF9207A207B10591F08A3F9F4FAF4F43
S1130D60B105B1F038C08E3F2FEF9207A207B1054D
S1130D7009F18F3F9F4FAF4FB10529F12CC081E09E
S1130D8090E0A0E0B0E089839A83AB83BC8323C066
S1130D9082E090E0A0E0B0E089839A83AB83BC83D7
S1130DA01AC083E090E0A0E0B0E089839A83AB832B
S1130DB0BC8311C084E090E0A0E0B0E089839A8312
S1130DC0AB83BC8308C085E090E0A0E0B0E08983F9
S1130DD09A83AB83BC8349815A816B817C817695EC
S1130DE067955795479576956795579547954170BB
S1130DF062E086E291E0BDDA49815A816B817C81AF
S1130E007695679557954795417061E086E291E044
S1130E10B0DA4981417060E086E291E0AADA89C0E3
S1130E20093F8FEF18072807310528F009831A8333
S1130E302B833C830FC0CE0101967C014D815E81E2
S1130E406F817885898528DC8093B30061E080EB2D
S1130E5090E0A7DA89819A81AB81BC81FC01379645
S1130E60E730F10508F041C0EA5BFF4FA9C381E018
S1130E7090E0A0E0B0E089839A83AB83BC8335C063
S1130E8082E090E0A0E0B0E089839A83AB83BC83E6
S1130E902CC083E090E0A0E0B0E089839A83AB8328
S1130EA0BC8323C084E090E0A0E0B0E089839A830F
S1130EB0AB83BC831AC085E090E0A0E0B0E08983F6
S1130EC09A83AB83BC8311C086E090E0A0E0B0E0DD
S1130ED089839A83AB83BC8308C087E090E0A0E059
S1130EE0B0E089839A83AB83BC8349815A816B8147
S1130EF07C8176956795579547957695679557952F
S1130F004795417062E087E291E033DA49815A8182
S1130F106B817C817695679557954795417061E023
S1130F2087E291E026DA4981417060E087E291E04E
S1130F3020DA29960FB6F894DEBF0FBECDBFDF913D
S1130F40CF911F910F91FF90EF900895CF93DF936E
S1130F5000D000D01F92CDB7DEB7413019F0423037
S1130F60D1F031C04091260142FB442740F962E0B0
S1130F7081E890E0FED9409126014695417061E0F8
S1130F8081E890E0F6D940912601417060E081E863
S1130F9090E0EFD918C04091270142FB442740F963
S1130FA062E081EB90E0E5D94091270146954170DC
S1130FB061E081EB90E0DDD940912701417060E070
S1130FC081EB90E0D6D90F900F900F900F900F9077
S1130FD0DF91CF910895CF93DF9300D000D01F927B
S1130FE0CDB7DEB749835A836B837C838D834130CD
S1130FF019F0423059F013C0E1E8F0E080818770C5
S1131000809326018081887F808309C0E1EBF0E032
S113101080818770809327018081887F80830F90EF
S11310200F900F900F900F90DF91CF9108951F9222
S11310300F920FB60F9211240BB60F922F933F937A
S11310404F935F936F937F938F939F93AF93BF93CC
S1131050EF93FF938091C10062E0BCD9813099F491
S1131060E0913001F0E08091C1002091C6008270CF
S113107090E0982F8827822BEE0FFF1FEF5CFE4F26
S1131080918380830CC0E0913001F0E08091C60030
S113109090E0EE0FFF1FEF5CFE4F91838083809101
S11310A03001893030F4809130018F5F80933001BA
S11310B002C01092300181E080934601FF91EF91CC
S11310C0BF91AF919F918F917F916F915F914F915C
S11310D03F912F910F900BBE0F900FBE0F901F905A
S11310E018951F920F920FB60F9211240BB60F9200
S11310F02F933F934F935F936F937F938F939F931C
S1131100AF93BF93EF93FF9390912F0180912E01A2
S1131110981769F18091C10062E05CD9813079F45B
S1131120E0912F01F0E0EE0FFF1FE95BFE4F80819D
S11311309181E1ECF0E080819170892B8083E091D2
S11311402F01F0E0EE0FFF1FE95BFE4F80819181DC
S11311508093C60080912F01893030F480912F0153
S11311608F5F80932F0107C010922F0104C065E0A8
S113117081EC90E022D9FF91EF91BF91AF919F91C3
S11311808F917F916F915F914F913F912F910F902C
S11311900BBE0F900FBE0F901F9018951F920F92C9
S11311A00FB60F9211240BB60F928F939F93EF9368
S11311B0FF9380E090E0FC01EE0FFF1FE95BFE4F20
S11311C01182108201968A309105A9F710922F019D
S11311D010922E01FF91EF919F918F910F900BBE72
S11311E00F900FBE0F901F9018951F920F920FB67D
S11311F00F9211240BB60F922F933F934F935F934B
S11312006F937F938F939F93AF93BF93EF93FF93CA
S1131210E0915B01F0915C010995FF91EF91BF9121
S1131220AF919F918F917F916F915F914F913F917A
S11312302F910F900BBE0F900FBE0F901F9018951B
S1131240E1E6F1E081E0828393E0908322E0218370
S11312501382EDE5F1E08283908391831382E5E6C6
S1131260F1E08283908396E091831382E9E6F1E0D2
S113127040E25EE460E070E0418352836383748300
S1131280808395E0AEE6B1E001900D929A95E1F786
S1131290EEE6F1E015821682878310868187128636
S11312A06091610170916201809163019091640188
S11312B00E944E0160915D0170915E0180915F0119
S11312C0909160010E944E016091650170916601E8
S11312D080916701909168010E944E0140916901DB
S11312E050916A0160916B0170916C0180916D0164
S11312F0E2DC8EE691E082C80895AF92CF92EF923D
S1131300FF920F931F93CF9360915D0170915E01E3
S113131080915F019091600110D860916501709196
S11313206601809167019091680107D8609161011D
S11313307091620180916301909164010E94810126
S1131340E0906E01F0906F010091700110917101B5
S11313502091720130917301409174015091750193
S1131360609176017091770180917801B9D8C0E0DD
S1131370AC2EC12CE0906E01F0906F0100917001D1
S113138010917101209172013091730140917401A7
S11313905091750160917601709177018091780187
S11313A0E1D8CC24C394E0906E01F0906F010091D9
S11313B0700110917101209172013091730140917B
S11313C0740150917501609176017091770180915B
S11313D07801C8D8C65FC83259F6CF911F910F91D2
S11313E0FF90EF90CF90AF900895EF92FF920F93FC
S11313F01F93E0906E01F0906F01009170011091C5
S113140071012091720130917301409174015091E6
S1131410750160917601709177018091780181D88E
S11314206091610170916201809163019091640106
S11314300E949D011F910F91FF90EF9008958130BC
S1131440E1F030F0823071F1833009F440C0089546
S113145060915D0170915E0180915F0190916001E6
S11314600E949D0160916501709166018091670100
S1131470909168010C949D01089560915D017091B3
S11314805E0180915F01909160010E9481016091F1
S113149065017091660180916701909168010C94D7
S11314A08101089560915D0170915E0180915F01F9
S11314B0909160010E949D016091650170916601A7
S11314C080916701909168010C9481010895609165
S11314D05D0170915E0180915F01909160010E94B5
S11314E0810160916501709166018091670190911D
S11314F068010C949D010895AF92CF92EF92FF92F0
S11315000F931F93CF93A82EC12CE0906E01F090FF
S11315106F0100917001109171012091720130915D
S1131520730140917401509175016091760170913D
S113153077018091780116D8CC24C394E0906E0191
S1131540F0906F010091700110917101209172016E
S1131550309173014091740150917501609176014D
S113156070917701809178010E94B202CF911F910E
S11315700F91FF90EF90CF90AF900895A1E21A2EB3
S1131580AA1BBB1BFD010DC0AA1FBB1FEE1FFF1F23
S1131590A217B307E407F50720F0A21BB30BE40B73
S11315A0F50B661F771F881F991F1A9469F76095BA
S11315B07095809590959B01AC01BD01CF01089574
S11315C0EE0FFF1F0024001C0BBE0790F691E02DC8
S11315D00994A29FB001B39FC001A39F700D811D08
S11315E01124911DB29F700D811D1124911D089528
S10715F0F894FFCF99
S9030000FC
