S0160000496D706C656D656E746174696F6E2E7372656348
S113000045C00000F9C0000001C1000009C10000A2
S1130010CBC00000D3C00000DBC00000E3C0000080
S113002080C60000C8C4000002C5000099C40000D6
S11300303AC40000ADC300000BC400007EC300003E
S113004043C0000041C000003FC000002DC30000B9
S11300503BC0000039C0000037C0000035C00000BC
S113006033C0000031C000002FC000002DC00000CC
S11300702BC0000029C0000027C0000025C00000DC
S113008023C0000021C000001FC0000011241FBEB7
S1130090CFEFD0E4DEBFCDBF17E0A0E0B1E0E2E3F4
S11300A0FAE500E00BBF02C007900D92AA3EB1072B
S11300B0D9F729E0AAEEB7E001C01D92AC3FB20720
S11300C0E1F73BD00C94172D9BCF0F931F93EBEECE
S11300D0F7E080E8182F818385E2828313821482FB
S11300E083E0782F878392E09187108210861582AF
S11300F081E0682F868300E02091ED073091EE07C0
S11301004091EF0750E080E00ED50091EB0710918D
S1130110EC072091ED073091EE074091EF075091E5
S1130120F0076091F1077091F2078091F3079091C5
S1130130F40799D51F910F910895CF93DF93CDB70D
S1130140DEB769970FB6F894DEBF0FBECDBF08D0F7
S1130150BCDF89E22BD67894CE01019601D7FCCF7F
S113016080E885BF85BF0895613061F028F0623072
S113017079F0633099F00895482F672F81E290E079
S11301803AC20895482F672F84E290E034C208955C
S1130190482F672F87E290E02EC20895482F672FDB
S11301A08AE290E028C208951F920F920FB60F9230
S11301B011240F900FBE0F901F9018951F920F924D
S11301C00FB60F9211240F900FBE0F901F90189529
S11301D01F920F920FB60F9211240F900FBE0F9023
S11301E01F9018951F920F920FB60F9211240F9023
S11301F00FBE0F901F9018951F920F920FB60F927B
S113020011240F900FBE0F901F9018951F920F92FC
S11302100FB60F9211240F900FBE0F901F901895D8
S11302201F920F920FB60F9211240F900FBE0F90D2
S11302301F9018950F931F93CF93DF93C62F172FFB
S1130240D82F092F91DFD11123C0C13081F028F0BC
S1130250C23099F0C330B9F01BC0402F612F82E245
S113026090E0C9D1612F8EE790E0E9D111C0402F11
S1130270612F85E290E0BFD10BC0402F612F88E24F
S113028090E0B9D105C0402F612F8BE290E0B3D14B
S1130290DF91CF911F910F9108950F931F93CF93E7
S11302A0DF938B019C01EA0160E072E18AE790E050
S11302B0A90198010E94882CBA01A9014051510951
S11302C061097109DB01CA01B695A79597958795D0
S11302D08F3F9105A105B10509F010F4188232C0D1
S11302E0DB01CA01689412F8B695A795979587958E
S11302F01694D1F78F3F9105A105B10509F018F4C3
S113030021E028831FC0DB01CA01689414F8B69564
S1130310A795979587951694D1F78F3F9105A105D9
S1130320B10509F018F422E028830CC083E0888327
S1130330DB01CA01689416F8B695A7959795879539
S11303401694D1F7DF91CF911F910F910895CF9318
S1130350C091B90064E08CEB90E065D18C2F887F6C
S1130360CF910895CF93DF9300D000D000D0CDB7C4
S1130370DEB75B836C837D838E836B817C818D810F
S11303809E81AE014F5F5F4F88DF8093B80060E0CD
S1130390898162D1482F60E089EB90E02CD161E043
S11303A089815AD1482F61E089EB90E024D162E041
S11303B071E080E091E03EDF62E070E080E091E097
S11303C039DF26960FB6F894DEBF0FBECDBFDF919E
S11303D0CF91089562E08CEB90E025C10895AF922F
S11303E0BF92CF92DF92EF92FF920F931F93CF931E
S11303F0DF93182F6B01E42E65E08CEB90E013D1B2
S1130400CCEBD0E0888167E027D18823D9F38091B1
S1130410B900887F883009F047C0110F1093BB00E2
S113042060E08BEB90E00BD165E08CEB90E007D1C2
S1130430CCEBD0E0888167E00FD18823D9F3809199
S1130440B900887F883171F5EE2081F18601EA9444
S1130450F12C8FEFE81AF80AEC0CFD1C0F2EFBEBC5
S1130460AF2EB12CF02DCCEBD0E00F2EF9EBCF2E2C
S1130470D12CF02DF80181918F01F501808367E083
S1130480CE01D1D0888167E0E7D08823D9F3F60183
S11304908081887F883211F05ADF13C00E151F0542
S11304A049F704C054DF0DC052DF0BC064E08CEB8D
S11304B090E0B9D0CCEBD0E0888164E0CDD081115C
S11304C0FBCFDF91CF911F910F91FF90EF90DF90C1
S11304D0CF90BF90AF900895AF92BF92CF92DF922A
S11304E0EF92FF920F931F93CF93DF93182F6B011B
S11304F0E42E65E08CEB90E096D0CCEBD0E08881E4
S113050067E0AAD08823D9F38091B900887F883026
S113051009F047C0110F1093BB0060E08BEB90E033
S113052082D065E08CEB90E08AD0CCEBD0E088817F
S113053067E092D08823D9F38091B900887F803412
S113054071F5EE2081F18601EA94F12C8FEFE81A1F
S1130550F80AEC0CFD1CCCEBD0E00F2EF9EBCF2EFF
S1130560D12CF02D0F2EFBEBAF2EB12CF02D66E02D
S1130570CE0159D0888167E06FD08823D9F3F60182
S11305808081887F803511F0E2DE2AC0F501808108
S1130590F80181938F01EE15FF0549F704C0D7DEFA
S11305A01FC0D5DE1DC066E08CEB90E048D0CCEBDC
S11305B0D0E0888167E050D08823D9F38091B900D6
S11305C0887F883561F464E08CEB90E02CD0CCEB30
S11305D0D0E0888164E040D08111FBCF01C080E08D
S11305E0DF91CF911F910F91FF90EF90DF90CF900B
S11305F0BF90AF900895FC01942F208141E050E01A
S1130600062E02C0440F551F0A94E2F740955095F8
S11306102423492F50E002C0440F551F6A95E2F786
S1130620422B40830895FC01408121E030E002C068
S1130630220F331F6A95E2F7242B20830895FC01CF
S1130640908121E030E002C0220F331F6A95E2F767
S1130650209529232083089590E002C095958795DD
S11306606A95E2F781700895CF92DF92EF92FF923C
S113067069017A019B01AC012C193D094E095F09FE
S1130680A8EEB3E00E94B92CA70196010E94882C21
S1130690C901992324F488279927821B930BFF907F
S11306A0EF90DF90CF9008951F920F920FB60F92A4
S11306B011240BB60F928F939F93EF93FF93E091C6
S11306C02408F0E08EB5EB5DF74F80838091240819
S11306D0893030F4809124088F5F8093240802C00D
S11306E01092240881E0809323089091210880913E
S11306F03A089817A1F0E0912108F0E0E15DF74F86
S113070080818EBD80912108893030F48091210848
S11307108F5F8093210806C01092210803C081E0F6
S113072080933908FF91EF919F918F910F900BBEA9
S11307300F900FBE0F901F9018951F920F920FB637
S11307400F9211240BB60F922F933F934F935F9305
S11307506F937F938F939F93AF93BF93EF93FF9385
S1130760E0913B08F0913C080995FF91EF91BF910E
S1130770AF919F918F917F916F915F914F913F9135
S11307802F910F900BBE0F900FBE0F901F901895D6
S11307901F920F920FB60F9211240BB60F920F9364
S11307A01F932F933F934F935F936F937F938F93F5
S11307B09F93AF93BF93CF93DF93EF93FF93C1E8DE
S11307C0D0E0888164E048DF182F888163E044DF4B
S11307D0C12FCC0FCC0FCC0F24E0829FC001112479
S11307E0C82B00E810E0F801808161E035DFD82FE4
S11307F0F801808160E030DFDD0F8C2B8D2B883099
S113080018F4843019F408C080FD06C0E0913D0856
S1130810F0913E08099505C0E0913B08F0913C0831
S11308200995FF91EF91DF91CF91BF91AF919F9186
S11308308F917F916F915F914F913F912F911F9174
S11308400F910F900BBE0F900FBE0F901F90189535
S11308501F920F920FB60F9211240BB60F922F9383
S11308603F934F935F936F937F938F939F93AF9334
S1130870BF93EF93FF93E0913F08F09140080995EF
S1130880FF91EF91BF91AF919F918F917F916F9164
S11308905F914F913F912F910F900BBE0F900FBE20
S11308A00F901F9018951F920F920FB60F9211245C
S11308B00BB60F920F931F932F933F934F935F9316
S11308C06F937F938F939F93AF93BF93CF93DF9354
S11308D0EF93FF93C1E8D0E0888164E0BDDE182F78
S11308E0888163E0B9DEC12FCC0FCC0FCC0F24E09C
S11308F0829FC0011124C82B00E810E0F801808118
S113090061E0AADED82FF801808160E0A5DEDD0F6A
S11309108C2B8D2B883010F080FF06C0E0914108AD
S1130920F0914208099505C0E0913B08F0913C081C
S11309300995FF91EF91DF91CF91BF91AF919F9175
S11309408F917F916F915F914F913F912F911F9163
S11309500F910F900BBE0F900FBE0F901F90189524
S11309601F920F920FB60F9211240BB60F922F9372
S11309703F934F935F936F937F938F939F93AF9323
S1130980BF93EF93FF93E0914508F09146080995D2
S1130990FF91EF91BF91AF919F918F917F916F9153
S11309A05F914F913F912F910F900BBE0F900FBE0F
S11309B00F901F9018951F920F920FB60F9211244B
S11309C00BB60F922F933F934F935F936F937F9345
S11309D08F939F93AF93BF93EF93FF938091B10055
S11309E063E03ADE81110BC08091B00083708230E5
S11309F031F0E0914708F0914808099505C0E0916D
S1130A004508F09146080995FF91EF91BF91AF9188
S1130A109F918F917F916F915F914F913F912F9112
S1130A200F900BBE0F900FBE0F901F9018951F9242
S1130A300F920FB60F9211240BB60F922F933F9380
S1130A404F935F936F937F938F939F93AF93BF93D2
S1130A50EF93FF93E0914908F0914A080995FF91BB
S1130A60EF91BF91AF919F918F917F916F915F9122
S1130A704F913F912F910F900BBE0F900FBE0F908F
S1130A801F9018954F925F926F927F928F929F92D0
S1130A90AF92BF92CF92DF92EF92FF92CF93DF9308
S1130AA04B015C01EA010F2EF0E24F2EF1EA5F2EBA
S1130AB0F7E06F2E712CF02DC301B201A501940152
S1130AC00E94882C69017A01C301B2010E94882C1A
S1130AD0CA01B901A5019401C7DD449730F4D701D7
S1130AE0C6010197A109B1090FC081E0888360E4C0
S1130AF072E48FE090E0A50194010E94882CDA0151
S1130B00C9010197A109B109DF91CF91FF90EF903D
S1130B10DF90CF90BF90AF909F908F907F906F9019
S1130B205F904F9008950F931F93CF93DF93CDB7AA
S1130B30DEB72B970FB6F894DEBF0FBECDBF0A8386
S1130B401B832C833D834E835F83688779878A87E1
S1130B509B87198201117CC0192FE2ECF0E080819F
S1130B608F7380836B817C818D819E81AE014F5F09
S1130B705F4F88DF9093C5008093C400498161E092
S1130B8080EC90E038DD8985823031F128F48823C7
S1130B9049F08130A1F046C0833059F1843009F422
S1130BA035C040C061E082EC90E049DD62E082EC57
S1130BB090E045DD62E081EC90E041DD33C061E02E
S1130BC082EC90E030DD62E082EC90E038DD62E0BF
S1130BD081EC90E034DD26C061E082EC90E02FDD12
S1130BE062E082EC90E01FDD62E081EC90E027DDC2
S1130BF019C061E082EC90E016DD62E082EC90E0E6
S1130C0012DD62E081EC90E01ADD0CC061E082EC60
S1130C1090E009DD62E082EC90E005DD62E081ECC9
S1130C2090E001DD4A8563E082EC90E0E4DC123080
S1130C3031F4E2ECF0E080818F7C808309C065E0D0
S1130C4082EC90E0F0DC412F64E082EC90E0D3DCB5
S1130C502B960FB6F894DEBF0FBECDBFDF91CF91B8
S1130C601F910F9108950F931F93CF93DF93CDB7E7
S1130C70DEB72A970FB6F894DEBF0FBECDBF6F83E1
S1130C8001110AC0452F64E081EC90E0B4DC4F818F
S1130C9063E081EC90E0AFDC2A960FB6F894DEBFF7
S1130CA00FBECDBFDF91CF911F910F910895EF92A9
S1130CB0FF920F931F93CF93DF93CDB7DEB72A979D
S1130CC00FB6F894DEBF0FBECDBF09831A832B8302
S1130CD03C834D835E836F83788789879A8701116C
S1130CE013C000EC10E0F801808165E0B5DC8823D6
S1130CF0D1F38885843031F44F2D417060E081EC6C
S1130D0090E079DCE092C6002A960FB6F894DEBF34
S1130D100FBECDBFDF91CF911F910F91FF90EF9048
S1130D2008951F920F920FB60F9211240BB60F92D3
S1130D302F933F934F935F936F937F938F939F93DF
S1130D40AF93BF93EF93FF93E0914B08F0914C085E
S1130D500995FF91EF91BF91AF919F918F917F91F1
S1130D606F915F914F913F912F910F900BBE0F9018
S1130D700FBE0F901F901895CF93C82FCF776C2F6D
S1130D80660F8091000190910101F5D08093EA07EC
S1130D90811109C0E0910001F0910101EF5BFE4F68
S1130DA0C08381E001C080E0CF910895DF92EF928B
S1130DB0FF920F931F93CF93DF93CDB7DEB727979F
S1130DC00FB6F894DEBF0FBECDBFD82E80910001C0
S1130DD090910101FC01EF5BFE4F29E220833196E3
S1130DE021E02083319620E931E0318320830F2EE6
S1130DF0F1E6EF2EF12CF02D0091EB071091EC07AA
S1130E002091ED073091EE074091EF075091F007E4
S1130E106091F1077091F2078091F3079091F407C4
S1130E2046DF0E94842A8DE498E0DAD48093EA07AE
S1130E308D2DA2DF882309F485C062E979E08DE471
S1130E4098E096D08093EA07811108C08091F40954
S1130E50813009F46EC08BEF8093EA078091EA0732
S1130E60811133C0AE014B5F5F4FBE016F5F7F4F97
S1130E7080910001909101010E9453128093EA072E
S1130E80811131C0AE01495F5F4FBE016A5F7F4F80
S1130E908091000190910101CBD58093EA078111E3
S1130EA030C060E080910001909101016AD080938C
S1130EB0EA07811137C041E060E070E080910001F1
S1130EC09091010172D28093EA078091EA0781111F
S1130ED029C041E061E070E080910001909101013E
S1130EE064D28093EA078091EA0781111BC041E034
S1130EF063E070E0809100019091010156D28093EB
S1130F00EA078091EA0781110DC024ED38E040E042
S1130F1050E063E070E08091000190910101D2D231
S1130F208093EA0781E09091EA07992359F080E0E1
S1130F3009C080910001909101010E94C810809322
S1130F40EA078CCF27960FB6F894DEBF0FBECDBF4D
S1130F50DF91CF911F910F91FF90EF90DF90089553
S1130F60BC0180910001909101010C94FE0F089541
S1130F700C941C2A0895462F46956AE80C94E52B98
S1130F800895633041F018F4623028F008C02CEE64
S1130F90260F223020F4FC01608B80E0089588EF56
S1130FA00895CF93DF93EB01AB0169E00E94282CF5
S1130FB0811103C0988191709883DF91CF91089536
S1130FC00C942C2008950C9403200895DF92EF9242
S1130FD0FF920F931F93CF93DF931F92CDB7DEB78A
S1130FE07C01062FD42E1982AE014F5F5F4F61E062
S1130FF00E94282C182F811156C0898191E0D912A2
S11310001CC0023089F028F4002341F0013049F07B
S113101044C0033061F0043069F03FC0082F006120
S113102040C0082F08623DC0082F04603AC0082F52
S1131030006437C0082F006834C0023089F028F4F7
S1131040002341F0013049F02AC0033061F004303C
S113105069F025C0082F0F7E24C0082F077D21C00A
S1131060082F0B7F1EC0082F0F7B1BC0082F0F7784
S113107018C0402F61E0C7010E94E52B182F811191
S113108012C0F701E35EFE4F0083F70142895389E2
S113109064897589C70194DF06C01CEF04C01CEF86
S11310A002C08013E6CF812F0F90DF91CF911F9163
S11310B00F91FF90EF90DF9008956230D9F028F4FB
S11310C0662359F0613079F004C06330D1F06430A4
S11310D0F9F0F90110828CEF089542954170F901FD
S11310E0408380E0089543FB442740F9F90140839D
S11310F080E0089542FB442740F9F901408380E0F1
S1131100089546FB442740F9F901408380E008959F
S1131110441F4427441FF901408380E00895EF925F
S1131120FF920F931F93CF93DF931F92CDB7DEB738
S11311308C017B011982AE014F5F5F4F61E00E9419
S1131140282C811120C09701498160E0C801B5DFD6
S1131150811122C097012E5F3F4F498161E0C80190
S1131160ACDF811119C097012F5F3F4F498162E0C5
S1131170C801A3DF811110C097012D5F3F4F498142
S113118063E0C8019ADF811107C097012C5F3F4FCC
S1131190498164E0C80191DF0F90DF91CF911F91E5
S11311A00F91FF90EF9008953F924F925F926F924C
S11311B07F928F929F92AF92BF92CF92DF92EF92E3
S11311C0FF920F931F93CF93DF9300D000D0CDB73E
S11311D0DEB78A01AE014F5F5F4F0E943A1E382E80
S11311E0811138C049805A806B807C800F2EF8EEC4
S11311F08F2EF3E09F2EA12CB12CF02DC301B20150
S1131200A50194010E94882C69017A01A8EEB3E03B
S11312100E94B92CA3019201261B370B480B590BD2
S1131220AFEFBFEF0E94B92C6C507E4F8F4F9F4F92
S1131230A50194010E94882C7601DD24CC24DA01D6
S1131240C9018C0D9D1DAE1DBF1DF80180839183C6
S1131250A283B383832D0F900F900F900F90DF9193
S1131260CF911F910F91FF90EF90DF90CF90BF909F
S1131270AF909F908F907F906F905F904F903F9032
S11312800895CF92DF92EF92FF921F93CF93DF9353
S113129000D000D000D0CDB7DEB77C016B01AE0129
S11312A04F5F5F4F68EF0E94332C182F811126C0C7
S11312B0AE014D5F5F4F64E0C7010E943E2C182FC2
S11312C081111CC029813A812115310569F040E062
S11312D050E06B817C818D819E810E94882CF60177
S11312E02083318342835383F60180819181A281DB
S11312F0B381F701868B978BA08FB18F812F2696B0
S11313000FB6F894DEBF0FBECDBFDF91CF911F9112
S1131310FF90EF90DF90CF900895FC01828DFB0148
S1131320808380E00895EF92FF920F931F93CF93F1
S1131330DF9300D0CDB7DEB78C017B01AE014F5FE8
S11313405F4F60E20E94332C811126C049815A818B
S11313504115510569F4F801458D568D678D70A1CD
S1131360F7014083518362837383F801128E14C0A2
S1131370440F551F440F551F440F551F60E070E084
S1131380F7014083518362837383F801458F568F3D
S1131390678F70A391E0928F0F900F90DF91CF91A0
S11313A01F910F91FF90EF9008958F929F92AF92AB
S11313B0BF92EF92FF921F93CF93DF936630710534
S11313C008F047C0442309F448C0FB01EE0FFF1F97
S11313D0EE0FFF1FE80FF91F81A892A8A3A8B4A8D5
S11313E020E031E03FC0F70135A326C0B501A401D8
S11313F0032E39E076956795579547953A95D1F739
S1131400302D64E4C7010E94F02B14C0F70137A308
S113141013C0F70130A710C0220F4EEF60E6C701DA
S11314200E94FB2B07C02295207F4FEE60E6C70188
S11314300E94FB2B81112DC0111105C0CE0DDF1DA3
S11314401DA280E026C0CE0DDF1D81E08DA380E0CB
S113145020C08CEF1EC08CEF1CC021E030E0812C3A
S1131460912C5401142FEB017C016230710571F24F
S113147040F4209709F4B7CF6130710509F4B6CF71
S1131480EACF6430710541F220F26530710559F2FA
S1131490E2CFDF91CF911F91FF90EF90BF90AF907B
S11314A09F908F9008956630710520F0FA011082A4
S11314B08CEF0895FC01E60FF71F85A1FA018083E4
S11314C080E00895CF92DF92EF92FF920F931F93E3
S11314D0CF93DF93FC01E60FF71FE5A1E1110DC0E7
S11314E0660F771F660F771FEC01C60FD71F29AB56
S11314F03AAB4BAB5CAB80E056C069017A01EB01BF
S11315008C016230710519F130F4209759F0613083
S1131510710571F038C063307105F9F066307105FA
S113152018F131C0FC0121AB32AB43AB54AB2EC03C
S1131530BA01A901032E39E0769567955795479529
S11315403A95D1F7302D64E40E94F02B1DC0FC01C4
S113155021AF32AF43AF54AF19C0FC01FD962083D5
S113156031834283538312C0BA01A901032E39E0A7
S113157076956795579547953A95D1F7302D64E65A
S11315800E94F02B01C08CEF81110DC0BE01660FCB
S1131590771F660F771FE801C60FD71FC9AADAAAFB
S11315A0EBAAFCAA80E0DF91CF911F910F91FF90ED
S11315B0EF90DF90CF900895EF92FF920F931F93D7
S11315C0CF93DF9300D0CDB7DEB78C017A016230C0
S11315D0710551F138F46115710559F061307105E7
S11315E071F059C06330710529F16630710548F115
S11315F052C0FC0181A992A9A3A9B4A94EC0AE010D
S11316004F5F5F4F64E40E94332C81114CC0998179
S113161040E050E0592F550F60E070E0411551054E
S113162061057105F1F02AC0FC0181AD92ADA3AD55
S1131630B4AD33C0FC01FD9680819181A281B38158
S11316402CC0AE014F5F5F4F64E60E94332C8111C2
S11316502AC0298180E090E0922F990FA0E0B0E0A9
S11316601CC0F80145A956A967A970ADF7014083CC
S1131670518362837383F80116A215C0F701408376
S1131680518362837383F80145AB56AB67AB70AF8C
S113169091E096A308C08CEF06C0F7018083918384
S11316A0A283B38380E00F900F90DF91CF911F91BD
S11316B00F91FF90EF900895EF92FF920F931F9375
S11316C0CF93DF931F92CDB7DEB78C017B01AE01C0
S11316D04F5F5F4F61E00E94282C811113C09981F4
S11316E0F801E35EFE4F9083992324F491E0F7011F
S11316F0908302C0F7011082F7019081F801E75B43
S1131700FF4F90830F90DF91CF911F910F91FF9026
S1131710EF9008958F929F92AF92BF92CF92DF92F3
S1131720EF92FF920F931F93CF93DF93EC017B0112
S11317308889FB0180836A5F7F4FCE01A2DD81111E
S113174033C0F7011286B701635F7F4FCE01EBDD33
S1131750811139C0B7016F5E7F4FCE01A6D68111CA
S113176032C087010F5D1F4F5E01F5E2AF0EB11C61
S1131770670185E1C80ED11C812C912CA801B4010C
S1131780CE011ADF81111FC0F50181915F01F601BD
S113179081936F01FFEF8F1A9F0A0C5F1F4F86E042
S11317A08816910459F702C081110DC0B701675C16
S11317B07F4FCE0181DF811106C0B7016E5F7F4F7D
S11317C0CE010E941121DF91CF911F910F91FF90C3
S11317D0EF90DF90CF90BF90AF909F908F9008953F
S11317E0EF92FF920F931F93CF93DF93CDB7DEB7A2
S11317F0EC970FB6F894DEBF0FBECDBF8C0121E08D
S11318004EEF69E80E94FB2B811105C040E068E8B7
S1131810C8010E94E52BAE01445C5F4F60ECC80137
S11318200E94282CF801E152FF4F108288EE93E0C9
S1131830E65AFF4F9183808380E991E03296918349
S1131840808385E89BE6A1E0B0E0329680839183B3
S1131850A283B38384EA90E7A9E0B0E0E557F109F5
S113186080839183A283B383F801158E168E178E1D
S113187010A2BE016F5F7F4FC8014CDFF82E8111AB
S11318800BC019821A828AE3FE013196D801509660
S113189001900D928A95E1F784E690E0F801EF5DFE
S11318A0FE4F9183808384E893E032969183808312
S11318B084EF91E032969183808380E09AE03396BE
S11318C09183808381E07096808341E060E8C80161
S11318D00E94E52BE82E41E06FEFC8010E94E52B42
S11318E08E29F82A40E060E0C8010E94E52BF82A1E
S11318F0AE01455C5F4F61E9C8010E94282CF82ABB
S11319008BADF801E95DFE4F808341E060E0C801E2
S11319100E94E52BF82A40E06FEFC8010E94E52BF6
S1131920F82A40E060E8C8010E94E52B8F2909F4F9
S113193069C014C0811112C041E0B701C80135DD8E
S1131940FFEFEF1AFF0A96E0E916F10499F7811107
S11319501AC040E062E070E0C80127DD81111DC0BB
S113196040E063E070E0C80120DD811120C040E068
S113197064E070E0C80119DD811123C040E065E036
S113198070E0C80112DD811125C020E030E042E1A1
S113199050E060E070E0C80195DD81112CC020E0CA
S11319A030E440E050E061E070E0C8018BDD81117B
S11319B032C020E030E043E250E062E070E0C80171
S11319C081DD811128C020E030E0A90163E070E0EE
S11319D0C80178DD81111FC08FEFF801E35EFE4F6F
S11319E080834FEF61E0C8010E94E52B91E0F8018C
S11319F0E15EFE4F908381110EC0F801EC5FFE4F53
S1131A00108209C041E060E070E0C801CEDCEE2441
S1131A10E394F12C8FCFEC960FB6F894DEBF0FBE93
S1131A20CDBFDF91CF911F910F91FF90EF9008955B
S1131A3021E00C949A1608952F923F924F925F9250
S1131A406F927F928F929F92AF92BF92CF92DF92CA
S1131A50EF92FF920F931F93CF93DF93CDB7DEB72F
S1131A60A6970FB6F894DEBF0FBECDBF4C015B0145
S1131A700CE010E020E030E0AE014E5F5F4F64E127
S1131A800E94CD2B8111FBC0D50156961C9256970E
S1131A90F50110821182128213822C8530E0322FDC
S1131AA022278D85280F311D14961D921D921D929B
S1131AB01C9217974984512C542C4424550C612CA6
S1131AC0712C44865586668677868B8590E0982FA0
S1131AD08827990FA0E0B0E0808B918BA28BB38B09
S1131AE00C8110E0102F00278D81080F111D158B1C
S1131AF0048B3A80F401E75CFE4F408151817B976F
S1131B002080483EF3E05F0709F446C0249FC001EB
S1131B10259F900D349F900D11249C012C503E4F15
S1131B20369527953695279536952795A5ECB0E2F9
S1131B300E94AA2C9C01329522952F7023273F7076
S1131B402327D4015D964D915D916D917C91909781
S1131B505A968C91882301F1049F6001059FD00C53
S1131B60149FD00C1124CD2CDD24E12CF12C4C1429
S1131B705D046E047F0429F4211011C020EE3AE8BC
S1131B801EC0D901A30192010E94B92C2C193D0950
S1131B904E095F090E94882C222089F002C028EB9C
S1131BA032E2C9019695879596958795F5019187B7
S1131BB080872295220F220F207C278B07C0D50116
S1131BC019963C932E93189757961C92FE013196C2
S1131BD06F017501A3019201632DC4010E940728BE
S1131BE081114DC09981D50158969C93BAE48B0E0E
S1131BF0911C29E1F401DE011E9601900D922A95B3
S1131C00E1F7D5011896ED91FC91199757963C9000
S1131C1057971A966D917C911B971C964D905D90E9
S1131C206D907C901F975096CD90DD90ED90FC9038
S1131C30539754964D915C91559714960D911D911F
S1131C402D913C9117970A8B1B8B2C8B3D8BFF8B13
S1131C50EE8B798F688F4A8E5B8E6C8E7D8ECE8EE6
S1131C60DF8EE8A2F9A25BA34AA33DA29EA399E159
S1131C70FE013E96D40101900D929A95E1F7A69645
S1131C800FB6F894DEBF0FBECDBFDF91CF911F9189
S1131C900F91FF90EF90DF90CF90BF90AF909F9007
S1131CA08F907F906F905F904F903F902F9008950A
S1131CB0CF92DF92EF92FF920F931F93CF93DF9314
S1131CC000D0CDB7DEB78C016A017901AE014F5F58
S1131CD05F4F6EE00E94332C49815A815F7060E04F
S1131CE070E0032E31E1440F551F661F771F3A95AC
S1131CF0D1F7302DF60140835183628373838111C0
S1131D001AC0AE014F5F5F4F6CE0C8010E94332CD4
S1131D1049815A815F7060E070E0032E31E1440F25
S1131D20551F661F771F3A95D1F7302DF701408371
S1131D305183628373830F900F90DF91CF911F9132
S1131D400F91FF90EF90DF90CF900895EF92FF9264
S1131D501F93CF93DF93CDB7DEB728970FB6F894D0
S1131D60DEBF0FBECDBF9C01FC01E253FF4F90814B
S1131D709150933008F040C0162F79019E012B5FDB
S1131D803F4FAE014F5F5F4F61E0C70191DF498173
S1131D905A816B817C81413051056F4F710548F444
S1131DA04D815E816F817885413051056F4F71059A
S1131DB020F1811122C0112331F062E071E0C701EA
S1131DC00E940A221AC044E06FEFC7010E94E52B6B
S1131DD0182F40E060E7C7010E94E52B182B40E074
S1131DE06FEFC7010E94E52B182B40E060E8C701A4
S1131DF00E94E52B812B01C080E028960FB6F89451
S1131E00DEBF0FBECDBFDF91CF911F91FF90EF904A
S1131E100895CF92DF92EF92FF920F931F93CF9387
S1131E20DF931F92CDB7DEB78C01FC01F08841E04F
S1131E3060E80E94E52B41E06FEFC8010E94E52BAA
S1131E4040E060E0C8010E94E52BF801E95DFE4F27
S1131E50408161E9C8010E94E52B41E060E0C801CE
S1131E600E94E52B40E06FEFC8010E94E52B40E0A3
S1131E7060E8C8010E94E52BF1E0FF16D9F1FF16D6
S1131E8028F093E0F91609F447C058C041E060E037
S1131E90C8010E94E52B91E09983882371F04FC01B
S1131EA0C114D104E104F10459F0AE014F5F5F4F56
S1131EB060E0C8010E94282C03C0C12CD12C7601FB
S1131EC0EFEFCE1ADE0AEE0AFE0A998190FF0AC0ED
S1131ED0811108C0F8ECCF16D104E104F10401F734
S1131EE089EF2DC098ECC916D104E104F10438F14E
S1131EF089EF25C0811103C061E0C80127DF42E0FA
S1131F0060E0C8010E94E52B811119C0F801E15E6F
S1131F10FE4F94E0908313C0811103C061E0C801B7
S1131F2015DF44E060E0C8010E94E52B811107C081
S1131F30F801E15EFE4F94E0908301C088EF0F90BA
S1131F40DF91CF911F910F91FF90EF90DF90CF9091
S1131F5008951F93CF93DF93EC011889111104C0E6
S1131F6058DF811112C00CC00E94FA1881110DC0F3
S1131F7011110BC0C15EDE4F83E0888380E005C091
S1131F80CE010E94FA188823A9F3DF91CF911F9103
S1131F900895EF92FF920F931F93CF93DF931F92B5
S1131FA0CDB7DEB77C0100E041E06BE0C7010E94E1
S1131FB0E52B182F40E06BE0C7010E94E52B182B9E
S1131FC0AE014F5F5F4F63E1C7010E94282C812B54
S1131FD00F5F9981977029F0033039F0882321F33A
S1131FE005C0033018F084EF01C084EF0F90DF9137
S1131FF0CF911F910F91FF90EF9008950F931F932E
S1132000CF93DF93EC018B0160E00E94C107811143
S11320100EC0CE019EDF81110AC0B801CE010CDDD5
S1132020811105C040E050E0BA01CE01B2DFDF917A
S1132030CF911F910F9108950F931F93CF93DF9327
S113204061119BC0122FEC01443151F4002311F0B3
S113205041E001C040E164E8CE010E94E52B93C059
S1132060453109F05AC041E06FEF0E94E52B182F6B
S113207040E060E0CE010E94E52B182B40E06FEFBA
S1132080CE010E94E52B182B41E060E8CE010E94AE
S1132090E52B182B42E065E8CE010E94E52B182BB6
S11320A044E06FEFCE010E94E52B182B40E06DEC6D
S11320B0CE010E94E52B182B41E16CECCE010E946D
S11320C0E52B182B47E06FEFCE010E94E52B182B70
S11320D040E06EEBCE010E94E52B182B46E06FEF3B
S11320E0CE010E94E52B182B49E06CECCE010E9436
S11320F0E52B182B40E06FEFCE010E94E52B182B47
S113210041E06FEFCE010E94E52B182B40E060E028
S1132110CE010E94E52B812B36C0223059F028F4E1
S1132120222361F0213059F10FC0233051F12430C2
S113213019F00AC042E003C044E001C040E06AE094
S1132140CE010E94E52B01C085EF81111CC0002344
S113215011F020E101C020E04FEE64E8CE010E94BE
S1132160FB2B811110C0FE01E253FF4F108340E0AE
S113217050E0BA01CE010DDF06C086EF04C041E095
S1132180DECF43E0DCCFDF91CF911F910F91089513
S1132190EF92FF920F931F93CF93DF93CDB7DEB7E8
S11321A0C754D1090FB6F894DEBF0FBECDBF7C0172
S11321B0FE0131968AE3DF011D928A95E9F71CAE90
S11321C01BAE1DAE1EAE23961CAE1DAE1EAE1FAEC4
S11321D0239761E0C7010E94CC19F701ED5FFE4F20
S11321E020812230A0F43197408150E060E070E01B
S11321F0213031F4413251056105710540F410C0BC
S113220021110EC04D3051056105710548F0AE0134
S1132210425C5F4FBE01615C7F4FC701B5D502C010
S1132220C701A3D3811126C0F701E85CFE4F80816A
S11322308111BEC0329760817181BCC000E024E08E
S113224040E060E0C701F8DE81116CC041E06FEF4F
S1132250C7010E94E52B182FAE01455C5F4F64E86F
S1132260C7010E94332C182B40E06FEFC7010E9476
S1132270E52B812B8111A5C0F701E853FF4F8BADEE
S11322809CAD82959295907F9827807F9827A0E0B7
S1132290B0E080839183A283B383BE016F5F7F4FDD
S11322A0C70138DA811129C0BE01635C7F4FC701C1
S11322B00E94D107811121C08DADF701E25EFE4F6E
S11322C080838AE3FE013196D701509601900D92E6
S11322D08A95E1F7AE01435C5F4F61E0C7010E945C
S11322E0282C811171C08DADF701E35EFE4F808310
S11322F040E060E0C7010E94E607811165C040E04C
S113230062E0C7010E94E60781111CC083E0F70167
S1132310E15EFE4F8083AE014D5B5F4F60E0C7011D
S11323200E94032081111EC024968FAD2497F701CB
S1132330E852FF4F8083AE014D5B5F4F61E0C70100
S11323400E940320811124C024968FAD2497F701A5
S1132350ED52FF4F8083AE014C5B5F4F63E0C701DA
S11323600E94D408811130C028968CAD9DADAEADCD
S1132370BFAD2897F701EC52FF4F80839183A2836E
S1132380B383AE014C5B5F4F64E0C7010E94D40885
S113239081111AC0F701E153FF4F28964CAD5DAD92
S11323A06EAD7FAD289740835183628373830CC0E5
S11323B068EB72E0C7010E940A22882309F43ECF29
S11323C071CF882309F486CFC95BDF4F0FB6F89429
S11323D0DEBF0FBECDBFDF91CF911F910F91FF9054
S11323E0EF9008950F931F93CF93DF931F92CDB770
S11323F0DEB78B01AE014F5F5F4F63E10E94282C73
S11324009981492F477050E060E070E0F801408303
S1132410518362837383987109F08AEF0F90DF917F
S1132420CF911F910F9108950F931F93CF93DF9333
S113243000D000D01F92CDB7DEB78B01FC01E25370
S1132440FF4F20812430A1F4BE016E5F7F4FCADFAD
S11324504A815B816C817D81443051056105710540
S113246021F491E0F801908314C0F801108211C0A6
S1132470AE014F5F5F4F64E10E94282C811109C0B7
S1132480998190FF04C091E0F801908302C0F801A3
S113249010820F900F900F900F900F90DF91CF91BB
S11324A01F910F91089570C408950F931F93CF93B4
S11324B0DF9300D0CDB7DEB78B01AE014F5F5F4F26
S11324C068E20E94332C811127C029813A813F7030
S11324D0211598E0390788F030519AEF929FA001B6
S11324E0939F500D1124052E000C660B770BF801F9
S11324F040835183628373830FC09AEF929FA0013C
S1132500939F500D1124052E000C660B770BF801D8
S113251040835183628373830F900F90DF91CF9137
S11325201F910F9108957F928F929F92AF92BF92C5
S1132530CF92DF92EF92FF920F931F93CF93DF938B
S1132540E701CC24CA94DC2C7601C882D982EA82C1
S1132550FB8268017901689412F8F694E794D794A1
S1132560C7941694D1F748015901E7E08E229924C3
S1132570AA24BB24C416D506E606F70608F047C00D
S1132580FC01EC0DFD1DD701C6017190C816D906DA
S1132590EA06FB0661F4272D30E0082C02C03595CD
S11325A027950A94E2F7722E9501840103C000E096
S11325B010E0980170FE18C002C070FE15C0880FAC
S11325C0991FAA1FBB1F880F991FAA1FBB1F880F23
S11325D0991FAA1FBB1F080F191F2A1F3B1F08831F
S11325E019832A833B8313C076940F5F1F4F2F4FA9
S11325F03F4F0830110521053105F8F20196A11D60
S1132600B11D84179507A607B70708F4BECFDF915D
S1132610CF911F910F91FF90EF90DF90CF90BF90DB
S1132620AF909F908F907F900895DC01CB016894C8
S113263015F8B695A795979587951694D1F7BC018B
S1132640660F771F660F771FFB01E555FC4F81E08E
S11326504081518162817381452B462B472B09F4BC
S113266080E00895CF92DF92EF92FF920F931F9331
S113267068017901689412F8F694E794D794C794A2
S11326801694D1F70770112722273327C416D506CD
S1132690E606F70678F4FC01EC0DFD1D81E090E000
S11326A002C0880F991F0A95E2F79081892B8083D5
S11326B080E001C08EEC1F910F91FF90EF90DF90AE
S11326C0CF9008950F931F93AB0106E010E020E034
S11326D030E060EB0E94B52B1F910F9108950F938A
S11326E01F93AB0106E010E020E030E060EB0E94B5
S11326F0CD2B1F910F9108953F924F925F926F924D
S11327007F928F929F92AF92BF92CF92DF92EF927D
S1132710FF920F931F93CF93DF93CDB7DEB76497E8
S11327200FB6F894DEBF0FBECDBF9C8B8B8B362EBD
S11327305A8B498B388B2F87EB86FC860D871E8737
S11327402501360128A539A54AA55BA529833A8325
S11327504B835C838CA59DA5AEA5BFA5892B8A2B35
S11327608B2B09F47AC0812C912C5401DE01119633
S11327707D0108A519A52AA53BA54B855C856D851A
S11327807E8589899A89CFDEC980DA80EB80FC80D6
S1132790BFEFCB16DB06EB06FB0609F472C0C701DC
S11327A0B601640D751D861D971D3FDF831169C039
S11327B0970186014B855C856D857E858F8598891B
S11327C051DFA70196012F5F3F4F4F4F5F4F28A75F
S11327D039A74AA75BA73FEF831A930AA30AB30A50
S11327E08CA59DA5AEA5BFA588159905AA05BB0511
S11327F009F0BCCF32C0BE016B5F7F4F8B899C89CF
S11328006EDF2B853C854D855E85232B242B252B64
S113281009F443C0AF85B8892C919D81291319C04F
S11328201196FE01369640E050E0BA01CB84DC8478
S1132830ED84FE8404C02D91919129130CC04F5F47
S11328405F4F6F4F7F4FC416D506E606F70699F71C
S113285024C08EEC22C08EEC20C028A539A54AA540
S11328605BA5A8A9B9A92D933D934D935C931397A8
S11328706F8578898B899C8925DF882309F4BBCFF0
S11328800CC028A539A54AA55BA5A8A9B9A92D936B
S11328903D934D935C9313978EEC64960FB6F89426
S11328A0DEBF0FBECDBFDF91CF911F910F91FF907F
S11328B0EF90DF90CF90BF90AF909F908F907F90DC
S11328C06F905F904F903F900895CF92DF92FF9268
S11328D00F931F93CF93DF93CDB7DEB769970FB6EE
S11328E0F894DEBF0FBECDBF8C016B01FC01E35E2B
S11328F0FE4FF08040EC61E00E94E52B81111AC08C
S1132900BE016F5F7F4FC80179DB811120C041E0B8
S11329106FEFC8010E94E52B811119C0A60166EB77
S1132920C8010E94332C811112C040E06FEFC8012E
S11329300E94E52B81110BC04F2D61E0C8010E945C
S1132940E52B811104C0F801E35EFE4FF082699625
S11329500FB6F894DEBF0FBECDBFDF91CF911F91AC
S11329600F91FF90DF90CF9008956F927F928F9296
S11329709F92AF92BF92CF92DF92EF92FF920F930A
S11329801F93CF93DF9300D000D0CDB7DEB74C01B7
S1132990642E152F062FB72E722E41E06FEF0E9482
S11329A0E52B81111AC040E06FE4C4010E94E52BBD
S11329B0811113C04CE26EE4C4010E94E52B811125
S11329C00CC040E06FEFC4010E94E52B811105C0EB
S11329D044EB66EBC4010E94E52BF401EF5EFE4F6D
S11329E0108231961082319610823196108231967F
S11329F010823196108271100AC0C12CD12C76013C
S1132A0018C02FEFC21AD20AE20AF20A03C0C12C7C
S1132A10D12C7601C701B6016C547F4F8F4F9F4F65
S1132A2004DE811106C03CE2C316D104E104F104C2
S1132A3041F7CE0101969F938F93BF920F931F93FB
S1132A406F92FF92EF92DF92CF920F2EF4EBAF2EA4
S1132A50B12CC12CD12CF02D16E0E12EF12C00E08C
S1132A6010E094012F5E3E4FA401495E5E4F672D36
S1132A70C40142DE0FB6F894DEBF0FBECDBF811194
S1132A8009C0F401EC5FFE4F91E0908332976082BD
S1132A90319670820F900F900F900F90DF91CF912D
S1132AA01F910F91FF90EF90DF90CF90BF90AF9068
S1132AB09F908F907F906F900895CF93DF93EC0158
S1132AC0462F416060E00E94E52B811110C0CE01C9
S1132AD091D381110CC040E050E0BA01CE0159DA23
S1132AE0811105C040E060E0CE010E94E52BDF913A
S1132AF0CF9108955F926F927F928F929F92AF923F
S1132B00BF92CF92DF92EF92FF920F931F93CF93D6
S1132B10DF931F92CDB7DEB74C01D62E542EB22EC2
S1132B203801198241E06FEF0E94E52B182F40E035
S1132B3060E0C4010E94E52B182B40E06FEFC40154
S1132B400E94E52B182BDD2099F0CC2031F0A30155
S1132B506BECC4010E94282C182BAA20D1F0AE01E2
S1132B604F5F5F4F6EEEC4010E94282C182B11C0DA
S1132B70CC2031F0452D6BECC4010E94E52B182BC1
S1132B80AA2039F02B2D40E86EEEC4010E94FB2BE5
S1132B90182B41E06FEFC4010E94E52B182B41E094
S1132BA060E0C4010E94E52B182B40E06FEFC401E4
S1132BB00E94E52B99819F7EF7019083812B0F90D2
S1132BC0DF91CF911F910F91FF90EF90DF90CF9005
S1132BD0BF90AF909F908F907F906F905F9008957B
S1132BE08F929F92AF92BF92CF92DF92EF92FF9219
S1132BF00F931F93CF93DF931F92CDB7DEB74C0192
S1132C008B01F42ED22E1982222329F0FC01E35EDB
S1132C10FE4FB08001C0B12C41E061E0C4010E94CC
S1132C20E52B811114C060E4C40147DF81110FC09A
S1132C3091E0F9120CC0A12CCC24C394FE0131966E
S1132C407F0120E040E061E0C40154DF02C0F801EC
S1132C50108281110DC0DD2059F04B2D61E0C401BB
S1132C600E94E52B811104C0F401E35EFE4FB082A3
S1132C700F90DF91CF911F910F91FF90EF90DF9014
S1132C80CF90BF90AF909F908F9008958F929F9216
S1132C90AF92BF92CF92DF92EF92FF920F931F9366
S1132CA0CF93DF931F92CDB7DEB74C017B01142F76
S1132CB0D22E222329F0FC01E35EFE4FB08001C036
S1132CC0B12C42E061E0C4010E94E52B811113C0E4
S1132CD060E0C401F2DE81110EC0113061F4AA2457
S1132CE0A394C12C8E010F5F1F4F20E040E061E0F0
S1132CF0C40100DF02C0F701108281110DC0DD2084
S1132D0059F04B2D61E0C4010E94E52B811104C0F0
S1132D10F401E35EFE4FB0820F90DF91CF911F91DB
S1132D200F91FF90EF90DF90CF90BF90AF909F9066
S1132D308F900895EF92FF920F931F93CF93DF9399
S1132D40EC017A01122FFC01E35EFE4F008120E0CA
S1132D50412F46DF811111C020E0412FB701CE0180
S1132D6095DF81110AC0402F61E0CE010E94E52B5E
S1132D70811103C0C35EDE4F0883DF91CF911F91A1
S1132D800F91FF90EF9008952F923F924F925F9290
S1132D906F927F928F929F92AF92BF92CF92DF9267
S1132DA0EF92FF920F931F93CF93DF93CDB7DEB7CC
S1132DB0A7970FB6F894DEBF0FBECDBF4C017CA31E
S1132DC06BA35EA34DA31F82188619861A861B86E1
S1132DD01C861D861E86198A1A8AFC01E85DFE4F30
S1132DE060807180779710823196108231961082BC
S1132DF031961082319610823196108241E06FEF45
S1132E000E94E52B81111AC040E06FE4C4010E94C6
S1132E10E52B81111AC04CE26EE4C4010E94E52B3B
S1132E2081111EC040E06FEFC4010E94E52B8111A7
S1132E3044C044EB66EBC4010E94E52B8111C1C17F
S1132E4040E060E8C4010E94E52B811176C120E0D6
S1132E50AE014E5E5F4FBE016F5E7F4FC4016ADFFD
S1132E608111AFC11F82188619861A86CE01079672
S1132E709F938F931F921F921F9283E08F931F92B1
S1132E801F921F921F920F2EF4EBAF2EB12CC12C68
S1132E90D12CF02D16E0E12EF12C00E010E094018D
S1132EA02F5E3E4FA401495E5E4F60E0C40124DC06
S1132EB00FB6F894DEBF0FBECDBF811182C1AF80C3
S1132EC0B884C984DA84BE01615F7F4FC401FDDC2C
S1132ED0811177C18F8598896816790608F052C1E7
S1132EE0F401EF5EFE4F108231961082319610820B
S1132EF031961082319610823196108205C03FEFD0
S1132F00A31AB30AC30AD30AC601B5016C547F4F8E
S1132F108F4F9F4F8ADB811106C04CE2A416B10487
S1132F20C104D10460F3CE0107969F938F931F923F
S1132F301F921F9283E08F93DF92CF92BF92AF9242
S1132F400F2EF4EBAF2EB12CC12CD12CF02D16E0AA
S1132F50E12EF12C00E010E094012F5E3E4FA4011D
S1132F60495E5E4F61E0C401C7DB0FB6F894DEBF73
S1132F700FBECDBF811125C1AF80B884C984DA8466
S1132F80BE01615F7F4FC401A0DC81111AC18F852E
S1132F9098896816790608F0FEC0B1E0BFA30F2E29
S1132FA0F3E02F2E312C412C512CF02D21E030E078
S1132FB040E050E0298F3A8F4B8F5C8FF8C0398DF9
S1132FC03FA326E0F401EF5EFE4FDE01119601906F
S1132FD00D922A95E1F7861997099C0122F422277C
S1132FE03327281B390BC901330FAA0BBB0B8F8F57
S1132FF098A3A9A3BAA323E030E040E050E02D8BCE
S11330003E8B4F8B588FA401495E5E4F5E8F4D8F70
S1133010C4018F5E9E4F9C8B8B8BDE011B967D01C2
S11330209601850146E050E060E070E08D8D9E8D54
S11330307ADACB84DC84ED84FE84BFEFCB16DB0626
S1133040EB06FB0609F4BAC02D883E884F88588CDD
S1133050EFEF2E1A3E0A4E0A5E0AC701B6016C54FF
S11330607F4F8F4F9F4FE1DA90E0A0E0B0E0298DD1
S11330703A8D4B8D5C8D82179307A407B50709F031
S11330809FC09701860146E050E060E070E08B89C4
S11330909C89E8DA811195C0560167013FEFA31AB4
S11330A0B30AC30AD30A6B897C89C4010BDB81117F
S11330B088C0BE01615F7F4FC40107DC811181C0FC
S11330C08F8598899C0126193709A90122F4442780
S11330D05527421B530B052E000C660B770B681605
S11330E07906C8F48F8D98A1A9A1BAA18417950770
S11330F0A607B70768F5BE016F5F7F4FC401E2DA28
S113310096E0FE013196D401AF5EBE4F01900D9260
S11331109A95E1F717C086E0EB89FC89DE011196E8
S113312001900D928A95E1F72D8A3E8A4F8A588E36
S11331304F8F58A369A37AA370CF1FA21D8A1E8A3A
S11331401F8A188E81113DC02D883E884F88588C67
S1133150ABA1BCA12D923D924D925C9213972FA1ED
S1133160EDA1FEA12083F401EC5FFE4F81E080839A
S113317032978C918083ADA1BEA18C9131968083CE
S113318080E01FC01FA2212C312C2101198E1A8E20
S11331901B8E1C8E0CC01FA2212C312C210121E07E
S11331A030E040E050E0298F3A8F4B8F5C8F8F8561
S11331B098898615970508F402CFCACF8EEC01C012
S11331C08EECA7960FB6F894DEBF0FBECDBFDF918D
S11331D0CF911F910F91FF90EF90DF90CF90BF9010
S11331E0AF909F908F907F906F905F904F903F90A3
S11331F02F900895EF92FF920F931F93CF93DF9335
S11332001F92CDB7DEB77C01198200E010E0BE0149
S11332106F5F7F4FC70108D981110DC0998191302B
S113322051F00F5F1F4F083C110521F0C7010E94A8
S1133230492CEDCF89EF0F90DF91CF911F910F9122
S1133240FF90EF900895CF92DF92EF92FF920F9349
S11332501F938B019C0101151105210580E438079A
S1133260B0F480E090E0A0E0B0E4B695A79597951F
S11332708795B695A79597958795081719072A07EF
S11332803B0798F30097A105B10529F430C080E00D
S113329090E0A0E0B0E440E050E0BA016A017B01B4
S11332A0C80ED91EEA1EFB1E0C151D052E053F0572
S11332B068F00C191D092E093F09769567955795F5
S11332C04795480F591F6A1F7B1F04C07695679561
S11332D057954795B695A79597958795B695A795CC
S11332E0979587950097A105B105C1F603C040E005
S11332F050E0BA01CB01BA011F910F91FF90EF90FA
S1133300DF90CF900895AF92BF92CF92DF92EF9269
S1133310FF921F93CF93DF931F92CDB7DEB75C016B
S113332040E063E80E94E52B182F811124C0C12CD2
S1133330D12C7601AE014F5F5F4F63E8C5010E9457
S1133340282C182F898181110FC011110DC08FEF06
S1133350C81AD80AE80AF80A88ECC816D104E104A5
S1133360F10441F719EF07C088ECC816D104E10451
S1133370F10408F019EF41E063E8C5010E94E52B70
S1133380812B0F90DF91CF911F91FF90EF90DF90F1
S1133390CF90BF90AF9008952F923F924F925F923B
S11333A06F927F928F929F92AF92BF92CF92DF9251
S11333B0EF92FF920F931F93CF93DF93CDB7DEB7B6
S11333C0AA970FB6F894DEBF0FBECDBF1886198634
S11333D01A861B861C861D861E861F86FC01E152EA
S11333E0FF4FD08027E0D21609F463C3062F7C0177
S11333F041E060E80E94E52B182F41E06FEFC70120
S11334000E94E52B182B40E060E0C7010E94E52BE9
S1133410182B46E06FEFC7010E94E52B182BAE0175
S11334204F5F5F4F63E8C7010E94282C182B498126
S1133430446063E8C7010E94E52B182B47E06FEF57
S1133440C7010E94E52B182B41E061E8C7010E94E7
S1133450E52B182BC7010E94492C182B41E060E88A
S1133460C7010E94E52B182B802F8170282E00FFA6
S113347056C0D0FC57C04BE664E9C7010E94E52B57
S1133480C82EC70140DF8C29182BAE014E5F5F4F59
S113349060E9C7010E943E2C182B8A819B81AC8174
S11334A0BD81E92FEF77E9A7072E7FE0B695A795B1
S11334B0979587957A95D1F7702DF82FF170FAA723
S11334C044E264E9C7010E94E52B182BC7011BDF06
S11334D0182BAE014E5F5F4F60E9C7010E943E2C7E
S11334E0182B8A819B812C813D813BA32CA39DA316
S11334F08EA345E264E9C7010E94E52B182BC7019E
S113350002DF182BAE014E5F5F4F60E9C7010E94D6
S11335103E2C182B8C819D819FA388A705C01AA6D9
S113352019A602C01AA619A6202F2270322E01FF56
S113353060C1D1FC5EC142E064E9C7010E94E52B91
S1133540C82EC701E0DE8C29182BAE014A5F5F4FFD
S113355060E9C7010E94282C182B4BE764E9C701D6
S11335600E94E52B182BC701CEDE182BAE01495F54
S11335705F4F60E9C7010E94282C182B47E764E9D4
S1133580C7010E94E52B182BC701BDDE182BAE0125
S11335904E5F5F4F60E9C7010E943E2C182B4A81A1
S11335A05B816C817D81DB01CA01072E79E1B695CF
S11335B0A795979587957A95D1F7702D8F77888BF6
S11335C0DB01CA01072E72E1B695A79597958795F9
S11335D07A95D1F7702D8F77898BDB01CA01072E7D
S11335E07BE0B695A795979587957A95D1F7702D39
S11335F08F778A8BDB01CA01689413F8B695A79577
S1133600979587951694D1F78F778B8B4F70440FCE
S1133610440F440F498348E764E9C7010E94E52B3E
S1133620182BC70170DE182BAE014E5F5F4F60E9A7
S1133630C7010E943E2C182B8A819B81AC81BD81DD
S1133640AC01BD01032E3DE17695679557954795ED
S11336503A95D1F7302D4F773981242F230F2C8BB6
S1133660AC01BD01032E36E17695679557954795D4
S11336703A95D1F7302D4F774D8BAC01BD01032E18
S11336803FE076956795579547953A95D1F7302D54
S11336904F774E8B292F2F772F8BAC01BD01769559
S11336A06795579547954F77488F982F91709295C6
S11336B0990F990F907C998349E764E9C7010E94A7
S11336C0E52B182BC7011FDE182BAE014E5F5F4F91
S11336D060E9C7010E943E2C182B8A819B81AC8132
S11336E0BD81AC01BD01032E3AE1769567955795EE
S11336F047953A95D1F7302D4F773981242F230FF1
S1133700298FAC01BD01032E33E17695679557955A
S113371047953A95D1F7302D4F774A8FAC01BD01CB
S1133720032E3CE076956795579547953A95D1F7E2
S1133730302D4F774B8FAC01BD01689414F876950A
S11337406795579547951694D1F74F774C8F982FD7
S11337509F71990F990F99834AE764E9C7010E9401
S1133760E52B182BC701CFDD182BAE014E5F5F4F41
S113377060E9C7010E943E2C182B8A819B81AC8191
S1133780BD81AC01BD01032E3EE176956795579549
S113379047953A95D1F7302D4F773981242F230F50
S11337A02D8FAC01BD01032E37E1769567955795B2
S11337B047953A95D1F7302D4F774E8F2A2F2F7793
S11337C02F8FAC01BD01032E39E07695679557958F
S11337D047953A95D1F7302D4F7748A3B695A795DD
S11337E097958795B695A795979587958F7789A38C
S11337F01AA2802F8470C82E02FF98C0D2FC9DC0EC
S11338004BE764E9C7010E94E52BB82EC7017BDDB5
S11338108B29182BAE01485F5F4F60E9C7010E94F6
S11338203E2C182B4CE764E9C7010E94E52B182BAA
S1133830C70169DD182BAE01445F5F4F60E9C70122
S11338400E943E2C182B43E764E9C7010E94E52B34
S1133850182BC70158DD182BAE014E5F5F4F60E98E
S1133860C7010E943E2C182B8A809B80AC80BD80AF
S1133870BA2CA92C982C8824240135016624772499
S113388044E764E9C7010E94E52B182BC7013BDD1F
S1133890182BAE014E5F5F4F60E9C7010E943E2CBA
S11338A0182B8A809B80AC80BD808B2C9924AA2401
S11338B0BB2484289528A628B72845E764E9C701CE
S11338C00E94E52B182BC7011EDD182BAE014E5F9D
S11338D05F4F60E9C7010E943E2C182B4A805B8031
S11338E06C807D80762C652C542C442466247724AB
S11338F046E764E9C7010E94E52B182BC70103DDE5
S1133900182BAE014E5F5F4F60E9C7010E943E2C49
S1133910182B8A819B81AC81BD818B2F9927AA2783
S1133920BB27482A592A6A2A7B2A0DC0812C912C4C
S11339305401412C512C320106C0812C912C54018C
S1133940412C512C320140E061E8C7010E94E52B73
S1133950182B46E06FEFC7010E94E52B182BAE0130
S11339604F5F5F4F63E8C7010E94282C182B4981E1
S11339704B7F63E8C7010E94E52B182B41E06FEFF2
S1133980C7010E94E52B182B41E060E0C7010E94AB
S1133990E52B182B40E06FEFC7010E94E52B182B95
S11339A040E060E8C7010E94E52B182B09F082C0B3
S11339B02220B9F0D0FC15C0F701EE5FFE4F29A517
S11339C0208331968AA58083FE01B396D701A95E30
S11339D0BE4F9E01275D3F4F81918D932E173F0768
S11339E0D9F7332091F0D1FC10C08E81F701E05259
S11339F0FF4F80838F8131968083BE01605F7F4F4C
S1133A00C7018E519F4F0E94102DCC2009F44BC04A
S1133A10D2FC49C088859985AA85BB85F701EB5FEF
S1133A20FE4F80839183A283B3838C859D85AE856D
S1133A30BF85349680839183A283B3833496072E03
S1133A4079E0880C991CAA1CBB1C7A95D1F7702DBF
S1133A5080829182A282B382411451046104710470
S1133A60B9F0A3019201395141095109A8EEB3E01B
S1133A700E94B92CDC01CB01689413F8B695A79584
S1133A80979587951694D1F791958195910902C0E0
S1133A9080E090E0092E000CAA0BBB0BF701848791
S1133AA09587A687B787F701E152FF4F0D29008359
S1133AB001C010E0812FAA960FB6F894DEBF0FBEA6
S1133AC0CDBFDF91CF911F910F91FF90EF90DF90C9
S1133AD0CF90BF90AF909F908F907F906F905F90AA
S1133AE04F903F902F9008950F931F936115710588
S1133AF08105910521F1AB01BC01415051096109D6
S1133B007109DB01CA018827892B8A2B8B2B79F059
S1133B1080E090E0769567955795479501968A01E0
S1133B209B010027012B022B032BA1F702C080E08D
S1133B3090E0982F88275527840F951F02C080E0B6
S1133B4090E01F910F9108958F929F92AF92BF9230
S1133B50CF92DF92EF92FF924A015B01A22FB0E075
S1133B6020E03FE24AE350E00E94B92C6B017C0163
S1133B7024EFC20E21E0D21EE11CF11CA8EEB3E03A
S1133B80A50194010E94B92C4B015C01C701B60147
S1133B9020ED37E040E050E00E94882C820E931E16
S1133BA0A41EB51EC701B60128EE33E040E050E084
S1133BB00E94882CC501B4010E94882CCA01B90155
S1133BC0FF90EF90DF90CF90BF90AF909F908F9039
S1133BD008954F925F926F927F928F929F92AF92CD
S1133BE0BF92CF92DF92EF92FF923B01A42FB0E0FD
S1133BF020E03FE24AE350E00E94B92C6B017C01D3
S1133C0024EFC20E21E0D21EE11CF11C0F2EF8EEAF
S1133C108F2EF3E09F2EA12CB12CF02DC701B601FD
S1133C20A50194010E94882CD3010E94B92C2B0178
S1133C303C01C701B60120ED37E040E050E00E94AE
S1133C40882CC301B201620F731F841F951FA50145
S1133C5094010E94882CCA01B901FF90EF90DF9073
S1133C60CF90BF90AF909F908F907F906F905F9018
S1133C704F900895AF92BF92CF92DF92EF92FF924E
S1133C801F93CF93DF93CDB7DEB72B970FB6F8947E
S1133C90DEBF0FBECDBF7C016A011A821C821B826B
S1133CA0633000F5AE014F5F5F4F60E00E94E307B1
S1133CB0182F811108C0AE014E5F5F4F66E4C70143
S1133CC00E94282C182F6A81862F90E0A0E0B0E093
S1133CD0BC01CD016F5F7F4F8F4F9F4F4981C7015B
S1133CE078DFA4C0633099F5AE014F5F5F4F60E0A9
S1133CF00E94E307182F811191C0AE014F5F5F4FFF
S1133D0060E0C7010E94E307182F811108C0AE01CB
S1133D104D5F5F4F61E5C7010E94332C182F2B8143
S1133D203C81B9017727CB01A0E0B0E004C0880F43
S1133D30991FAA1FBB1F3A95D2F7BC01CD016F5F33
S1133D407F4F8F4F9F4F4981C70143DF6FC064305E
S1133D5009F068C0BE01695F7F4F0E948F088A85A1
S1133D60882331F1AE014F5F5F4F60E0C7010E94CD
S1133D70E307182F811141C0AE014D5F5F4F61E52C
S1133D80C7010E94332C182F2B813C81C90199272C
S1133D90A0E0B0E004C0880F991FAA1FBB1F3A958A
S1133DA0D2F70196A11DB11D5C0111112BC002C0F7
S1133DB0A12CB12CAE014F5F5F4F61E0C7010E949F
S1133DC0E307182F811121C0AE014B5F5F4F61E7FC
S1133DD0C7010E94332C182F2D813E81C9019927D8
S1133DE0A0E0B0E004C0880F991FAA1FBB1F3A953A
S1133DF0D2F70196A11DB11D0AC0A12CB12C80E0FF
S1133E0090E005C080E090E002C080E090E0BC015A
S1133E106A197B094981C701DCDE08C060E070E0F3
S1133E20CB0104C060E070E0CB0110E0F6016083D8
S1133E30718382839383812F2B960FB6F894DEBF10
S1133E400FBECDBFDF91CF911F91FF90EF90DF9018
S1133E50CF90BF90AF9008958F929F92AF92BF92F0
S1133E60CF92DF92EF92FF920F931F93CF93DF9342
S1133E70CDB7DEB728970FB6F894DEBF0FBECDBF1F
S1133E808C0149015A01633018F5AE014F5F5F4F51
S1133E9060E00E94E307F82E8111A1C02981B501D9
S1133EA0A401C80151DE613021E0720718F44FEF1C
S1133EB0460F01C04FEFF801E453FF4F842F90E009
S1133EC09183808366E4C8010E94E52BF82E87C0A5
S1133ED0633041F5AE014F5F5F4F60E00E94E3073E
S1133EE0F82E2981B501A401C8012EDE882799275F
S1133EF0FBDD9B838A83F801E453FF4F9183808326
S1133F00F1106DC0AC0161E5C8010E94F02BF82EE0
S1133F10811165C0F801EC52FF4F80829182A28228
S1133F20B3825DC0643009F056C0BE016C5F7F4F40
S1133F300E948F088F81882341F1AE014F5F5F4F4C
S1133F4060E0C8010E94E307F82E811148C0AE0169
S1133F504E5F5F4F61E5C8010E94332CF82E81113A
S1133F603EC08A819B816C01DD24E12CF12C04C0CC
S1133F70CC0CDD1CEE1CFF1C9A95D2F7D701C601B0
S1133F800196A11DB11D6C0102C0C12CD12CAE0142
S1133F904F5F5F4F61E0C8010E94E307F82E811173
S1133FA01EC02981B501A401C801CEDD6C0D7D1DA3
S1133FB080E090E099DDAC0161E7C8010E94F02B3C
S1133FC0F82E81110CC0F801E153FF4F80829182D9
S1133FD0A282B38204C00F2EFCEFFF2EF02D8F2D92
S1133FE028960FB6F894DEBF0FBECDBFDF91CF91F8
S1133FF01F910F91FF90EF90DF90CF90BF90AF9003
S11340009F908F9008950F931F93CF93DF931F92E8
S1134010CDB7DEB78A01662319F0613041F00EC0D6
S1134020AE014F5F5F4F60E50E94282C08C0AE01CF
S11340304F5F5F4F60E70E94282C01C08CEF811115
S113404005C099819F5F990FF80190830F90DF91CC
S1134050CF911F910F9108958F929F92AF92BF922B
S1134060CF92DF92EF92FF920F931F93CF93DF9340
S1134070CDB7DEB72D970FB6F894DEBF0FBECDBF18
S11340800F2EF0EDCF2EF7E0DF2EE12CF12CF02DEA
S1134090CE82DF82E886F9861A861B861C861D86F8
S11340A040322EE452076105710508F494C06A0198
S11340B07B018C01BE016F5F7F4F0E948F088111CD
S11340C09DC04601570188EE881A88E0980AA10825
S11340D0B1088981811107C08A81811104C08B8153
S11340E0882309F484C0AE014A5F5F4F62E0C801CF
S11340F0C1DD811183C08981882309F474C08E8154
S11341009F81A885B985825B9D4FAF4FBF4F8815AE
S11341109905AA05BB0508F060C0881A990AAA0A7D
S1134120BB0A61C08E819F81A885B9858E549D4F3D
S1134130AF4FBF4F880F991FAA1FBB1F8815990542
S1134140AA05BB0508F057C0881A990AAA0ABB0A2F
S11341504EC08A81882309F44AC08E819F81A88534
S1134160B9858C569D4FAF4FBF4F88159905AA0549
S1134170BB0508F042C0881A990AAA0ABB0A37C0CC
S1134180AE01465F5F4F63E0C80174DD4A855B851D
S11341906C857D854C565D4F6F4F7F4F4815590593
S11341A06A057B05E0F4811129C0841A950AA60AE0
S11341B0B70A8D818823A9F0A501940126523240C3
S11341C04109510964E0C80147DEF801C28AD38A73
S11341D0E48AF58A13C08CEF11C08CEF0FC08CEF0A
S11341E00DC080E00BC08B8181119CCFB2CF8C813C
S11341F08823F9F2C5CF8CEF01C08CEF2D960FB652
S1134200F894DEBF0FBECDBFDF91CF911F910F9108
S1134210FF90EF90DF90CF90BF90AF909F908F90E2
S113422008958F929F92AF92BF92CF92DF92FF92A6
S11342300F931F93CF93DF93CDB7DEB761970FB67C
S1134240F894DEBF0FBECDBF6C018B0180ED97E00B
S1134250A0E0B0E08A879B87AC87BD871E861F8657
S1134260188A198A86E39BE0A0E0B0E0FB01808312
S11342709183A283B383BE016F5F7F4FC6010E9407
S11342808F08F82E8111B3C08981811107C08A81FA
S1134290811104C08B81882309F4A5C0AE01465F57
S11342A05F4F62E0C601E6DC811197C089818823F3
S11342B0A9F08A859B85AC85BD85825B9D4FAF4FF8
S11342C0BF4FF8014081518162817381840F951F32
S11342D0A61FB71F80839183A283B3838B81882316
S11342E0D1F08A859B85AC85BD858E549D4FAF4F9B
S11342F0BF4F880F991FAA1FBB1FF801408151812E
S113430062817381840F951FA61FB71F80839183D9
S1134310A283B38368C08A81882309F464C08A8530
S11343209B85AC85BD858C569D4FAF4FBF4FF80123
S11343304081518162817381840F951FA61FB71F2D
S113434080839183A283B3834EC0AE01425F5F4FEB
S113435063E0C6018FDC4E855F85688979894C5698
S11343605D4F6F4F7F4FF80180809180A280B380B2
S1134370480D591D6A1D7B1D4083518362837383DD
S113438081112DC08D818823E9F0AE014A5F5F4F12
S113439064E0C6016FDC4E815F81688579854A5D82
S11343A05D4F6F4F7F4FF80180809180A280B38072
S11343B0480D591D6A1D7B1D40835183628373839D
S11343C081110FC0F80180819181A281B381F6012E
S11343D0828B938BA48BB58B0AC0F82E08C0F82E61
S11343E006C0F82E04C08C81882361F2AECF8F2DD5
S11343F061960FB6F894DEBF0FBECDBFDF91CF91AB
S11344001F910F91FF90DF90CF90BF90AF909F903E
S11344108F9008952F923F924F925F926F927F9266
S11344208F929F92AF92BF92CF92DF92EF92FF92C0
S11344300F931F93CF93DF9300D000D0CDB7DEB797
S11344405C016B01E12CF12C80E035012DED621A49
S11344502EEF720A45019FED891A9EEF990A2501F4
S1134460EBED4E1AEEEF5E0A1501F8ED2F1AFEEF92
S11344703F0A91C097012F5F3F4F0F3F09F05FC084
S1134480A7014E5F5F4FF601E20FF31F9081913059
S1134490D1F028F0923059F19330E9F177C0F60168
S11344A0EE0DFF1D938124E0E20EF11CF601E40FF2
S11344B0F51F208130E0322F2227290F311DF4010E
S11344C03183208368C0F601EE0DFF1D9381F4E073
S11344D0EF0EF11CF601E40FF51F208130E0322FBE
S11344E02227290F311DF3013183208354C0F601A3
S11344F0EE0DFF1D9381F4E0EF0EF11CF601E40FC5
S1134500F51F208130E0322F2227290F311DF201BF
S11345103183208340C0F601EE0DFF1D9381F4E04A
S1134520EF0EF11CF601E40FF51F208130E0322F6D
S11345302227290F311DF101318320832CC005303E
S113454040F5F601E20FF31F6081F2E0EF0EF11C7B
S1134550002391F09701D601AE0DBF1DFE013196E7
S1134560E02EF12CCF018E0D9F1D4D914193E81744
S1134570F907D9F7E20EF31E10E020E030E0AE01B7
S11345804F5F5F4FC5010E94B52B05C07A018CEFC8
S113459002C079018CEFF601EE0DFF1D00810023AE
S11345A019F0882309F466CF0F900F900F900F90A5
S11345B0DF91CF911F910F91FF90EF90DF90CF90FB
S11345C0BF90AF909F908F907F906F905F904F902F
S11345D03F902F900895CF92DF92EF92FF920F9326
S11345E01F93CF93DF931F92CDB7DEB77C016B018E
S11345F08A01DA011D921D921D921C921397BE012D
S11346006F5F7F4F0E948D09E82F811122C089813D
S11346108823F9F0D60154968D919C915597D70132
S11346205D962D913D914D915C919097DC010E9496
S1134630B92CDC01CB0180589F4FAF4FBF4F492F9E
S11346405A2F6B2F7727D8014D935D936D937C93ED
S113465013978E2F0F90DF91CF911F910F91FF90A1
S1134660EF90DF90CF900895CF92DF92EF92FF9278
S11346700F931F93CF93DF9300D000D0CDB7DEB755
S11346808A01FB01C484D584E684F784FA01C082DC
S1134690D182E282F382AE014F5F5F4F9CDF8111D2
S11346A011C0F801C080D180E280F38049815A8131
S11346B06B817C814C0D5D1D6E1D7F1D408351837C
S11346C0628373830F900F900F900F90DF91CF91BF
S11346D01F910F91FF90EF90DF90CF9008954F922C
S11346E05F926F927F928F929F92AF92BF92CF927E
S11346F0DF92EF92FF920F931F93CF93DF93CDB787
S1134700DEB764970FB6F894DEBF0FBECDBF4987FE
S11347105A876B877C8709831A832B833C83FC012C
S1134720E55CFE4F208131812901612C712C329688
S11347306081718182819381A30192010E94792C0D
S1134740DC01CB0180589F4FAF4FBF4F692F7A2FA9
S11347508B2F99270E94792C6D877E878F87988B62
S113476029813A814B815C8121153105410551052F
S1134770C1F149845A846B847C84032E3AE0440C4E
S1134780551C661C771C3A95D1F7302DDA01C90106
S1134790B695A79597958795BC01CD01640D751DB8
S11347A0861D971D0E94882CDA01C901880F991F64
S11347B0AA1FBB1FBC01CD01620F731F841F951F6D
S11347C09B01AC010E94792CDC01CB019058AF4FC6
S11347D0BF4F9D014427552729873A874B875C871C
S11347E004C019861A861B861C86A7019601C5017A
S11347F0B4010E94792CDC01CB019058AF4FBF4F1C
S1134800BD01882799279B01AC010E94792C698BF3
S11348107A8B8B8B9C8B8FA198A5A9A5BAA5905850
S1134820AF4FBF4FCD01AA27BB27BC01CD016D5FA0
S11348307F4F8F4F9F4F2BEA3AEA4AEA5AEA0E9487
S1134840C32C00E20E94EC2C822E932EA42EB52EB3
S1134850B501A40176956795579547957695679523
S113486057954795DB01CA01880F991FAA1FBB1FE3
S1134870880F991FAA1FBB1F880F991FAA1FBB1F50
S1134880841B950BA60BB70B0097A140B10508F04C
S113489040C06FA178A589A59AA56D5F7F4F8F4F02
S11348A09F4F2BEA3AEA4AEA5AEA0E94C32C0E9432
S11348B0EC2C29833A834B835C836D837E838F83C3
S11348C0988749805A806B807C807694679457944B
S11348D047947694679457944794D301C201880F00
S11348E0991FAA1FBB1F880F991FAA1FBB1F880FE0
S11348F0991FAA1FBB1F84199509A609B7099058C7
S1134900AF4FBF4FBD01882799279B01AC01F1D759
S113491004C060E070E080EF9FEF4BA45CA46DA442
S11349207EA47694679457944794C988DA88EB8870
S1134930FC88C40CD51CE61CF71C6C0D7D1D8E1D5B
S11349409F1D2BA53CA54DA55EA5E2D7DA01C901A3
S1134950072E7EE0880F991FAA1FBB1F7A95D1F7F7
S1134960702DBC01CD0161587F4F8F4F9F4F2EEFAB
S113497030E040E050E0CCD7CA01B90129853A853E
S11349804B855C85B6D76C507E4F8F4F9F4F0F2E53
S1134990F8EE8F2EF3E09F2EA12CB12CF02DA50163
S11349A09401B6D769017A01CC0CDD1CEE1CFF1C06
S11349B0CC0CDD1CEE1CFF1CCC0CDD1CEE1CFF1C07
S11349C0CC0CDD1CEE1CFF1C44EFC40E41E0D41ED5
S11349D0E11CF11CC701B601A501940199D7490155
S11349E05A018D859E85AF85B8898096A11DB11D1C
S11349F0BC01CD01689415F89695879577956795D0
S1134A001694D1F70E9423192B013C0181149104BF
S1134A10A104B104A9F0C701B60120ED37E040E0DC
S1134A2050E076D76D857E858F859889620F731FD8
S1134A30841F951FA50194016BD7CA01B90103C056
S1134A4060E070E0CB010E942319641575058605AA
S1134A50970540F0AFA5B8A94D925D926D927C92F6
S1134A60139706C0EFA5F8A96083718382839383AB
S1134A7080E064960FB6F894DEBF0FBECDBFDF9121
S1134A80CF911F910F91FF90EF90DF90CF90BF9047
S1134A90AF909F908F907F906F905F904F9008950C
S1134AA02F923F924F925F926F927F928F929F923A
S1134AB0AF92BF92CF92DF92EF92FF920F931F9328
S1134AC0CF93DF93CDB7DEB7A9970FB6F894DEBFC7
S1134AD00FBECDBF1C017A87698758A34F8F3A8FC9
S1134AE0298FFC01858D968DA78DB0A189839A832A
S1134AF0AB83BC83DB0150962D913D914D915C912C
S1134B005397298B3A8B4B8B5C8B1C962D913D9143
S1134B104D915C911F972DA33EA34FA358A7AE01BF
S1134B204B5F5F4FC101A0DDAE014F5F5F4F6985F1
S1134B307A85C10150DD182F81114FC2F101ED5268
S1134B40FF4F008134974081518162817381202F0E
S1134B50C1010E94A41D2B013C01F101EC52FF4F45
S1134B60408151816281738134962081C1010E9408
S1134B70A41D4B015C01083049F422E030E040E020
S1134B8050E02D8B3E8B4F8B588F08C083E090E014
S1134B90A0E0B0E08D8B9E8BAF8BB88FCD80DE8094
S1134BA0EF80F884A8EEB3E0A7019601E2D6DC0119
S1134BB0CB019058AF4FBF4F9D01442755272D87F8
S1134BC03E874F87588B89819A81AB81BC818B8FBB
S1134BD09C8FAD8FBE8F90E8C90ED11CE11CF11CD7
S1134BE0CD2CDE2CEF2CFF245E2D4D2D3C2D2227C9
S1134BF029A33AA34BA35CA32D833E834F835887F9
S1134C008D859E85AF85B889892B8A2B8B2BC9F41A
S1134C108EEA97E8AFE8B2E0EF8DF8A18083918344
S1134C20A283B383F101E65DFE4F80839183A28367
S1134C30B383A98DBA8D1D921D921D921C92139758
S1134C40CCC1840C951CA61CB71CA5019401012E93
S1134C501BE0220F331F441F551F1A95D1F7102D47
S1134C606D897E898F89988D44D66C507E4F8F4F85
S1134C709F4F0F2EF8EE8F2EF3E09F2EA12CB12C18
S1134C80F02DA501940144D6A7E7B6E072D66C5086
S1134C907E4F8F4F9F4FA50194013AD62D8B39A794
S1134CA0042F152FC701B60124D6DC01CB0180588F
S1134CB09F4FAF4FBF4F492E5A2E6B2E772441146E
S1134CC051046104710421F4412C512C32014394A8
S1134CD0A8EEB3E02B8D3C8D4D8D5E8D4AD64B01F5
S1134CE05C01613071058243910538F00F2E812CEF
S1134CF0912CF2E3AF2EB12CF02DA8EEB3E029896C
S1134D003A894B895C8935D6662777272D853E8578
S1134D104F855889FDD52736E6E63E074E075105EF
S1134D2020F026E636E646E650E0A8E5B2E021D6D5
S1134D30698B7A8B8B8B9C8BD301C201880F991F53
S1134D40AA1FBB1F840D951DA61DB71DBC01CD0157
S1134D50660F771F881F991F660F771F881F991F7B
S1134D600E9423196B8F7C8F8D8F9E8F2D853E859E
S1134D704F8558897901DD24CC24D701C6018819CF
S1134D809909AA09BB09BC01CD016C507E4F8F4F14
S1134D909F4F28EE33E040E050E0BAD5B42FA32F64
S1134DA0922F88278D879E87AF87B88B94EF890EC3
S1134DB091E0991EA11CB11CC501B4016C0D7D1DAF
S1134DC08E1D9F1D28EE33E040E050E0A1D56D8597
S1134DD07E858F8598899CD56901332324F4CC245E
S1134DE0DD24C21AD30A0D2C000CEE08FF08E98555
S1134DF0FA85A085B1852AE939E946E050E0B9D5BC
S1134E002CE532E140E050E083D5CA01B901FE2C23
S1134E10ED2CDC2CCC24812C912C5401A394A501E1
S1134E2094012C193D094E095F0963D5DC01CB01BE
S1134E309058AF4FBF4FCD01AA27BB271196BC0195
S1134E40CD0196958795779567959B01AC0151D5D2
S1134E506B017C010B2EBEE0F694E794D794C794C3
S1134E60BA95D1F7B02DA0E2B3E0A701960181D5A0
S1134E70DC01CB019058AF4FBF4FBD018827992764
S1134E8089889A88AB88BC88F0E89F0EA11CB11C65
S1134E904501AA24BB249B01AC012BD569877A87E1
S1134EA08B879C87A5019401C501B40122D529856E
S1134EB03A854B855C85620F731F841F951F0E9482
S1134EC02319DB0199278827BC01CD016E5C7F4F34
S1134ED08F4F9F4F24E630E040E050E019D5CA01DF
S1134EE0B9012B8D3C8D4D8D5E8D220F331F441FD8
S1134EF0551F0ED5A5EBBBE03CD568577C4E8F4FB4
S1134F009F4F20E137E240E050E002D5CA01B901E9
S1134F10613030EF73078105910520F060E070EF98
S1134F2080E090E09B01AC01E4D46C5F7E4E8F4F37
S1134F309F4F0E94231945284628472891F0A8EE40
S1134F40B3E09B01AC0115D56F3A47E874074FE80D
S1134F50840742E0940748F06EEA77E88FE892E02D
S1134F6004C06EEA77E88FE892E0AF8DB8A16D9344
S1134F707D938D939C931397F101E65DFE4F6083BF
S1134F80718382839383BA8DBF93E98DEF931F93CB
S1134F900F93F9A5FF932D892F933C893F934B8958
S1134FA04F935A895F9389898F930F2EF0E28F2E46
S1134FB0F3E09F2EA12CB12CF02D0DA11EA12FA149
S1134FC038A549A15AA16BA17CA1C10188DB182F86
S1134FD00FB6F894DEBF0FBECDBF812FA9960FB6D2
S1134FE0F894DEBF0FBECDBFDF91CF911F910F911B
S1134FF0FF90EF90DF90CF90BF90AF909F908F90F5
S11350007F906F905F904F903F902F9008952F92D4
S11350103F924F925F926F927F928F929F92AF9244
S1135020BF92CF92DF92EF92FF920F931F93CF9391
S1135030DF93CDB7DEB7AB970FB6F894DEBF0FBEE4
S1135040CDBF5C0128A339A34AA35BA34801F9A6F9
S1135050E8A6DBA6CAA619821A821B821C821E8AB3
S11350601D8A1F8A188E198E1A8E6877062F10E0F3
S1135070159507951595079515950795302E0023D9
S113508061F0802F8D7F853059F021E02F8F84EFE0
S1135090800F843038F01F8E05C031E03F8F02C08E
S11350A041E04F8F41E06FEFC5018FD381115AC1A9
S11350B0AE014B5E5F4F66EBC501D5D39D8920E001
S11350C030E0392F330F2901612C712C81115AC121
S11350D040E06FEFC50179D3F501EE5CFE4F4082ED
S11350E0518262827382811108C0AE014F5F5F4FAB
S11350F060E070E0C5010E94530A99819923B1F1DF
S1135100811142C09E01295E3F4FAE014B5F5F4F4C
S113511068A579A5C501C4DC811138C08F89988D33
S1135120E8A5F9A593878287AE01475F5F4F60E0EA
S113513070E0C5010E94DC0AC984DA84EB84FC8433
S1135140CCA2DDA2EEA2FFA2C114D104E104F104B9
S113515079F0222423942D813E814F815885C216F3
S1135160D306E406F50628F0212C03C0212C01C047
S1135170212C81110CC0AE014D5F5F4F62E070E0E5
S1135180C5010E94530A03C0212C01C0212C9B811C
S11351909923E1F08111FEC0AE01435F5F4F62E0ED
S11351A070E0C5010E94DC0A4D855E856F857889B3
S11351B0411551056105710559F0FF24F394441517
S11351C055056605770528F0F12C03C0F12C01C0C4
S11351D0F12C8111E0C0AE014C5F5F4F63E070E0E1
S11351E0C5010E94530A9C81992389F1811176C0DB
S11351F08114910479F028A139A14AA15BA1942FCB
S1135200832F722F6627940140E050E081D3290157
S11352103A0103C0412C512C3201AE014F5E5F4F65
S113522063E070E0C5010E94DC0A49895A896B89F0
S11352307C89411551056105710559F099249394B0
S1135240441655066606770628F0912C03C0912C67
S113525001C0912C811145C03F8D313029F48FEF6D
S1135260EAA5FBA5808346C08FEF800F833028F426
S113527085E0EAA5FBA580833DC0F6E03F1631F04A
S11352800F2EF9E0CF2EF02D3C1005C084E0EAA5E6
S1135290FBA580832FC00D7F083019F0F1E0FF12C9
S11352A005C083E0EAA5FBA5808324C0F4E03F1693
S11352B021F0CC24C3949C1005C082E0EAA5FBA590
S11352C0808318C0F1E02F1205C081E0EAA5FBA598
S11352D0808310C0EAA5FBA5108208C0912C01C0F0
S11352E0912CEAA5FBA58081811104C0E8A5F9A54C
S11352F013861286AE014E5F5F4F61E070E0C50118
S11353000E94530A81114CC09981992329F091E09C
S1135310291619F090E001C091E0F50193A7F4E09B
S11353203F1631F091E02A81222319F090E001C068
S113533091E0F50194A79B81992329F091E0F91656
S113534019F090E001C091E0F50195A79C819923A3
S113535029F091E0991619F090E001C091E0F5016F
S113536096A71EC09D8920E030E0392F330F290114
S1135370612C712CF501EE5CFE4F408251826282F9
S11353807382BBCEF501EE5CFE4F40825182628295
S11353907382B3CEF12C9C819111A2CF912C5ACF60
S11353A0AB960FB6F894DEBF0FBECDBFDF91CF91A1
S11353B01F910F91FF90EF90DF90CF90BF90AF902F
S11353C09F908F907F906F905F904F903F902F9021
S11353D00895CF92DF92EF92FF921F93CF93DF93C2
S11353E0EC016B017A0162E00E94CC19182F811143
S11353F01AC0FE01E052FF4F8081811107C0F601FF
S11354001082F701E05CFF4F10820DC0FE01EF51E6
S1135410FF4F8081F6018083BE016E517F4FC7012B
S1135420805C9F4FFDD2812FDF91CF911F91FF9020
S1135430EF90DF90CF900895EF92FF920F931F9318
S1135440CF93DF9300D0CDB7DEB77C018B01AB01E6
S1135450BE016E5F7F4FBDDF81114DC08A81811116
S113546009C08CE0EBEBF3E0D80101900D928A9532
S1135470E1F720C0833258F4803259F08CE0E7EC35
S1135480F3E0D80101900D928A95E1F713C08732B9
S113549048F48CE0E3EDF3E0D80101900D928A9595
S11354A0E1F708C085E1EFEDF3E0D80101900D923A
S11354B08A95E1F788E0E4EFF3E0D8019096019053
S11354C00D928A95E1F7A801405A5F4F60ECC7013D
S11354D0BFD1811110C0AE014F5F5F4F62ECC701B5
S11354E0B7D1F801EF59FF4F91E09083319699813C
S11354F092959F7090830F900F90DF91CF911F91A1
S11355000F91FF90EF900895CF93DF9300D000D0D8
S11355101F92CDB7DEB780E8582F41E068E371E011
S113552080E00E94B2010E94EA0180E090E00F90C6
S11355300F900F900F900F90DF91CF9108954F929D
S11355405F926F927F928F929F92AF92BF92EF92EF
S1135550FF920F931F93CF93DF93CDB7DEB7962FB0
S113556028013901EDB6FEB6480159012FEF821A20
S1135570920AA20AB20AADB7BEB7A819B9090FB602
S1135580F894BEBF0FBEADBF6DB77EB76F5F7F4FE0
S11355908B0111969C934114510461047104A9F088
S11355A090E0292F30E0F801E20FF31F240F351F9C
S11355B0D9012C9121839F5F892E912CA12CB12C90
S11355C084149504A604B70460F341E0440D0E94DA
S11355D0EF0180E090E00FB6F894FEBE0FBEEDBE82
S11355E0DF91CF911F910F91FF90EF90BF90AF90FB
S11355F09F908F907F906F905F904F900895EF925F
S1135600FF920F931F93CF93DF931F92CDB7DEB713
S1135610182F69837A0141E0BE016F5F7F4F0E94BA
S1135620EF01402FB701812F0E946C0280E090E0CF
S11356300F90DF91CF911F910F91FF90EF900895FC
S11356400F931F93CF93DF931F92CDB7DEB7498398
S113565001E010E020E030E0AE014F5F5F4F6FDF0C
S11356600F90DF91CF911F910F9108950F931F9386
S1135670CF93DF9300D0CDB7DEB74A83598302E0DE
S113568010E020E030E0AE014F5F5F4F58DF0F9035
S11356900F90DF91CF911F910F9108950F931F9356
S11356A001E010E020E030E0AADF1F910F9108959F
S11356B0EF92FF920F931F93CF93DF9300D0CDB758
S11356C0DEB77A0102E010E020E030E0AE014F5F87
S11356D05F4F95DF298130E0322F22274A81242B26
S11356E0F701318320830F900F90DF91CF911F91A9
S11356F00F91FF90EF900895EF92FF920F931F93F5
S1135700CF93DF9300D000D0CDB7DEB77A0104E0A9
S113571010E020E030E0AE014F5F5F4F70DF498161
S113572050E060E070E0762F652F542F44272A81E3
S1135730422B762F652F542F44272B81422B762F13
S1135740652F542F44272C81422BF701408351832A
S1135750628373830F900F900F900F90DF91CF911E
S11357601F910F91FF90EF9008950F931F93CF9384
S1135770003411052105310510F0CCEF01C0C0E063
S1135780FC01EF5BFE4F8081DADE892B09F0CCEE61
S11357908C2FCF911F910F9108950F931F93CF9347
S11357A0003411052105310510F0CCEF01C0C0E033
S11357B0FC01EF5BFE4F808122DF892B09F0CCEEE8
S11357C08C2FCF911F910F9108958F5B9E4FFC01F9
S11357D0808136DF892B11F08CEE089580E00895E6
S11357E08F5B9E4FFC01808141DF892B11F08CEE91
S11357F0089580E00895EF92FF920F931F93CF9343
S1135800DF931F92CDB7DEB7F62EE42E122F8F5BF7
S11358109E4FFC010081AE014F5F5F4F802F3EDF42
S1135820892B21F08CEE0CC080E00AC049814E2106
S1135830412B49836F2D802F03DF892BA9F38CEE35
S11358400F90DF91CF911F910F91FF90EF900895EA
S11358508F5B9E4FFC01808121DF892B11F08CEE40
S1135860089580E008958F5B9E4FFC01808120DFC6
S1135870892B11F08CEE089580E008958F5B9E4F84
S1135880FC01808139DF892B11F08CEE089580E0D2
S11358900895CF93DF9300D000D0CDB7DEB719823F
S11358A01A821B821C8289819A81AB81BC818A3FC6
S11358B09105A105B105A8F4000089819A81AB8105
S11358C0BC810196A11DB11D89839A83AB83BC83DE
S11358D089819A81AB81BC818A3F9105A105B1057B
S11358E058F380E00F900F900F900F90DF91CF91BD
S11358F00895DB018F939F933CD0BF91AF91A29FFA
S1135900800D911DA39F900DB29F900D11240895B9
S1135910A1E21A2EAA1BBB1BFD010DC0AA1FBB1FAF
S1135920EE1FFF1FA217B307E407F50720F0A21B21
S1135930B30BE40BF50B661F771F881F991F1A948E
S113594069F760957095809590959B01AC01BD01B8
S1135950CF010895A29FB001B39FC001A39F700D12
S1135960811D1124911DB29F700D811D1124911D63
S11359700895F0DFA59F900DB49F900DA49F800D16
S1135980911D11240895E894DF93CF93FC01DB016A
S1135990E1DF7F936F93E9019A01AC01BF93AF9369
S11359A03F932F93DF01D6DF26F46C1B7D0B820B14
S11359B0930B9E01EB01FC012BD0AF91BF912F9172
S11359C03F9126D0BE01CF01F9012F913F91CF9194
S11359D0DF91089597FB10F8169400080F93083090
S11359E098F00850232F342F452F562F672F782FE8
S11359F0892F902DF4CF0594979587957795679582
S1135A0057954795379527950A95AAF70F910895C5
S1135A10A1DF460F571FC81FD91F08F431960895F8
S1135A20FB01DC0101900D920020E1F70895F89448
S1055A30FFCFA2
S1135A324D0801FF0001800101FF0101000001FF87
S1135A4201014F0201FF0E01000301018401020A58
S1135A520103030104080105C801060301078D01BE
S1135A6208080109C6010A01010B02010C00010D1B
S1135A72D5010E18010F1201100101118201120049
S1135A820113D50114180115130116030117860118
S1135A92180A011909011A08011BC2011C03011D7C
S1135AA28F011E0A011F06012001012102012200A9
S1135AB20123D5012418012522012601012782018F
S1135AC228000129D5012A18012B0B012C28012DAC
S1135AD278012E28012F9101300001310B0132008F
S1135AE201330B0134000135A10136000137A00155
S1135AF23800013904013A28013B30013C0C013DD4
S1135B0204013E0F013F7901402801411E01422F49
S1135B1201438701440001450B01460001470B0183
S1135B2248000149A7014A00014BA6014C00014D5E
S1135B3204014E01014F000150000151800152093C
S1135B4201530801540101550001560F015779010F
S1135B525809015905015A00015B60015C05015DA8
S1135B62D1015E0C015F3C0160000161D001620B56
S1135B7201630301642801651001662A0167390182
S1135B82680B016902016A28016B10016C2A016D1C
S1135B9261016E0C016F0001700F017179017200D5
S1135BA201730B01740001750B0176000177A101E9
S1135BB278000179A0017A00017B0401FF040179D4
S1135BC21D017B2701960E0197FE0198030199EFAF
S1135BD2019A02019B4401730701700101FF010153
S1135BE2000101FF0000000001FF0101000001FFAC
S1135BF2000109000110000111000124010125FF27
S1135C0201750001FF01014E2C0148000130200101
S1135C12FF00013009015400013104013203014043
S1135C22830146250160000127000150060151004D
S1135C3201529601560801573001610001620001C8
S1135C4264000165000166A001FF010122320147DF
S1135C52140149FF014A0001FF00017A0A017B0095
S1135C6201782101FF010123340142000144FF01B3
S1135C724526014605014040010E0601201A014352
S1135C824001FF0001340301354401FF01013104E5
S1135C92014B09014C05014D0401FF0001440001BF
S1135CA24520014708014828016700017004017179
S1135CB2010172FE01760001770001FF01010D016D
S1135CC201FF000180010101F801FF01018E0101C0
S1135CD2000101FF000180000000000A000000052D
