S0160000496D706C656D656E746174696F6E2E7372656348
S11300004CC0000089C1000091C1000099C10000EA
S11300103AC1000042C100004AC1000073C100009F
S11300200C94D70B5BC6000095C600002CC60000DC
S1130030CDC5000040C500009EC5000011C50000EC
S11300404AC0000048C0000046C000004AC3000087
S11300500C9498090C94F2090C944F0A3CC00000CB
S11300603AC0000038C0000036C0000034C00000B0
S113007032C0000030C000002EC000002CC00000C0
S11300802AC0000028C0000026C00000B107BA073B
S1130090C307CC07D507DE07E70711241FBECFEF40
S11300A0D0E4DEBFCDBF11E0A0E0B1E0EEEEFDE1B3
S11300B000E00BBF02C007900D92A030B107D9F742
S11300C021E0A0E0B1E001C01D92A83DB207E1F734
S11300D062D00C94F50E94CF0895EF92FF920F9393
S11300E01F930E94300D0E94270D7B010091330164
S11300F0109134012091350130913601409137013E
S1130100509138016091390170913A0180913B011D
S113011090913C010E946E0B1F910F91FF90EF9004
S113012008950F931F93E3E3F1E080E8182F818390
S113013085E282831382148283E0782F878392E09E
S113014091871082108681E0682F8683158200E0F3
S113015020913501309136014091370150E080E023
S11301600E94760A009133011091340120913501E7
S11301703091360140913701509138016091390135
S113018070913A0180913B0190913C010E94480B8F
S11301901F910F910895EDE3F1E082E0808388EEF2
S11301A093E0A0E0B0E081839283A383B48347D03B
S11301B00E946A0C0E94FA0CB4DF0E94390D20E000
S11301C040913D0150913E0160913F017091400189
S11301D0809141010E94120E6CE670E081E00E9461
S11301E09F0E6DE670E080E00E949F0E6AE080E062
S11301F00E94480E6FE081E00E94480E0E94970D15
S113020078940F2EF1E6EF2EF12CF02D00913301AE
S1130210109134012091350130913601409137011C
S1130220509138016091390170913A0180913B01FC
S113023090913C010E946E0B0E94590EFDCF80E804
S113024085BF85BF0895613061F028F0623079F090
S1130250633099F00895482F672F81E290E0F8C049
S11302600895482F672F84E290E0F2C00895482F44
S1130270672F87E290E0ECC00895482F672F8AE249
S113028090E0E6C008951F920F920FB60F921124CA
S11302900F900FBE0F901F9018951F920F920FB6DC
S11302A00F9211240F900FBE0F901F9018951F925C
S11302B00F920FB60F9211240BB60F922F933F9308
S11302C04F935F936F937F938F939F93AF93BF935A
S11302D0EF93FF93E0910418F09105180995FF91AD
S11302E0EF91BF91AF919F918F917F916F915F91AA
S11302F04F913F912F910F900BBE0F900FBE0F9017
S11303001F9018951F920F920FB60F9211240F9001
S11303100FBE0F901F9018951F920F920FB60F9259
S113032011240F900FBE0F901F9018951F920F92DB
S11303300FB60F9211240F900FBE0F901F901895B7
S11303401F920F920FB60F9211240F900FBE0F90B1
S11303501F9018950F931F93CF93DF93C62F172FDA
S1130360D82F092F70DFD1111FC0C13061F028F0E0
S1130370C23079F0C33099F017C0402F612F82E268
S113038090E066D011C0402F612F85E290E060D0EC
S11303900BC0402F612F88E290E05AD005C0402F57
S11303A0612F8BE290E054D0DF91CF911F910F9198
S11303B00895613059F028F0623069F0633081F0BB
S11303C00895672F82E290E05BC00895672F85E26D
S11303D090E056C00895672F88E290E051C00895D8
S11303E0672F8BE290E04CC00895613059F028F0FB
S11303F0623069F0633081F00895672F82E290E003
S11304004BC00895672F85E290E046C00895672F9A
S113041088E290E041C00895672F8BE290E03CC0F1
S11304200895CF93623041F4C72F88E690E028D036
S11304306C2F8DE690E024D0CF910895623039F48A
S1130440309305182093041888B1809342010895CD
S1130450FC01942F208141E050E0062E02C0440F9D
S1130460551F0A94E2F7409550952423492F50E0F4
S113047002C0440F551F6A95E2F7422B408308954A
S1130480FC01408121E030E002C0220F331F6A9555
S1130490E2F7242B20830895FC01908121E030E0D1
S11304A002C0220F331F6A95E2F720952923208387
S11304B0089590E002C0959587956A95E2F781705A
S11304C00895CF92DF92EF92FF9269017A019B0126
S11304D0AC012C193D094E095F09A8EEB3E00E9456
S11304E0EB0EA70196010E94B10EC901992324F4D1
S11304F088279927821B930BFF90EF90DF90CF9072
S11305000895FC019B01DA010E94DC0E9F0140E08A
S113051050E00E94B10EC9010895CF93DF93EC011E
S1130520488159816A817B818C813FD48881813063
S113053009F062C08091880090918900892B49F06C
S11305408091880090918900909387008093860021
S113055006C08FEF9FEF909387008093860064E03E
S113056081E890E08DDF60E080E890E095DF8E81A7
S1130570882319F0813051F019C063E081E890E0DC
S11305807FDF61E080E890E07BDF10C063E081E81A
S113059090E082DF8D81882329F061E080E890E09B
S11305A07BDF04C061E080E890E06ADF8F8188230C
S11305B071F067E080E890E063DF488566E080E8FA
S11305C090E046DF63E075E081E090E0C3DE89857A
S11305D0882371F065E080E890E052DF4A8564E0AA
S11305E080E890E035DF63E074E081E090E0B2DE23
S11305F01092440110924301DF91CF910895EF923C
S1130600FF920F931F93CF93DF93CDB7DEB72B9752
S11306100FB6F894DEBF0FBECDBF4E2D5F2D602FF9
S1130620712F822F0DD52B960FB6F894DEBF0FBE17
S1130630CDBFDF91CF911F910F91FF90EF9008955F
S1130640AF92CF92EF92FF920F931F93CF93DF93CA
S1130650CDB7DEB72B970FB6F894DEBF0FBECDBF74
S11306609E2DE982FA820B831C832D833E834F8364
S1130670588769877A878B87913021F58C2DC11033
S113068010C0A092440140918600509187006A2DC9
S113069070E084E690E035DF9093890080938800D1
S11306A011C0813079F4A0924301409186005091A9
S11306B087006A2D70E084E690E023DF90938B003E
S11306C080938A002B960FB6F894DEBF0FBECDBF81
S11306D0DF91CF911F910F91FF90EF90CF90AF904A
S11306E008951F920F920FB60F9211240BB60F921A
S11306F08F939F93EF93FF93E0914A01F0E08EB5BF
S1130700E55BFE4F808380914A01893030F480910B
S11307104A018F5F80934A0102C010924A0181E02E
S11307208093490190914701809160019817A1F04D
S1130730E0914701F0E0EB5AFE4F80818EBD80913D
S11307404701893030F4809147018F5F80934701DE
S113075006C01092470103C081E080935F01FF91BE
S1130760EF919F918F910F900BBE0F900FBE0F9042
S11307701F9018958F929F92AF92BF92EF92FF9223
S11307800F931F93CF93DF9300D000D01F92CDB768
S1130790DEB748015901413021F0423009F488C0E4
S11307A04CC160E072E18AE790E0A90198010E94DF
S11307B0B10EDA01C9010197A109B109009721E03D
S11307C0A207B10550F449EF5FEF6FEF70E0F70156
S11307D0408351836283738333C160E472E48FE0A6
S11307E090E0A50194010E94B10EDA01C9010197BC
S11307F0A109B1090097F1E0AF07B10550F44AEF40
S11308005FEF6FEF70E0F70140835183628373837E
S113081017C168E478EE81E090E0A50194010E949C
S1130820B10EDA01C9010197A109B1090097F1E0FC
S1130830AF07B10550F44CEF5FEF6FEF70E0F701D5
S11308404083518362837383FBC062E17AE780E073
S113085090E0A50194010E94B10EDA01C90101974B
S1130860A109B1090097F1E0AF07B10550F44EEFCB
S11308705FEF6FEF70E0F70140835183628373830E
S1130880DFC08FEF9FEFAFEFB0E0F701808391837C
S1130890A283B38364E87EE180E090E0A501940143
S11308A00E94B10EDA01C9010197A109B109C8C0BA
S11308B060E072E18AE790E0A90198010E94B10E1C
S11308C0DA01C9010197A109B1098F3F9105A10579
S11308D0B10509F050F449EF5FEF6FEF70E0F701F5
S11308E04083518362837383ABC060E472E48FE01E
S11308F090E0A50194010E94B10EDA01C9010197AB
S1130900A109B1098F3F9105A105B10509F050F482
S11309104AEF5FEF6FEF70E0F7014083518362832A
S113092073838EC060E970ED83E090E0A5019401CB
S11309300E94B10EDA01C9010197A109B1098F3FE3
S11309409105A105B10509F050F44BEF5FEF6FEF8E
S113095070E0F701408351836283738371C068E45C
S113096078EE81E090E0A50194010E94B10EDA01D5
S1130970C9010197A109B1098F3F9105A105B105ED
S113098009F050F44CEF5FEF6FEF70E0F701408334
S113099051836283738354C064E274EF80E090E017
S11309A0A50194010E94B10EDA01C9010197A109C0
S11309B0B1098F3F9105A105B10509F050F44DEF40
S11309C05FEF6FEF70E0F7014083518362837383BD
S11309D037C062E17AE780E090E0A50194010E94CB
S11309E0B10EDA01C9010197A109B1098F3F91053F
S11309F0A105B10509F050F44EEF5FEF6FEF70E021
S1130A00F70140835183628373831AC08FEF9FEF92
S1130A10AFEFB0E0F70180839183A283B38364E8EE
S1130A207EE180E090E0A50194010E94B10EDA011C
S1130A30C9010197A109B10903C080E090E0DC017C
S1130A400F900F900F900F900F90DF91CF911F9107
S1130A500F91FF90EF90BF90AF909F908F9008956B
S1130A601F920F920FB60F9211240BB60F922F9371
S1130A703F934F935F936F937F938F939F93AF9322
S1130A80BF93EF93FF93E0916101F09162010995A7
S1130A90FF91EF91BF91AF919F918F917F916F9152
S1130AA05F914F913F912F910F900BBE0F900FBE0E
S1130AB00F901F9018951F920F920FB60F9211244A
S1130AC00BB60F920F931F932F933F934F935F9304
S1130AD06F937F938F939F93AF93BF93CF93DF9342
S1130AE0EF93FF93C1E8D0E0888164E0E2DC182F43
S1130AF0888163E0DEDCC12FCC0FCC0FCC0F24E067
S1130B00829FC0011124C82B00E810E0F801808105
S1130B1061E0CFDCD82FF801808160E0CADCDD0F12
S1130B208C2B8D2B883018F4843019F408C080FD88
S1130B3006C0E0916301F0916401099505C0E0915C
S1130B406101F09162010995FF91EF91DF91CF91DD
S1130B50BF91AF919F918F917F916F915F914F91D1
S1130B603F912F911F910F910F900BBE0F900FBECD
S1130B700F901F9018951F920F920FB60F92112489
S1130B800BB60F922F933F934F935F936F937F9383
S1130B908F939F93AF93BF93EF93FF93E09165017E
S1130BA0F09166010995FF91EF91BF91AF919F91EB
S1130BB08F917F916F915F914F913F912F910F9002
S1130BC00BBE0F900FBE0F901F9018951F920F929F
S1130BD00FB60F9211240BB60F920F931F932F93FE
S1130BE03F934F935F936F937F938F939F93AF93B1
S1130BF0BF93CF93DF93EF93FF93C1E8D0E0888155
S1130C0064E057DC182F888163E053DCC12FCC0FDC
S1130C10CC0FCC0F24E0829FC0011124C82B00E824
S1130C2010E0F801808161E044DCD82FF801808174
S1130C3060E03FDCDD0F8C2B8D2B883010F080FFC3
S1130C4006C0E0916701F0916801099505C0E09143
S1130C506101F09162010995FF91EF91DF91CF91CC
S1130C60BF91AF919F918F917F916F915F914F91C0
S1130C703F912F911F910F910F900BBE0F900FBEBC
S1130C800F901F9018951F920F920FB60F92112478
S1130C900BB60F922F933F934F935F936F937F9372
S1130CA08F939F93AF93BF93EF93FF93E0916B0167
S1130CB0F0916C010995FF91EF91BF91AF919F91D4
S1130CC08F917F916F915F914F913F912F910F90F1
S1130CD00BBE0F900FBE0F901F9018951F920F928E
S1130CE00FB60F9211240BB60F922F933F934F938D
S1130CF05F936F937F938F939F93AF93BF93EF9380
S1130D00FF938091B10063E0D4DB81110BC080912B
S1130D10B0008370823031F0E0916D01F0916E018A
S1130D20099505C0E0916B01F0916C010995FF9163
S1130D30EF91BF91AF919F918F917F916F915F914F
S1130D404F913F912F910F900BBE0F900FBE0F90BC
S1130D501F9018951F920F920FB60F9211240BB685
S1130D600F922F933F934F935F936F937F938F9340
S1130D709F93AF93BF93EF93FF93E0916F01F09133
S1130D8070010995FF91EF91BF91AF919F918F9160
S1130D907F916F915F914F913F912F910F900BBE77
S1130DA00F900FBE0F901F901895EF92FF920F9324
S1130DB01F93CF93DF93CDB7DEB729970FB6F8947F
S1130DC0DEBF0FBECDBF4D835E836F837887898777
S1130DD00E811F812885398519821A821B821C8203
S1130DE0413021F0423009F495C01DC1093F8FEF15
S1130DF018072807310528F009831A832B833C83BD
S1130E0015C0CE0101967C014D815E816F8178858C
S1130E108985B0DC909387008093860064E081E844
S1130E2090E02EDB63E081E890E02ADB89819A81FF
S1130E30AB81BC818C3F2FEF9207A207B10559F11A
S1130E4060F4893F2FEF9207A207B10591F08A3F22
S1130E509F4FAF4FB105B1F038C08E3F2FEF9207CF
S1130E60A207B10509F18F3F9F4FAF4FB10529F19B
S1130E702CC081E090E0A0E0B0E089839A83AB834A
S1130E80BC8323C082E090E0A0E0B0E089839A8331
S1130E90AB83BC831AC083E090E0A0E0B0E0898318
S1130EA09A83AB83BC8311C084E090E0A0E0B0E0FF
S1130EB089839A83AB83BC8308C085E090E0A0E07B
S1130EC0B0E089839A83AB83BC8349815A816B8167
S1130ED07C8176956795579547957695679557954F
S1130EE04795417062E089E691E0B2DA49815A811E
S1130EF06B817C817695679557954795417061E044
S1130F0089E691E0A5DA4981417060E089E691E0E3
S1130F109FDA89C0093F8FEF18072807310528F0A9
S1130F2009831A832B833C830FC0CE0101967C0175
S1130F304D815E816F81788589851CDC8093B30047
S1130F4061E080EB90E09CDA89819A81AB81BC817D
S1130F50FC013796E730F10508F041C0EA5BFF4F2A
S1130F6022C781E090E0A0E0B0E089839A83AB835C
S1130F70BC8335C082E090E0A0E0B0E089839A832E
S1130F80AB83BC832CC083E090E0A0E0B0E0898315
S1130F909A83AB83BC8323C084E090E0A0E0B0E0FC
S1130FA089839A83AB83BC831AC085E090E0A0E078
S1130FB0B0E089839A83AB83BC8311C086E090E060
S1130FC0A0E0B0E089839A83AB83BC8308C087E048
S1130FD090E0A0E0B0E089839A83AB83BC8349812D
S1130FE05A816B817C81769567955795479576955F
S1130FF0679557954795417062E08AE691E028DA53
S113100049815A816B817C8176956795579547957F
S1131010417061E08AE691E01BDA4981417060E049
S11310208AE691E015DA29960FB6F894DEBF0FBE72
S1131030CDBFDF91CF911F910F91FF90EF90089555
S1131040CF93DF9300D000D01F92CDB7DEB74130ED
S113105019F04230D1F031C04091690142FB44277C
S113106040F962E081E890E0F3D940916901469546
S1131070417061E081E890E0EBD9409169014170F1
S113108060E081E890E0E4D918C040916A0142FB35
S1131090442740F962E081EB90E0DAD940916A019B
S11310A04695417061E081EB90E0D2D940916A01AC
S11310B0417060E081EB90E0CBD90F900F900F90DE
S11310C00F900F90DF91CF910895CF92DF92EF921E
S11310D0FF920F931F93CF93DF9300D000D01F9202
S11310E0CDB7DEB749835A836B837C838D83022F0C
S11310F0413021F0423009F45EC095C00F2EF1E872
S1131100EF2EF12CF02DF701808164E0D2D9182F55
S1131110F701808163E0CDD9110F110F110FF4E0B5
S11311208F9FC0011124182B6894CC24C7F8D12CAC
S1131130F601808161E0BDD9F82EF601808160E07E
S1131140B8D9FF0C812B8F290130D9F028F0023057
S113115021F1033039F167C0883038F4843061F00C
S113116060E08FE690E08CD95EC080FD05C065E04C
S11311708FE690E085D957C061E08FE690E080D992
S113118052C0883018F4843019F44DC080FD4BC02F
S113119061E08FE690E074D946C062E08FE690E0AB
S11311A06FD941C0883010F080FF3DC065E08FE604
S11311B090E066D938C08091B10063E07AD9182FE5
S11311C00F2EF0EBEF2EF12CF02DF701808161E072
S11311D070D9110F110F880F182BF701808160E06F
S11311E068D9812B013091F018F00230C1F01BC096
S11311F0843038F4823029F060E080E790E040D910
S113120012C061E080E790E03BD90DC0843058F40F
S1131210823049F061E080E790E032D904C062E0B6
S113122080E790E02DD90F900F900F900F900F90C2
S1131230DF91CF911F910F91FF90EF90DF90CF90AE
S113124008950F931F93CF93DF9300D000D01F9284
S1131250CDB7DEB7413019F0423051F011C0E22F62
S1131260F0E0EE0FFF1FEF59FE4F1183008308C01B
S1131270E22FF0E0EE0FFF1FE559FE4F11830083CC
S11312800F900F900F900F900F90DF91CF911F91BF
S11312900F9108954F925F926F927F928F929F92D7
S11312A0AF92BF92CF92DF92EF92FF92CF93DF93F0
S11312B04B015C01EA010F2EF0E24F2EF1EA5F2EA2
S11312C0F7E06F2E712CF02DC301B201A50194013A
S11312D048D569017A01C301B20143D5CA01B901F4
S11312E0A5019401EED8449730F4D701C6010197C3
S11312F0A109B1090EC081E0888360E472E48FE043
S113130090E0A50194012DD5DA01C9010197A10945
S1131310B109DF91CF91FF90EF90DF90CF90BF9014
S1131320AF909F908F907F906F905F904F900895B3
S11313301F920F920FB60F9211240BB60F922F9398
S11313403F934F935F936F937F938F939F93AF9349
S1131350BF93EF93FF938091C10062E0AAD88130DC
S113136099F4E0917301F0E08091C1002091C600EE
S1131370827090E0982F8827822BEE0FFF1FEC5885
S1131380FE4F918380830CC0E0917301F0E0809163
S1131390C60090E0EE0FFF1FEC58FE4F9183808350
S11313A080917301893030F4809173018F5F809351
S11313B0730102C01092730181E080938901FF914F
S11313C0EF91BF91AF919F918F917F916F915F91B9
S11313D04F913F912F910F900BBE0F900FBE0F9026
S11313E01F9018951F920F920FB60F9211240BB6EF
S11313F00F922F933F934F935F936F937F938F93AA
S11314009F93AF93BF93EF93FF9390917201809159
S11314107101981769F18091C10062E04AD8813066
S113142079F4E0917201F0E0EE0FFF1FE657FE4FF2
S113143080819181E1ECF0E080819170892B80833F
S1131440E0917201F0E0EE0FFF1FE657FE4F80813E
S113145091818093C60080917201893030F480912B
S113146072018F5F8093720107C01092720104C0F1
S113147065E081EC90E010D8FF91EF91BF91AF91BE
S11314809F918F917F916F915F914F913F912F9198
S11314900F900BBE0F900FBE0F901F9018951F92C8
S11314A00F920FB60F9211240BB60F928F939F9346
S11314B0EF93FF9380E090E0FC01EE0FFF1FE657EF
S11314C0FE4F1182108201968A309105A9F710927D
S11314D0720110927101FF91EF919F918F910F9082
S11314E00BBE0F900FBE0F901F9018950F931F9374
S11314F0CF93DF93CDB7DEB72B970FB6F894DEBF4B
S11315000FBECDBF0A831B832C833D834E835F8331
S1131510688779878A879B8719820111AEC0192F42
S1131520E2ECF0E080818F7380836B817C818D811C
S11315309E81AE014F5F5F4FADDE9093C5008093F7
S1131540C400498161E080EC90E00E942802898512
S1131550823061F128F4882349F08130B9F055C014
S11315608330A1F1843009F441C04FC061E082ECC2
S113157090E00E944C0262E082EC90E00E944C02F7
S113158062E081EC90E00E944C023FC061E082EC9A
S113159090E00E94400262E082EC90E00E944C02E3
S11315A062E081EC90E00E944C022FC061E082EC8A
S11315B090E00E944C0262E082EC90E00E944002C3
S11315C062E081EC90E00E944C021FC061E082EC7A
S11315D090E00E94400262E082EC90E00E944002AF
S11315E062E081EC90E00E944C020FC061E082EC6A
S11315F090E00E94400262E082EC90E00E9440028F
S113160062E081EC90E00E9440024A8563E082EC53
S113161090E00E942802123031F4E2ECF0E0808184
S11316208F7C80830BC065E082EC90E00E944002D6
S1131630412F64E082EC90E00E9428028F8188238D
S113164059F010928801109273011092890167E099
S113165081EC90E00E9440028885882371F010920A
S113166071011092720166E081EC90E00E944002E8
S113167065E081EC90E00E9440022B960FB6F8944E
S1131680DEBF0FBECDBFDF91CF911F910F910895A3
S11316900F931F93CF93DF93CDB7DEB72A970FB67F
S11316A0F894DEBF0FBECDBF6F8301110CC0452F70
S11316B064E081EC90E00E9428024F8163E081ECB9
S11316C090E00E9428022A960FB6F894DEBF0FBE5F
S11316D0CDBFDF91CF911F910F910895EF92FF92AB
S11316E00F931F93CF93DF93CDB7DEB72A970FB62F
S11316F0F894DEBF0FBECDBF09831A832B833C83CE
S11317004D835E836F83788789879A87011142C0EE
S113171000EC10E0F801808165E00E945902882302
S1131720C9F3E0917101F0E0EE0FFF1FE657FE4FA1
S1131730F182E08280917101893030F480917101ED
S11317408F5F8093710102C0109271018091C0007B
S113175065E00E9459028130E9F480917201893078
S113176030F4809172018F5F8093720102C01092F5
S1131770720165E081EC90E00E944002888584302B
S113178039F4E1ECF0E080819F2D9170892B808306
S1131790E092C6002A960FB6F894DEBF0FBECDBF06
S11317A0DF91CF911F910F91FF90EF9008951F92B9
S11317B00F920FB60F9211240BB60F922F933F93F3
S11317C04F935F936F937F938F939F93AF93BF9345
S11317D0EF93FF93E0919E01F0919F010995FF9192
S11317E0EF91BF91AF919F918F917F916F915F9195
S11317F04F913F912F910F900BBE0F900FBE0F9002
S11318001F90189586B1807F8093A4019091A501C3
S11318108091A40189278032E9F018F4803131F0F5
S113182054C0803459F18038E9F14FC08091B3013C
S11318309091B401A091B501B091B6010196A11D9A
S1131840B11D8093B3019093B401A093B501B093FB
S1131850B6013BC08091B3019091B401A091B50150
S1131860B091B6010196A11DB11D8093B30190936F
S1131870B401A093B501B093B60127C08091A00133
S11318809091A101A091A201B091A3010196A11D83
S1131890B11D8093A0019093A101A093A201B093E4
S11318A0A30113C08091A0019091A101A091A20174
S11318B0B091A3010196A11DB11D8093A001909345
S11318C0A101A093A201B093A3018091A4018093EC
S11318D0A50108951092B2011092A0011092A101E5
S11318E01092A2011092A3011092B3011092B401BC
S11318F01092B5011092B6011092A5011092A401A4
S1131900EEEAF1E0128282E0808396E09183138212
S1131910EAEAF1E01282808397E091831382E6EA97
S1131920F1E01282808394E091831382E7EBF1E08B
S11319301282808385E0818313826091AE0170916D
S1131940AF018091B0019091B1010E94AA01609110
S1131950AA017091AB018091AC019091AD010E94FC
S1131960AA016091A6017091A7018091A8019091AC
S1131970A9010E94AA016091B7017091B8018091F8
S1131980B9019091BA010E94AA016091AE017091CF
S1131990AF018091B0019091B10122E03CE041E0BF
S11319A00E941E026091AA017091AB018091AC016A
S11319B09091AD0122E03CE041E00E941E02609162
S11319C0A6017091A7018091A8019091A90122E03C
S11319D03CE041E00E941E026091B7017091B801A1
S11319E08091B9019091BA0122E03CE041E00C946D
S11319F01E0208956091AE017091AF018091B00113
S1131A009091B10141E00E9411026091AA0170918C
S1131A10AB018091AC019091AD0141E00E941102B3
S1131A206091A6017091A7018091A8019091A901EC
S1131A3041E00E9411026091B7017091B801809158
S1131A40B9019091BA0141E00C941102089560919A
S1131A50B3017091B4018091B5019091B6010895DC
S1131A606091A0017091A1018091A2019091A301C4
S1131A700895EFEBF1E081E0828393E0908322E02C
S1131A8021831382EBEBF1E08283908326E02183B0
S1131A901382E3ECF1E08283908391831382E7EC79
S1131AA0F1E040E25EE460E070E0418352836383EE
S1131AB07483808395E0ACECB1E001900D929A952B
S1131AC0E1F7ECECF1E015821682878310868187BA
S1131AD012866091BF017091C0018091C101909103
S1131AE0C2010E94AA016091BB017091BC01809166
S1131AF0BD019091BE010E94AA016091C301709141
S1131B00C4018091C5019091C6010E94AA0140912F
S1131B10C7015091C8016091C9017091CA018091B7
S1131B20CB0143D98CEC91E00C948D020895AF92D3
S1131B30CF92EF92FF920F931F936091BB0170912C
S1131B40BC018091BD019091BE010E94F50160919C
S1131B50C3017091C4018091C5019091C6010E9496
S1131B60F5016091BF017091C0018091C101909114
S1131B70C2010E94D901A12CC12CE090CC01F090AB
S1131B80CD010091CE011091CF012091D00130916F
S1131B90D1014091D2015091D3016091D40170914F
S1131BA0D5018091D6010E942003CC24C394E090F7
S1131BB0CC01F090CD010091CE011091CF01209184
S1131BC0D0013091D1014091D2015091D301609163
S1131BD0D4017091D5018091D6010E942003E09038
S1131BE0CC01F090CD010091CE011091CF01209154
S1131BF0D0013091D1014091D2015091D301609133
S1131C00D4017091D5018091D6010E94FF021F91E9
S1131C100F91FF90EF90CF90AF90089581E0809363
S1131C20D7010895FF920F931F93CF93DF9300D0B2
S1131C3000D01F92CDB7DEB749835A836B837C8370
S1131C408D83F22E109232011092D701AED80EE09D
S1131C501EE02F2D49815A816B817C818D81F1DABF
S1131C602F2D49815A816B817C818D812EDA4981A6
S1131C705A816B817C818D81E3D90F900F900F90F5
S1131C800F900F90DF91CF911F910F91FF900895C6
S1131C9090E09C01220F331F820F931FFC01E05040
S1131CA0FF4F6083F901E25EFE4F70E07183608351
S1131CB00895EF92FF920F931F93CF938091D701D2
S1131CC08130B9F51092D70180913201882389F1CE
S1131CD0C0E02C2F30E0F901EE0FFF1FE25EFE4F53
S1131CE080819181009701F10197F901EE0FFF1FA7
S1131CF0E25EFE4F91838083892BB1F47901EE0C6F
S1131D00FF1C2E0D3F1D890100501F4FD801119655
S1131D10ED91FC9112970995F701E25EFE4FD8010F
S1131D208C9190E091838083CF5F80913201C817BA
S1131D3080F2CF911F910F91FF90EF90089590E062
S1131D40FC01EE0FFF1F8E0F9F1FFC01E050FF4FA1
S1131D50108272836183809132018F5F809332019C
S1131D600895A1E21A2EAA1BBB1BFD010DC0AA1FD8
S1131D70BB1FEE1FFF1FA217B307E407F50720F0F0
S1131D80A21BB30BE40BF50B661F771F881F991F6B
S1131D901A9469F760957095809590959B01AC01B4
S1131DA0BD01CF010895EE0FFF1F0024001C0BBEE0
S1131DB00790F691E02D0994A29FB001B39FC00152
S1131DC0A39F700D811D1124911DB29F700D811D63
S1131DD01124911D0895F0DFA59F900DB49F900DDF
S1111DE0A49F800D911D11240895F894FFCF47
S9030000FC
