S0160000496D706C656D656E746174696F6E2E7372656348
S113000045C000002AC1000032C100003AC100000E
S1130010FCC0000004C100000CC1000014C10000B9
S1130020ADC4000032C300006CC3000003C3000071
S1130030A4C2000017C2000075C20000E8C100009D
S113004042C0000040C000003EC0000097C1000054
S11300503AC0000038C0000036C0000034C00000C0
S113006032C0000030C000002EC000002CC00000D0
S11300702AC0000028C0000026C0000024C00000E0
S113008022C0000020C000001EC0000011241FBEBA
S1130090CFEFD0E4DEBFCDBF11E0A0E0B1E0ECEBE8
S11300A0FAE000E00BBF02C007900D92A030B10748
S11300B0D9F721E0A0E0B1E001C01D92A035B2075C
S11300C0E1F702D0F9C49CCF9CD083D42FD0E0E0D8
S11300D0F1E081E08283118280831382E4E0F1E025
S11300E08283818380831382609100017091010176
S11300F08091020190910301CED06091040170912E
S113010005018091060190910701C5D02FEF89E682
S113011098E1215080409040E1F700C00000F6CF04
S113012080910F01909110015EC00895EFE0F1E01D
S11301308FEF818397E09083E1E1F1E081E08583B3
S113014084838383168226E0228381838083E8E08C
S1130150F1E08583148213821682928381838083E3
S113016080910F019091100102D0DACF08951F936E
S1130170CF93DF93D82FC92F82FB442740F962E045
S11301808AE790E0A4D0D1FB442740F961E08AE7F4
S113019090E09DD04D2F417060E08AE790E097D0C9
S11301A0CF3F29F465E08AE790E0B5D018C065E058
S11301B08AE790E0A4D0C2FB442740F962E08BE7D1
S11301C090E085D0C1FB442740F961E08BE790E0E3
S11301D07ED04C2F417060E08BE790E078D0DF91C7
S11301E0CF911F910895CF93C92F67E08AE790E0DC
S11301F086D0CF3F21F066E08AE790E080D0CF91AF
S1130200089580E885BF85BF08951F920F920FB6A9
S11302100F9211240F900FBE0F901F9018951F92EC
S11302200F920FB60F9211240F900FBE0F901F90D4
S113023018951F920F920FB60F9211240F900FBEB4
S11302400F901F9018951F920F920FB60F921124C2
S11302500F900FBE0F901F9018951F920F920FB61C
S11302600F9211240F900FBE0F901F9018951F929C
S11302700F920FB60F9211240F900FBE0F901F9084
S113028018951F920F920FB60F9211240F900FBE64
S11302900F901F901895613059F028F0623069F082
S11302A0633081F00895672F82E290E028C00895BA
S11302B0672F85E290E023C00895672F88E290E0DD
S11302C01EC00895672F8BE290E019C00895FC01C9
S11302D0942F208141E050E0062E02C0440F551FA8
S11302E00A94E2F7409550952423492F50E002C028
S11302F0440F551F6A95E2F7422B40830895FC0191
S1130300408121E030E002C0220F331F6A95E2F7FA
S1130310242B20830895FC01908121E030E002C069
S1130320220F331F6A95E2F720952923208308952D
S113033090E002C0959587956A95E2F781700895DB
S1130340CF92DF92EF92FF9269017A019B01AC0197
S11303502C193D094E095F09A8EEB3E0A3D3A70108
S113036096016FD3C901992324F488279927821B06
S1130370930BFF90EF90DF90CF9008951F920F9210
S11303800FB60F9211240BB60F928F939F93EF9396
S1130390FF93E0911D01F0E08EB5E25EFE4F808395
S11303A080911D01893030F480911D018F5F80930D
S11303B01D0102C010921D0181E080931C019091E7
S11303C01A01809133019817A1F0E0911A01F0E02D
S11303D0E85DFE4F80818EBD80911A01893030F432
S11303E080911A018F5F80931A0106C010921A013E
S11303F003C081E080933201FF91EF919F918F912F
S11304000F900BBE0F900FBE0F901F9018951F9268
S11304100F920FB60F9211240BB60F922F933F93A6
S11304204F935F936F937F938F939F93AF93BF93F8
S1130430EF93FF93E0913401F09135010995FF9119
S1130440EF91BF91AF919F918F917F916F915F9148
S11304504F913F912F910F900BBE0F900FBE0F90B5
S11304601F9018951F920F920FB60F9211240BB67E
S11304700F920F931F932F933F934F935F936F9319
S11304807F938F939F93AF93BF93CF93DF93EF9318
S1130490FF93C1E8D0E0888164E04ADF182F8881A7
S11304A063E046DFC12FCC0FCC0FCC0F24E0829F3A
S11304B0C0011124C82B00E810E0F801808161E03C
S11304C037DFD82FF801808160E032DFDD0F8C2B1D
S11304D08D2B883018F4843019F408C080FD06C0D0
S11304E0E0913601F0913701099505C0E09134019E
S11304F0F09135010995FF91EF91DF91CF91BF9173
S1130500AF919F918F917F916F915F914F913F91A7
S11305102F911F910F910F900BBE0F900FBE0F9054
S11305201F9018951F920F920FB60F9211240BB6BD
S11305300F922F933F934F935F936F937F938F9378
S11305409F93AF93BF93EF93FF93E0913801F091A2
S113055039010995FF91EF91BF91AF919F918F91CF
S11305607F916F915F914F913F912F910F900BBEAF
S11305700F900FBE0F901F9018951F920F920FB6F9
S11305800F9211240BB60F920F931F932F933F9347
S11305904F935F936F937F938F939F93AF93BF9387
S11305A0CF93DF93EF93FF93C1E8D0E0888164E0B9
S11305B0BFDE182F888163E0BBDEC12FCC0FCC0FC8
S11305C0CC0F24E0829FC0011124C82B00E810E066
S11305D0F801808161E0ACDED82FF801808160E011
S11305E0A7DEDD0F8C2B8D2B883010F080FF06C02A
S11305F0E0913A01F0913B01099505C0E091340185
S1130600F09135010995FF91EF91DF91CF91BF9161
S1130610AF919F918F917F916F915F914F913F9196
S11306202F911F910F910F900BBE0F900FBE0F9043
S11306301F9018951F920F920FB60F9211240BB6AC
S11306400F922F933F934F935F936F937F938F9367
S11306509F93AF93BF93EF93FF93E0913E01F0918B
S11306603F010995FF91EF91BF91AF919F918F91B8
S11306707F916F915F914F913F912F910F900BBE9E
S11306800F900FBE0F901F9018951F920F920FB6E8
S11306900F9211240BB60F922F933F934F935F93B6
S11306A06F937F938F939F93AF93BF93EF93FF9336
S11306B08091B10063E03CDE81110BC08091B000F9
S11306C08370823031F0E0914001F091410109954D
S11306D005C0E0913E01F0913F010995FF91EF9132
S11306E0BF91AF919F918F917F916F915F914F9146
S11306F03F912F910F900BBE0F900FBE0F901F9044
S113070018951F920F920FB60F9211240BB60F92E9
S11307102F933F934F935F936F937F938F939F9305
S1130720AF93BF93EF93FF93E0914201F0914301A4
S11307300995FF91EF91BF91AF919F918F917F9117
S11307406F915F914F913F912F910F900BBE0F903E
S11307500FBE0F901F9018954F925F926F927F92E9
S11307608F929F92AF92BF92CF92DF92EF92FF92BD
S1130770CF93DF934B015C01EA010F2EF0E24F2E81
S1130780F1EA5F2EF7E06F2E712CF02DC301B20158
S1130790A501940156D169017A01C301B20151D175
S11307A0CA01B901A5019401CBDD449730F4D70106
S11307B0C6010197A109B1090EC081E0888360E4F4
S11307C072E48FE090E0A50194013BD1DA01C90104
S11307D00197A109B109DF91CF91FF90EF90DF90CC
S11307E0CF90BF90AF909F908F907F906F905F90CD
S11307F04F9008950F931F93CF93DF93CDB7DEB738
S11308002B970FB6F894DEBF0FBECDBF0A831B83B0
S11308102C833D834E835F83688779878A879B8790
S1130820198201117CC0192FE2ECF0E080818F73F2
S113083080836B817C818D819E81AE014F5F5F4F90
S11308408BDF9093C5008093C400498161E080EC04
S113085090E03DDD8985823031F128F4882349F028
S11308608130A1F046C0833059F1843009F435C099
S113087040C061E082EC90E04EDD62E082EC90E00A
S11308804ADD62E081EC90E046DD33C061E082EC59
S113089090E035DD62E082EC90E03DDD62E081ECE9
S11308A090E039DD26C061E082EC90E034DD62E066
S11308B082EC90E024DD62E081EC90E02CDD19C054
S11308C061E082EC90E01BDD62E082EC90E017DDF9
S11308D062E081EC90E01FDD0CC061E082EC90E00E
S11308E00EDD62E082EC90E00ADD62E081EC90E0F3
S11308F006DD4A8563E082EC90E0E9DC123031F4F5
S1130900E2ECF0E080818F7C808309C065E082ECBA
S113091090E0F5DC412F64E082EC90E0D8DC2B968B
S11309200FB6F894DEBF0FBECDBFDF91CF911F91FC
S11309300F9108950F931F93CF93DF93CDB7DEB735
S11309402A970FB6F894DEBF0FBECDBF6F83011197
S11309500AC0452F64E081EC90E0B9DC4F8163E08C
S113096081EC90E0B4DC2A960FB6F894DEBF0FBE9B
S1130970CDBFDF91CF911F910F9108951F920F92D8
S11309800FB60F9211240BB60F922F933F934F93F0
S11309905F936F937F938F939F93AF93BF93EF93E3
S11309A0FF93E0914401F09145010995FF91EF9186
S11309B0BF91AF919F918F917F916F915F914F9173
S11309C03F912F910F900BBE0F900FBE0F901F9071
S11309D018950F931F93E6E4F1E080E0182F8183CC
S11309E08BE482831382148283E0782F87831186B9
S11309F010821086158281E0682F868300E02091A2
S1130A0048013091490140914A0150E080E090E072
S1130A10F1DE009146011091470120914801309187
S1130A20490140914A0150914B0160914C017091F0
S1130A304D0180914E0190914F017CDF1F910F91E8
S1130A400895A1E21A2EAA1BBB1BFD010DC0AA1F0B
S1130A50BB1FEE1FFF1FA217B307E407F50720F023
S1130A60A21BB30BE40BF50B661F771F881F991F9E
S1130A701A9469F760957095809590959B01AC01E7
S1130A80BD01CF010895A29FB001B39FC001A39FF0
S1130A90700D811D1124911DB29F700D811D1124B3
S1130AA0911D0895F0DFA59F900DB49F900DA49F14
S10F0AB0800D911D11240895F894FFCFCF
S9030000FC
