S0160000496D706C656D656E746174696F6E2E7372656348
S11300004CC0000019C1000021C1000029C100003A
S1130010EBC00000F3C00000FBC0000003C10000FF
S11300200C942B0B17C6000051C60000E8C5000055
S113003089C50000FCC400005AC50000CDC40000FE
S11300404AC0000048C0000046C0000006C30000CB
S11300500C9455090C94AF090C940C0A3CC0000094
S11300603AC0000038C0000036C0000034C00000B0
S113007032C0000030C000002EC000002CC00000C0
S11300802AC0000028C0000026C000006E077707C1
S11300908007890792079B07A40711241FBECFEF8F
S11300A0D0E4DEBFCDBF11E0A0E0B1E0ECE7FFE1BA
S11300B000E00BBF02C007900D92A030B107D9F742
S11300C021E0A0E0B1E001C01D92AB3DB207E1F731
S11300D024D00C94BC0F94CF0E94840C6093000134
S11300E07093010180930201909303010C947B0CA3
S11300F008958091000190910101A0910201B091B5
S11301000301892B8A2B8B2B21F08AE00C94680D38
S1130110089588E20C94680D0895E7E3F1E082E025
S1130120808388EE93E0A0E0B0E081839283A38390
S1130130B4831092000110920101109202011092F6
S113014003012ED00E94BE0B0E944E0C0E948D0C07
S113015020E040913701509138016091390170914C
S11301603A0180913B010E94BC0D69E770E081E097
S11301700E94490E6CE670E080E00E94490E6AE03D
S113018080E00E94F20D6FE081E00E94F20D0E9477
S1130190EB0C81E00E94680D78940E94030EFDCF61
S11301A080E885BF85BF0895613061F028F0623032
S11301B079F0633099F00895482F672F81E290E039
S11301C003C10895482F672F84E290E0FDC008958D
S11301D0482F672F87E290E0F7C00895482F672FD4
S11301E08AE290E0F1C008951F920F920FB60F9229
S11301F011240F900FBE0F901F9018951F920F920D
S11302000FB60F9211240F900FBE0F901F901895E8
S11302101F920F920FB60F9211240F900FBE0F90E2
S11302201F9018951F920F920FB60F9211240F90E2
S11302300FBE0F901F9018951F920F920FB60F923A
S113024011240F900FBE0F901F9018951F920F92BC
S11302500FB60F9211240F900FBE0F901F90189598
S11302601F920F920FB60F9211240F900FBE0F9092
S11302701F901895EF92FF920F931F93CF93DF93E4
S1130280C62FF72ED82FE92EECE3F1E0108280E898
S1130290182F818385E282831382148283E0782F6E
S11302A0878392E091871086158281E0682F868388
S11302B000E020913E0130913F014091400150E027
S11302C080E00E94330A00913C0110913D0120918D
S11302D03E0130913F0140914001509141016091B4
S11302E042017091430180914401909145010E9423
S11302F0050B6C2F7F2D8D2F9E2D56DFD11123C022
S1130300C13081F028F0C23099F0C330B9F01BC07D
S11303104E2D6F2D82E290E057D06F2D8EE790E046
S113032077D011C04E2D6F2D85E290E04DD00BC0DB
S11303304E2D6F2D88E290E047D005C04E2D6F2DD5
S11303408BE290E041D0DF91CF911F910F91FF900C
S1130350EF900895613059F028F0623069F063300D
S113036081F00895672F82E290E046C00895672FD8
S113037085E290E041C00895672F88E290E03CC098
S11303800895672F8BE290E037C00895613059F0EB
S113039028F0623069F0633081F00895672F82E2BB
S11303A090E036C00895672F85E290E031C008954B
S11303B0672F88E290E02CC00895672F8BE290E0CD
S11303C027C0089508950895FC01942F208141E0E9
S11303D050E0062E02C0440F551F0A94E2F74095E0
S11303E050952423492F50E002C0440F551F6A95AD
S11303F0E2F7422B40830895FC01408121E030E084
S113040002C0220F331F6A95E2F7242B208308953C
S1130410FC01908121E030E002C0220F331F6A9575
S1130420E2F7209529232083089590E002C0959552
S113043087956A95E2F781700895CF92DF92EF92E3
S1130440FF9269017A019B01AC012C193D094E0907
S11304505F09A8EEB3E00E94B20FA70196010E94C3
S1130460780FC901992324F488279927821B930BB9
S1130470FF90EF90DF90CF900895FC019B01DA018B
S11304800E94A30F9F0140E050E00E94780FC90131
S11304900895CF93DF93EC01488159816A817B8170
S11304A08C813FD48881813009F062C080918800BA
S11304B090918900892B49F080918800909189005E
S11304C0909387008093860006C08FEF9FEF9093F0
S11304D087008093860064E081E890E08DDF60E02F
S11304E080E890E095DF8E81882319F0813051F007
S11304F019C063E081E890E07FDF61E080E890E08C
S11305007BDF10C063E081E890E082DF8D81882387
S113051029F061E080E890E07BDF04C061E080E8DE
S113052090E06ADF8F81882371F067E080E890E0D3
S113053063DF488566E080E890E046DF63E075E0CD
S113054081E090E097DE8985882371F065E080E89A
S113055090E052DF4A8564E080E890E035DF63E0B4
S113056074E081E090E086DE10924701109246012B
S1130570DF91CF910895EF92FF920F931F93CF9342
S1130580DF93CDB7DEB72B970FB6F894DEBF0FBE5F
S1130590CDBF4E2D5F2D602F712F822F0ED52B9640
S11305A00FB6F894DEBF0FBECDBFDF91CF911F9180
S11305B00F91FF90EF900895AF92CF92EF92FF9238
S11305C00F931F93CF93DF93CDB7DEB72B970FB65F
S11305D0F894DEBF0FBECDBF9E2DE982FA820B8355
S11305E01C832D833E834F83588769877A878B8743
S11305F0913021F58C2DC11010C0A092470140917B
S11306008600509187006A2D70E084E690E035DF23
S1130610909389008093880011C0813079F4A0926E
S1130620460140918600509187006A2D70E084E66F
S113063090E023DF90938B0080938A002B960FB673
S1130640F894DEBF0FBECDBFDF91CF911F910F9104
S1130650FF90EF90CF90AF9008951F920F920FB636
S11306600F9211240BB60F928F939F93EF93FF93E6
S1130670E0914D01F0E08EB5E25BFE4F8083809106
S11306804D01893030F480914D018F5F80934D018D
S113069002C010924D0181E080934C0190914A0177
S11306A0809163019817A1F0E0914A01F0E0E85AC3
S11306B0FE4F80818EBD80914A01893030F4809153
S11306C04A018F5F80934A0106C010924A0103C019
S11306D081E080936201FF91EF919F918F910F9040
S11306E00BBE0F900FBE0F901F9018958F929F9284
S11306F0AF92BF92EF92FF920F931F93CF93DF932A
S113070000D000D01F92CDB7DEB748015901413067
S113071021F0423009F488C04CC160E072E18AE7FC
S113072090E0A90198010E94780FDA01C9010197AC
S1130730A109B109009721E0A207B10550F449EFDE
S11307405FEF6FEF70E0F70140835183628373833F
S113075033C160E472E48FE090E0A50194010E944B
S1130760780FDA01C9010197A109B1090097F1E0F5
S1130770AF07B10550F44AEF5FEF6FEF70E0F70198
S1130780408351836283738317C168E478EE81E008
S113079090E0A50194010E94780FDA01C901019744
S11307A0A109B1090097F1E0AF07B10550F44CEF8E
S11307B05FEF6FEF70E0F7014083518362837383CF
S11307C0FBC062E17AE780E090E0A50194010E9419
S11307D0780FDA01C9010197A109B1090097F1E085
S11307E0AF07B10550F44EEF5FEF6FEF70E0F70124
S11307F04083518362837383DFC08FEF9FEFAFEF3A
S1130800B0E0F70180839183A283B38364E87EE13F
S113081080E090E0A50194010E94780FDA01C901FB
S11308200197A109B109C8C060E072E18AE790E0CC
S1130830A90198010E94780FDA01C9010197A10961
S1130840B1098F3F9105A105B10509F050F449EFB5
S11308505FEF6FEF70E0F70140835183628373832E
S1130860ABC060E472E48FE090E0A50194010E94C3
S1130870780FDA01C9010197A109B1098F3F9105E8
S1130880A105B10509F050F44AEF5FEF6FEF70E096
S1130890F70140835183628373838EC060E970EDF6
S11308A083E090E0A50194010E94780FDA01C90168
S11308B00197A109B1098F3F9105A105B10509F07F
S11308C050F44BEF5FEF6FEF70E0F701408351831B
S11308D06283738371C068E478EE81E090E0A501DF
S11308E094010E94780FDA01C9010197A109B109A5
S11308F08F3F9105A105B10509F050F44CEF5FEF6E
S11309006FEF70E0F701408351836283738354C0B7
S113091064E274EF80E090E0A50194010E94780FF6
S1130920DA01C9010197A109B1098F3F9105A10518
S1130930B10509F050F44DEF5FEF6FEF70E0F70190
S1130940408351836283738337C062E17AE780E036
S113095090E0A50194010E94780FDA01C901019782
S1130960A109B1098F3F9105A105B10509F050F422
S11309704EEF5FEF6FEF70E0F701408351836283C6
S113098073831AC08FEF9FEFAFEFB0E0F70180835E
S11309909183A283B38364E87EE180E090E0A501C3
S11309A094010E94780FDA01C9010197A109B109E4
S11309B003C080E090E0DC010F900F900F900F9047
S11309C00F90DF91CF911F910F91FF90EF90BF9007
S11309D0AF909F908F9008951F920F920FB60F9231
S11309E011240BB60F922F933F934F935F936F9302
S11309F07F938F939F93AF93BF93EF93FF93E09174
S1130A006401F09165010995FF91EF91BF91AF9158
S1130A109F918F917F916F915F914F913F912F9112
S1130A200F900BBE0F900FBE0F901F9018951F9242
S1130A300F920FB60F9211240BB60F920F931F93C0
S1130A402F933F934F935F936F937F938F939F93D2
S1130A50AF93BF93CF93DF93EF93FF93C1E8D0E0BD
S1130A60888164E0E2DC182F888163E0DEDCC12F3A
S1130A70CC0FCC0FCC0F24E0829FC0011124C82BD3
S1130A8000E810E0F801808161E0CFDCD82FF801A4
S1130A90808160E0CADCDD0F8C2B8D2B883018F44C
S1130AA0843019F408C080FD06C0E0916601F0911D
S1130AB06701099505C0E0916401F091650109950C
S1130AC0FF91EF91DF91CF91BF91AF919F918F9162
S1130AD07F916F915F914F913F912F911F910F9152
S1130AE00F900BBE0F900FBE0F901F9018951F9282
S1130AF00F920FB60F9211240BB60F922F933F93C0
S1130B004F935F936F937F938F939F93AF93BF9311
S1130B10EF93FF93E0916801F09169010995FF91CA
S1130B20EF91BF91AF919F918F917F916F915F9161
S1130B304F913F912F910F900BBE0F900FBE0F90CE
S1130B401F9018951F920F920FB60F9211240BB697
S1130B500F920F931F932F933F934F935F936F9332
S1130B607F938F939F93AF93BF93CF93DF93EF9331
S1130B70FF93C1E8D0E0888164E057DC182F8881B6
S1130B8063E053DCC12FCC0FCC0FCC0F24E0829F49
S1130B90C0011124C82B00E810E0F801808161E055
S1130BA044DCD82FF801808160E03FDCDD0F8C2B22
S1130BB08D2B883010F080FF06C0E0916A01F0911F
S1130BC06B01099505C0E0916401F09165010995F7
S1130BD0FF91EF91DF91CF91BF91AF919F918F9151
S1130BE07F916F915F914F913F912F911F910F9141
S1130BF00F900BBE0F900FBE0F901F9018951F9271
S1130C000F920FB60F9211240BB60F922F933F93AE
S1130C104F935F936F937F938F939F93AF93BF9300
S1130C20EF93FF93E0916E01F0916F010995FF91AD
S1130C30EF91BF91AF919F918F917F916F915F9150
S1130C404F913F912F910F900BBE0F900FBE0F90BD
S1130C501F9018951F920F920FB60F9211240BB686
S1130C600F922F933F934F935F936F937F938F9341
S1130C709F93AF93BF93EF93FF938091B10063E091
S1130C80D4DB81110BC08091B0008370823031F0CD
S1130C90E0917001F0917101099505C0E0916E0138
S1130CA0F0916F010995FF91EF91BF91AF919F91E1
S1130CB08F917F916F915F914F913F912F910F9001
S1130CC00BBE0F900FBE0F901F9018951F920F929E
S1130CD00FB60F9211240BB60F922F933F934F939D
S1130CE05F936F937F938F939F93AF93BF93EF9390
S1130CF0FF93E0917201F09173010995FF91EF91D7
S1130D00BF91AF919F918F917F916F915F914F911F
S1130D103F912F910F900BBE0F900FBE0F901F901D
S1130D201895EF92FF920F931F93CF93DF93CDB754
S1130D30DEB729970FB6F894DEBF0FBECDBF4D8343
S1130D405E836F83788789870E811F812885398523
S1130D5019821A821B821C82413021F0423009F42C
S1130D6095C01EC1093F8FEF18072807310528F0E9
S1130D7009831A832B833C8315C0CE0101967C0121
S1130D804D815E816F8178858985B0DC9093870081
S1130D908093860064E081E890E02EDB63E081E8E4
S1130DA090E02ADB89819A81AB81BC818C3F2FEF53
S1130DB09207A207B10559F160F4893F2FEF92071A
S1130DC0A207B10591F08A3F9F4FAF4FB105B1F033
S1130DD038C08E3F2FEF9207A207B10509F18F3F6C
S1130DE09F4FAF4FB10529F12CC081E090E0A0E006
S1130DF0B0E089839A83AB83BC8323C082E090E014
S1130E00A0E0B0E089839A83AB83BC831AC083E0FB
S1130E1090E0A0E0B0E089839A83AB83BC8311C0E7
S1130E2084E090E0A0E0B0E089839A83AB83BC8344
S1130E3008C085E090E0A0E0B0E089839A83AB83AA
S1130E40BC8349815A816B817C81769567955795DE
S1130E5047957695679557954795417062E08CE67E
S1130E6091E0B2DA49815A816B817C8176956795EC
S1130E7057954795417061E08CE691E0A5DA498188
S1130E80417060E08CE691E09FDA8AC0093F8FEF01
S1130E9018072807310528F009831A832B833C831C
S1130EA00FC0CE0101967C014D815E816F817885F2
S1130EB089851CDC8093B30061E080EB90E09CDAD0
S1130EC089819A81AB81BC81FC013796E730F105B9
S1130ED008F042C0EA5BFF4F0C949A0F81E090E067
S1130EE0A0E0B0E089839A83AB83BC8335C082E001
S1130EF090E0A0E0B0E089839A83AB83BC832CC0EC
S1130F0083E090E0A0E0B0E089839A83AB83BC8364
S1130F1023C084E090E0A0E0B0E089839A83AB83AF
S1130F20BC831AC085E090E0A0E0B0E089839A8396
S1130F30AB83BC8311C086E090E0A0E0B0E089837D
S1130F409A83AB83BC8308C087E090E0A0E0B0E064
S1130F5089839A83AB83BC8349815A816B817C8169
S1130F6076956795579547957695679557954795DF
S1130F70417062E08DE691E027DA49815A816B8104
S1130F807C817695679557954795417061E08DE62C
S1130F9091E01ADA4981417060E08DE691E014DA5B
S1130FA029960FB6F894DEBF0FBECDBFDF91CF9167
S1130FB01F910F91FF90EF900895CF93DF9300D08E
S1130FC000D01F92CDB7DEB7413019F04230D1F0D6
S1130FD031C040916C0142FB442740F962E081E852
S1130FE090E0F2D940916C014695417061E081E84E
S1130FF090E0EAD940916C01417060E081E890E0B2
S1131000E3D918C040916D0142FB442740F962E0E6
S113101081EB90E0D9D940916D014695417061E032
S113102081EB90E0D1D940916D01417060E081EB9A
S113103090E0CAD90F900F900F900F900F90DF910E
S1131040CF910895CF92DF92EF92FF920F931F9367
S1131050CF93DF9300D000D01F92CDB7DEB7498382
S11310605A836B837C838D83022F413021F042307D
S113107009F45EC095C00F2EF1E8EF2EF12CF02D8F
S1131080F701808164E0D1D9182FF701808163E0F2
S1131090CCD9110F110F110FF4E08F9FC00111244F
S11310A0182B6894CC24C7F8D12CF601808161E018
S11310B0BCD9F82EF601808160E0B7D9FF0C812BF2
S11310C08F290130D9F028F0023021F1033039F1B1
S11310D067C0883038F4843061F060E08FE690E0D7
S11310E08BD95EC080FD05C065E08FE690E084D9B1
S11310F057C061E08FE690E07FD952C0883018F481
S1131100843019F44DC080FD4BC061E08FE690E05F
S113111073D946C062E08FE690E06ED941C0883052
S113112010F080FF3DC065E08FE690E065D938C0DF
S11311308091B10063E079D9182F0F2EF0EBEF2ED8
S1131140F12CF02DF701808161E06FD9110F110F9F
S1131150880F182BF701808160E067D9812B01305B
S113116091F018F00230C1F01BC0843038F48230A2
S113117029F060E080E790E03FD912C061E080E7A9
S113118090E03AD90DC0843058F4823049F061E0DF
S113119080E790E031D904C062E080E790E02CD988
S11311A00F900F900F900F900F90DF91CF911F91A0
S11311B00F91FF90EF90DF90CF9008950F931F93BE
S11311C0CF93DF9300D000D01F92CDB7DEB741306C
S11311D019F0423051F011C0E22FF0E0EE0FFF1F82
S11311E0EC59FE4F1183008308C0E22FF0E0EE0FAC
S11311F0FF1FE259FE4F118300830F900F900F9051
S11312000F900F90DF91CF911F910F9108954F92FE
S11312105F926F927F928F929F92AF92BF92CF9282
S1131220DF92EF92FF92CF93DF934B015C01EA01CF
S11312300F2EF0E24F2EF1EA5F2EF7E06F2E712CA5
S1131240F02DC301B201A501940152D669017A01BE
S1131250C301B2014DD6CA01B901A5019401EDD86B
S1131260449730F4D701C6010197A109B1090EC012
S113127081E0888360E472E48FE090E0A50194014A
S113128037D6DA01C9010197A109B109DF91CF91DC
S1131290FF90EF90DF90CF90BF90AF909F908F9092
S11312A07F906F905F904F9008951F920F920FB6AA
S11312B00F9211240BB60F922F933F934F935F938A
S11312C06F937F938F939F93AF93BF93EF93FF930A
S11312D08091C10062E0A9D8813099F4E09176014F
S11312E0F0E08091C1002091C600827090E0982FB8
S11312F08827822BEE0FFF1FE958FE4F91838083CE
S11313000CC0E0917601F0E08091C60090E0EE0F11
S1131310FF1FE958FE4F91838083809176018930C5
S113132030F4809176018F5F8093760102C0109231
S1131330760181E080938C01FF91EF91BF91AF9191
S11313409F918F917F916F915F914F913F912F91D9
S11313500F900BBE0F900FBE0F901F9018951F9209
S11313600F920FB60F9211240BB60F922F933F9347
S11313704F935F936F937F938F939F93AF93BF9399
S1131380EF93FF939091750180917401981769F11F
S11313908091C10062E049D8813079F4E09175010F
S11313A0F0E0EE0FFF1FE357FE4F80819181E1ECE7
S11313B0F0E080819170892B8083E0917501F0E0E9
S11313C0EE0FFF1FE357FE4F808191818093C6008B
S11313D080917501893030F4809175018F5F80931D
S11313E0750107C01092750104C065E081EC90E0BE
S11313F00FD8FF91EF91BF91AF919F918F917F9102
S11314006F915F914F913F912F910F900BBE0F9071
S11314100FBE0F901F9018951F920F920FB60F9248
S113142011240BB60F928F939F93EF93FF9380E059
S113143090E0FC01EE0FFF1FE357FE4F1182108274
S113144001968A309105A9F71092750110927401E2
S1131450FF91EF919F918F910F900BBE0F900FBE54
S11314600F901F9018950F931F93CF93DF93CDB7D1
S1131470DEB72B970FB6F894DEBF0FBECDBF0A833D
S11314801B832C833D834E835F83688779878A8798
S11314909B8719820111AEC0192FE2ECF0E0808124
S11314A08F7380836B817C818D819E81AE014F5FC0
S11314B05F4FADDE9093C5008093C400498161E025
S11314C080EC90E00E94E4018985823061F128F487
S11314D0882349F08130B9F055C08330A1F18430BC
S11314E009F441C04FC061E082EC90E00E94080220
S11314F062E082EC90E00E94080262E081EC90E0FD
S11315000E9408023FC061E082EC90E00E94FC016E
S113151062E082EC90E00E94080262E081EC90E0DC
S11315200E9408022FC061E082EC90E00E94080251
S113153062E082EC90E00E94FC0162E081EC90E0C9
S11315400E9408021FC061E082EC90E00E94FC014E
S113155062E082EC90E00E94FC0162E081EC90E0A9
S11315600E9408020FC061E082EC90E00E94FC013E
S113157062E082EC90E00E94FC0162E081EC90E089
S11315800E94FC014A8563E082EC90E00E94E40141
S1131590123031F4E2ECF0E080818F7C80830BC068
S11315A065E082EC90E00E94FC01412F64E082EC53
S11315B090E00E94E4018F81882359F010928B01FE
S11315C01092760110928C0167E081EC90E00E9409
S11315D0FC018885882371F01092740110927501C2
S11315E066E081EC90E00E94FC0165E081EC90E013
S11315F00E94FC012B960FB6F894DEBF0FBECDBF40
S1131600DF91CF911F910F9108950F931F93CF9363
S1131610DF93CDB7DEB72A970FB6F894DEBF0FBEBF
S1131620CDBF6F8301110CC0452F64E081EC90E0C5
S11316300E94E4014F8163E081EC90E00E94E401A8
S11316402A960FB6F894DEBF0FBECDBFDF91CF91BF
S11316501F910F9108951F920F920FB60F921124AC
S11316600BB60F922F933F934F935F936F937F9398
S11316708F939F93AF93BF93EF93FF93E091A10157
S1131680F091A2010995FF91EF91BF91AF919F91C4
S11316908F917F916F915F914F913F912F910F9017
S11316A00BBE0F900FBE0F901F90189586B1807FD0
S11316B08093A7019091A8018091A7018927803286
S11316C0E9F018F4803131F054C0803459F1803895
S11316D0E9F14FC08091B6019091B701A091B80192
S11316E0B091B9010196A11DB11D8093B6019093EB
S11316F0B701A093B801B093B9013BC08091B60182
S11317009091B701A091B801B091B9010196A11DC2
S1131710B11D8093B6019093B701A093B801B09323
S1131720B90127C08091A3019091A401A091A501C2
S1131730B091A6010196A11DB11D8093A3019093C0
S1131740A401A093A501B093A60113C08091A301A5
S11317509091A401A091A501B091A6010196A11DAB
S1131760B11D8093A3019093A401A093A501B0930C
S1131770A6018091A7018093A80108951092B50154
S11317801092A3011092A4011092A5011092A60137
S11317901092B6011092B7011092B8011092B901DB
S11317A01092A8011092A701E1EBF1E0128282E00D
S11317B0808396E091831382EDEAF1E012828083C4
S11317C097E091831382E9EAF1E01282808394E046
S11317D091831382EAEBF1E01282808385E08183B6
S11317E013826091B1017091B2018091B301909123
S11317F0B4010E943A016091AD017091AE018091F3
S1131800AF019091B0010E943A016091A9017091D9
S1131810AA018091AB019091AC010E943A016091C0
S1131820BA017091BB018091BC019091BD010E94ED
S11318303A016091B1017091B2018091B30190912C
S1131840B40126E53BE041E00E94E3016091AD0173
S11318507091AE018091AF019091B00126E53BE01B
S113186041E00E94E3016091A9017091AA01809175
S1131870AB019091AC0126E53BE041E00E94E3011D
S11318806091BA017091BB018091BC019091BD013E
S113189026E53BE041E00C94E30108956091B10139
S11318A07091B2018091B3019091B40141E00E9422
S11318B0E2016091AD017091AE018091AF01909110
S11318C0B00141E00E94E2016091A9017091AA0176
S11318D08091AB019091AC0141E00E94E2016091E2
S11318E0BA017091BB018091BC019091BD0141E0AE
S11318F00C94E20108956091B6017091B701809152
S1131900B8019091B90108956091A3017091A40167
S11319108091A5019091A6010895E2ECF1E081E0A7
S1131920828393E0908322E021831382EEEBF1E043
S11319308283908326E021831382E6ECF1E08283A4
S1131940908391831382EAECF1E040E25EE460E08C
S113195070E04183528363837483808395E0AFECAA
S1131960B1E001900D929A95E1F7EFECF1E0158268
S1131970168287831086818712866091C2017091D6
S1131980C3018091C4019091C5010E943A01609104
S1131990BE017091BF018091C0019091C1010E946C
S11319A03A016091C6017091C7018091C80190917C
S11319B0C9010E943A014091CA015091CB01609142
S11319C0CC017091CD018091CE01ABD98FEC91E027
S11319D00C9449020895AF92CF92EF92FF920F9325
S11319E01F93CF936091BE017091BF018091C0019C
S11319F09091C1010E94C6016091C6017091C70116
S1131A008091C8019091C9010E94C6016091C201F0
S1131A107091C3018091C4019091C5010E94AA01F3
S1131A20E090CF01F090D0010091D1011091D2014A
S1131A302091D3013091D4014091D5015091D60128
S1131A406091D7017091D8018091D9010E94BB02A5
S1131A50C0E0AC2EC12CE090CF01F090D0010091F9
S1131A60D1011091D2012091D3013091D401409140
S1131A70D5015091D6016091D7017091D801809120
S1131A80D9010E94DC02CC24C394E090CF01F090F1
S1131A90D0010091D1011091D2012091D301309154
S1131AA0D4014091D5015091D6016091D701709134
S1131AB0D8018091D9010E94DC02C65FC83249F680
S1131AC0CF911F910F91FF90EF90CF90AF90089519
S1131AD0AF92CF92EF92FF920F931F93CF93C82FA1
S1131AE0682F70E080E090E014D123EC35EF48E6F5
S1131AF05FE39BD1E0D0A62EC12CE090CF01F09003
S1131B00D0010091D1011091D2012091D3013091E3
S1131B10D4014091D5015091D6016091D7017091C3
S1131B20D8018091D9010E94DC02AC2ECC24C3944C
S1131B30E090CF01F090D0010091D1011091D20139
S1131B402091D3013091D4014091D5015091D60117
S1131B506091D7017091D8018091D9010E94DC0273
S1131B60CF911F910F91FF90EF90CF90AF90089578
S1131B7081E08093DA010895FF920F931F93CF932E
S1131B80DF9300D000D01F92CDB7DEB749835A83CC
S1131B906B837C838D83F22E109236011092DA01CE
S1131BA0C0D808EB1DE02F2D49815A816B817C81BF
S1131BB08D8104DB2F2D49815A816B817C818D813C
S1131BC041DA49815A816B817C818D81F6D90F90EC
S1131BD00F900F900F900F90DF91CF911F910F9165
S1131BE0FF90089590E09C01220F331F820F931FF2
S1131BF0FC01EC5FFE4F6083F901EE5DFE4F70E087
S1131C00718360830895EF92FF920F931F93CF9394
S1131C108091DA018130B9F51092DA0180913601B0
S1131C20882389F1C0E02C2F30E0F901EE0FFF1F6B
S1131C30EE5DFE4F80819181009701F10197F901DA
S1131C40EE0FFF1FEE5DFE4F91838083892BB1F46D
S1131C507901EE0CFF1C2E0D3F1D89010C5F1E4FF8
S1131C60D8011196ED91FC9112970995F701EE5D5B
S1131C70FE4FD8018C9190E091838083CF5F809157
S1131C803601C81780F2CF911F910F91FF90EF900A
S1131C90089590E0FC01EE0FFF1F8E0F9F1FFC01C3
S1131CA0EC5FFE4F108272836183809136018F5FF7
S1131CB080933601089598D088F09F5790F0B92FFB
S1131CC09927B751A0F0D1F0660F771F881F991F8D
S1131CD01AF0BA95C9F712C0B13081F09FD0B1E0C3
S1131CE008959CC0672F782F8827B85F39F0B93FD3
S1131CF0CCF3869577956795B395D9F73EF490958F
S1131D008095709561957F4F8F4F9F4F0895E8940C
S1131D1009C097FB3EF490958095709561957F4F2F
S1131D208F4F9F4F9923A9F0F92F96E9BB279395DD
S1131D30F695879577956795B795F111F8CFFAF4ED
S1131D40BB0F11F460FF1BC06F5F7F4F8F4F9F4F1E
S1131D5016C0882311F096E911C0772321F09EE87C
S1131D60872F762F05C0662371F096E8862F70E0E2
S1131D7060E02AF09A95660F771F881FDAF7880FBC
S1131D809695879597F9089597F99F6780E870E08D
S1131D9060E008959FEF80EC089500240A941616DD
S1131DA0170618060906089500240A941216130645
S1131DB0140605060895092E0394000C11F48823D3
S1131DC052F0BB0F40F4BF2B11F460FF04C06F5FEF
S1131DD07F4F8F4F9F4F089557FD9058440F551FC5
S1131DE059F05F3F71F04795880F97FB991F61F099
S1131DF09F3F79F087950895121613061406551F10
S1131E00F2CF4695F1DF08C0161617061806991F7B
S1131E10F1CF86957105610508940895E894BB2770
S1131E2066277727CB0197F908950BD0C4CFB5DF88
S1131E3028F0BADF18F0952309F0A6CFABCF112410
S1131E40EECFCADFA0F3959FD1F3950F50E0551F55
S1131E50629FF001729FBB27F00DB11D639FAA27FB
S1131E60F00DB11DAA1F649F6627B00DA11D661F4A
S1131E70829F2227B00DA11D621F739FB00DA11D6B
S1131E80621F839FA00D611D221F749F3327A00D25
S1131E90611D231F849F600D211D822F762F6A2FC1
S1131EA011249F5750408AF0E1F088234AF0EE0F46
S1131EB0FF1FBB1F661F771F881F91505040A9F753
S1131EC09E3F510570F060CFAACF5F3FECF3983E80
S1131ED0DCF3869577956795B795F795E7959F5FBA
S1131EE0C1F7FE2B880F911D9695879597F9089554
S1131EF0A1E21A2EAA1BBB1BFD010DC0AA1FBB1F0A
S1131F00EE1FFF1FA217B307E407F50720F0A21B7B
S1131F10B30BE40BF50B661F771F881F991F1A94E8
S1131F2069F760957095809590959B01AC01BD0112
S1131F30CF010895EE0FFF1F0024001C0BBE079075
S1131F40F691E02D0994A29FB001B39FC001A39F15
S1131F50700D811D1124911DB29F700D811D1124DE
S1131F60911D0895F0DFA59F900DB49F900DA49F3F
S10F1F70800D911D11240895F894FFCFFA
S9030000FC
