S0160000496D706C656D656E746174696F6E2E7372656348
S11300004CC00000E4C30000ECC30000F4C30000D3
S113001032C300005BC3000084C30000ADC3000012
S11300200C94930E0C949E0A0C94DA0A0C94730AA2
S11300300C94160A0C948B090C94EB090C9460092B
S11300404AC0000048C0000046C000007AC7000053
S113005042C0000040C000003EC000003CC00000A0
S11300603AC0000038C0000036C0000034C00000B0
S113007032C0000030C000002EC000002CC00000C0
S11300802AC0000028C0000026C00000E20BEB0BD1
S1130090F40BFD0B060C0F0C180C11241FBECFEF34
S11300A0D0E4DEBFCDBF11E0A0E0B1E0E4E0F5E3D1
S11300B000E00BBF02C007900D92A030B107D9F742
S11300C021E0A0E0B1E001C01D92A03EB207E1F73B
S11300D003D00C94801A94CFAAD20E94BE0E7894B6
S11300E0E8E3F1E0108684E0878382E0868311866A
S11300F0148695E0938782871586E8E2F1E01086FE
S113010096E0978386831186148697E09387828787
S1130110158688E391E00E946B1088E291E00E94CA
S11301206B10A0903801B0903901C0903A01D09082
S11301303B01E0903C01F0903D0100913E011091A3
S11301403F01209140013091410140914201509181
S11301504301609144017091450180914601909161
S113016047010E949510A0902801B0902901C090E9
S11301702A01D0902B01E0902C01F0902D010091E8
S11301802E0110912F0120913001309131014091C5
S113019032015091330160913401709135018091A5
S11301A03601909137010E94951088E391E00E94F6
S11301B0CE10E8E0F1E014821582168217821086D0
S11301C011861286138680E090E0A0E8BFE3808366
S11301D09183A283B3832DB73EB72C5131090FB657
S11301E0F8943EBF0FBE2DBFADB7BEB711968CE1DC
S11301F001900D928A95E1F70E944A11BBD0A7D0D5
S11302008DB79EB74C960FB6F8949EBF0FBE8DBFA8
S1130210CCE38C2F73D19FE728E331E09150204049
S11302203040E1F700C00000CF5FC73491F796D1AA
S11302308BE891E00E948D1560918B016F5F8BE8D4
S113024091E00E94C91760E08BE891E00E94D71703
S113025040E050E0BA018BE891E00E94121885E773
S113026091E00E948D15609175016E5F85E791E0C4
S11302700E94C91760E085E791E00E94D71740E02B
S113028050E0BA0185E791E00E94121880E891E0FD
S11302900E948D1560E080E891E00E94D71740E04D
S11302A050E0BA0180E891E00E941218C8E0D1E061
S11302B010E080E891E00E945B188F3F2FEF9207D7
S11302C0C1F3BC0180E090E00E94231920E030E0FB
S11302D048EC52E40E9489186B017C0120E030E074
S11302E04AEF54E40E94D51918162CF0CC8ADD8A02
S11302F0EE8AFF8A08C080E090E0AAEFB4E48C8B19
S11303009D8BAE8BBF8B8DB79EB74C970FB6F89471
S11303109EBF0FBE8DBFADB7BEB711968CE1FE0177
S113032001900D928A95E1F70E9451112DB73EB7C5
S1130330245E3F4F0FB6F8943EBF0FBE2DBF8D33E2
S11303400CF08CE388230CF4812FD8D0B2CF6091C9
S11303506001709161018091620190916301ADD25D
S113036060914C0170914D0180914E0190914F012B
S1130370A4C20895CF93ECE5F1E0138A81E086836B
S113038096E0958393E094831782828322E021830D
S113039090831382808740EA56E861E070E04187E9
S11303A05287638774878787108A16861586E8E4E0
S11303B0F1E0838B868395839483178282832183E0
S11303C09083138280874187528763877487818BE8
S11303D0128A168615868DB79EB744970FB6F89481
S11303E09EBF0FBE8DBFADB7BEB7119684E1ECE5DD
S11303F0F1E001900D928A95E1F70E94D6108DB735
S11304009EB744970FB6F8949EBF0FBE8DBFADB78D
S1130410BEB7119684E1E8E4F1E001900D928A956B
S1130420E1F70E94D6108DB79EB788960FB6F89460
S11304309EBF0FBE8DBF44970FB6F8949EBF0FBEEC
S11304408DBFADB7BEB7119684E1ECE5F1E0019044
S11304500D928A95E1F70E94ED108DB79EB74497EF
S11304600FB6F8949EBF0FBE8DBFADB7BEB7119641
S113047084E1E8E4F1E001900D928A95E1F70E94AD
S1130480ED108DB79EB788960FB6F8949EBF0FBE39
S11304908DBFCCE3CF938DB79EB744970FB6F89436
S11304A09EBF0FBE8DBFADB7BEB7119684E1ECE51C
S11304B0F1E001900D928A95E1F70E942811CF9303
S11304C08DB79EB744970FB6F8949EBF0FBE8DBFED
S11304D0ADB7BEB7119684E1E8E4F1E001900D9266
S11304E08A95E1F70E9428118DB79EB78A960FB6B8
S11304F0F8949EBF0FBE8DBFCF910895AF92CF9257
S1130500EF92FF920F931F93CF93E4E6F1E0A82EAE
S1130510C0906F01E080F1800281138124813581D4
S113052046815781608571858285BAD4E0E5F1E022
S1130530C0905B01E080F1800281138124813581C8
S113054046815781608571858285AAD4CF911F9198
S11305500F91FF90EF90CF90AF9008950F931F935A
S1130560E0E7F1E088EE582F818383E082831382F1
S1130570148281E0482F808360917201709173012D
S1130580809174010E94050B05E718E120E0409179
S113059070015091710160917201709173018091A9
S11305A074010E94520D20E040917001509171013C
S11305B06091720170917301809174010E94960C94
S11305C040917001509171016091720170917301B9
S11305D0809174010E94510CE0E8F1E099E290836B
S11305E024E630E03283218343E0448387E085833B
S11305F0EBE8F1E090833283218382E08483858376
S1130600E5E7F1E090833283218384834583789402
S113061080E891E00E9460158BE891E00E946015EB
S113062085E791E00E9460151F910F91089580E87D
S113063085BF85BF0895613061F028F0623079F09C
S1130640633099F00895482F672F81E290E030C31A
S11306500895482F672F84E290E02AC30895482F15
S1130660672F87E290E024C30895482F672F8AE21A
S113067090E01EC308951F920F920FB60F9211249B
S11306800BB60F922F933F934F935F936F937F9388
S11306908F939F93AF93BF93EF93FF93E0919C014C
S11306A0F0919D010995FF91EF91BF91AF919F91B9
S11306B08F917F916F915F914F913F912F910F9007
S11306C00BBE0F900FBE0F901F9018951F920F92A4
S11306D00FB60F9211240BB60F922F933F934F93A3
S11306E05F936F937F938F939F93AF93BF93EF9396
S11306F0FF93E0919F01F091A0010995FF91EF9183
S1130700BF91AF919F918F917F916F915F914F9125
S11307103F912F910F900BBE0F900FBE0F901F9023
S113072018951F920F920FB60F9211240BB60F92C9
S11307302F933F934F935F936F937F938F939F93E5
S1130740AF93BF93EF93FF93E0919601F0919701DC
S11307500995FF91EF91BF91AF919F918F917F91F7
S11307606F915F914F913F912F910F900BBE0F901E
S11307700FBE0F901F9018951F920F920FB60F92F5
S113078011240BB60F922F933F934F935F936F9364
S11307907F938F939F93AF93BF93EF93FF93E091D6
S11307A09801F09199010995FF91EF91BF91AF9153
S11307B09F918F917F916F915F914F913F912F9175
S11307C00F900BBE0F900FBE0F901F9018951F92A5
S11307D00F920FB60F9211240F900FBE0F901F901F
S11307E018951F920F920FB60F9211240F900FBEFF
S11307F00F901F9018951F920F920FB60F9211240D
S11308000F900FBE0F901F9018950F931F93CF93C7
S1130810DF93C62F172FD82F092F0DDFD11123C037
S1130820C13081F028F0C23099F0C330B9F01BC058
S1130830402F612F82E290E03BD2612F8EE790E05F
S11308405BD211C0402F612F85E290E031D20BC002
S1130850402F612F88E290E02BD205C0402F612FFA
S11308608BE290E025D2DF91CF911F910F910895F3
S113087021E0FC0122836081718182819381DBCE3E
S11308800895613059F028F0623069F0633081F0E6
S11308900895672F82E290E023C20895672F85E2CE
S11308A090E01EC20895672F88E290E019C208956F
S11308B0672F8BE290E014C20895613059F028F05C
S11308C0623069F0633081F00895672F82E290E02E
S11308D013C20895672F85E290E00EC20895672F32
S11308E088E290E009C20895672F8BE290E004C289
S11308F00895CF93C72F613079F028F06230A9F0C2
S11309006330E1F023C060E088E690E0E9D16C2F29
S11309108BE690E0E5D11AC061E088E690E0E0D192
S11309206C2F8CE690E0DCD111C062E088E690E0A8
S1130930D7D16C2F8DE690E0D3D108C063E088E670
S113094090E0CED16C2F83E790E0CAD1CF91089587
S1130950613071F028F0623099F06330C9F0089585
S113096030939D0120939C0182B180939B01089553
S11309703093A00120939F0185B180939E01089537
S1130980309397012093960188B180939A0108953A
S1130990309399012093980108950F931F93CF9357
S11309A0DF938B019C01EA0160E072E18AE790E049
S11309B0A90198010E943C1ABA01A90140515109A8
S11309C061097109DB01CA01B695A79597958795C9
S11309D08F3F9105A105B10509F010F4188232C0CA
S11309E0DB01CA01689412F8B695A7959795879587
S11309F01694D1F78F3F9105A105B10509F018F4BC
S1130A0021E028831FC0DB01CA01689414F8B6955D
S1130A10A795979587951694D1F78F3F9105A105D2
S1130A20B10509F018F422E028830CC083E0888320
S1130A30DB01CA01689416F8B695A7959795879532
S1130A401694D1F7DF91CF911F910F910895CF9311
S1130A50DF931F92CDB7DEB7AE014F5F5F4F9DDFCF
S1130A608093B80060E0898154D1482F60E089EB1D
S1130A7090E01ED161E089814CD1482F61E089EB7F
S1130A8090E016D162E071E080E091E0BEDE62E0C9
S1130A9070E080E091E0B9DE0F90DF91CF9108958E
S1130AA062E08CEB90E01CC10895FF920F931F93BA
S1130AB0CF93DF93F82ECCEBD0E0888162E029D18C
S1130AC0288134E0839FC0011124806A822B8883AB
S1130AD0CEEFDFEF0CEB10E0F801808167E019D175
S1130AE0811133C02197C1F78FEF3BC08091B900CA
S1130AF0887F803121F08091B900887F32C0F092E4
S1130B00BB00CCEBD0E0888162E003D1F4E08F9F9E
S1130B10C001112480688883CEEFDFEF0CEB10E076
S1130B20F801808167E0F5D0811115C02197C1F7E4
S1130B308FEF17C08091B900887F803421F08091B5
S1130B40B900887F0EC080E00CC08091B900887F16
S1130B50883061F6D4CF8091B900887F883151F70D
S1130B6080E0DF91CF911F910F91FF9008959DCF69
S1130B7008950F931F93CF93DF93CCEBD0E088813C
S1130B8062E0C7D0288134E0839FC00111248069CA
S1130B90822B8883CEEFDFEF0CEB10E0F80180812D
S1130BA064E0B7D0882311F02197C1F7DF91CF918A
S1130BB01F910F9108950F931F93CF93DF93809309
S1130BC0BB00CCEBD0E0888162E0A3D024E0829F1C
S1130BD0C001112480688883CEEFDFEF0CEB10E0B6
S1130BE0F801808167E095D081110FC02197C1F78A
S1130BF08FEF11C08091B900887F803421F08091FB
S1130C00B900887F08C080E006C08091B900887F61
S1130C10883181F780E0DF91CF911F910F91089582
S1130C200F931F93CF93DF93CCEBD0E0888162E0E6
S1130C3070D024E0829FC0011124806C8883CEEFA1
S1130C40DFEF0CEB10E0F801808167E062D08823CD
S1130C5019F08091BB0003C02197A9F78FEFDF91B2
S1130C60CF911F910F9108950F931F93CF93DF930B
S1130C70CCEBD0E0888162E04CD024E0829FC001BC
S1130C80112480688883CEEFDFEF0CEB10E0F801CD
S1130C90808167E03ED0882319F08091BB0003C0B7
S1130CA02197A9F78FEFDF91CF911F910F910895AD
S1130CB0FC01942F208141E050E0062E02C0440F35
S1130CC0551F0A94E2F7409550952423492F50E08C
S1130CD002C0440F551F6A95E2F7422B40830895E2
S1130CE0FC01408121E030E002C0220F331F6A95ED
S1130CF0E2F7242B20830895FC01908121E030E069
S1130D0002C0220F331F6A95E2F72095292320831E
S1130D10089590E002C0959587956A95E2F78170F1
S1130D200895CF92DF92EF92FF9269017A019B01BD
S1130D30AC012C193D094E095F09A8EEB3E00E94ED
S1130D40761AA70196010E943C1AC901992324F43A
S1130D5088279927821B930BFF90EF90DF90CF9009
S1130D600895FC019B01DA010E94671A9F0140E08B
S1130D7050E00E943C1AC9010895CF93DF93EC011F
S1130D80488159816A817B818C813FD488818130FB
S1130D9009F062C08091880090918900892B49F004
S1130DA080918800909189009093870080938600B9
S1130DB006C08FEF9FEF909387008093860064E0D6
S1130DC081E890E08DDF60E080E890E095DF8E813F
S1130DD0882319F0813051F019C063E081E890E074
S1130DE07FDF61E080E890E07BDF10C063E081E8B2
S1130DF090E082DF8D81882329F061E080E890E033
S1130E007BDF04C061E080E890E06ADF8F818823A3
S1130E1071F067E080E890E063DF488566E080E891
S1130E2090E046DF63E075E081E090E0EEDC8985E8
S1130E30882371F065E080E890E052DF4A8564E041
S1130E4080E890E035DF63E074E081E090E0DDDC91
S1130E501092A3011092A201DF91CF910895EF9215
S1130E60FF920F931F93CF93DF93CDB7DEB72B97EA
S1130E700FB6F894DEBF0FBECDBF4E2D5F2D602F91
S1130E80712F822F0ED52B960FB6F894DEBF0FBEAE
S1130E90CDBFDF91CF911F910F91FF90EF900895F7
S1130EA0AF92CF92EF92FF920F931F93CF93DF9362
S1130EB0CDB7DEB72B970FB6F894DEBF0FBECDBF0C
S1130EC09E2DE982FA820B831C832D833E834F83FC
S1130ED0588769877A878B87913021F58C2DC110CB
S1130EE010C0A092A30140918600509187006A2D02
S1130EF070E084E690E035DF909389008093880069
S1130F0011C0813079F4A092A201409186005091E1
S1130F1087006A2D70E084E690E023DF90938B00D5
S1130F2080938A002B960FB6F894DEBF0FBECDBF18
S1130F30DF91CF911F910F91FF90EF90CF90AF90E1
S1130F4008951F920F920FB60F9211240BB60F92B1
S1130F508F939F93EF93FF93E091A901F0E08EB5F7
S1130F60E655FE4F80838091A901893030F4809149
S1130F70A9018F5F8093A90102C01092A90181E0A9
S1130F808093A8019091A6018091BF019817A1F0C8
S1130F90E091A601F0E0EC54FE4F80818EBD80917B
S1130FA0A601893030F48091A6018F5F8093A60159
S1130FB006C01092A60103C081E08093BE01FF9198
S1130FC0EF919F918F910F900BBE0F900FBE0F90DA
S1130FD01F9018958F929F92AF92BF92EF92FF92BB
S1130FE00F931F93CF93DF9300D000D01F92CDB700
S1130FF0DEB748015901413021F0423009F488C07C
S11310004CC160E072E18AE790E0A90198010E9476
S11310103C1ADA01C9010197A109B109009721E03D
S1131020A207B10550F449EF5FEF6FEF70E0F701ED
S1131030408351836283738333C160E472E48FE03D
S113104090E0A50194010E943C1ADA01C9010197BC
S1131050A109B1090097F1E0AF07B10550F44AEFD7
S11310605FEF6FEF70E0F701408351836283738316
S113107017C168E478EE81E090E0A50194010E9434
S11310803C1ADA01C9010197A109B1090097F1E0FD
S1131090AF07B10550F44CEF5FEF6FEF70E0F7016D
S11310A04083518362837383FBC062E17AE780E00B
S11310B090E0A50194010E943C1ADA01C90101974C
S11310C0A109B1090097F1E0AF07B10550F44EEF63
S11310D05FEF6FEF70E0F7014083518362837383A6
S11310E0DFC08FEF9FEFAFEFB0E0F7018083918314
S11310F0A283B38364E87EE180E090E0A5019401DB
S11311000E943C1ADA01C9010197A109B109C8C0BA
S113111060E072E18AE790E0A90198010E943C1A1C
S1131120DA01C9010197A109B1098F3F9105A10510
S1131130B10509F050F449EF5FEF6FEF70E0F7018C
S11311404083518362837383ABC060E472E48FE0B5
S113115090E0A50194010E943C1ADA01C9010197AB
S1131160A109B1098F3F9105A105B10509F050F41A
S11311704AEF5FEF6FEF70E0F701408351836283C2
S113118073838EC060E970ED83E090E0A501940163
S11311900E943C1ADA01C9010197A109B1098F3FE4
S11311A09105A105B10509F050F44BEF5FEF6FEF26
S11311B070E0F701408351836283738371C068E4F4
S11311C078EE81E090E0A50194010E943C1ADA01D6
S11311D0C9010197A109B1098F3F9105A105B10585
S11311E009F050F44CEF5FEF6FEF70E0F7014083CC
S11311F051836283738354C064E274EF80E090E0AF
S1131200A50194010E943C1ADA01C9010197A109C0
S1131210B1098F3F9105A105B10509F050F44DEFD7
S11312205FEF6FEF70E0F701408351836283738354
S113123037C062E17AE780E090E0A50194010E9462
S11312403C1ADA01C9010197A109B1098F3F91053F
S1131250A105B10509F050F44EEF5FEF6FEF70E0B8
S1131260F70140835183628373831AC08FEF9FEF2A
S1131270AFEFB0E0F70180839183A283B38364E886
S11312807EE180E090E0A50194010E943C1ADA011D
S1131290C9010197A109B10903C080E090E0DC0114
S11312A00F900F900F900F900F90DF91CF911F919F
S11312B00F91FF90EF90BF90AF909F908F90089503
S11312C01F920F920FB60F9211240BB60F922F9309
S11312D03F934F935F936F937F938F939F93AF93BA
S11312E0BF93EF93FF93E091C001F091C101099581
S11312F0FF91EF91BF91AF919F918F917F916F91EA
S11313005F914F913F912F910F900BBE0F900FBEA5
S11313100F901F9018951F920F920FB60F921124E1
S11313200BB60F920F931F932F933F934F935F939B
S11313306F937F938F939F93AF93BF93CF93DF93D9
S1131340EF93FF93C1E8D0E0888164E0E2DC182FDA
S1131350888163E0DEDCC12FCC0FCC0FCC0F24E0FE
S1131360829FC0011124C82B00E810E0F80180819D
S113137061E0CFDCD82FF801808160E0CADCDD0FAA
S11313808C2B8D2B883018F4843019F408C080FD20
S113139006C0E091C201F091C301099505C0E09136
S11313A0C001F091C1010995FF91EF91DF91CF91B7
S11313B0BF91AF919F918F917F916F915F914F9169
S11313C03F912F911F910F910F900BBE0F900FBE65
S11313D00F901F9018951F920F920FB60F92112421
S11313E00BB60F922F933F934F935F936F937F931B
S11313F08F939F93AF93BF93EF93FF93E091C401B7
S1131400F091C5010995FF91EF91BF91AF919F9123
S11314108F917F916F915F914F913F912F910F9099
S11314200BBE0F900FBE0F901F9018951F920F9236
S11314300FB60F9211240BB60F920F931F932F9395
S11314403F934F935F936F937F938F939F93AF9348
S1131450BF93CF93DF93EF93FF93C1E8D0E08881EC
S113146064E057DC182F888163E053DCC12FCC0F74
S1131470CC0FCC0F24E0829FC0011124C82B00E8BC
S113148010E0F801808161E044DCD82FF80180810C
S113149060E03FDCDD0F8C2B8D2B883010F080FF5B
S11314A006C0E091C601F091C701099505C0E0911D
S11314B0C001F091C1010995FF91EF91DF91CF91A6
S11314C0BF91AF919F918F917F916F915F914F9158
S11314D03F912F911F910F910F900BBE0F900FBE54
S11314E00F901F9018951F920F920FB60F92112410
S11314F00BB60F922F933F934F935F936F937F930A
S11315008F939F93AF93BF93EF93FF93E091CA019F
S1131510F091CB010995FF91EF91BF91AF919F910C
S11315208F917F916F915F914F913F912F910F9088
S11315300BBE0F900FBE0F901F9018951F920F9225
S11315400FB60F9211240BB60F922F933F934F9324
S11315505F936F937F938F939F93AF93BF93EF9317
S1131560FF938091B10063E0D4DB81110BC08091C3
S1131570B0008370823031F0E091CC01F091CD0164
S1131580099505C0E091CA01F091CB010995FF913D
S1131590EF91BF91AF919F918F917F916F915F91E7
S11315A04F913F912F910F900BBE0F900FBE0F9054
S11315B01F9018951F920F920FB60F9211240BB61D
S11315C00F922F933F934F935F936F937F938F93D8
S11315D09F93AF93BF93EF93FF93E091CE01F0916C
S11315E0CF010995FF91EF91BF91AF919F918F9199
S11315F07F916F915F914F913F912F910F900BBE0F
S11316000F900FBE0F901F901895EF92FF920F93BB
S11316101F93CF93DF93CDB7DEB729970FB6F89416
S1131620DEBF0FBECDBF4D835E836F83788789870E
S11316300E811F812885398519821A821B821C829A
S1131640413021F0423009F495C01EC1093F8FEFAB
S113165018072807310528F009831A832B833C8354
S113166015C0CE0101967C014D815E816F81788524
S11316708985B0DC909387008093860064E081E8DC
S113168090E02EDB63E081E890E02ADB89819A8197
S1131690AB81BC818C3F2FEF9207A207B10559F1B2
S11316A060F4893F2FEF9207A207B10591F08A3FBA
S11316B09F4FAF4FB105B1F038C08E3F2FEF920767
S11316C0A207B10509F18F3F9F4FAF4FB10529F133
S11316D02CC081E090E0A0E0B0E089839A83AB83E2
S11316E0BC8323C082E090E0A0E0B0E089839A83C9
S11316F0AB83BC831AC083E090E0A0E0B0E08983B0
S11317009A83AB83BC8311C084E090E0A0E0B0E096
S113171089839A83AB83BC8308C085E090E0A0E012
S1131720B0E089839A83AB83BC8349815A816B81FE
S11317307C817695679557954795769567955795E6
S11317404795417062E088EC91E0B2DA49815A81B0
S11317506B817C817695679557954795417061E0DB
S113176088EC91E0A5DA4981417060E088EC91E071
S11317709FDA8AC0093F8FEF18072807310528F040
S113178009831A832B833C830FC0CE0101967C010D
S11317904D815E816F81788589851CDC8093B300DF
S11317A061E080EB90E09CDA89819A81AB81BC8115
S11317B0FC013796E730F10508F042C0EA5BFF4FC1
S11317C00C945E1A81E090E0A0E0B0E089839A83F3
S11317D0AB83BC8335C082E090E0A0E0B0E08983B5
S11317E09A83AB83BC832CC083E090E0A0E0B0E09C
S11317F089839A83AB83BC8323C084E090E0A0E018
S1131800B0E089839A83AB83BC831AC085E090E0FF
S1131810A0E0B0E089839A83AB83BC8311C086E0E7
S113182090E0A0E0B0E089839A83AB83BC8308C0D6
S113183087E090E0A0E0B0E089839A83AB83BC8327
S113184049815A816B817C81769567955795479537
S11318507695679557954795417062E089EC91E0DC
S113186027DA49815A816B817C81769567955795F2
S11318704795417061E089EC91E01ADA4981417041
S113188060E089EC91E014DA29960FB6F894DEBF93
S11318900FBECDBFDF91CF911F910F91FF90EF90BD
S11318A00895CF93DF9300D000D01F92CDB7DEB759
S11318B0413019F04230D1F031C04091C80142FBAF
S11318C0442740F962E081E890E0F2D94091C801F0
S11318D04695417061E081E890E0EAD94091C80101
S11318E0417060E081E890E0E3D918C04091C901FB
S11318F042FB442740F962E081EB90E0D9D9409162
S1131900C9014695417061E081EB90E0D1D94091E5
S1131910C901417060E081EB90E0CAD90F900F904B
S11319200F900F900F90DF91CF910895CF92DF9297
S1131930EF92FF920F931F93CF93DF9300D000D0C9
S11319401F92CDB7DEB749835A836B837C838D8323
S1131950022F413021F0423009F45EC095C00F2EB1
S1131960F1E8EF2EF12CF02DF701808164E0D1D95C
S1131970182FF701808163E0CCD9110F110F110FDB
S1131980F4E08F9FC0011124182B6894CC24C7F86D
S1131990D12CF601808161E0BCD9F82EF60180815A
S11319A060E0B7D9FF0C812B8F290130D9F028F0E2
S11319B0023021F1033039F167C0883038F48430C3
S11319C061F060E08FE690E08BD95EC080FD05C0D9
S11319D065E08FE690E084D957C061E08FE690E03F
S11319E07FD952C0883018F4843019F44DC080FD7A
S11319F04BC061E08FE690E073D946C062E08FE6A9
S1131A0090E06ED941C0883010F080FF3DC065E0A1
S1131A108FE690E065D938C08091B10063E079D950
S1131A20182F0F2EF0EBEF2EF12CF02DF701808103
S1131A3061E06FD9110F110F880F182BF701808106
S1131A4060E067D9812B013091F018F00230C1F0C9
S1131A501BC0843038F4823029F060E080E790E0E5
S1131A603FD912C061E080E790E03AD90DC08430DC
S1131A7058F4823049F061E080E790E031D904C045
S1131A8062E080E790E02CD90F900F900F900F90B8
S1131A900F90DF91CF911F910F91FF90EF90DF9006
S1131AA0CF9008950F931F93CF93DF9300D000D06E
S1131AB01F92CDB7DEB7413019F0423051F011C05A
S1131AC0E22FF0E0EE0FFF1FE054FE4F118300837E
S1131AD008C0E22FF0E0EE0FFF1FE653FE4F118324
S1131AE000830F900F900F900F900F90DF91CF9184
S1131AF01F910F9108954F925F926F927F928F92F0
S1131B009F92AF92BF92CF92DF92EF92FF92CF93C8
S1131B10DF934B015C01EA010F2EF0E24F2EF1EA54
S1131B205F2EF7E06F2E712CF02DC301B201A501D9
S1131B3094010E943C1A69017A01C301B2010E9416
S1131B403C1ACA01B901A5019401EBD8449730F4B9
S1131B50D701C6010197A109B1090FC081E08883AB
S1131B6060E472E48FE090E0A50194010E943C1AC5
S1131B70DA01C9010197A109B109DF91CF91FF9061
S1131B80EF90DF90CF90BF90AF909F908F907F9019
S1131B906F905F904F9008950F931F93CF93DF93AF
S1131BA0CDB7DEB72B970FB6F894DEBF0FBECDBF0F
S1131BB00A831B832C833D834E835F8368877987E5
S1131BC08A879B87198201117DC0192FE2ECF0E00E
S1131BD080818F7380836B817C818D819E81AE0136
S1131BE04F5F5F4F88DF9093C5008093C4004981A5
S1131BF061E080EC90E05CD88985823031F128F492
S1131C00882349F08130A1F046C0833059F18430F3
S1131C1009F435C040C061E082EC90E06DD862E028
S1131C2082EC90E069D862E081EC90E065D833C042
S1131C3061E082EC90E054D862E082EC90E05CD801
S1131C4062E081EC90E058D826C061E082EC90E03C
S1131C5053D862E082EC90E043D862E081EC90E0FB
S1131C604BD819C061E082EC90E03AD862E082EC93
S1131C7090E036D862E081EC90E03ED80CC061E0A0
S1131C8082EC90E02DD862E082EC90E029D862E00A
S1131C9081EC90E025D84A8563E082EC90E008D896
S1131CA0123031F4E2ECF0E080818F7C80830AC052
S1131CB065E082EC90E014D8412F64E082EC90E07F
S1131CC00E9458062B960FB6F894DEBF0FBECDBF08
S1131CD0DF91CF911F910F9108950F931F93CF938D
S1131CE0DF93CDB7DEB72A970FB6F894DEBF0FBEE9
S1131CF0CDBF6F8301110CC0452F64E081EC90E0EF
S1131D000E9458064F8163E081EC90E00E945806DF
S1131D102A960FB6F894DEBF0FBECDBFDF91CF91E8
S1131D201F910F9108951F920F920FB60F921124D5
S1131D300BB60F922F933F934F935F936F937F93C1
S1131D408F939F93AF93BF93EF93FF93E091D00151
S1131D50F091D1010995FF91EF91BF91AF919F91BE
S1131D608F917F916F915F914F913F912F910F9040
S1131D700BBE0F900FBE0F901F9018950F931F93DB
S1131D80E2EDF1E080E0182F81838BE482831382FB
S1131D90148283E0782F878311861082108615823F
S1131DA081E0682F868300E02091D4013091D50131
S1131DB04091D60150E080E090E0EEDE0091D20147
S1131DC01091D3012091D4013091D5014091D601D5
S1131DD05091D7016091D8017091D9018091DA01B5
S1131DE09091DB017ADF1F910F9108950F931F9358
S1131DF0CF93DF9380913E01813019F130F082302E
S1131E00E1F1833009F455C06FC080B1C8E3D1E07B
S1131E106F810E94890690E08C010F8002C0000F40
S1131E20111F0A94E2F780B16B850E94890690E045
S1131E300B8402C0880F991F0A94E2F7802B8D83CC
S1131E4053C083B1C8E3D1E06F810E94890690E05A
S1131E508C010F8002C0000F111F0A94E2F783B1B6
S1131E606B850E94890690E00B8402C0880F991F3D
S1131E700A94E2F7802B8D8337C086B1C8E3D1E0A2
S1131E806F810E94890690E08C010F8002C0000FD0
S1131E90111F0A94E2F786B16B850E94890690E0CF
S1131EA00B8402C0880F991F0A94E2F7802B8D835C
S1131EB01BC089B1C8E3D1E06F810E94890690E01C
S1131EC08C010F8002C0000F111F0A94E2F789B140
S1131ED06B850E94890690E00B8402C0880F991FCD
S1131EE00A94E2F7802B8D8380912E01813019F1C1
S1131EF030F08230E1F1833009F455C06FC080B115
S1131F00C8E2D1E06F810E94890690E08C010F80C5
S1131F1002C0000F111F0A94E2F780B16B850E9482
S1131F20890690E00B8402C0880F991F0A94E2F797
S1131F30802B8D8353C083B1C8E2D1E06F810E94AE
S1131F40890690E08C010F8002C0000F111F0A94D3
S1131F50E2F783B16B850E94890690E00B8402C08E
S1131F60880F991F0A94E2F7802B8D8337C086B1BE
S1131F70C8E2D1E06F810E94890690E08C010F8055
S1131F8002C0000F111F0A94E2F786B16B850E940C
S1131F90890690E00B8402C0880F991F0A94E2F727
S1131FA0802B8D831BC089B1C8E2D1E06F810E9470
S1131FB0890690E08C010F8002C0000F111F0A9463
S1131FC0E2F789B16B850E94890690E00B8402C018
S1131FD0880F991F0A94E2F7802B8D83E8E3F1E0E0
S1131FE05581A8E2B1E015964C9115979481149609
S1131FF08C91892B952F942B892790E021E030E058
S1132000078002C0220F331F0A94E2F78217930756
S113201061F480819181A281B3810196A11DB11DDA
S113202080839183A283B3834DC021E030E000908C
S1132030430102C0220F331F0A94E2F78217930769
S113204071F4E8E3F1E080819181A281B38101968A
S1132050A11DB11D80839183A283B38333C021E08A
S113206030E000902F0102C0220F331F0A94E2F7E0
S11320708217930771F4E8E2F1E080819181A281F3
S1132080B3810196A11DB11D80839183A283B38383
S113209019C021E030E00090330102C0220F331F49
S11320A00A94E2F78217930769F4E8E2F1E0808189
S11320B09181A281B3810196A11DB11D8083918379
S11320C0A283B38350933C0140932C01DF91CF91C1
S11320D01F910F910895CF93DF93EC016E817F815F
S11320E0888599850E9405046A857B858C859D85F4
S11320F00E940504188219821A821B821C821D8286
S11321006E817F818885998526EF3EE041E00E94BB
S1132110A8046A857B858C859D8526EF3EE041E099
S11321200E94A804DF91CF910895AF92BF92CF92FD
S1132130DF92EF92FF920F931F93CF93DF93CDB76C
S1132140DEB760970FB6F894DEBF0FBECDBF0F8326
S1132150188729873A874B875C876D877E876F81CD
S1132160788589859A8541E00E9479046B857C8510
S11321708D859E8541E00E94790460960FB6F8949F
S1132180DEBF0FBECDBFDF91CF911F910F91FF90A6
S1132190EF90DF90CF90BF90AF900895FC01108234
S11321A0118212821382158214820895CF93DF93D1
S11321B0CDB7DEB769857A858B859C850E94050439
S11321C06D817E818F8198850E940504CE010D96D4
S11321D00E94BD06DF91CF910895AF92CF92EF9206
S11321E0FF920F931F93CF93DF93CDB7DEB76F8525
S11321F0788989899A890E9441046B857C858D85BB
S11322009E850E944104A12CCE8CEB88FC880D890C
S11322101E892F89388D498D5A8D6B8D7C8D8D8DBE
S11322200E945007EB88FC880D891E892F89388D00
S1132230498D5A8D6B8D7C8D8D8D0E942F07DF917A
S1132240CF911F910F91FF90EF90CF90AF90089591
S1132250AF92CF92EF92FF920F931F93CF93DF939E
S1132260CDB7DEB7AF8CCE8CEB88FC880D891E8988
S11322702F89388D498D5A8D6B8D7C8D8D8D0E9463
S11322805007DF91CF911F910F91FF90EF90CF9066
S1132290AF900895CF93DF93CDB7DEB7DF91CF91A1
S11322A008958F929F92AF92BF92CF92DF92EF9256
S11322B0FF92CF93DF93CDB7DEB7C9A0DAA0EBA02E
S11322C0FCA0298D3A8D4B8D5C8DC701B60121D7B9
S11322D029893A894B895C890E94D9194B015C018F
S11322E02D853E854F855889C701B6010E94D919AD
S11322F09B01AC01C501B4010DD74B015C012D8DCF
S11323003E8D4F8D58A1C701B60104D72D893E8952
S11323104F89588D0E94D9199B01AC01C501B401A4
S1132320F9D66B017C0120E030E048EC52E40E94D5
S1132330D519181694F020E030E048EC52ECC701AF
S1132340B6014CD788238CF40F2EC12CD12CF8EC79
S1132350EF2EF2ECFF2EF02D08C00F2EC12CD12C45
S1132360F8ECEF2EF2E4FF2EF02DC701B6013AD7B8
S1132370862FDF91CF91FF90EF90DF90CF90BF90A9
S1132380AF909F908F90089540910001509101016A
S11323906091020170910301FC0151874087089507
S11323A00F931F93FC014181528141155105C1F0E6
S11323B0009100011091010120910201309103016B
S11323C080859185081B190B2109310960E070E0B3
S11323D081E0401751076207730718F080E001C0DD
S11323E080E01F910F910895CF93DF93D62FC42FD0
S11323F0FC018081880F0E9455058D2F0E94DB050A
S11324008C2F0E94DB050E94B905DF91CF910895BE
S11324101F93CF93DF93162FC42FD52FFC018081F8
S1132420880F0E945505812F0E94DB058D2F0E9485
S1132430DB058C2F0E94DB050E94B905DF91CF914B
S11324401F910895FF920F931F93CF93DF93F62E5E
S1132450C22FD32F142F052FFC018081880F0E94D7
S113246055058F2D0E94DB05802F0E94DB05812FEF
S11324700E94DB058D2F0E94DB058C2F0E94DB055B
S11324800E94B905DF91CF911F910F91FF9008959C
S11324901F93CF93DF93EC01162F8881880F0E943E
S11324A05505812F0E94DB058881880F81600E9479
S11324B0B7050E943406C82F0E94B9058C2FDF91FE
S11324C0CF911F9108951F93CF93DF93EC01162FA3
S11324D08881880F0E945505812F0E94DB05888121
S11324E0880F81600E94B7050E941006C82FD0E0B3
S11324F0DC2FCC270E943406C82B0E94B905CE01DC
S1132500DF91CF911F910895EF92FF920F931F9344
S1132510CF93DF93D62F7A01C22FFC018081880FDD
S11325200E9455058D2F0E94DB058FEF8C0FCC2365
S113253069F0E701082F10E00F5F1F4F0E0D1F1DFC
S113254089910E94DB05C017D107D1F70E94B90514
S1132550DF91CF911F910F91FF90EF900895EF922B
S1132560FF920F931F93CF93DF938C01D62FE42E0A
S1132570F52EC22FFC018081880F0E9455058D2FF6
S11325800E94DB05F8018081880F81600E94B705F5
S1132590CC2391F00E2D1F2DC23028F00E9410067E
S11325A0F801808304C00E943406F8018083C1507E
S11325B00F5F1F4FC111F0CF0E94B905DF91CF917A
S11325C01F910F91FF90EF900895EF92FF920F9358
S11325D01F93CF93DF93EC017B018A0141E060E814
S11325E003DF41E06FEFCE01FFDE40E060E0CE01AB
S11325F0FBDE46E06FEFCE01F7DE63E8CE0148DF95
S1132600482F446063E8CE01EFDE47E06FEFCE0170
S1132610EBDE41E061E8CE01E7DE41E060E8CE01B7
S1132620E3DE4BE664E9CE01DFDE40E063E8CE01A1
S1132630DBDECE01A9DE04C0CE01B2DE811137C0DB
S113264063E8CE0125DF8823B9F341E063E8CE01D6
S1132650CBDE62E9CE011CDF982F9F77F7019083D0
S1132660881F8827881FF801808340E061E8CE0135
S1132670BBDE46E06FEFCE01B7DE63E8CE0108DFD4
S1132680482F4B7F63E8CE01AFDE41E06FEFCE0110
S1132690ABDE41E060E0CE01A7DE40E06FEFCE01AB
S11326A0A3DE40E060E8CE019FDE81E001C080E06F
S11326B0DF91CF911F910F91FF90EF900895CF93E9
S11326C0DF93EB0161E0E4DE84FB992790F99883C2
S11326D083FB992790F99A8382FB992790F9998330
S11326E086FB992790F99B83881F8827881F8C83F2
S11326F0DF91CF9108950F931F93009719F1AC01C7
S11327004150510960E070E0DB01CA018827892B40
S11327108A2B8B2B79F080E090E07695679557951E
S1132720479501968A019B010027012B022B032B5D
S1132730A1F702C080E090E0982F88275527842BCA
S1132740952B02C080E090E01F910F9108959C01A9
S11327503327A90102C0440F551F9A95E2F7CA0115
S1132760019608954F925F926F927F928F929F92FB
S1132770AF92BF92CF92DF92EF92FF923C01A62FCD
S1132780B0E020E03FE24AE350E0B0D66B017C01C8
S113279024EFC20E21E0D21EE11CF11C0F2EF8EE34
S11327A08F2EF3E09F2EA12CB12CF02DC701B60182
S11327B0A501940161D6D30199D62B013C01C7012F
S11327C0B60120ED37E040E050E056D6C301B20137
S11327D0620F731F841F951FA50194014DD6CA0172
S11327E0B901FF90EF90DF90CF90BF90AF909F9092
S11327F08F907F906F905F904F900895611105C006
S113280060E546DE8F5F880F0895613029F460E744
S11328103FDE8F5F880F08958FEF0895EF92FF9248
S11328200F931F93CF93DF938C017B01EA0160E048
S1132830E5DF90E09983888366E4C80129DE90E0AF
S113284001969D838C8368818DDF6A877B878C8763
S11328509D8761E5C80137DE7ADF9F838E836881B7
S113286081DF6E877F87888B998B61E0C801C6DF23
S113287090E09B838A8361E7C80125DE68DF99873E
S11328808887F7012381222331F02E813F81821B27
S1132890930B998788876A818885998563DF6A8B1A
S11328A07B8B8C8B9D8BDF91CF911F910F91FF9030
S11328B0EF9008958F929F92AF92BF92CF92DF9242
S11328C0EF92FF924B015C01A42FB0E020E03FE2C5
S11328D04AE350E00BD66B017C0124EFC20E21E0E9
S11328E0D21EE11CF11CA8EEB3E0A5019401FED5B3
S11328F04B015C01C701B60120ED37E040E050E038
S1132900BBD5820E931EA41EB51EC701B60128EEC8
S113291033E040E050E0B0D5C501B401ADD5CA0103
S1132920B901FF90EF90DF90CF90BF90AF909F9050
S11329308F900895CF93DF93EC01462F416060E0C0
S113294053DDCE0121DD04C0CE012ADD81110FC08B
S113295063E1CE019DDD8770B9F341E06BE0CE0108
S113296043DD40E060E0CE013FDD81E001C080E076
S1132970DF91CF9108958F929F92AF92BF92DF9291
S1132980EF92FF920F931F93CF93DF93CDB7DEB7F0
S11329906B970FB6F894DEBF0FBECDBF40322EE466
S11329A052076105710508F474C04A015B017C019A
S11329B0BE016F5F7F4F83DEAE014A5F5F4FBE0192
S11329C06F5F7F4FC7012ADF8981882349F0088917
S11329D019892A893B890A5C144F2F4F3F4F04C041
S11329E008EE18E020E030E08B81882389F08889A4
S11329F09989AA89BB898E549D4FAF4FBF4F880FC9
S1132A00991FAA1FBB1F080F191F2A1F3B1F0FC0A6
S1132A108A81882361F088899989AA89BB898C561F
S1132A209D4FAF4FBF4F080F191F2A1F3B1FDC805C
S1132A30DD2061F08C899D89AE89BF898C569D4FBC
S1132A40AF4FBF4F080F191F2A1F3B1F8D818823CB
S1132A5011F10A5D1D4F2F4F3F4F80169106A206BC
S1132A60B306D8F0C501B401601B710B820B930B44
S1132A70488520DF9B01DD2021F02C853D85260F34
S1132A80371FC90138DEAC0161E7C701C1DC81E051
S1132A9005C080E003C081E001C080E06B960FB602
S1132AA0F894DEBF0FBECDBFDF91CF911F910F9180
S1132AB0FF90EF90DF90BF90AF909F908F9008951C
S1132AC0CF93DF93EC0180E89AE1A6E0B0E0809335
S1132AD0DC019093DD01A093DE01B093DF0160E897
S1132AE07AE186E090E00E9427050E9450051A8250
S1132AF019821B826C817D818E819F810E940504D5
S1132B00CE0104960E9438046C817D818E819F8160
S1132B100E945D04DF91CF9108950F931F93CF938B
S1132B20DF93CDB7DEB728970FB6F894DEBF0FBE9C
S1132B30CDBF8C01FC0164817581868197810E94DF
S1132B4041048FE99FE00197F1F700C0000069E8B4
S1132B50C8019EDC482F416069E8C80145DC40E0BB
S1132B6068E8C80141DC41E060E8C8013DDC41E0BF
S1132B706FEFC80139DC40E060E0C80135DC61E991
S1132B80C80186DCF801828741E060E0C8012CDCE2
S1132B9040E06FEFC80128DC40E060E8C80124DCB5
S1132BA060E6C80175DC482F426160E6C8011CDCA0
S1132BB040E250E064E4C8012BDC4FEF61E0C8015F
S1132BC013DCAE014E5F5F4FBE016F5F7F4FC801E4
S1132BD0FCDC882309F4D2C126E0AE014D5F5F4FCF
S1132BE060EBC801BCDC41E06FEFC801FDDB40E0F5
S1132BF06FE4C801F9DB4CE26EE4C801F5DB40E0A8
S1132C006FEFC801F1DB44EB66EBC801EDDB8A81B1
S1132C10811102C060E001C06CE0A98180E070E035
S1132C2041E050E0861710F0A71318C0982F96952E
S1132C3096959695E3E0F0E0EC0FFD1FE90FF11D8A
S1132C40982F97709A0102C0220F331F9A95E2F7CA
S1132C50922F909520819223908315C0982F96955A
S1132C6096959695E3E0F0E0EC0FFD1FE90FF11D5A
S1132C70208130E0982F977002C0359527959A955A
S1132C80E2F720FD7F5F8F5F803361F626E0AE01BF
S1132C904D5F5F4F60EBC80137DC41E06FEFC80167
S1132CA0A3DB40E060E0C8019FDB40E06FEFC801B8
S1132CB09BDB40E069E0C80197DB40E060E1C801CC
S1132CC093DB40E061E1C8018FDB41E064E2C801CD
S1132CD08BDB4FEF65E2C80187DB40E065E7C801A5
S1132CE083DB41E06FEFC8017FDB4CE26EE4C80197
S1132CF07BDB40E068E4C80177DB40E260E3C801C5
S1132D0073DB40E06FEFC8016FDB49E060E3C801AB
S1132D106BDB40E064E5C80167DB44E061E3C801C4
S1132D2063DB43E062E3C8015FDB43E860E4C801BE
S1132D305BDB45E266E4C80157DB40E060E6C801BE
S1132D4053DB40E067E2C8014FDB46E060E5C801C1
S1132D504BDB40E061E5C80147DB46E962E5C801B9
S1132D6043DB48E066E5C8013FDB40E367E5C801B3
S1132D703BDB40E061E6C80137DB40E062E6C801C6
S1132D8033DB40E064E6C8012FDB40E065E6C801C0
S1132D902BDB40EA66E6C80127DB41E06FEFC801A0
S1132DA023DB42E362E2C8011FDB44E167E4C801BC
S1132DB01BDB4FEF69E4C80117DB40E06AE4C8019C
S1132DC013DB40E06FEFC8010FDB4AE06AE7C8019C
S1132DD00BDB40E06BE7C80107DB41E268E7C801B1
S1132DE003DB41E06FEFC801FFDA44E363E2C801AB
S1132DF0FBDA40E062E4C801F7DA4FEF64E4C801AB
S1132E00F3DA46E265E4C801EFDA45E066E4C801B6
S1132E10EBDA40E460E4C801E7DA46E06EE0C801BA
S1132E20E3DA4AE160E2C801DFDA40E463E4C801BE
S1132E30DBDA40E06FEFC801D7DA43E064E3C801AE
S1132E40D3DA44E465E3C801CFDA41E06FEFC801A7
S1132E50CBDA44E061E3C801C7DA49E06BE4C801B6
S1132E60C3DA45E06CE4C801BFDA44E06DE4C801AC
S1132E70BBDA40E06FEFC801B7DA40E064E4C801B0
S1132E80B3DA40E265E4C801AFDA48E067E4C801B8
S1132E90ABDA48E268E4C801A7DA40E067E6C801B3
S1132EA0A3DA44E060E7C8019FDA41E061E7C801C2
S1132EB09BDA4EEF62E7C80197DA40E066E7C801A3
S1132EC093DA40E067E7C8018FDA41E06FEFC801A9
S1132ED08BDA41E06DE0C80187DA40E06FEFC801AA
S1132EE083DA41E060E8C8017FDA48EF61E0C801B5
S1132EF07BDA41E06FEFC80177DA41E06EE8C801A0
S1132F0073DA41E060E0C8016FDA40E06FEFC801B6
S1132F106BDA40E060E8C80167DA44E06AE0C801BF
S1132F2063DA64E8C801B4DA482F4F7E64E8C80164
S1132F305BDA41E06BE0C80157DA48EE61E0C801B2
S1132F4053DA4EE150E060E070E0C80114DD41E086
S1132F5061E0C80149DA60E4C801ECDC882371F05F
S1132F6042E061E0C80140DA60E0C801E3DC8823A4
S1132F7029F048EE61E0C80137DA81E028960FB6FF
S1132F80F894DEBF0FBECDBFDF91CF911F910F919B
S1132F9008951F93CF93DF93EC01162F462F4F779D
S1132FA06AE822DA1883DF91CF911F910895CF93B5
S1132FB0DF93EC01613089F028F06230C9F06330AE
S1132FC011F12CC040E250E064E422DA40E355E71A
S1132FD060E070E0CE01CFDC22C040E250E064E467
S1132FE017DA40E45DE063E070E0CE01C4DC17C0B2
S1132FF04CE050E064E40CDA48EE50E860E070E045
S1133000CE01B9DC0CC040E250E064E401DA40E2F5
S11330105EE460E070E0CE01AEDC01C080E0DF91F0
S1133020CF910895CF92DF92EF92FF92CF93DF93E7
S1133030EC016A017B0141E060E8D6D941E06FEF21
S1133040CE01D2D940E060E0CE01CED94A8561E913
S1133050CE01CAD941E060E0CE01C6D940E06FEFAD
S1133060CE01C2D940E060E8CE01BED9C114D1047A
S1133070E104F104A9F068EFCE0125DA009731F0FC
S1133080DC01A701960132D26B017C01A7019601F4
S113309064E0CE01D7D944E060E0CE01A5D904C0F4
S11330A042E060E0CE01A0D9DF91CF91FF90EF9094
S11330B0DF90CF9008950F931F93CF93DF93EC018C
S11330C063E1E6D9877049F06EE1CE01FCD98C0149
S11330D041E06BE0CE0188D902C00FEF1FEFC801B9
S11330E0DF91CF911F910F910895809100019091EC
S11330F00101A0910201B09103010196A11DB11D2E
S11331008093000190930101A0930201B093030105
S113311008955058BB27AA270ED00DC1FED030F019
S113312003D120F031F49F3F11F41EF4F3C00EF4E8
S1133130E095E7FBE9C0E92F0FD180F3BA176207E6
S113314073078407950718F071F49EF527C10EF4F0
S1133150E0950B2EBA2FA02D0B01B90190010C01A3
S1133160CA01A0011124FF27591B99F0593F50F4BB
S1133170503E68F11A16F040A22F232F342F442713
S1133180585FF3CF469537952795A795F04053950B
S1133190C9F77EF41F16BA0B620B730B840BBAF0DB
S11331A09150A1F0FF0FBB1F661F771F881FC2F746
S11331B00EC0BA0F621F731F841F48F4879577955A
S11331C06795B795F7959E3F08F0B3CF9395880F11
S11331D008F09927EE0F97958795089571D008F414
S11331E081E0089504D06894B111D9C00895BCD089
S11331F088F09F5790F0B92F9927B751A0F0D1F0DC
S1133200660F771F881F991F1AF0BA95C9F712C065
S1133210B13081F0C3D0B1E00895C0C0672F782FDA
S11332208827B85F39F0B93FCCF3869577956795D1
S1133230B395D9F73EF490958095709561957F4F3D
S11332408F4F9F4F0895E89409C097FB3EF49095E3
S11332508095709561957F4F8F4F9F4F9923A9F06B
S1133260F92F96E9BB279395F695879577956795FA
S1133270B795F111F8CFFAF4BB0F11F460FF1BC03E
S11332806F5F7F4F8F4F9F4F16C0882311F096E9D1
S113329011C0772321F09EE8872F762F05C066237F
S11332A071F096E8862F70E060E02AF09A95660F38
S11332B0771F881FDAF7880F9695879597F90895F1
S11332C0990F0008550FAA0BE0E8FEEF1616170633
S11332D0E807F907C0F012161306E407F50798F09B
S11332E0621B730B840B950B39F40A2661F0232BB4
S11332F0242B252B21F408950A2609F4A140A69530
S11333008FEF811D811D089597F99F6780E870E014
S113331060E008959FEF80EC089500240A94161647
S1133320170618060906089500240A9412161306AF
S1133330140605060895092E0394000C11F488233D
S113334052F0BB0F40F4BF2B11F460FF04C06F5F59
S11333507F4F8F4F9F4F089557FD9058440F551F2F
S113336059F05F3F71F04795880F97FB991F61F003
S11333709F3F79F087950895121613061406551F7A
S1133380F2CF4695F1DF08C0161617061806991FE6
S1133390F1CF86957105610508940895E894BB27DB
S11333A066277727CB0197F908958ADF08F48FEF12
S11333B008950BD0C0CFB1DF28F0B6DF18F0952305
S11333C009F0A2CFA7CF1124EACFC6DFA0F3959FBF
S11333D0D1F3950F50E0551F629FF001729FBB27F8
S11333E0F00DB11D639FAA27F00DB11DAA1F649FA4
S11333F06627B00DA11D661F829F2227B00DA11D57
S1133400621F739FB00DA11D621F839FA00D611DDC
S1133410221F749F3327A00D611D231F849F600DFD
S1133420211D822F762F6A2F11249F5750408AF036
S1133430E1F088234AF0EE0FFF1FBB1F661F771FC2
S1133440881F91505040A9F79E3F510570F05CCF02
S1133450A6CF5F3FECF3983EDCF3869577956795AE
S1133460B795F795E7959F5FC1F7FE2B880F911DE0
S11334709695879597F90895A1E21A2EAA1BBB1B6E
S1133480FD010DC0AA1FBB1FEE1FFF1FA217B3072C
S1133490E407F50720F0A21BB30BE40BF50B661F42
S11334A0771F881F991F1A9469F760957095809506
S11334B090959B01AC01BD01CF010895EE0FFF1F54
S11334C00024001C0BBE0790F691E02D0994A29FE6
S11334D0B001B39FC001A39F700D811D1124911DE4
S11334E0B29F700D811D1124911D0895F0DFA59FD9
S11334F0900DB49F900DA49F800D911D11240895EB
S1073500F894FFCF69
S9030000FC
