S0160000496D706C656D656E746174696F6E2E7372656348
S11300004CC0000024C100002CC1000034C1000019
S1130010F6C00000FEC0000006C100000EC10000D2
S11300200C94AA0A6BC60000A5C600003CC60000DA
S1130030DDC5000050C50000AEC5000021C50000AC
S11300404AC0000048C0000046C000005AC3000077
S113005042C0000040C000003EC000003CC00000A0
S11300603AC0000038C0000036C0000034C00000B0
S113007032C0000030C000002EC000002CC00000C0
S11300802AC0000028C0000026C00000C207CB0719
S1130090D407DD07E607EF07F80711241FBECFEFEB
S11300A0D0E4DEBFCDBF11E0A0E0B1E0E8E8F6E2C5
S11300B000E00BBF02C007900D92A030B107D9F742
S11300C021E0A0E0B1E001C01D92A035B207E1F744
S11300D003D00C94421394CF6ED00E94D50A02D060
S11300E04ED0FFCF0F931F93E4E0F1E088EE582F3A
S11300F0818383E082831382148281E0482F80838A
S11301006091060170910701809108015ED60AEEA4
S113011012E120E040910401509105016091060133
S113012070910701809108010E94320920E04091FA
S113013004015091050160910601709107018091BD
S11301400801D4D740910401509105016091060142
S1130150709107018091080184D7E9E0F1E089E218
S1130160808384E690E09283818382E08483858324
S11301707894CF010E94F10F1F910F91089589E0A7
S113018091E00E941E1044E150E060E070E089E0DC
S113019091E00E94871263E089E091E00E944C1292
S11301A089E091E00E94D0128F3F2FEF9207C1F3B4
S11301B00E940D0BF5CF80E885BF85BF089561309F
S11301C061F028F0623079F0633099F00895482F97
S11301D0672F81E290E03CC20895482F672F84E2A4
S11301E090E036C20895482F672F87E290E030C22E
S11301F00895482F672F8AE290E02AC208951F923B
S11302000F920FB60F9211240F900FBE0F901F90F4
S113021018951F920F920FB60F9211240F900FBED4
S11302200F901F9018951F920F920FB60F921124E2
S11302300F900FBE0F901F9018951F920F920FB63C
S11302400F9211240F900FBE0F901F9018951F92BC
S11302500F920FB60F9211240F900FBE0F901F90A4
S113026018951F920F920FB60F9211240F900FBE84
S11302700F901F9018951F920F920FB60F92112492
S11302800F900FBE0F901F9018950F931F93CF934D
S1130290DF93C62F172FD82F092F91DFD11123C039
S11302A0C13081F028F0C23099F0C330B9F01BC0DE
S11302B0402F612F82E290E0CBD1612F8EE790E056
S11302C0EBD111C0402F612F85E290E0C1D10BC06A
S11302D0402F612F88E290E0BBD105C0402F612FF1
S11302E08BE290E0B5D1DF91CF911F910F910895EA
S11302F021E0FC01228360817181828193815FCF3F
S11303000895613059F028F0623069F0633081F06B
S11303100895672F82E290E0B3C10895672F85E2C4
S113032090E0AEC10895672F88E290E0A9C10895D6
S1130330672F8BE290E0A4C108950F931F93CF938E
S1130340DF938B019C01EA0160E072E18AE790E0AF
S1130350A90198010E94FE12BA01A9014051510954
S113036061097109DB01CA01B695A795979587952F
S11303708F3F9105A105B10509F010F4188232C030
S1130380DB01CA01689412F8B695A79597958795ED
S11303901694D1F78F3F9105A105B10509F018F422
S11303A021E028831FC0DB01CA01689414F8B695C4
S11303B0A795979587951694D1F78F3F9105A10539
S11303C0B10509F018F422E028830CC083E0888387
S11303D0DB01CA01689416F8B695A7959795879599
S11303E01694D1F7DF91CF911F910F910895CF9378
S11303F0DF931F92CDB7DEB7AE014F5F5F4F9DDF36
S11304008093B80060E0898154D1482F60E089EB83
S113041090E01ED161E089814CD1482F61E089EBE5
S113042090E016D162E071E080E091E02EDF62E0BE
S113043070E080E091E029DF0F90DF91CF91089583
S113044062E08CEB90E01CC10895FF920F931F9320
S1130450CF93DF93F82ECCEBD0E0888162E029D1F2
S1130460288134E0839FC0011124806A822B888311
S1130470CEEFDFEF0CEB10E0F801808167E019D1DB
S1130480811133C02197C1F78FEF3BC08091B90030
S1130490887F803121F08091B900887F32C0F0924A
S11304A0BB00CCEBD0E0888162E003D1F4E08F9F05
S11304B0C001112480688883CEEFDFEF0CEB10E0DD
S11304C0F801808167E0F5D0811115C02197C1F74B
S11304D08FEF17C08091B900887F803421F080911C
S11304E0B900887F0EC080E00CC08091B900887F7D
S11304F0883061F6D4CF8091B900887F883151F774
S113050080E0DF91CF911F910F91FF9008959DCFCF
S113051008950F931F93CF93DF93CCEBD0E08881A2
S113052062E0C7D0288134E0839FC0011124806930
S1130530822B8883CEEFDFEF0CEB10E0F801808193
S113054064E0B7D0882311F02197C1F7DF91CF91F0
S11305501F910F9108950F931F93CF93DF9380936F
S1130560BB00CCEBD0E0888162E0A3D024E0829F82
S1130570C001112480688883CEEFDFEF0CEB10E01C
S1130580F801808167E095D081110FC02197C1F7F0
S11305908FEF11C08091B900887F803421F0809161
S11305A0B900887F08C080E006C08091B900887FC8
S11305B0883181F780E0DF91CF911F910F910895E9
S11305C00F931F93CF93DF93CCEBD0E0888162E04D
S11305D070D024E0829FC0011124806C8883CEEF08
S11305E0DFEF0CEB10E0F801808167E062D0882334
S11305F019F08091BB0003C02197A9F78FEFDF9119
S1130600CF911F910F9108950F931F93CF93DF9371
S1130610CCEBD0E0888162E04CD024E0829FC00122
S1130620112480688883CEEFDFEF0CEB10E0F80133
S1130630808167E03ED0882319F08091BB0003C01D
S11306402197A9F78FEFDF91CF911F910F91089513
S1130650FC01942F208141E050E0062E02C0440F9B
S1130660551F0A94E2F7409550952423492F50E0F2
S113067002C0440F551F6A95E2F7422B4083089548
S1130680FC01408121E030E002C0220F331F6A9553
S1130690E2F7242B20830895FC01908121E030E0CF
S11306A002C0220F331F6A95E2F720952923208385
S11306B0089590E002C0959587956A95E2F7817058
S11306C00895CF92DF92EF92FF9269017A019B0124
S11306D0AC012C193D094E095F09A8EEB3E00E9454
S11306E03813A70196010E94FE12C901992324F42C
S11306F088279927821B930BFF90EF90DF90CF9070
S113070008951F920F920FB60F9211240BB60F92F9
S11307108F939F93EF93FF93E0911901F0E08EB5CF
S1130720E65EFE4F808380911901893030F4809118
S113073019018F5F8093190102C01092190181E0A1
S1130740809318019091160180912F019817A1F0C0
S1130750E0911601F0E0EC5DFE4F80818EBD80914A
S11307601601893030F4809116018F5F8093160151
S113077006C01092160103C081E080932E01FF9100
S1130780EF919F918F910F900BBE0F900FBE0F9022
S11307901F9018958F929F92AF92BF92EF92FF9203
S11307A00F931F93CF93DF9300D000D01F92CDB748
S11307B0DEB748015901413021F0423009F488C0C4
S11307C04CC160E072E18AE790E0A90198010E94BF
S11307D0FE12DA01C9010197A109B109009721E0CC
S11307E0A207B10550F449EF5FEF6FEF70E0F70136
S11307F0408351836283738333C160E472E48FE086
S113080090E0A50194010E94FE12DA01C90101974A
S1130810A109B1090097F1E0AF07B10550F44AEF1F
S11308205FEF6FEF70E0F70140835183628373835E
S113083017C168E478EE81E090E0A50194010E947C
S1130840FE12DA01C9010197A109B1090097F1E08B
S1130850AF07B10550F44CEF5FEF6FEF70E0F701B5
S11308604083518362837383FBC062E17AE780E053
S113087090E0A50194010E94FE12DA01C9010197DA
S1130880A109B1090097F1E0AF07B10550F44EEFAB
S11308905FEF6FEF70E0F7014083518362837383EE
S11308A0DFC08FEF9FEFAFEFB0E0F701808391835C
S11308B0A283B38364E87EE180E090E0A501940123
S11308C00E94FE12DA01C9010197A109B109C8C049
S11308D060E072E18AE790E0A90198010E94FE12AB
S11308E0DA01C9010197A109B1098F3F9105A10559
S11308F0B10509F050F449EF5FEF6FEF70E0F701D5
S11309004083518362837383ABC060E472E48FE0FD
S113091090E0A50194010E94FE12DA01C901019739
S1130920A109B1098F3F9105A105B10509F050F462
S11309304AEF5FEF6FEF70E0F7014083518362830A
S113094073838EC060E970ED83E090E0A5019401AB
S11309500E94FE12DA01C9010197A109B1098F3F72
S11309609105A105B10509F050F44BEF5FEF6FEF6E
S113097070E0F701408351836283738371C068E43C
S113098078EE81E090E0A50194010E94FE12DA0164
S1130990C9010197A109B1098F3F9105A105B105CD
S11309A009F050F44CEF5FEF6FEF70E0F701408314
S11309B051836283738354C064E274EF80E090E0F7
S11309C0A50194010E94FE12DA01C9010197A1094F
S11309D0B1098F3F9105A105B10509F050F44DEF20
S11309E05FEF6FEF70E0F70140835183628373839D
S11309F037C062E17AE780E090E0A50194010E94AB
S1130A00FE12DA01C9010197A109B1098F3F9105CD
S1130A10A105B10509F050F44EEF5FEF6FEF70E000
S1130A20F70140835183628373831AC08FEF9FEF72
S1130A30AFEFB0E0F70180839183A283B38364E8CE
S1130A407EE180E090E0A50194010E94FE12DA01AB
S1130A50C9010197A109B10903C080E090E0DC015C
S1130A600F900F900F900F900F90DF91CF911F91E7
S1130A700F91FF90EF90BF90AF909F908F9008954B
S1130A801F920F920FB60F9211240BB60F922F9351
S1130A903F934F935F936F937F938F939F93AF9302
S1130AA0BF93EF93FF93E0913001F09131010995E9
S1130AB0FF91EF91BF91AF919F918F917F916F9132
S1130AC05F914F913F912F910F900BBE0F900FBEEE
S1130AD00F901F9018951F920F920FB60F9211242A
S1130AE00BB60F920F931F932F933F934F935F93E4
S1130AF06F937F938F939F93AF93BF93CF93DF9322
S1130B00EF93FF93C1E8D0E0888164E0D2DD182F31
S1130B10888163E0CEDDC12FCC0FCC0FCC0F24E055
S1130B20829FC0011124C82B00E810E0F8018081E5
S1130B3061E0BFDDD82FF801808160E0BADDDD0F10
S1130B408C2B8D2B883018F4843019F408C080FD68
S1130B5006C0E0913201F0913301099505C0E0919E
S1130B603001F09131010995FF91EF91DF91CF911F
S1130B70BF91AF919F918F917F916F915F914F91B1
S1130B803F912F911F910F910F900BBE0F900FBEAD
S1130B900F901F9018951F920F920FB60F92112469
S1130BA00BB60F922F933F934F935F936F937F9363
S1130BB08F939F93AF93BF93EF93FF93E09134018F
S1130BC0F09135010995FF91EF91BF91AF919F91FC
S1130BD08F917F916F915F914F913F912F910F90E2
S1130BE00BBE0F900FBE0F901F9018951F920F927F
S1130BF00FB60F9211240BB60F920F931F932F93DE
S1130C003F934F935F936F937F938F939F93AF9390
S1130C10BF93CF93DF93EF93FF93C1E8D0E0888134
S1130C2064E047DD182F888163E043DDC12FCC0FDA
S1130C30CC0FCC0F24E0829FC0011124C82B00E804
S1130C4010E0F801808161E034DDD82FF801808163
S1130C5060E02FDDDD0F8C2B8D2B883010F080FFB2
S1130C6006C0E0913601F0913701099505C0E09185
S1130C703001F09131010995FF91EF91DF91CF910E
S1130C80BF91AF919F918F917F916F915F914F91A0
S1130C903F912F911F910F910F900BBE0F900FBE9C
S1130CA00F901F9018951F920F920FB60F92112458
S1130CB00BB60F922F933F934F935F936F937F9352
S1130CC08F939F93AF93BF93EF93FF93E0913A0178
S1130CD0F0913B010995FF91EF91BF91AF919F91E5
S1130CE08F917F916F915F914F913F912F910F90D1
S1130CF00BBE0F900FBE0F901F9018951F920F926E
S1130D000FB60F9211240BB60F922F933F934F936C
S1130D105F936F937F938F939F93AF93BF93EF935F
S1130D20FF938091B10063E0C4DC81110BC080911A
S1130D30B0008370823031F0E0913C01F0913D01CC
S1130D40099505C0E0913A01F0913B010995FF91A5
S1130D50EF91BF91AF919F918F917F916F915F912F
S1130D604F913F912F910F900BBE0F900FBE0F909C
S1130D701F9018951F920F920FB60F9211240BB665
S1130D800F922F933F934F935F936F937F938F9320
S1130D909F93AF93BF93EF93FF93E0913E01F09144
S1130DA03F010995FF91EF91BF91AF919F918F9171
S1130DB07F916F915F914F913F912F910F900BBE57
S1130DC00F900FBE0F901F901895EF92FF920F9304
S1130DD01F93CF93DF93CDB7DEB729970FB6F8945F
S1130DE0DEBF0FBECDBF4D835E836F837887898757
S1130DF00E811F812885398519821A821B821C82E3
S1130E00413021F0423009F495C01EC1093F8FEFF3
S1130E1018072807310528F009831A832B833C839C
S1130E2015C0CE0101967C014D815E816F8178856C
S1130E308985B0DC909387008093860064E081E824
S1130E4090E01EDC63E081E890E01ADC89819A81FD
S1130E50AB81BC818C3F2FEF9207A207B10559F1FA
S1130E6060F4893F2FEF9207A207B10591F08A3F02
S1130E709F4FAF4FB105B1F038C08E3F2FEF9207AF
S1130E80A207B10509F18F3F9F4FAF4FB10529F17B
S1130E902CC081E090E0A0E0B0E089839A83AB832A
S1130EA0BC8323C082E090E0A0E0B0E089839A8311
S1130EB0AB83BC831AC083E090E0A0E0B0E08983F8
S1130EC09A83AB83BC8311C084E090E0A0E0B0E0DF
S1130ED089839A83AB83BC8308C085E090E0A0E05B
S1130EE0B0E089839A83AB83BC8349815A816B8147
S1130EF07C8176956795579547957695679557952F
S1130F004795417062E088E391E0A2DB49815A8110
S1130F106B817C817695679557954795417061E023
S1130F2088E391E095DB4981417060E088E391E0DA
S1130F308FDB8AC0093F8FEF18072807310528F097
S1130F4009831A832B833C830FC0CE0101967C0155
S1130F504D815E816F81788589851CDC8093B30027
S1130F6061E080EB90E08CDB89819A81AB81BC816C
S1130F70FC013796E730F10508F042C0EA5BFF4F09
S1130F800C94201381E090E0A0E0B0E089839A8380
S1130F90AB83BC8335C082E090E0A0E0B0E08983FD
S1130FA09A83AB83BC832CC083E090E0A0E0B0E0E4
S1130FB089839A83AB83BC8323C084E090E0A0E060
S1130FC0B0E089839A83AB83BC831AC085E090E048
S1130FD0A0E0B0E089839A83AB83BC8311C086E030
S1130FE090E0A0E0B0E089839A83AB83BC8308C01F
S1130FF087E090E0A0E0B0E089839A83AB83BC8370
S113100049815A816B817C8176956795579547957F
S11310107695679557954795417062E089E391E02D
S113102017DB49815A816B817C8176956795579549
S11310304795417061E089E391E00ADB49814170A1
S113104060E089E391E004DB29960FB6F894DEBFF3
S11310500FBECDBFDF91CF911F910F91FF90EF9005
S11310600895CF93DF9300D000D01F92CDB7DEB7A1
S1131070413019F04230D1F031C04091380142FB87
S1131080442740F962E081E890E0E2DA40913801D7
S11310904695417061E081E890E0DADA40913801E8
S11310A0417060E081E890E0D3DA18C040913901E2
S11310B042FB442740F962E081EB90E0C9DA4091B9
S11310C039014695417061E081EB90E0C1DA4091CD
S11310D03901417060E081EB90E0BADA0F900F9033
S11310E00F900F900F90DF91CF910895CF92DF92E0
S11310F0EF92FF920F931F93CF93DF9300D000D012
S11311001F92CDB7DEB749835A836B837C838D836B
S1131110022F413021F0423009F45EC095C00F2EF9
S1131120F1E8EF2EF12CF02DF701808164E0C1DAB3
S1131130182FF701808163E0BCDA110F110F110F32
S1131140F4E08F9FC0011124182B6894CC24C7F8B5
S1131150D12CF601808161E0ACDAF82EF6018081B1
S113116060E0A7DAFF0C812B8F290130D9F028F039
S1131170023021F1033039F167C0883038F484300B
S113118061F060E08FE690E07BDA5EC080FD05C030
S113119065E08FE690E074DA57C061E08FE690E096
S11311A06FDA52C0883018F4843019F44DC080FDD1
S11311B04BC061E08FE690E063DA46C062E08FE600
S11311C090E05EDA41C0883010F080FF3DC065E0F9
S11311D08FE690E055DA38C08091B10063E069DAB7
S11311E0182F0F2EF0EBEF2EF12CF02DF70180814C
S11311F061E05FDA110F110F880F182BF70180815E
S113120060E057DA812B013091F018F00230C1F020
S11312101BC0843038F4823029F060E080E790E02D
S11312202FDA12C061E080E790E02ADA0DC0843042
S113123058F4823049F061E080E790E021DA04C09C
S113124062E080E790E01CDA0F900F900F900F900F
S11312500F90DF91CF911F910F91FF90EF90DF904E
S1131260CF9008950F931F93CF93DF9300D000D0B6
S11312701F92CDB7DEB7413019F0423051F011C0A2
S1131280E22FF0E0EE0FFF1FE05DFE4F11830083BD
S113129008C0E22FF0E0EE0FFF1FE65CFE4F118363
S11312A000830F900F900F900F900F90DF91CF91CC
S11312B01F910F9108954F925F926F927F928F9238
S11312C09F92AF92BF92CF92DF92EF92FF92CF9311
S11312D0DF934B015C01EA010F2EF0E24F2EF1EA9D
S11312E05F2EF7E06F2E712CF02DC301B201A50122
S11312F094010E94FE1269017A01C301B2010E94A5
S1131300FE12CA01B901A5019401DBD9449730F456
S1131310D701C6010197A109B1090FC081E08883F3
S113132060E472E48FE090E0A50194010E94FE1253
S1131330DA01C9010197A109B109DF91CF91FF90A9
S1131340EF90DF90CF90BF90AF909F908F907F9061
S11313506F905F904F9008950F931F93CF93DF93F7
S1131360CDB7DEB72B970FB6F894DEBF0FBECDBF57
S11313700A831B832C833D834E835F83688779872D
S11313808A879B87198201117CC0192FE2ECF0E057
S113139080818F7380836B817C818D819E81AE017E
S11313A04F5F5F4F88DF9093C5008093C4004981ED
S11313B061E080EC90E04CD98985823031F128F4E9
S11313C0882349F08130A1F046C0833059F184303C
S11313D009F435C040C061E082EC90E05DD962E080
S11313E082EC90E059D962E081EC90E055D933C0A9
S11313F061E082EC90E044D962E082EC90E04CD968
S113140062E081EC90E048D926C061E082EC90E093
S113141043D962E082EC90E033D962E081EC90E061
S11314203BD919C061E082EC90E02AD962E082ECF9
S113143090E026D962E081EC90E02ED90CC061E006
S113144082EC90E01DD962E082EC90E019D962E070
S113145081EC90E015D94A8563E082EC90E0F8D8FD
S1131460123031F4E2ECF0E080818F7C808309C09B
S113147065E082EC90E004D9412F64E082EC90E0D6
S1131480E7D82B960FB6F894DEBF0FBECDBFDF9121
S1131490CF911F910F9108950F931F93CF93DF93D3
S11314A0CDB7DEB72A970FB6F894DEBF0FBECDBF17
S11314B06F8301110AC0452F64E081EC90E0C8D825
S11314C04F8163E081EC90E0C3D82A960FB6F8947C
S11314D0DEBF0FBECDBFDF91CF911F910F91089555
S11314E0EF92FF920F931F93CF93DF93CDB7DEB7A5
S11314F02A970FB6F894DEBF0FBECDBF09831A83B7
S11315002B833C834D835E836F83788789879A8797
S1131510011113C000EC10E0F801808165E0C9D826
S11315208823D1F38885843031F44F2D417060E0F5
S113153081EC90E08DD8E092C6002A960FB6F8941C
S1131540DEBF0FBECDBFDF91CF911F910F91FF90F2
S1131550EF9008951F920F920FB60F9211240BB6BD
S11315600F922F933F934F935F936F937F938F9338
S11315709F93AF93BF93EF93FF93E0914001F0915A
S113158041010995FF91EF91BF91AF919F918F9187
S11315907F916F915F914F913F912F910F900BBE6F
S11315A00F900FBE0F901F9018950F931F93E2E4B6
S11315B0F1E080E0182F818381EE8283138214820C
S11315C083E0782F878392E09187108210861582BA
S11315D081E0682F868300E0209144013091450129
S11315E04091460150E080E0B7DE00914201109145
S11315F043012091440130914501409146015091AD
S11316004701609148017091490180914A0190918C
S11316104B0142DF1F910F910895CF92DF92EF9219
S1131620FF920F931F93CF93DF93EC019C013295AC
S113163022952F7023273F702327A7E4B3E00E944D
S113164029137C01F694E794F694E794F694E794CE
S11316509701ADECBCECFDD796958795969587954B
S1131660969587959C01220F331F880F991F880F29
S1131670991F880F991F820F931FE81AF90A80E3B4
S1131680E80EF11C009142011091430120914401A4
S113169030914501409146015091470160914801C4
S11316A07091490180914A0190914B0119DF9E018B
S11316B0369527953695279536952795A5ECB0E26E
S11316C0C8D77C01F694E794F694E794F694E794EB
S11316D0F694E7949701ADECBCECBBD7969587954F
S11316E096958795969587959C01220F331F880FB1
S11316F0991F880F991F880F991F820F931FE81A4B
S1131700F90A80E3E80EF11C0091420110914301B3
S11317102091440130914501409146015091470187
S1131720609148017091490180914A0190914B0167
S1131730D7DE9E013695279536952795ABE7B4E11C
S113174088D77C01F694E7949701ADECBCEC81D783
S11317509695879596958795969587959C01220FE2
S1131760331F880F991F880F991F880F991F820FA5
S1131770931FE81AF90A80E3E80EF11C0091420174
S1131780109143012091440130914501409146015B
S113179050914701609148017091490180914A013B
S11317A090914B019DDE9E01ADECBCEC52D76C01D7
S11317B0D694C794D694C794D694C794960149D71F
S11317C09695879596958795969587959C01220F72
S11317D0331F880F991F880F991F880F991F820F35
S11317E0931F7601E81AF90A80E3E80EF11C0091D0
S11317F042011091430120914401309145014091EF
S113180046015091470160914801709149018091CE
S11318104A0190914B0164DEC601880F991FCC0CDC
S1131820DD1CCC0CDD1CCC0CDD1CC80ED91E7E01CD
S1131830EC18FD0880E3E80EF11C009142011091C0
S1131840430120914401309145014091460150915A
S11318504701609148017091490180914A0190913A
S11318604B013EDE0F2EFAE0EF2EF12CF02D00910D
S1131870420110914301209144013091450140916E
S1131880460150914701609148017091490180914E
S11318904A0190914B0124DEDF91CF911F910F916A
S11318A0FF90EF90DF90CF90089540910001509108
S11318B001016091020170910301FC01518740878D
S11318C008950F931F93FC014181528141155105E5
S11318D0C1F00091000110910101209102013091A9
S11318E0030180859185081B190B2109310960E0EA
S11318F070E081E0401751076207730718F080E039
S113190001C080E01F910F910895CF93DF93D62FEC
S1131910C42FFC018081880F0E9425028D2F0E9414
S1131920AB028C2F0E94AB020E948902DF91CF91FF
S113193008951F93CF93DF93162FC42FD52FFC0147
S11319408081880F0E942502812F0E94AB028D2F77
S11319500E94AB028C2F0E94AB020E948902DF918D
S1131960CF911F910895FF920F931F93CF93DF930D
S1131970F62EC22FD32F142F052FFC018081880F40
S11319800E9425028F2D0E94AB02802F0E94AB0281
S1131990812F0E94AB028D2F0E94AB028C2F0E94DC
S11319A0AB020E948902DF91CF911F910F91FF90AA
S11319B008951F93CF93DF93EC01162F8881880F2E
S11319C00E942502812F0E94AB028881880F8160CA
S11319D00E9487020E940403C82F0E9489028C2F50
S11319E0DF91CF911F9108951F93CF93DF93EC0163
S11319F0162F8881880F0E942502812F0E94AB0236
S1131A008881880F81600E9487020E94E002C82FAB
S1131A10D0E0DC2FCC270E940403C82B0E9489024B
S1131A20CE01DF91CF911F910895EF92FF920F9312
S1131A301F93CF93DF93D62F7A01C22FFC018081AD
S1131A40880F0E9425028D2F0E94AB028FEF8C0F0E
S1131A50CC2369F0E701082F10E00F5F1F4F0E0D34
S1131A601F1D89910E94AB02C017D107D1F70E94B4
S1131A708902DF91CF911F910F91FF90EF9008950C
S1131A80EF92FF920F931F93CF93DF938C01D62F86
S1131A90E42EF52EC22FFC018081880F0E942502BE
S1131AA08D2F0E94AB02F8018081880F81600E9413
S1131AB08702CC2391F00E2D1F2DC23028F00E94F6
S1131AC0E002F801808304C00E940403F8018083CB
S1131AD0C1500F5F1F4FC111F0CF0E948902DF91E7
S1131AE0CF911F910F91FF90EF900895EF92FF9285
S1131AF00F931F93CF93DF93EC017B018A0141E0A5
S1131B0060E803DF41E06FEFCE01FFDE40E060E01C
S1131B10CE01FBDE46E06FEFCE01F7DE63E8CE01D7
S1131B2048DF482F446063E8CE01EFDE47E06FEF03
S1131B30CE01EBDE41E061E8CE01E7DE41E060E8A2
S1131B40CE01E3DE4BE664E9CE01DFDE40E063E88C
S1131B50CE01DBDECE01A9DE04C0CE01B2DE8111EE
S1131B6037C063E8CE0125DF8823B9F341E063E899
S1131B70CE01CBDE62E9CE011CDF982F9F77F701FF
S1131B809083881F8827881FF801808340E061E8DC
S1131B90CE01BBDE46E06FEFCE01B7DE63E8CE01D7
S1131BA008DF482F4B7F63E8CE01AFDE41E06FEFE3
S1131BB0CE01ABDE41E060E0CE01A7DE40E06FEF96
S1131BC0CE01A3DE40E060E8CE019FDE81E001C0EB
S1131BD080E0DF91CF911F910F91FF90EF900895D6
S1131BE0CF93DF93EB0161E0E4DE84FB992790F966
S1131BF0988383FB992790F99A8382FB992790F91C
S1131C00998386FB992790F99B83881F8827881FCF
S1131C108C83DF91CF9108950F931F93009719F14F
S1131C20AC014150510960E070E0DB01CA01882732
S1131C30892B8A2B8B2B79F080E090E07695679541
S1131C405795479501968A019B010027012B022B8A
S1131C50032BA1F702C080E090E0982F8827552736
S1131C60842B952B02C080E090E01F910F91089582
S1131C709C013327A90102C0440F551F9A95E2F72E
S1131C80CA01019608954F925F926F927F928F924C
S1131C909F92AF92BF92CF92DF92EF92FF923C015C
S1131CA0A62FB0E020E03FE24AE350E0E1D46B012C
S1131CB07C0124EFC20E21E0D21EE11CF11C0F2E88
S1131CC0F8EE8F2EF3E09F2EA12CB12CF02DC7013E
S1131CD0B601A501940192D4D301CAD42B013C01CD
S1131CE0C701B60120ED37E040E050E087D4C301DE
S1131CF0B201620F731F841F951FA50194017ED446
S1131D00CA01B901FF90EF90DF90CF90BF90AF90E0
S1131D109F908F907F906F905F904F900895611186
S1131D2005C060E546DE8F5F880F0895613029F4B1
S1131D3060E73FDE8F5F880F08958FEF0895EF927D
S1131D40FF920F931F93CF93DF938C017B01EA01E2
S1131D5060E0E5DF90E09983888366E4C80129DECA
S1131D6090E001969D838C8368818DDF6A877B87F1
S1131D708C879D8761E5C80137DE7ADF9F838E8378
S1131D80688181DF6E877F87888B998B61E0C801CA
S1131D90C6DF90E09B838A8361E7C80125DE68DFA4
S1131DA099878887F7012381222331F02E813F818F
S1131DB0821B930B998788876A818885998563DF5D
S1131DC06A8B7B8B8C8B9D8BDF91CF911F910F91B5
S1131DD0FF90EF9008958F929F92AF92BF92CF920F
S1131DE0DF92EF92FF924B015C01A42FB0E020E060
S1131DF03FE24AE350E03CD46B017C0124EFC20E85
S1131E0021E0D21EE11CF11CA8EEB3E0A50194016F
S1131E102FD44B015C01C701B60120ED37E040E04F
S1131E2050E0ECD3820E931EA41EB51EC701B6016A
S1131E3028EE33E040E050E0E1D3C501B401DED345
S1131E40CA01B901FF90EF90DF90CF90BF90AF909F
S1131E509F908F900895CF93DF93EC01462F4160BC
S1131E6060E053DDCE0121DD04C0CE012ADD811105
S1131E700FC063E1CE019DDD8770B9F341E06BE0F3
S1131E80CE0143DD40E060E0CE013FDD81E001C0F2
S1131E9080E0DF91CF9108958F929F92AF92BF928D
S1131EA0DF92EF92FF920F931F93CF93DF93CDB7FF
S1131EB0DEB76B970FB6F894DEBF0FBECDBF4032CE
S1131EC02EE452076105710508F474C04A015B01F0
S1131ED07C01BE016F5F7F4F83DEAE014A5F5F4FBF
S1131EE0BE016F5F7F4FC7012ADF8981882349F0D4
S1131EF0088919892A893B890A5C144F2F4F3F4F5F
S1131F0004C008EE18E020E030E08B81882389F0DB
S1131F1088899989AA89BB898E549D4FAF4FBF4F39
S1131F20880F991FAA1FBB1F080F191F2A1F3B1FC9
S1131F300FC08A81882361F088899989AA89BB891D
S1131F408C569D4FAF4FBF4F080F191F2A1F3B1FC1
S1131F50DC80DD2061F08C899D89AE89BF898C5637
S1131F609D4FAF4FBF4F080F191F2A1F3B1F8D8175
S1131F70882311F10A5D1D4F2F4F3F4F80169106A4
S1131F80A206B306D8F0C501B401601B710B820B25
S1131F90930B488520DF9B01DD2021F02C853D85B6
S1131FA0260F371FC90138DEAC0161E7C701C1DC68
S1131FB081E005C080E003C081E001C080E06B9651
S1131FC00FB6F894DEBF0FBECDBFDF91CF911F9146
S1131FD00F91FF90EF90DF90BF90AF909F908F9004
S1131FE00895CF93DF93EC0180E89AE1A6E0B0E096
S1131FF080934C0190934D01A0934E01B0934F01F7
S113200060E87AE186E090E00E94F7010E942002F5
S11320101A8219821B826C817D818E819F810E942C
S11320204501CE0104960E9478016C817D818E81E8
S11320309F810E948101DF91CF9108950F931F9397
S1132040CF93DF93CDB7DEB728970FB6F894DEBFF2
S11320500FBECDBF8C0169E8ACDC482F416069E854
S1132060C80153DC40E068E8C8014FDC41E060E8A7
S1132070C8014BDC41E06FEFC80147DC40E060E0A1
S1132080C80143DC61E9C80194DCF801828741E0BE
S113209060E0C8013ADC40E06FEFC80136DC40E0A4
S11320A060E8C80132DC60E6C80183DC482F426185
S11320B060E6C8012ADC40E250E064E4C80139DC8F
S11320C04FEF61E0C80121DCAE014E5F5F4FBE01FE
S11320D06F5F7F4FC8010ADD882309F4D2C126E06F
S11320E0AE014D5F5F4F60EBC801CADC41E06FEFAA
S11320F0C8010BDC40E06FE4C80107DC4CE26EE48D
S1132100C80103DC40E06FEFC801FFDB44EB66EB82
S1132110C801FBDB8A81811102C060E001C06CE070
S1132120A98180E070E041E050E0861710F0A71329
S113213018C0982F969596959695E3E0F0E0EC0FED
S1132140FD1FE90FF11D982F97709A0102C0220F0D
S1132150331F9A95E2F7922F9095208192239083D2
S113216015C0982F969596959695E3E0F0E0EC0FC0
S1132170FD1FE90FF11D208130E0982F977002C0F8
S1132180359527959A95E2F720FD7F5F8F5F803321
S113219061F626E0AE014D5F5F4F60EBC80145DCA0
S11321A041E06FEFC801B1DB40E060E0C801ADDBA6
S11321B040E06FEFC801A9DB40E069E0C801A5DB9E
S11321C040E060E1C801A1DB40E061E1C8019DDBC2
S11321D041E064E2C80199DB4FEF65E2C80195DB99
S11321E040E065E7C80191DB41E06FEFC8018DDB9A
S11321F04CE26EE4C80189DB40E068E4C80185DB99
S113220040E260E3C80181DB40E06FEFC8017DDBA1
S113221049E060E3C80179DB40E064E5C80175DBAF
S113222044E061E3C80171DB43E062E3C8016DDBB4
S113223043E860E4C80169DB45E266E4C80165DBA4
S113224040E060E6C80161DB40E067E2C8015DDBB5
S113225046E060E5C80159DB40E061E5C80155DBB3
S113226046E962E5C80151DB48E066E5C8014DDB9B
S113227040E367E5C80149DB40E061E6C80145DBAE
S113228040E062E6C80141DB40E064E6C8013DDBB2
S113229040E065E6C80139DB40EA66E6C80135DBA3
S11322A041E06FEFC80131DB42E362E2C8012DDB9C
S11322B044E167E4C80129DB4FEF69E4C80125DB89
S11322C040E06AE4C80121DB40E06FEFC8011DDB98
S11322D04AE06AE7C80119DB40E06BE7C80115DB97
S11322E041E268E7C80111DB41E06FEFC8010DDB93
S11322F044E363E2C80109DB40E062E4C80105DBB2
S11323004FEF64E4C80101DB46E265E4C801FDDA8D
S113231045E066E4C801F9DA40E460E4C801F5DAAE
S113232046E06EE0C801F1DA4AE160E2C801EDDAA4
S113233040E463E4C801E9DA40E06FEFC801E5DA9C
S113234043E064E3C801E1DA44E465E3C801DDDAAB
S113235041E06FEFC801D9DA44E061E3C801D5DA9E
S113236049E06BE4C801D1DA45E06CE4C801CDDA98
S113237044E06DE4C801C9DA40E06FEFC801C5DA92
S113238040E064E4C801C1DA40E265E4C801BDDAB2
S113239048E067E4C801B9DA48E268E4C801B5DA9C
S11323A040E067E6C801B1DA44E060E7C801ADDAAD
S11323B041E061E7C801A9DA4EEF62E7C801A5DA96
S11323C040E066E7C801A1DA40E067E7C8019DDAAA
S11323D041E06FEFC80199DA41E06DE0C80195DA98
S11323E040E06FEFC80191DA41E060E8C8018DDA9E
S11323F048EF61E0C80189DA41E06FEFC80185DA8E
S113240041E06EE8C80181DA41E060E0C8017DDAAC
S113241040E06FEFC80179DA40E060E8C80175DA9E
S113242044E06AE0C80171DA64E8C801C2DA482FFE
S11324304F7E64E8C80169DA41E06BE0C80165DAFF
S113244048EE61E0C80161DA4EE150E060E070E01E
S1132450C80122DD41E061E0C80157DA60E4C80147
S1132460FADC882371F042E061E0C8014EDA60E0F2
S1132470C801F1DC882329F048EE61E0C80145DA9F
S113248081E028960FB6F894DEBF0FBECDBFDF9172
S1132490CF911F910F910895CF93DF93EC01613099
S11324A089F028F06230C9F0633011F12CC040E2A9
S11324B050E064E43EDA40E355E760E070E0CE01CA
S11324C0EBDC22C040E250E064E433DA40E45DE057
S11324D063E070E0CE01E0DC17C04CE050E064E45F
S11324E028DA48EE50E860E070E0CE01D5DC0CC09C
S11324F040E250E064E41DDA40E25EE460E070E053
S1132500CE01CADC01C080E0DF91CF910895CF9263
S1132510DF92EF92FF92CF93DF93EC016A017B018C
S113252041E060E8F2D941E06FEFCE01EED940E03E
S113253060E0CE01EAD94A8561E9CE01E6D941E0FD
S113254060E0CE01E2D940E06FEFCE01DED940E099
S113255060E8CE01DAD9C114D104E104F104A9F090
S113256068EFCE0141DA009731F0DC01A701960152
S11325707FD06B017C01A701960164E0CE01F3D901
S113258044E060E0CE01C1D904C042E060E0CE0185
S1132590BCD9DF91CF91FF90EF90DF90CF90089559
S11325A00F931F93CF93DF93EC0163E102DA8770FB
S11325B049F06EE1CE0118DA8C0141E06BE0CE0106
S11325C0A4D902C00FEF1FEFC801DF91CF911F9173
S11325D00F9108958091000190910101A091020151
S11325E0B09103010196A11DB11D80930001909348
S11325F00101A0930201B09303010895A1E21A2EF0
S1132600AA1BBB1BFD010DC0AA1FBB1FEE1FFF1F92
S1132610A217B307E407F50720F0A21BB30BE40BE2
S1132620F50B661F771F881F991F1A9469F7609529
S11326307095809590959B01AC01BD01CF010895E3
S1132640EE0FFF1F0024001C0BBE0790F691E02D37
S11326500994A29FB001B39FC001A39F700D811D77
S11326601124911DB29F700D811D1124911D089597
S1132670F0DFA59F900DB49F900DA49F800D911D38
S10B268011240895F894FFCF22
S9030000FC
