S0160000496D706C656D656E746174696F6E2E7372656348
S11300004CC000001FC1000027C100002FC1000028
S1130010F1C00000F9C0000001C1000009C10000E6
S11300200C94800A41C600007BC6000012C6000082
S1130030B3C5000026C5000084C50000F7C4000055
S11300404AC0000048C0000046C0000030C30000A1
S113005042C0000040C000003EC000003CC00000A0
S11300603AC0000038C0000036C0000034C00000B0
S113007032C0000030C000002EC000002CC00000C0
S11300802AC0000028C0000026C000009807A1076D
S1130090AA07B307BC07C507CE0711241FBECFEFBD
S11300A0D0E4DEBFCDBF11E0A0E0B1E0E6E9F5E2C7
S11300B000E00BBF02C007900D92A230B107D9F740
S11300C021E0A2E0B1E001C01D92AB35B207E1F737
S11300D003D00C94C91294CF69D00E94AB0A16D0F5
S11300E056D0FFCF8091020190910301A0910401A9
S11300F0B09105010196A11DB11D80930201909359
S11301000301A0930401B093050108950F931F9375
S1130110E8E0F1E088EE582F818383E08283138244
S1130120148281E0482F808360910A0170910B0151
S113013080910C0120D602E710E020E040910801F4
S11301405091090160910A0170910B0180910C0199
S11301500E94080920E04091080150910901609132
S11301600A0170910B0180910C0196D7409108010E
S11301705091090160910A0170910B0180910C0169
S113018046D778940E94AC101F910F9108956EE1A8
S113019070E080E090E00E94840D0E94BF0D8F3FCC
S11301A02FEF9207D1F30E94E30AF7CF80E885BFCF
S11301B085BF0895613061F028F0623079F06330D2
S11301C099F00895482F672F81E290E017C20895AF
S11301D0482F672F84E290E011C20895482F672FBB
S11301E087E290E00BC20895482F672F8AE290E0DF
S11301F005C208951F920F920FB60F9211240F900B
S11302000FBE0F901F9018951F920F920FB60F926A
S113021011240F900FBE0F901F9018951F920F92EC
S11302200FB60F9211240F900FBE0F901F901895C8
S11302301F920F920FB60F9211240F900FBE0F90C2
S11302401F9018951F920F920FB60F9211240F90C2
S11302500FBE0F901F9018951F920F920FB60F921A
S113026011240F900FBE0F901F9018951F920F929C
S11302700FB60F9211240F900FBE0F901F90189578
S11302800F931F93CF93DF93C62F172FD82F092FC8
S113029091DFD11123C0C13081F028F0C23099F030
S11302A0C330B9F01BC0402F612F82E290E0A6D189
S11302B0612F8EE790E0C6D111C0402F612F85E2F7
S11302C090E09CD10BC0402F612F88E290E096D142
S11302D005C0402F612F8BE290E090D1DF91CF9148
S11302E01F910F9108950F931F93CF93DF938B0169
S11302F09C01EA0160E072E18AE790E0A9019801BB
S11303000E948512BA01A90140515109610971097C
S1130310DB01CA01B695A795979587958F3F9105FF
S1130320A105B10509F010F4188232C0DB01CA013D
S1130330689412F8B695A795979587951694D1F772
S11303408F3F9105A105B10509F018F421E0288338
S11303501FC0DB01CA01689414F8B695A795979558
S113036087951694D1F78F3F9105A105B10509F042
S113037018F422E028830CC083E08883DB01CA01DF
S1130380689416F8B695A795979587951694D1F71E
S1130390DF91CF911F910F910895CF93DF931F9217
S11303A0CDB7DEB7AE014F5F5F4F9DDF8093B800DE
S11303B060E0898154D1482F60E089EB90E01ED140
S11303C061E089814CD1482F61E089EB90E016D13E
S11303D062E071E080E091E053DF62E070E080E091
S11303E091E04EDF0F90DF91CF91089562E08CEBA6
S11303F090E01CC10895FF920F931F93CF93DF9356
S1130400F82ECCEBD0E0888162E029D1288134E059
S1130410839FC0011124806A822B8883CEEFDFEF93
S11304200CEB10E0F801808167E019D1811133C031
S11304302197C1F78FEF3BC08091B900887F80314D
S113044021F08091B900887F32C0F092BB00CCEBE0
S1130450D0E0888162E003D1F4E08F9FC0011124D1
S113046080688883CEEFDFEF0CEB10E0F801808129
S113047067E0F5D0811115C02197C1F78FEF17C040
S11304808091B900887F803421F08091B900887F01
S11304900EC080E00CC08091B900887F883061F67E
S11304A0D4CF8091B900887F883151F780E0DF9103
S11304B0CF911F910F91FF9008959DCF08950F93B1
S11304C01F93CF93DF93CCEBD0E0888162E0C7D059
S11304D0288134E0839FC00111248069822B8883A2
S11304E0CEEFDFEF0CEB10E0F801808164E0B7D0D1
S11304F0882311F02197C1F7DF91CF911F910F91BC
S113050008950F931F93CF93DF938093BB00CCEB9D
S1130510D0E0888162E0A3D024E0829FC00111244E
S113052080688883CEEFDFEF0CEB10E0F801808168
S113053067E095D081110FC02197C1F78FEF11C0EB
S11305408091B900887F803421F08091B900887F40
S113055008C080E006C08091B900887F883181F7A7
S113056080E0DF91CF911F910F9108950F931F9316
S1130570CF93DF93CCEBD0E0888162E070D024E0AD
S1130580829FC0011124806C8883CEEFDFEF0CEBD7
S113059010E0F801808167E062D0882319F080912F
S11305A0BB0003C02197A9F78FEFDF91CF911F9173
S11305B00F9108950F931F93CF93DF93CCEBD0E06B
S11305C0888162E04CD024E0829FC00111248068BD
S11305D08883CEEFDFEF0CEB10E0F801808167E059
S11305E03ED0882319F08091BB0003C02197A9F75E
S11305F08FEFDF91CF911F910F910895FC01942FFC
S1130600208141E050E0062E02C0440F551F0A9499
S1130610E2F7409550952423492F50E002C0440F3F
S1130620551F6A95E2F7422B40830895FC014081EF
S113063021E030E002C0220F331F6A95E2F7242B39
S113064020830895FC01908121E030E002C0220F54
S1130650331F6A95E2F7209529232083089590E0BB
S113066002C0959587956A95E2F781700895CF92B7
S1130670DF92EF92FF9269017A019B01AC012C1980
S11306803D094E095F09A8EEB3E00E94BF12A7011D
S113069096010E948512C901992324F48827992779
S11306A0821B930BFF90EF90DF90CF9008951F92E1
S11306B00F920FB60F9211240BB60F928F939F9344
S11306C0EF93FF93E0911D01F0E08EB5E25EFE4FE3
S11306D0808380911D01893030F480911D018F5FEA
S11306E080931D0102C010921D0181E080931C01C2
S11306F090911A01809133019817A1F0E0911A01A9
S1130700F0E0E85DFE4F80818EBD80911A01893052
S113071030F480911A018F5F80931A0106C0109201
S11307201A0103C081E080933201FF91EF919F9100
S11307308F910F900BBE0F900FBE0F901F901895C6
S11307408F929F92AF92BF92EF92FF920F931F935B
S1130750CF93DF9300D000D01F92CDB7DEB748010E
S11307605901413021F0423009F488C04CC160E0A5
S113077072E18AE790E0A90198010E948512DA01EA
S1130780C9010197A109B109009721E0A207B105A8
S113079050F449EF5FEF6FEF70E0F701408351834E
S11307A06283738333C160E472E48FE090E0A50157
S11307B094010E948512DA01C9010197A109B109C6
S11307C00097F1E0AF07B10550F44AEF5FEF6FEF28
S11307D070E0F701408351836283738317C168E437
S11307E078EE81E090E0A50194010E948512DA017F
S11307F0C9010197A109B1090097F1E0AF07B1055B
S113080050F44CEF5FEF6FEF70E0F70140835183DA
S113081062837383FBC062E17AE780E090E0A50124
S113082094010E948512DA01C9010197A109B10955
S11308300097F1E0AF07B10550F44EEF5FEF6FEFB3
S113084070E0F7014083518362837383DFC08FEFCD
S11308509FEFAFEFB0E0F70180839183A283B3836E
S113086064E87EE180E090E0A50194010E94851295
S1130870DA01C9010197A109B109C8C060E072E1B8
S11308808AE790E0A90198010E948512DA01C90162
S11308900197A109B1098F3F9105A105B10509F09F
S11308A050F449EF5FEF6FEF70E0F701408351833D
S11308B062837383ABC060E472E48FE090E0A501CF
S11308C094010E948512DA01C9010197A109B109B5
S11308D08F3F9105A105B10509F050F44AEF5FEF90
S11308E06FEF70E0F70140835183628373838EC09E
S11308F060E970ED83E090E0A50194010E94851207
S1130900DA01C9010197A109B1098F3F9105A10538
S1130910B10509F050F44BEF5FEF6FEF70E0F701B2
S1130920408351836283738371C068E478EE81E00D
S113093090E0A50194010E948512DA01C901019792
S1130940A109B1098F3F9105A105B10509F050F442
S11309504CEF5FEF6FEF70E0F701408351836283E8
S1130960738354C064E274EF80E090E0A5019401C5
S11309700E948512DA01C9010197A109B1098F3FCB
S11309809105A105B10509F050F44DEF5FEF6FEF4C
S113099070E0F701408351836283738337C062E15F
S11309A07AE780E090E0A50194010E948512DA01C3
S11309B0C9010197A109B1098F3F9105A105B105AD
S11309C009F050F44EEF5FEF6FEF70E0F7014083F2
S11309D05183628373831AC08FEF9FEFAFEFB0E050
S11309E0F70180839183A283B38364E87EE180E08E
S11309F090E0A50194010E948512DA01C9010197D2
S1130A00A109B10903C080E090E0DC010F900F90D0
S1130A100F900F900F90DF91CF911F910F91FF9046
S1130A20EF90BF90AF909F908F9008951F920F9278
S1130A300FB60F9211240BB60F922F933F934F933F
S1130A405F936F937F938F939F93AF93BF93EF9332
S1130A50FF93E0913401F09135010995FF91EF91F5
S1130A60BF91AF919F918F917F916F915F914F91C2
S1130A703F912F910F900BBE0F900FBE0F901F90C0
S1130A8018951F920F920FB60F9211240BB60F9266
S1130A900F931F932F933F934F935F936F937F9382
S1130AA08F939F93AF93BF93CF93DF93EF93FF9372
S1130AB0C1E8D0E0888164E0D2DD182F888163E04A
S1130AC0CEDDC12FCC0FCC0FCC0F24E0829FC00110
S1130AD01124C82B00E810E0F801808161E0BFDD3B
S1130AE0D82FF801808160E0BADDDD0F8C2B8D2BCF
S1130AF0883018F4843019F408C080FD06C0E091F1
S1130B003601F0913701099505C0E0913401F09167
S1130B1035010995FF91EF91DF91CF91BF91AF918D
S1130B209F918F917F916F915F914F913F912F9101
S1130B301F910F910F900BBE0F900FBE0F901F903F
S1130B4018951F920F920FB60F9211240BB60F92A5
S1130B502F933F934F935F936F937F938F939F93C1
S1130B60AF93BF93EF93FF93E0913801F091390174
S1130B700995FF91EF91BF91AF919F918F917F91D3
S1130B806F915F914F913F912F910F900BBE0F90FA
S1130B900FBE0F901F9018951F920F920FB60F92D1
S1130BA011240BB60F920F931F932F933F934F93E0
S1130BB05F936F937F938F939F93AF93BF93CF93E1
S1130BC0DF93EF93FF93C1E8D0E0888164E047DDD1
S1130BD0182F888163E043DDC12FCC0FCC0FCC0FDD
S1130BE024E0829FC0011124C82B00E810E0F80122
S1130BF0808161E034DDD82FF801808160E02FDD51
S1130C00DD0F8C2B8D2B883010F080FF06C0E09117
S1130C103A01F0913B01099505C0E0913401F0914E
S1130C2035010995FF91EF91DF91CF91BF91AF917C
S1130C309F918F917F916F915F914F913F912F91F0
S1130C401F910F910F900BBE0F900FBE0F901F902E
S1130C5018951F920F920FB60F9211240BB60F9294
S1130C602F933F934F935F936F937F938F939F93B0
S1130C70AF93BF93EF93FF93E0913E01F0913F0157
S1130C800995FF91EF91BF91AF919F918F917F91C2
S1130C906F915F914F913F912F910F900BBE0F90E9
S1130CA00FBE0F901F9018951F920F920FB60F92C0
S1130CB011240BB60F922F933F934F935F936F932F
S1130CC07F938F939F93AF93BF93EF93FF93809101
S1130CD0B10063E0C4DC81110BC08091B00083706B
S1130CE0823031F0E0914001F0914101099505C055
S1130CF0E0913E01F0913F010995FF91EF91BF9181
S1130D00AF919F918F917F916F915F914F913F919F
S1130D102F910F900BBE0F900FBE0F901F90189540
S1130D201F920F920FB60F9211240BB60F922F93AE
S1130D303F934F935F936F937F938F939F93AF935F
S1130D40BF93EF93FF93E0914201F0914301099522
S1130D50FF91EF91BF91AF919F918F917F916F918F
S1130D605F914F913F912F910F900BBE0F900FBE4B
S1130D700F901F901895EF92FF920F931F93CF93AC
S1130D80DF93CDB7DEB729970FB6F894DEBF0FBE59
S1130D90CDBF4D835E836F83788789870E811F81E2
S1130DA02885398519821A821B821C82413021F0E0
S1130DB0423009F495C01EC1093F8FEF1807280778
S1130DC0310528F009831A832B833C8315C0CE0197
S1130DD001967C014D815E816F8178858985B0DCC7
S1130DE0909387008093860064E081E890E01EDCA5
S1130DF063E081E890E01ADC89819A81AB81BC814F
S1130E008C3F2FEF9207A207B10559F160F4893F97
S1130E102FEF9207A207B10591F08A3F9F4FAF4F82
S1130E20B105B1F038C08E3F2FEF9207A207B1058C
S1130E3009F18F3F9F4FAF4FB10529F12CC081E0DD
S1130E4090E0A0E0B0E089839A83AB83BC8323C0A5
S1130E5082E090E0A0E0B0E089839A83AB83BC8316
S1130E601AC083E090E0A0E0B0E089839A83AB836A
S1130E70BC8311C084E090E0A0E0B0E089839A8351
S1130E80AB83BC8308C085E090E0A0E0B0E0898338
S1130E909A83AB83BC8349815A816B817C8176952B
S1130EA067955795479576956795579547954170FA
S1130EB062E08CE391E0A2DB49815A816B817C8101
S1130EC07695679557954795417061E08CE391E07D
S1130ED095DB4981417060E08CE391E08FDB8AC04F
S1130EE0093F8FEF18072807310528F009831A8373
S1130EF02B833C830FC0CE0101967C014D815E8122
S1130F006F81788589851CDC8093B30061E080EB78
S1130F1090E08CDB89819A81AB81BC81FC0137969E
S1130F20E730F10508F042C0EA5BFF4F0C94A712CA
S1130F3081E090E0A0E0B0E089839A83AB83BC8336
S1130F4035C082E090E0A0E0B0E089839A83AB836F
S1130F50BC832CC083E090E0A0E0B0E089839A8356
S1130F60AB83BC8323C084E090E0A0E0B0E089833D
S1130F709A83AB83BC831AC085E090E0A0E0B0E024
S1130F8089839A83AB83BC8311C086E090E0A0E0A0
S1130F90B0E089839A83AB83BC8308C087E090E088
S1130FA0A0E0B0E089839A83AB83BC8349815A81F2
S1130FB06B817C817695679557954795769567956E
S1130FC057954795417062E08DE391E017DB4981C5
S1130FD05A816B817C8176956795579547954170C9
S1130FE061E08DE391E00ADB4981417060E08DE3CB
S1130FF091E004DB29960FB6F894DEBF0FBECDBF97
S1131000DF91CF911F910F91FF90EF900895CF93AF
S1131010DF9300D000D01F92CDB7DEB7413019F076
S11310204230D1F031C040913C0142FB442740F9A9
S113103062E081E890E0E2DA40913C01469541703B
S113104061E081E890E0DADA40913C01417060E0CF
S113105081E890E0D3DA18C040913D0142FB442777
S113106040F962E081EB90E0C9DA40913D01469598
S1131070417061E081EB90E0C1DA40913D01417043
S113108060E081EB90E0BADA0F900F900F900F9030
S11310900F90DF91CF910895CF92DF92EF92FF925C
S11310A00F931F93CF93DF9300D000D01F92CDB73F
S11310B0DEB749835A836B837C838D83022F41304F
S11310C021F0423009F45EC095C00F2EF1E8EF2EF6
S11310D0F12CF02DF701808164E0C1DA182FF701BB
S11310E0808163E0BCDA110F110F110FF4E08F9FC0
S11310F0C0011124182B6894CC24C7F8D12CF60114
S1131100808161E0ACDAF82EF601808160E0A7DA34
S1131110FF0C812B8F290130D9F028F0023021F106
S1131120033039F167C0883038F4843061F060E00E
S11311308FE690E07BDA5EC080FD05C065E08FE657
S113114090E074DA57C061E08FE690E06FDA52C045
S1131150883018F4843019F44DC080FD4BC061E030
S11311608FE690E063DA46C062E08FE690E05EDAF4
S113117041C0883010F080FF3DC065E08FE690E00C
S113118055DA38C08091B10063E069DA182F0F2E68
S1131190F0EBEF2EF12CF02DF701808161E05FDAA6
S11311A0110F110F880F182BF701808160E057DAB7
S11311B0812B013091F018F00230C1F01BC0843053
S11311C038F4823029F060E080E790E02FDA12C032
S11311D061E080E790E02ADA0DC0843058F4823070
S11311E049F061E080E790E021DA04C062E080E742
S11311F090E01CDA0F900F900F900F900F90DF91FA
S1131200CF911F910F91FF90EF90DF90CF900895B1
S11312100F931F93CF93DF9300D000D01F92CDB7CD
S1131220DEB7413019F0423051F011C0E22FF0E046
S1131230EE0FFF1FEC5CFE4F1183008308C0E22F0A
S1131240F0E0EE0FFF1FE25CFE4F118300830F906E
S11312500F900F900F900F90DF91CF911F910F91EE
S113126008954F925F926F927F928F929F92AF9266
S1131270BF92CF92DF92EF92FF92CF93DF934B0115
S11312805C01EA010F2EF0E24F2EF1EA5F2EF7E047
S11312906F2E712CF02DC301B201A50194010E949F
S11312A0851269017A01C301B2010E948512CA0143
S11312B0B901A5019401DBD9449730F4D701C601E3
S11312C00197A109B1090FC081E0888360E472E449
S11312D08FE090E0A50194010E948512DA01C90112
S11312E00197A109B109DF91CF91FF90EF90DF90B1
S11312F0CF90BF90AF909F908F907F906F905F90B2
S11313004F9008950F931F93CF93DF93CDB7DEB71C
S11313102B970FB6F894DEBF0FBECDBF0A831B8395
S11313202C833D834E835F83688779878A879B8775
S1131330198201117CC0192FE2ECF0E080818F73D7
S113134080836B817C818D819E81AE014F5F5F4F75
S113135088DF9093C5008093C400498161E080ECEC
S113136090E04CD98985823031F128F4882349F002
S11313708130A1F046C0833059F1843009F435C07E
S113138040C061E082EC90E05DD962E082EC90E0E4
S113139059D962E081EC90E055D933C061E082EC28
S11313A090E044D962E082EC90E04CD962E081ECB8
S11313B090E048D926C061E082EC90E043D962E035
S11313C082EC90E033D962E081EC90E03BD919C023
S11313D061E082EC90E02AD962E082EC90E026D9C8
S11313E062E081EC90E02ED90CC061E082EC90E0E8
S11313F01DD962E082EC90E019D962E081EC90E0C2
S113140015D94A8563E082EC90E0F8D8123031F4C3
S1131410E2ECF0E080818F7C808309C065E082EC9F
S113142090E004D9412F64E082EC90E0E7D82B9659
S11314300FB6F894DEBF0FBECDBFDF91CF911F91E1
S11314400F9108950F931F93CF93DF93CDB7DEB71A
S11314502A970FB6F894DEBF0FBECDBF6F8301117C
S11314600AC0452F64E081EC90E0C8D84F8163E066
S113147081EC90E0C3D82A960FB6F894DEBF0FBE75
S1131480CDBFDF91CF911F910F910895EF92FF92FD
S11314900F931F93CF93DF93CDB7DEB72A970FB681
S11314A0F894DEBF0FBECDBF09831A832B833C8320
S11314B04D835E836F83788789879A87011113C070
S11314C000EC10E0F801808165E0C9D88823D1F3ED
S11314D08885843031F44F2D417060E081EC90E0D8
S11314E08DD8E092C6002A960FB6F894DEBF0FBEE0
S11314F0CDBFDF91CF911F910F91FF90EF90089591
S11315001F920F920FB60F9211240BB60F922F93C6
S11315103F934F935F936F937F938F939F93AF9377
S1131520BF93EF93FF93E0914401F0914501099536
S1131530FF91EF91BF91AF919F918F917F916F91A7
S11315405F914F913F912F910F900BBE0F900FBE63
S11315500F901F9018950F931F93E6E4F1E080E03D
S1131560182F818381EE82831382148283E0782F83
S1131570878392E0918710821086158281E0682F1C
S1131580868300E0209148013091490140914A014D
S113159050E080E0B7DE00914601109147012091B0
S11315A048013091490140914A0150914B016091A9
S11315B04C0170914D0180914E0190914F0142DF99
S11315C01F910F910895CF92DF92EF92FF920F93A4
S11315D01F93CF93DF93EC019C01329522952F70DA
S11315E023273F702327A7E4B3E0BAD77C01F694FE
S11315F0E794F694E794F694E7949701ADECBCEC89
S1131600AFD79695879596958795969587959C01DE
S1131610220F331F880F991F880F991F880F991F56
S1131620820F931FE81AF90A80E3E80EF11C009177
S113163046011091470120914801309149014091A0
S11316404A0150914B0160914C0170914D01809180
S11316504E0190914F011ADF9E01369527953695DC
S1131660279536952795A5ECB0E27AD77C01F694B8
S1131670E794F694E794F694E794F694E794970144
S1131680ADECBCEC6DD79695879596958795969518
S113169087959C01220F331F880F991F880F991F6C
S11316A0880F991F820F931FE81AF90A80E3E80E46
S11316B0F11C00914601109147012091480130919D
S11316C0490140914A0150914B0160914C01709144
S11316D04D0180914E0190914F01D8DE9E013695C7
S11316E0279536952795ABE7B4E13AD77C01F69474
S11316F0E7949701ADECBCEC33D796958795969516
S11317008795969587959C01220F331F880F991F03
S1131710880F991F880F991F820F931FE81AF90ADF
S113172080E3E80EF11C00914601109147012091DD
S113173048013091490140914A0150914B01609117
S11317404C0170914D0180914E0190914F019EDEAC
S11317509E01ADECBCEC04D76C01D694C794D6942E
S1131760C794D694C7949601FBD69695879596957B
S11317708795969587959C01220F331F880F991F93
S1131780880F991F880F991F820F931F7601E81AFB
S1131790F90A80E3E80EF11C00914601109147011B
S11317A0209148013091490140914A0150914B01E7
S11317B060914C0170914D0180914E0190914F01C7
S11317C065DEC601880F991FCC0CDD1CCC0CDD1C1A
S11317D0CC0CDD1CC80ED91E7E01EC18FD0880E37C
S11317E0E80EF11C00914601109147012091480137
S11317F03091490140914A0150914B0160914C0153
S113180070914D0180914E0190914F013FDE0F2E5A
S1131810FAE0EF2EF12CF02D0091460110914701D2
S1131820209148013091490140914A0150914B0166
S113183060914C0170914D0180914E0190914F0146
S113184025DEDF91CF911F910F91FF90EF90DF90F4
S1131850CF9008950F931F93009719F1AC01415055
S1131860510960E070E0DB01CA018827892B8A2BCB
S11318708B2B79F080E090E07695679557954795A6
S113188001968A019B010027012B022B032BA1F750
S113189002C080E090E0982F88275527842B952B51
S11318A002C080E090E01F910F91089580910201A1
S11318B090910301A0910401B0910501909351010D
S11318C08093500108950F931F9340910601509106
S11318D0070141155105D1F0009102011091030156
S11318E020910401309105018091500190915101A2
S11318F0081B190B2109310960E070E081E04017F1
S113190051076207730718F080E001C080E01F915F
S11319100F910895CF93DF93D82FC62F80910001A4
S1131920880F0E94FB018D2F0E9481028C2F0E9440
S113193081020E945F02DF91CF9108951F93CF939C
S1131940DF93182FC62FD72F80910001880F0E9494
S1131950FB01812F0E9481028D2F0E9481028C2F16
S11319600E9481020E945F02DF91CF911F9108952E
S1131970FF920F931F93CF93DF93F82EC42FD52F8D
S1131980162F072F80910001880F0E94FB018F2DD5
S11319900E948102802F0E948102812F0E94810275
S11319A08D2F0E9481028C2F0E9481020E945F026F
S11319B0DF91CF911F910F91FF900895CF93C82F7E
S11319C080910001880F0E94FB018C2F0E948102EC
S11319D080910001880F81600E945D020E94DA02FA
S11319E0C82F0E945F028C2FCF910895CF93DF936D
S11319F0C82F80910001880F0E94FB018C2F0E9448
S1131A00810280910001880F81600E945D020E9422
S1131A10B602C82FD0E0DC2FCC270E94DA02C82BF4
S1131A200E945F02CE01DF91CF910895EF92FF9261
S1131A300F931F93CF93DF93D82F7B01C42F8091F3
S1131A400001880F0E94FB018D2F0E9481028FEFFD
S1131A508C0FCC2369F0E701082F10E00F5F1F4FB4
S1131A600E0D1F1D89910E948102C017D107D1F765
S1131A700E945F02DF91CF911F910F91FF90EF9031
S1131A800895FF920F931F93CF93DF93182FF62E91
S1131A90D72FC42F80910001880F0E94FB01812F52
S1131AA00E94810280910001880F81600E945D0282
S1131AB0CC2391F00F2D1D2FC23028F00E94B602C6
S1131AC0F801808304C00E94DA02F8018083C150C7
S1131AD00F5F1F4FC111F0CF0E945F02DF91CF91C2
S1131AE01F910F91FF900895811105C080E566DF75
S1131AF08F5F880F0895813029F480E75FDF8F5F5F
S1131B00880F08958FEF0895CF92DF92EF92FF929E
S1131B106B017C0161E080E8FDDE61E08FEFFADEBD
S1131B2060E080E0F7DE6091520181E9F3DE61E07C
S1131B3080E0F0DE60E08FEFEDDE60E080E8EADE7A
S1131B40C114D104E104F10491F088EF4FDF009750
S1131B5031F0DC01A701960112D56B017C01B701BC
S1131B60A60184E005DF64E080E0D4DE03C062E027
S1131B7080E0D0DEFF90EF90DF90CF900895CF9378
S1131B80DF9383E11BDF877039F08EE12FDFEC01F7
S1131B9061E08BE0BFDE02C0CFEFDFEFCE01DF916B
S1131BA0CF9108950F931F93CF93DF938C01EB0193
S1131BB061E080E8AFDE61E08FEFACDE60E080E002
S1131BC0A9DE66E08FEFA6DE83E8F8DE682F6460A6
S1131BD083E8A0DE67E08FEF9DDE61E081E89ADEB6
S1131BE061E080E897DE6BE684E994DE60E083E8F8
S1131BF091DE5CDE03C067DE81112BC083E8DEDE8C
S1131C008823C9F361E083E885DE82E9D7DE982F73
S1131C109F77F8019083881F8827881F888360E056
S1131C2081E878DE66E08FEF75DE83E8C7DE682F33
S1131C306B7F83E86FDE61E08FEF6CDE61E080E054
S1131C4069DE60E08FEF66DE60E080E863DE81E0FD
S1131C5001C080E0DF91CF911F910F910895CF9340
S1131C60DF93EC0181E0AADE84FB992790F9988345
S1131C7083FB992790F99A8382FB992790F999839A
S1131C8086FB992790F99B83881F8827881F8C835C
S1131C90DF91CF9108952F923F924F925F926F926E
S1131CA07F928F929F92AF92BF92CF92DF92EF92E8
S1131CB0FF920F931F93CF93DF931C01EB0180E0FE
S1131CC013DF90E09983888386E478DE682E712C94
S1131CD02FEF621A720A7D826C82A881B0E020E044
S1131CE03FE24AE350E04BD44B015C01E4EF8E0E3B
S1131CF0E1E09E1EA11CB11C0F2EF8EECF2EF3E0E6
S1131D00DF2EE12CF12CF02DC501B401A7019601C1
S1131D10FCD3D30134D42B013C01C501B40120ED23
S1131D2037E040E050E0F1D3C301B201620F731F0A
S1131D30841F951FA7019601E8D32A873B874C8708
S1131D405D8781E553DE8C01112702C0000F111F4E
S1131D509A95E2F70F5F1F4F1F830E83A881B0E0AF
S1131D6020E03FE24AE350E00AD44B015C01F4EF87
S1131D708F0EF1E09F1EA11CB11CC501B401A70187
S1131D809601C3D3D801FBD32B013C01C501B40197
S1131D9020ED37E040E050E0B8D3C301B201620F58
S1131DA0731F841F951FA7019601AFD32E873F870A
S1131DB0488B598B81E098DE90E09B838A8381E78E
S1131DC015DE9C01992702C0880F991F3A95E2F706
S1131DD0019699878887F1012381222331F02E818E
S1131DE03F81821B930B99878887AA81B0E020E00A
S1131DF03FE24AE350E0C3D36B017C01F4EFCF0E22
S1131E00F1E0DF1EE11CF11C088519850F2EF8EEA8
S1131E108F2EF3E09F2EA12CB12CF02DC701B6011B
S1131E20A501940172D3D801AAD32B013C01C701A7
S1131E30B60120ED37E040E050E067D3C301B201C2
S1131E40620F731F841F951FA50194015ED32A8B13
S1131E503B8B4C8B5D8BDF91CF911F910F91FF904A
S1131E60EF90DF90CF90BF90AF909F908F907F9036
S1131E706F905F904F903F902F9008954F925F9294
S1131E806F927F928F929F92AF92BF92CF92DF9286
S1131E90EF92FF921F93CF93DF93CDB7DEB76B978B
S1131EA00FB6F894DEBF0FBECDBF60322EE47207CA
S1131EB08105910508F4A3C06B017C01CE01019654
S1131EC0CEDEBE016A5F7F4FCE010196E4DE8981DA
S1131ED0882349F088899989AA89BB898A5C944FA7
S1131EE0AF4FBF4F04C088EE98E0A0E0B0E02B8174
S1131EF0222389F0488959896A897B894E545D4F28
S1131F006F4F7F4F440F551F661F771F840F951F18
S1131F10A61FB71F0FC02A81222361F0488959895F
S1131F206A897B894C565D4F6F4F7F4F840F951F95
S1131F30A61FB71F1C81112361F04C895D896E892E
S1131F407F894C565D4F6F4F7F4F840F951FA61F9F
S1131F50B71F2D81222309F454C02C013D0126E230
S1131F60420E22E0521E611C711CC414D504E60406
S1131F70F70408F448C0A885B0E020E03FE24AE353
S1131F8050E0FDD24B015C0124EF820E21E0921E51
S1131F90A11CB11CA701960124193509460957094A
S1131FA0A8EEB3E0ECD22B013C01C501B40120ED55
S1131FB037E040E050E0A9D2420E531E641E751E65
S1131FC0C501B40128EE33E040E050E09ED2C301E5
S1131FD0B2019BD2C901112321F08C859D85820F0A
S1131FE0931F38DCBC0181E7A9DCC0925701D09271
S1131FF05801E0925901F0925A0181E005C080E055
S113200003C081E001C080E06B960FB6F894DEBF98
S11320100FBECDBFDF91CF911F91FF90EF90DF9066
S1132020CF90BF90AF909F908F907F906F905F9074
S11320304F9008950F931F93CF93DF93CDB7DEB7DF
S11320406B970FB6F894DEBF0FBECDBFCE010196DD
S113205006DEBE016A5F7F4FCE0101961CDE8981D8
S1132060882359F088899989AA89BB89BC01CD0143
S11320706C57724F8F4F9F4F04C066E37BE080E044
S113208090E02B81222389F0088919892A893B89C8
S11320900E541D4F2F4F3F4F000F111F221F331F90
S11320A0600F711F821F931F0FC02A81222361F0CA
S11320B0088919892A893B890C561D4F2F4F3F4F98
S11320C0600F711F821F931F2C81222361F00C89E2
S11320D01D892E893F890C561D4F2F4F3F4F600F8E
S11320E0711F821F931F2D81222361F0088D198D8A
S11320F02A8D3B8D0A5D1D4F2F4F3F4F600F711F7F
S1132100821F931F60935701709358018093590164
S113211090935A016B960FB6F894DEBF0FBECDBFF5
S1132120DF91CF911F910F910895682F616080E036
S1132130F1DBBCDB03C0C7DB81110CC083E13EDCF7
S11321408770C9F361E08BE0E5DB60E080E0E2DB0F
S113215081E0089580E00895CF93DF93CDB7DEB793
S113216028970FB6F894DEBF0FBECDBF80E89AE182
S1132170A6E0B0E08093530190935401A0935501DD
S1132180B093560160E87AE186E090E00E94CD01C8
S11321900E94F60189E812DC682F616089E8BADBE5
S11321A060E088E8B7DB61E080E8B4DB61E08FEFF2
S11321B0B1DB60E080E0AEDB81E900DC80935201BA
S11321C061E080E0A7DB60E08FEFA4DB60E080E803
S11321D0A1DB80E6F3DB682F626180E69BDB60E2D3
S11321E070E084E4ABDB6FEF81E094DBBE016E5FF3
S11321F07F4FCE010196D6DC882309F47DC146E0E9
S1132200BE016D5F7F4F80EB3CDC61E08FEF82DBD2
S113221060E08FE47FDB6CE28EE47CDB60E08FEFD8
S113222079DB64EB86EB76DB8A81811102C060E0A6
S113223001C06CE0A98180E070E041E050E08617C5
S113224010F0A71318C0982F969596959695E3E0ED
S1132250F0E0EC0FFD1FE90FF11D982F97709A0124
S113226002C0220F331F9A95E2F7922F9095208196
S11322709223908315C0982F969596959695E3E0B2
S1132280F0E0EC0FFD1FE90FF11D208130E0982FE5
S1132290977002C0359527959A95E2F720FD7F5FE8
S11322A08F5F803361F646E0BE016D5F7F4F80EB48
S11322B0BDDB61E08FEF2EDB60E080E02BDB60E0D4
S11322C08FEF28DB60E089E025DB60E080E122DB42
S11322D060E081E11FDB61E084E21CDB6FEF85E2FB
S11322E019DB60E085E716DB61E08FEF13DB6CE25E
S11322F08EE410DB60E088E40DDB60E280E30ADB5F
S113230060E08FEF07DB69E080E304DB60E084E5F5
S113231001DB64E081E3FEDA63E082E3FBDA63E895
S113232080E4F8DA65E286E4F5DA60E080E6F2DA81
S113233060E087E2EFDA66E080E5ECDA60E081E510
S1132340E9DA66E982E5E6DA68E086E5E3DA60E39D
S113235087E5E0DA60E081E6DDDA60E082E6DADA99
S113236060E084E6D7DA60E085E6D4DA60EA86E6FF
S1132370D1DA61E08FEFCEDA62E382E2CBDA64E1B4
S113238087E4C8DA6FEF89E4C5DA60E08AE4C2DA88
S113239060E08FEFBFDA6AE08AE7BCDA60E08BE7DF
S11323A0B9DA61E288E7B6DA61E08FEFB3DA64E3C1
S11323B083E2B0DA60E082E4ADDA6FEF84E4AADAB3
S11323C066E285E4A7DA65E086E4A4DA60E480E402
S11323D0A1DA66E08EE09EDA6AE180E29BDA60E4EC
S11323E083E498DA60E08FEF95DA63E084E392DACD
S11323F064E485E38FDA61E08FEF8CDA64E081E3F3
S113240089DA69E08BE486DA65E08CE483DA64E0F7
S11324108DE480DA60E08FEF7DDA60E084E47ADADC
S113242060E285E477DA68E087E474DA68E288E4F5
S113243071DA60E087E66EDA64E080E76BDA61E027
S113244081E768DA6EEF82E765DA60E086E762DAF0
S113245060E087E75FDA61E08FEF5CDA61E08DE0EE
S113246059DA60E08FEF56DA61E080E853DA68EF1A
S113247081E050DA61E08FEF4DDA61E08EE84ADA0C
S113248061E080E047DA60E08FEF44DA60E080E802
S113249041DA64E08AE03EDA84E890DA682F6F7EFD
S11324A084E838DA61E08BE035DAC4DD6093570103
S11324B0709358018093590190935A0168EE81E01A
S11324C029DA6091570170915801809159019091D6
S11324D05A01D4DC61E081E01DDA80E426DE882341
S11324E059F062E081E016DA80E01FDE882321F0F3
S11324F068EE81E00FDA81E028960FB6F894DEBF2B
S11325000FBECDBFDF91CF910895A1E21A2EAA1B71
S1132510BB1BFD010DC0AA1FBB1FEE1FFF1FA2178F
S1132520B307E407F50720F0A21BB30BE40BF50B8C
S1132530661F771F881F991F1A9469F76095709515
S1132540809590959B01AC01BD01CF010895EE0FDC
S1132550FF1F0024001C0BBE0790F691E02D099488
S1132560A29FB001B39FC001A39F700D811D1124D0
S1132570911DB29F700D811D1124911D0895F0DFEE
S1132580A59F900DB49F900DA49F800D911D1124C3
S10925900895F894FFCF4A
S1052596290016
S9030000FC
