S0160000496D706C656D656E746174696F6E2E7372656348
S11300004CC00000FEC0000006C100000EC100008C
S1130010D0C00000D8C00000E0C00000E8C000006C
S11300200C945C0A0FC6000049C60000E0C500003D
S113003081C50000F4C4000052C50000C5C400001E
S11300403DC000003BC0000039C000000AC30000EE
S11300500C9493080C94ED080C944A092FC00000EA
S11300602DC000002BC0000029C0000027C00000E4
S113007025C0000023C0000021C000001FC00000F4
S11300801DC000001BC0000019C0000065076E07FA
S113009077078007890792079B0711241FBECFEFBC
S11300A0D0E4DEBFCDBF21E0A0E0B1E001C01D92ED
S11300B0A338B207E1F73DD00C94D10BA1CF0F9335
S11300C01F93E0E0F1E0108280E8182F818385E23D
S11300D082831382148283E0782F878392E091874E
S11300E01086158281E0682F868300E0209102014A
S11300F0309103014091040150E080E00E947109B5
S1130100009100011091010120910201309103013D
S1130110409104015091050160910601709107011D
S113012080910801909109010E94360A1F910F9154
S113013008951BD0C4DF0E94870A78940E94E50AC0
S11301402FEF8BE792E9215080409040E1F700C007
S113015000000E94620B2FEF89E698E12150804055
S11301609040E1F700C00000E9CF80E885BF85BF7B
S11301700895613061F028F0623079F0633099F0CD
S11301800895482F672F81E290E001C10895482F18
S1130190672F84E290E0FBC00895482F672F87E221
S11301A090E0F5C00895482F672F8AE290E0EFC0F1
S11301B008951F920F920FB60F9211240F900FBE45
S11301C00F901F9018951F920F920FB60F92112443
S11301D00F900FBE0F901F9018951F920F920FB69D
S11301E00F9211240F900FBE0F901F9018951F921D
S11301F00F920FB60F9211240F900FBE0F901F9005
S113020018951F920F920FB60F9211240F900FBEE4
S11302100F901F9018951F920F920FB60F921124F2
S11302200F900FBE0F901F9018951F920F920FB64C
S11302300F9211240F900FBE0F901F901895EF92FC
S1130240FF920F931F93CF93DF93C62FF72ED82FD0
S1130250E92EE0E0F1E0108280E8182F818385E246
S113026082831382148283E0782F878392E09187BC
S11302701086158281E0682F868300E020910201B8
S1130280309103014091040150E080E00E94710923
S113029000910001109101012091020130910301AC
S11302A0409104015091050160910601709107018C
S11302B080910801909109010E94360A6C2F7F2DCC
S11302C08D2F9E2D56DFD11123C0C13081F028F02F
S11302D0C23099F0C330B9F01BC04E2D6F2D82E2AD
S11302E090E055D06F2D8EE790E075D011C04E2D63
S11302F06F2D85E290E04BD00BC04E2D6F2D88E220
S113030090E045D005C04E2D6F2D8BE290E03FD09C
S1130310DF91CF911F910F91FF90EF90089561307D
S113032059F028F0623069F0633081F00895672F46
S113033082E290E044C00895672F85E290E03FC0D8
S11303400895672F88E290E03AC00895672F8BE202
S113035090E035C00895613059F028F0623069F0BA
S1130360633081F00895672F82E290E034C00895ED
S1130370672F85E290E02FC00895672F88E290E010
S11303802AC00895672F8BE290E025C00895FC01F0
S1130390942F208141E050E0062E02C0440F551FE7
S11303A00A94E2F7409550952423492F50E002C067
S11303B0440F551F6A95E2F7422B40830895FC01D0
S11303C0408121E030E002C0220F331F6A95E2F73A
S11303D0242B20830895FC01908121E030E002C0A9
S11303E0220F331F6A95E2F720952923208308956D
S11303F090E002C0959587956A95E2F7817008951B
S1130400CF92DF92EF92FF9269017A019B01AC01D6
S11304102C193D094E095F09A8EEB3E00E94C70BF1
S1130420A70196010E948D0BC901992324F4882702
S11304309927821B930BFF90EF90DF90CF90089544
S1130440FC019B01DA010E94B80B9F0140E050E0DF
S11304500E948D0BC9010895CF93DF93EC0148816D
S113046059816A817B818C8154D48881813009F0DF
S113047062C08091880090918900892B49F0809115
S1130480880090918900909387008093860006C02D
S11304908FEF9FEF909387008093860064E081E85C
S11304A090E08DDF60E080E890E095DF8E81882326
S11304B019F0813051F019C063E081E890E07FDFEA
S11304C061E080E890E07BDF10C063E081E890E0C9
S11304D082DF8D81882329F061E080E890E07BDF72
S11304E004C061E080E890E06ADF8F81882371F0C6
S11304F067E080E890E063DF488566E080E890E0AC
S113050046DF63E075E081E090E099DE8985882329
S113051071F065E080E890E052DF4A8564E080E8AD
S113052090E035DF63E074E081E090E088DE1092D3
S11305300B0110920A01DF91CF910895EF92FF927F
S11305400F931F93CF93DF93CDB7DEB72B970FB6DF
S1130550F894DEBF0FBECDBF4E2D5F2D602F712FDF
S1130560822F22D52B960FB6F894DEBF0FBECDBFD7
S1130570DF91CF911F910F91FF90EF900895EF922B
S1130580FF920F931F93CF93DF93CDB7DEB72B97D3
S11305900FB6F894DEBF0FBECDBF4E2D5F2D602F7A
S11305A0712F822F46D52B960FB6F894DEBF0FBE5F
S11305B0CDBFDF91CF911F910F91FF90EF900895E0
S11305C0AF92CF92EF92FF920F931F93CF93DF934B
S11305D0CDB7DEB72B970FB6F894DEBF0FBECDBFF5
S11305E09E2DE982FA820B831C832D833E834F83E5
S11305F0588769877A878B87913021F58C2DC110B4
S113060010C0A0920B0140918600509187006A2D82
S113061070E084E690E014DF909389008093880072
S113062011C0813079F4A0920A0140918600509162
S113063087006A2D70E084E690E002DF90938B00DF
S113064080938A002B960FB6F894DEBF0FBECDBF01
S1130650DF91CF911F910F91FF90EF90CF90AF90CA
S113066008951F920F920FB60F9211240BB60F929A
S11306708F939F93EF93FF93E0911101F0E08EB578
S1130680EE5EFE4F808380911101893030F48091B9
S113069011018F5F8093110102C01092110181E05A
S11306A08093100190910E01809127019817A1F079
S11306B0E0910E01F0E0E45EFE4F80818EBD8091FA
S11306C00E01893030F480910E018F5F80930E010A
S11306D006C010920E0103C081E080932601FF91B1
S11306E0EF919F918F910F900BBE0F900FBE0F90C3
S11306F01F9018958F929F92AF92BF92EF92FF92A4
S11307000F931F93CF93DF9300D000D01F92CDB7E8
S1130710DEB748015901413021F0423009F483C069
S113072040C160E072E18AE790E0A9019801F5D741
S1130730DA01C9010197A109B109009721E0A207D3
S1130740B10550F449EF5FEF6FEF70E0F7014083BC
S113075051836283738328C160E472E48FE090E084
S1130760A5019401DAD7DA01C9010197A109B109F8
S11307700097F1E0AF07B10550F44AEF5FEF6FEF78
S113078070E0F70140835183628373830DC168E491
S113079078EE81E090E0A5019401BFD7DA01C901A8
S11307A00197A109B1090097F1E0AF07B10550F431
S11307B04CEF5FEF6FEF70E0F7014083518362838A
S11307C07383F2C062E17AE780E090E0A5019401CE
S11307D0A4D7DA01C9010197A109B1090097F1E091
S11307E0AF07B10550F44EEF5FEF6FEF70E0F70124
S11307F04083518362837383D7C08FEF9FEFAFEF42
S1130800B0E0F70180839183A283B38364E87EE13F
S113081080E090E0A501940180D7DA01C901019735
S1130820A109B109C1C060E072E18AE790E0A901C1
S1130830980173D7DA01C9010197A109B1098F3F62
S11308409105A105B10509F050F449EF5FEF6FEF91
S113085070E0F7014083518362837383A5C060E431
S113086072E48FE090E0A501940157D7DA01C90141
S11308700197A109B1098F3F9105A105B10509F0BF
S113088050F44AEF5FEF6FEF70E0F701408351835C
S11308906283738389C060E970ED83E090E0A50111
S11308A094013BD7DA01C9010197A109B1098F3F2E
S11308B09105A105B10509F050F44BEF5FEF6FEF1F
S11308C070E0F70140835183628373836DC068E4F1
S11308D078EE81E090E0A50194011FD7DA01C90107
S11308E00197A109B1098F3F9105A105B10509F04F
S11308F050F44CEF5FEF6FEF70E0F70140835183EA
S11309006283738351C064E274EF80E090E0A501D8
S1130910940103D7DA01C9010197A109B1098F3FF5
S11309209105A105B10509F050F44DEF5FEF6FEFAC
S113093070E0F701408351836283738335C062E1C1
S11309407AE780E090E0A5019401E7D6DA01C901D5
S11309500197A109B1098F3F9105A105B10509F0DE
S113096050F44EEF5FEF6FEF70E0F7014083518377
S11309706283738319C08FEF9FEFAFEFB0E0F7018D
S113098080839183A283B38364E87EE180E090E076
S1130990A5019401C2D6DA01C9010197A109B109DF
S11309A003C080E090E0DC010F900F900F900F9057
S11309B00F90DF91CF911F910F91FF90EF90BF9017
S11309C0AF909F908F9008951F920F920FB60F9241
S11309D011240BB60F922F933F934F935F936F9312
S11309E07F938F939F93AF93BF93EF93FF93E09184
S11309F02801F09129010995FF91EF91BF91AF91E1
S1130A009F918F917F916F915F914F913F912F9122
S1130A100F900BBE0F900FBE0F901F9018951F9252
S1130A200F920FB60F9211240BB60F920F931F93D0
S1130A302F933F934F935F936F937F938F939F93E2
S1130A40AF93BF93CF93DF93EF93FF93C1E8D0E0CD
S1130A50888164E0CDDC182F888163E0C9DCC12F74
S1130A60CC0FCC0FCC0F24E0829FC0011124C82BE3
S1130A7000E810E0F801808161E0BADCD82FF801C9
S1130A80808160E0B5DCDD0F8C2B8D2B883018F471
S1130A90843019F408C080FD06C0E0912A01F09169
S1130AA02B01099505C0E0912801F09129010995D0
S1130AB0FF91EF91DF91CF91BF91AF919F918F9172
S1130AC07F916F915F914F913F912F911F910F9162
S1130AD00F900BBE0F900FBE0F901F9018951F9292
S1130AE00F920FB60F9211240BB60F922F933F93D0
S1130AF04F935F936F937F938F939F93AF93BF9322
S1130B00EF93FF93E0912C01F0912D010995FF9152
S1130B10EF91BF91AF919F918F917F916F915F9171
S1130B204F913F912F910F900BBE0F900FBE0F90DE
S1130B301F9018951F920F920FB60F9211240BB6A7
S1130B400F920F931F932F933F934F935F936F9342
S1130B507F938F939F93AF93BF93CF93DF93EF9341
S1130B60FF93C1E8D0E0888164E042DC182F8881DB
S1130B7063E03EDCC12FCC0FCC0FCC0F24E0829F6E
S1130B80C0011124C82B00E810E0F801808161E065
S1130B902FDCD82FF801808160E02ADCDD0F8C2B5C
S1130BA08D2B883010F080FF06C0E0912E01F0916B
S1130BB02F01099505C0E0912801F09129010995BB
S1130BC0FF91EF91DF91CF91BF91AF919F918F9161
S1130BD07F916F915F914F913F912F911F910F9151
S1130BE00F900BBE0F900FBE0F901F9018951F9281
S1130BF00F920FB60F9211240BB60F922F933F93BF
S1130C004F935F936F937F938F939F93AF93BF9310
S1130C10EF93FF93E0913201F09133010995FF9135
S1130C20EF91BF91AF919F918F917F916F915F9160
S1130C304F913F912F910F900BBE0F900FBE0F90CD
S1130C401F9018951F920F920FB60F9211240BB696
S1130C500F922F933F934F935F936F937F938F9351
S1130C609F93AF93BF93EF93FF938091B10063E0A1
S1130C70BFDB81110BC08091B0008370823031F0F2
S1130C80E0913401F0913501099505C0E0913201FC
S1130C90F09133010995FF91EF91BF91AF919F912D
S1130CA08F917F916F915F914F913F912F910F9011
S1130CB00BBE0F900FBE0F901F9018951F920F92AE
S1130CC00FB60F9211240BB60F922F933F934F93AD
S1130CD05F936F937F938F939F93AF93BF93EF93A0
S1130CE0FF93E0913601F09137010995FF91EF915F
S1130CF0BF91AF919F918F917F916F915F914F9130
S1130D003F912F910F900BBE0F900FBE0F901F902D
S1130D101895EF92FF920F931F93CF93DF93CDB764
S1130D20DEB729970FB6F894DEBF0FBECDBF4D8353
S1130D305E836F83788789870E811F812885398533
S1130D4019821A821B821C82413021F0423009F43C
S1130D5095C01DC1093F8FEF18072807310528F0FA
S1130D6009831A832B833C8315C0CE0101967C0131
S1130D704D815E816F8178858985BCDC9093870085
S1130D808093860064E081E890E019DB63E081E809
S1130D9090E015DB89819A81AB81BC818C3F2FEF78
S1130DA09207A207B10559F160F4893F2FEF92072A
S1130DB0A207B10591F08A3F9F4FAF4FB105B1F043
S1130DC038C08E3F2FEF9207A207B10509F18F3F7C
S1130DD09F4FAF4FB10529F12CC081E090E0A0E016
S1130DE0B0E089839A83AB83BC8323C082E090E024
S1130DF0A0E0B0E089839A83AB83BC831AC083E00C
S1130E0090E0A0E0B0E089839A83AB83BC8311C0F7
S1130E1084E090E0A0E0B0E089839A83AB83BC8354
S1130E2008C085E090E0A0E0B0E089839A83AB83BA
S1130E30BC8349815A816B817C81769567955795EE
S1130E4047957695679557954795417062E080E39D
S1130E5091E09DDA49815A816B817C817695679511
S1130E6057954795417061E080E391E090DA4981BC
S1130E70417060E080E391E08ADA89C0093F8FEF36
S1130E8018072807310528F009831A832B833C832C
S1130E900FC0CE0101967C014D815E816F81788502
S1130EA0898528DC8093B30061E080EB90E087DAE9
S1130EB089819A81AB81BC81FC013796E730F105C9
S1130EC008F041C0EA5BFF4F4AC481E090E0A0E033
S1130ED0B0E089839A83AB83BC8335C082E090E021
S1130EE0A0E0B0E089839A83AB83BC832CC083E009
S1130EF090E0A0E0B0E089839A83AB83BC8323C0F5
S1130F0084E090E0A0E0B0E089839A83AB83BC8363
S1130F101AC085E090E0A0E0B0E089839A83AB83B7
S1130F20BC8311C086E090E0A0E0B0E089839A839E
S1130F30AB83BC8308C087E090E0A0E0B0E0898385
S1130F409A83AB83BC8349815A816B817C8176957A
S1130F506795579547957695679557954795417049
S1130F6062E081E391E013DA49815A816B817C81EB
S1130F707695679557954795417061E081E391E0D7
S1130F8006DA4981417060E081E391E000DA299654
S1130F900FB6F894DEBF0FBECDBFDF91CF911F9186
S1130FA00F91FF90EF900895CF93DF9300D000D07E
S1130FB01F92CDB7DEB7413019F04230D1F031C0C5
S1130FC04091300142FB442740F962E081E890E01F
S1130FD0DED9409130014695417061E081E890E0AE
S1130FE0D6D940913001417060E081E890E0CFD9DA
S1130FF018C04091310142FB442740F962E081EB83
S113100090E0C5D9409131014695417061E081EB92
S113101090E0BDD940913101417060E081EB90E0F6
S1131020B6D90F900F900F900F900F90DF91CF9142
S11310300895CF93DF9300D000D01F92CDB7DEB7D1
S113104049835A836B837C838D83413019F042300A
S113105059F013C0E1E8F0E080818770809330019B
S11310608081887F808309C0E1EBF0E08081877014
S1131070809331018081887F80830F900F900F903F
S11310800F900F90DF91CF9108954F925F926F92DE
S11310907F928F929F92AF92BF92CF92DF92EF9204
S11310A0FF92CF93DF934B015C01EA010F2EF0E234
S11310B04F2EF1EA5F2EF7E06F2E712CF02DC30155
S11310C0B201A501940129D369017A01C301B201D6
S11310D024D3CA01B901A501940192D9449730F4EB
S11310E0D701C6010197A109B1090EC081E0888327
S11310F060E472E48FE090E0A50194010ED3DA017C
S1131100C9010197A109B109DF91CF91FF90EF9037
S1131110DF90CF90BF90AF909F908F907F906F9013
S11311205F904F9008951F920F920FB60F92112463
S11311300BB60F922F933F934F935F936F937F93CD
S11311408F939F93AF93BF93EF93FF938091C100CD
S113115062E04ED9813099F4E0913A01F0E0809157
S1131160C1002091C600827090E0982F8827822BBE
S1131170EE0FFF1FE55CFE4F918380830CC0E0916E
S11311803A01F0E08091C60090E0EE0FFF1FE55CAD
S1131190FE4F9183808380913A01893030F48091AD
S11311A03A018F5F80933A0102C010923A0181E0C4
S11311B080935001FF91EF91BF91AF919F918F91D7
S11311C07F916F915F914F913F912F910F900BBE43
S11311D00F900FBE0F901F9018951F920F920FB68D
S11311E00F9211240BB60F922F933F934F935F935B
S11311F06F937F938F939F93AF93BF93EF93FF93DB
S11312009091390180913801981769F18091C1005A
S113121062E0EED8813079F4E0913901F0E0EE0F2C
S1131220FF1FEF5AFE4F80819181E1ECF0E0808155
S11312309170892B8083E0913901F0E0EE0FFF1F5C
S1131240EF5AFE4F808191818093C60080913901CD
S1131250893030F4809139018F5F8093390107C060
S11312601092390104C065E081EC90E0B4D8FF919C
S1131270EF91BF91AF919F918F917F916F915F910A
S11312804F913F912F910F900BBE0F900FBE0F9077
S11312901F9018951F920F920FB60F9211240BB640
S11312A00F928F939F93EF93FF9380E090E0FC0164
S11312B0EE0FFF1FEF5AFE4F1182108201968A3003
S11312C09105A9F71092390110923801FF91EF911D
S11312D09F918F910F900BBE0F900FBE0F901F9098
S11312E018950F931F93CF93DF93CDB7DEB72B974A
S11312F00FB6F894DEBF0FBECDBF0A831B832C83C9
S11313003D834E835F83688779878A879B871982A9
S11313100111A1C0192FE2ECF0E080818F7380836A
S11313206B817C818D819E81AE014F5F5F4FADDE0D
S11313309093C5008093C400498161E080EC90E003
S113134026D88985823031F128F4882349F0813008
S1131350A1F049C0833059F1843009F435C043C049
S113136061E082EC90E037D862E082EC90E033D820
S113137062E081EC90E02FD836C061E082EC90E02E
S11313801ED862E082EC90E026D862E081EC90E026
S113139022D829C061E082EC90E01DD862E082ECA2
S11313A090E00DD862E081EC90E015D81CC061E0BB
S11313B082EC90E004D862E082EC90E000D862E035
S11313C081EC90E008D80FC061E082EC90E00E94CC
S11313D0DF0162E082EC90E00E94DF0162E081ECD8
S11313E090E00E94DF014A8563E082EC90E00E9475
S11313F0C701123031F4E2ECF0E080818F7C80830D
S11314000BC065E082EC90E00E94DF01412F64E0B4
S113141082EC90E00E94C7018F81882359F01092DA
S11314204F0110923A011092500167E081EC90E074
S11314300E94DF018885882371F010923801109290
S1131440390166E081EC90E00E94DF0165E081EC07
S113145090E00E94DF012B960FB6F894DEBF0FBE1A
S1131460CDBFDF91CF911F910F9108950F931F93DB
S1131470CF93DF93CDB7DEB72A970FB6F894DEBFCC
S11314800FBECDBF6F8301110CC0452F64E081EC0A
S113149090E00E94C7014F8163E081EC90E00E94DC
S11314A0C7012A960FB6F894DEBF0FBECDBFDF91F9
S11314B0CF911F910F9108951F920F920FB60F9223
S11314C011240BB60F922F933F934F935F936F9317
S11314D07F938F939F93AF93BF93EF93FF93E09189
S11314E06501F09166010995FF91EF91BF91AF916C
S11314F09F918F917F916F915F914F913F912F9128
S11315000F900BBE0F900FBE0F901F901895EBE637
S1131510F1E081E0828393E0908322E021831382CF
S1131520E7E6F1E08283908326E021831382EFE6ED
S1131530F1E08283908391831382E3E7F1E040E258
S11315405EE460E070E0418352836383748380834C
S113155095E0A8E7B1E001900D929A95E1F7E8E7EC
S1131560F1E0158216828783108681871286609146
S11315706B0170916C0180916D0190916E010E94DC
S11315801F016091670170916801809169019091D8
S11315906A010E941F0160916F0170917001809136
S11315A07101909172010E941F0140917301509149
S11315B07401609175017091760180917701A9DBC6
S11315C088E791E00C942C020895AF92CF92EF92A9
S11315D0FF920F931F93CF936091670170916801FD
S11315E08091690190916A010E94AB0160916F0141
S11315F07091700180917101909172010E94AB0110
S113160060916B0170916C0180916D0190916E01FC
S11316100E948F01E0907801F090790100917A01A5
S113162010917B0120917C0130917D0140917E01DC
S113163050917F01609180017091810180918201BC
S11316400E949E02C0E0AC2EC12CE0907801F09084
S1131650790100917A0110917B0120917C013091F4
S11316607D0140917E0150917F01609180017091D4
S11316708101809182010E94E002CC24C394E09015
S11316807801F090790100917A0110917B01209109
S11316907C0130917D0140917E0150917F016091E8
S11316A0800170918101809182010E94E002C65FF5
S11316B0C83249F6CF911F910F91FF90EF90CF90D0
S11316C0AF900895EF92FF920F931F93E0907801EB
S11316D0F090790100917A0110917B0120917C01B5
S11316E030917D0140917E0150917F016091800194
S11316F070918101809182010E94BF0260916B010F
S113170070916C0180916D0190916E010E94AB010A
S11317101F910F91FF90EF900895A1E21A2EAA1B3A
S1131720BB1BFD010DC0AA1FBB1FEE1FFF1FA2178D
S1131730B307E407F50720F0A21BB30BE40BF50B8A
S1131740661F771F881F991F1A9469F76095709513
S1131750809590959B01AC01BD01CF010895EE0FDA
S1131760FF1F0024001C0BBE0790F691E02D099486
S1131770A29FB001B39FC001A39F700D811D1124CE
S1131780911DB29F700D811D1124911D0895F0DFEC
S1131790A59F900DB49F900DA49F800D911D1124C1
S10917A00895F894FFCF48
S9030000FC
