S0160000496D706C656D656E746174696F6E2E7372656348
S11300004CC000008BC1000093C100009BC10000E4
S11300105DC1000065C100006DC1000075C1000034
S11300200C940D0E78C70000B2C7000049C7000049
S1130030EAC600005DC60000BBC600002EC6000074
S11300404AC0000048C0000046C00000DDC30000F4
S113005042C0000040C000003EC000003CC00000A0
S11300603AC0000038C0000036C0000034C00000B0
S113007032C0000030C000002EC000000C94A8085C
S1130080DCC700000C947D08ADC70000E509EE094B
S1130090F709000A090A120A1B0A11241FBECFEF2E
S11300A0D0E4DEBFCDBF11E0A0E0B1E0EAEDFDE2B7
S11300B000E00BBF02C007900D92A030B107D9F742
S11300C021E0A0E0B1E001C01D92AF36B207E1F734
S11300D003D00C94EB1694CFD5D00E94380E04D0E4
S11300E06CD080E090E008950F931F93E4E0F1E07A
S11300F088EE582F818383E082831382148281E007
S1130100482F808360910601709107018091080156
S11301100E94050903E916E120E040910401509191
S113012005016091060170910701809108010E9408
S1130130730C20E040910401509105016091060187
S113014070910701809108010E94480B40910401BD
S11301505091050160910601709107018091080199
S11301600E94E80AE4E1F1E099E2908324E630E0B9
S11301703283218343E0448387E08583EFE1F1E028
S113018090833283218382E084838583E9E0F1E0F4
S113019090833283218384834583789484E191E03E
S11301A00E947E138FE191E00E947E1389E091E02A
S11301B00E947E131F910F9108958FE191E00E9498
S11301C0AB1360911F016F5F8FE191E00E94E7150F
S11301D060E08FE191E00E94F51540E050E0BA0143
S11301E08FE191E00E94301689E091E00E94AB1308
S11301F0609109016E5F89E091E00E94E71560E07B
S113020089E091E00E94F51540E050E0BA0189E0F0
S113021091E00E94301684E191E00E94AB1360E00B
S113022084E191E00E94F51540E050E0BA0184E1D8
S113023091E00E9430168FE191E00E9479168F3F81
S11302402FEF920729F00E94900E80E20E94700E18
S113025084E191E00E9479168F3F2FEF920729F0F5
S11302600E94900E80E20E94700E89E091E00E944C
S113027079168F3F2FEF9207F1F20E94900E0E94A1
S1130280BF0FD9CF80E885BF85BF0895613061F085
S113029028F0623079F0633099F00895482F672F81
S11302A081E290E058C20895482F672F84E290E0DD
S11302B052C20895482F672F87E290E04CC20895F8
S11302C0482F672F8AE290E046C208951F920F924A
S11302D00FB60F9211240F900FBE0F901F90189518
S11302E01F920F920FB60F9211240F900FBE0F9012
S11302F01F9018951F920F920FB60F9211240F9012
S11303000FBE0F901F9018951F920F920FB60F9269
S113031011240F900FBE0F901F9018951F920F92EB
S11303200FB60F9211240F900FBE0F901F901895C7
S11303301F920F920FB60F9211240F900FBE0F90C1
S11303401F9018951F920F920FB60F9211240F90C1
S11303500FBE0F901F9018950F931F93CF93DF93A9
S1130360C62F172FD82F092F91DFD11123C0C130E9
S113037081F028F0C23099F0C330B9F01BC0402F8F
S1130380612F82E290E0E7D1612F8EE790E007D2FF
S113039011C0402F612F85E290E0DDD10BC0402FCA
S11303A0612F88E290E0D7D105C0402F612F8BE206
S11303B090E0D1D1DF91CF911F910F91089521E069
S11303C0FC01228360817181828193815FCF0895D2
S11303D0613059F028F0623069F0633081F008959B
S11303E0672F82E290E0CFC10895672F85E290E005
S11303F0CAC10895672F88E290E0C5C10895672FA8
S11304008BE290E0C0C10895613059F028F0623069
S113041069F0633081F00895672F82E290E0BFC1F4
S11304200895672F85E290E0BAC10895672F88E2A6
S113043090E0B5C10895672F8BE290E0B0C10895B4
S11304400F931F93CF93DF938B019C01EA0160E02C
S113045072E18AE790E0A90198010E94A716BA0107
S1130460A9014051510961097109DB01CA01B6951D
S1130470A795979587958F3F9105A105B10509F03B
S113048010F4188232C0DB01CA01689412F8B695E0
S1130490A795979587951694D1F78F3F9105A10558
S11304A0B10509F018F421E028831FC0DB01CA015B
S11304B0689414F8B695A795979587951694D1F7EF
S11304C08F3F9105A105B10509F018F422E02883B6
S11304D00CC083E08883DB01CA01689416F8B695E2
S11304E0A795979587951694D1F7DF91CF911F9192
S11304F00F910895CF93DF931F92CDB7DEB7AE016E
S11305004F5F5F4F9DDF8093B80060E0898154D1D5
S1130510482F60E089EB90E01ED161E089814CD1E5
S1130520482F61E089EB90E016D162E071E080E051
S113053091E012DF62E070E080E091E00DDF0F9067
S1130540DF91CF91089562E08CEB90E01CC1089597
S1130550FF920F931F93CF93DF93F82ECCEBD0E051
S1130560888162E029D1288134E0839FC00111246D
S1130570806A822B8883CEEFDFEF0CEB10E0F8016A
S1130580808167E019D1811133C02197C1F78FEFC2
S11305903BC08091B900887F803121F08091B900FF
S11305A0887F32C0F092BB00CCEBD0E0888162E05F
S11305B003D1F4E08F9FC001112480688883CEEFBB
S11305C0DFEF0CEB10E0F801808167E0F5D08111DA
S11305D015C02197C1F78FEF17C08091B900887FAC
S11305E0803421F08091B900887F0EC080E00CC077
S11305F08091B900887F883061F6D4CF8091B900AA
S1130600887F883151F780E0DF91CF911F910F915E
S1130610FF9008959DCF08950F931F93CF93DF9379
S1130620CCEBD0E0888162E0C7D0288134E0839F9E
S1130630C00111248069822B8883CEEFDFEF0CEB9D
S113064010E0F801808164E0B7D0882311F021978D
S1130650C1F7DF91CF911F910F9108950F931F93CD
S1130660CF93DF938093BB00CCEBD0E0888162E032
S1130670A3D024E0829FC001112480688883CEEF38
S1130680DFEF0CEB10E0F801808167E095D0811179
S11306900FC02197C1F78FEF11C08091B900887FF7
S11306A0803421F08091B900887F08C080E006C0C2
S11306B08091B900887F883181F780E0DF91CF9104
S11306C01F910F9108950F931F93CF93DF93CCEB5A
S11306D0D0E0888162E070D024E0829FC0011124C0
S11306E0806C8883CEEFDFEF0CEB10E0F8018081A3
S11306F067E062D0882319F08091BB0003C0219782
S1130700A9F78FEFDF91CF911F910F9108950F9368
S11307101F93CF93DF93CCEBD0E0888162E04CD081
S113072024E0829FC001112480688883CEEFDFEF2C
S11307300CEB10E0F801808167E03ED0882319F0CB
S11307408091BB0003C02197A9F78FEFDF91CF9170
S11307501F910F910895FC01942F208141E050E0F6
S1130760062E02C0440F551F0A94E2F74095509597
S11307702423492F50E002C0440F551F6A95E2F725
S1130780422B40830895FC01408121E030E002C007
S1130790220F331F6A95E2F7242B20830895FC016E
S11307A0908121E030E002C0220F331F6A95E2F706
S11307B0209529232083089590E002C0959587957C
S11307C06A95E2F781700895CF92DF92EF92FF92DB
S11307D069017A019B01AC012C193D094E095F099D
S11307E0A8EEB3E00E94E116A70196010E94A716A5
S11307F0C901992324F488279927821B930BFF901E
S1130800EF90DF90CF9008951F920F920FB60F9242
S113081011240BB60F928F939F93EF93FF93E09164
S11308202F01F0E08EB5E05DFE4F808380912F01B3
S1130830893030F480912F018F5F80932F0102C0A3
S113084010922F0181E080932E0190912C018091D0
S113085045019817A1F0E0912C01F0E0E65CFE4F11
S113086080818EBD80912C01893030F480912C01DF
S11308708F5F80932C0106C010922C0103C081E08D
S113088080934401FF91EF919F918F910F900BBE44
S11308900F900FBE0F901F9018958F929F92AF925A
S11308A0BF92EF92FF920F931F93CF93DF9300D0E9
S11308B000D01F92CDB7DEB748015901423009F488
S11308C014C1433009F48AC0413009F0D3C160E057
S11308D072E18AE790E0A90198010E94A716DA0163
S11308E0C9010197A109B109009721E0A207B10547
S11308F050F449EF5FEF6FEF70E0F70140835183ED
S113090062837383BAC160E472E48FE090E0A5016E
S113091094010E94A716DA01C9010197A109B1093E
S11309200097F1E0AF07B10550F44AEF5FEF6FEFC6
S113093070E0F70140835183628373839EC168E44E
S113094078EE81E090E0A50194010E94A716DA01F7
S1130950C9010197A109B1090097F1E0AF07B105F9
S113096050F44CEF5FEF6FEF70E0F7014083518379
S11309706283738382C162E17AE780E090E0A5013B
S113098094010E94A716DA01C9010197A109B109CE
S11309900097F1E0AF07B10550F44EEF5FEF6FEF52
S11309A070E0F701408351836283738366C18FEFE4
S11309B09FEFAFEFB0E0F70180839183A283B3830D
S11309C064E87EE180E090E0A50194010E94A7160E
S11309D0DA01C9010197A109B1094FC160E072E1CF
S11309E08AE790E0A90198010E94A716DA01C901DB
S11309F00197A109B1090097F1E0AF07B10550F4DF
S1130A0049EF5FEF6FEF70E0F7014083518362833A
S1130A10738333C160E472E48FE090E0A501940134
S1130A200E94A716DA01C9010197A109B10900972B
S1130A30F1E0AF07B10550F44AEF5FEF6FEF70E0FC
S1130A40F701408351836283738317C168E478EEAE
S1130A5081E090E0A50194010E94A716DA01C90182
S1130A600197A109B1090097F1E0AF07B10550F46E
S1130A704CEF5FEF6FEF70E0F701408351836283C7
S1130A807383FBC062E17AE780E090E0A501940102
S1130A900E94A716DA01C9010197A109B1090097BB
S1130AA0F1E0AF07B10550F44EEF5FEF6FEF70E088
S1130AB0F7014083518362837383DFC08FEF9FEF1D
S1130AC0AFEFB0E0F70180839183A283B38364E83E
S1130AD07EE180E090E0A50194010E94A716DA016E
S1130AE0C9010197A109B109C8C060E072E18AE7B0
S1130AF090E0A90198010E94A716DA01C9010197A3
S1130B00A109B1098F3F9105A105B10509F050F480
S1130B1049EF5FEF6FEF70E0F70140835183628329
S1130B207383ABC060E472E48FE090E0A5019401AC
S1130B300E94A716DA01C9010197A109B1098F3FE3
S1130B409105A105B10509F050F44AEF5FEF6FEF8D
S1130B5070E0F70140835183628373838EC060E940
S1130B6070ED83E090E0A50194010E94A716DA01DC
S1130B70C9010197A109B1098F3F9105A105B105EB
S1130B8009F050F44BEF5FEF6FEF70E0F701408333
S1130B9051836283738371C068E478EE81E090E0EE
S1130BA0A50194010E94A716DA01C9010197A109C0
S1130BB0B1098F3F9105A105B10509F050F44CEF3F
S1130BC05FEF6FEF70E0F7014083518362837383BB
S1130BD054C064E274EF80E090E0A50194010E94A7
S1130BE0A716DA01C9010197A109B1098F3F91053F
S1130BF0A105B10509F050F44DEF5FEF6FEF70E020
S1130C00F701408351836283738337C062E17AE7DB
S1130C1080E090E0A50194010E94A716DA01C901C1
S1130C200197A109B1098F3F9105A105B10509F00B
S1130C3050F44EEF5FEF6FEF70E0F70140835183A4
S1130C40628373831AC08FEF9FEFAFEFB0E0F701B9
S1130C5080839183A283B38364E87EE180E090E0A3
S1130C60A50194010E94A716DA01C9010197A109FF
S1130C70B10903C080E090E0DC010F900F900F9069
S1130C800F900F90DF91CF911F910F91FF90EF90F4
S1130C90BF90AF909F908F9008951F920F920FB6C0
S1130CA00F9211240BB60F922F933F934F935F93A0
S1130CB06F937F938F939F93AF93BF93EF93FF9320
S1130CC0E0914F01F09150010995FF91EF91BF918F
S1130CD0AF919F918F917F916F915F914F913F91D0
S1130CE02F910F900BBE0F900FBE0F901F90189571
S1130CF01F920F920FB60F9211240BB60F920F93FF
S1130D001F932F933F934F935F936F937F938F938F
S1130D109F93AF93BF93CF93DF93EF93FF93C1E878
S1130D20D0E0888164E048DD182F888163E044DDE9
S1130D30C12FCC0FCC0FCC0F24E0829FC001112413
S1130D40C82B00E810E0F801808161E035DDD82F80
S1130D50F801808160E030DDDD0F8C2B8D2B883035
S1130D6018F4843019F408C080FD06C0E0915101E4
S1130D70F0915201099505C0E0914F01F0915001A5
S1130D800995FF91EF91DF91CF91BF91AF919F9121
S1130D908F917F916F915F914F913F912F911F910F
S1130DA00F910F900BBE0F900FBE0F901F901895D0
S1130DB01F920F920FB60F9211240BB60F922F931E
S1130DC03F934F935F936F937F938F939F93AF93CF
S1130DD0BF93EF93FF93E0915301F0915401099570
S1130DE0FF91EF91BF91AF919F918F917F916F91FF
S1130DF05F914F913F912F910F900BBE0F900FBEBB
S1130E000F901F9018951F920F920FB60F921124F6
S1130E100BB60F920F931F932F933F934F935F93B0
S1130E206F937F938F939F93AF93BF93CF93DF93EE
S1130E30EF93FF93C1E8D0E0888164E0BDDC182F14
S1130E40888163E0B9DCC12FCC0FCC0FCC0F24E038
S1130E50829FC0011124C82B00E810E0F8018081B2
S1130E6061E0AADCD82FF801808160E0A5DCDD0F09
S1130E708C2B8D2B883010F080FF06C0E09155013B
S1130E80F0915601099505C0E0914F01F091500190
S1130E900995FF91EF91DF91CF91BF91AF919F9110
S1130EA08F917F916F915F914F913F912F911F91FE
S1130EB00F910F900BBE0F900FBE0F901F901895BF
S1130EC01F920F920FB60F9211240BB60F922F930D
S1130ED03F934F935F936F937F938F939F93AF93BE
S1130EE0BF93EF93FF93E0915901F0915A01099553
S1130EF0FF91EF91BF91AF919F918F917F916F91EE
S1130F005F914F913F912F910F900BBE0F900FBEA9
S1130F100F901F9018951F920F920FB60F921124E5
S1130F200BB60F922F933F934F935F936F937F93DF
S1130F308F939F93AF93BF93EF93FF938091B100EF
S1130F4063E03ADC81110BC08091B0008370823081
S1130F5031F0E0915B01F0915C01099505C0E091ED
S1130F605901F0915A010995FF91EF91BF91AF9109
S1130F709F918F917F916F915F914F913F912F91AD
S1130F800F900BBE0F900FBE0F901F9018951F92DD
S1130F900F920FB60F9211240BB60F922F933F931B
S1130FA04F935F936F937F938F939F93AF93BF936D
S1130FB0EF93FF93E0915D01F0915E010995FF913C
S1130FC0EF91BF91AF919F918F917F916F915F91BD
S1130FD04F913F912F910F900BBE0F900FBE0F902A
S1130FE01F9018951F920F920FB60F9211240BB6F3
S1130FF00F922F933F934F935F936F937F938F93AE
S11310009F93AF93BF93EF93FF93E0914701F091C8
S113101048010995FF91EF91BF91AF919F918F91F5
S11310207F916F915F914F913F912F910F900BBEE4
S11310300F900FBE0F901F9018951F920F920FB62E
S11310400F9211240BB60F920F931F932F933F937C
S11310504F935F936F937F938F939F93AF93BF93BC
S1131060CF93DF93EF93FF93C1E9D0E0888164E0ED
S1131070A3DB182F888163E09FDBC12FCC0FCC0F3B
S1131080CC0F24E0829FC0011124C82B00E910E09A
S1131090F801808161E090DBD82FF801808160E065
S11310A08BDBDD0F8C2B8D2B883018F4843019F4F6
S11310B008C080FD06C0E0914901F0914A010995FC
S11310C005C0E0914701F09148010995FF91EF9126
S11310D0DF91CF91BF91AF919F918F917F916F914C
S11310E05F914F913F912F911F910F910F900BBEE4
S11310F00F900FBE0F901F9018951F920F920FB66E
S11311000F9211240BB60F922F933F934F935F933B
S11311106F937F938F939F93AF93BF93EF93FF93BB
S1131120E0914B01F0914C010995FF91EF91BF9132
S1131130AF919F918F917F916F915F914F913F916B
S11311402F910F900BBE0F900FBE0F901F9018950C
S11311501F920F920FB60F9211240BB60F920F939A
S11311601F932F933F934F935F936F937F938F932B
S11311709F93AF93BF93CF93DF93EF93FF93C1E913
S1131180D0E0888164E018DB182F888163E014DBE9
S1131190C12FCC0FCC0FCC0F24E0829FC0011124AF
S11311A0C82B00E910E0F801808161E005DBD82F4D
S11311B0F801808160E000DBDD0F8C2B8D2B883003
S11311C010F080FF06C0E0914D01F0914E010995A9
S11311D005C0E0914701F09148010995FF91EF9115
S11311E0DF91CF91BF91AF919F918F917F916F913B
S11311F05F914F913F912F911F910F910F900BBED3
S11312000F900FBE0F901F901895EF92FF920F93BF
S11312101F93CF93DF93CDB7DEB729970FB6F8941A
S1131220DEBF0FBECDBF4D835E836F837887898712
S11312300E811F812885398519821A821B821C829E
S1131240423009F49AC0433009F422C1413009F014
S1131250B2C1093F8FEF18072807310528F0098329
S11312601A832B833C8315C0CE0101967C014D81EA
S11312705E816F817885898510DB909387008093E8
S1131280860064E081E890E07EDA63E081E890E043
S11312907ADA89819A81AB81BC818C3F2FEF9207E6
S11312A0A207B10559F160F4893F2FEF9207A20715
S11312B0B10591F08A3F9F4FAF4FB105B1F038C0EF
S11312C08E3F2FEF9207A207B10509F18F3F9F4F81
S11312D0AF4FB10529F12CC081E090E0A0E0B0E06F
S11312E089839A83AB83BC8323C082E090E0A0E02F
S11312F0B0E089839A83AB83BC831AC083E090E017
S1131300A0E0B0E089839A83AB83BC8311C084E0FE
S113131090E0A0E0B0E089839A83AB83BC8308C0EB
S113132085E090E0A0E0B0E089839A83AB83BC833E
S113133049815A816B817C8176956795579547954C
S11313407695679557954795417062E087E591E0FA
S113135002DA49815A816B817C817695679557952C
S11313604795417061E087E591E0F5D94981417085
S113137060E087E591E0EFD91EC1093F8FEF1807C0
S11313802807310528F009831A832B833C830FC077
S1131390CE0101967C014D815E816F8178858985BE
S11313A07CDA8093B30061E080EB90E0ECD9898132
S11313B09A81AB81BC81FC013796E730F10508F0D6
S11313C042C0EA5BFF4F0C94C91681E090E0A0E0B4
S11313D0B0E089839A83AB83BC8335C082E090E01C
S11313E0A0E0B0E089839A83AB83BC832CC083E004
S11313F090E0A0E0B0E089839A83AB83BC8323C0F0
S113140084E090E0A0E0B0E089839A83AB83BC835E
S11314101AC085E090E0A0E0B0E089839A83AB83B2
S1131420BC8311C086E090E0A0E0B0E089839A8399
S1131430AB83BC8308C087E090E0A0E0B0E0898380
S11314409A83AB83BC8349815A816B817C81769575
S11314506795579547957695679557954795417044
S113146062E088E591E077D949815A816B817C817A
S11314707695679557954795417061E088E591E0C9
S11314806AD94981417060E088E591E064D993C0EC
S1131490093F9FEF19072907310528F009831A83AB
S11314A02B833C8315C0CE0101967C014D815E8166
S11314B06F8178858985F1D9909397008093960000
S11314C064E081E990E05FD963E081E990E05BD971
S11314D089819A81AB81BC818C3F2FEF9207A2074F
S11314E0B10559F160F4893F2FEF9207A207B105C6
S11314F091F08A3F9F4FAF4FB105B1F038C08E3F96
S11315002FEF9207A207B10509F18F3F9F4FAF4F0D
S1131510B10529F12CC081E090E0A0E0B0E089831E
S11315209A83AB83BC8323C082E090E0A0E0B0E068
S113153089839A83AB83BC831AC083E090E0A0E0E4
S1131540B0E089839A83AB83BC8311C084E090E0CC
S1131550A0E0B0E089839A83AB83BC8308C085E0B4
S113156090E0A0E0B0E089839A83AB83BC83498197
S11315705A816B817C8176956795579547957695C9
S1131580679557954795417062E086E491E0E3D80A
S113159049815A816B817C817695679557954795EA
S11315A0417061E086E491E0D6D84981417060E001
S11315B086E491E0D0D829960FB6F894DEBF0FBE2A
S11315C0CDBFDF91CF911F910F91FF90EF900895C0
S11315D0CF93DF9300D000D01F92CDB7DEB7423057
S11315E0F1F04330A9F1413009F04AC0409157016C
S11315F042FB442740F962E081E890E0ACD8409196
S113160057014695417061E081E890E0A4D840918B
S11316105701417060E081E890E09DD831C040916D
S1131620580142FB442740F962E081EB90E093D8F3
S1131630409158014695417061E081EB90E08BD870
S113164040915801417060E081EB90E084D818C06B
S11316504091460142FB442740F962E081E990E071
S11316607AD8409146014695417061E081E990E065
S113167072D840914601417060E081E990E06BD8F6
S11316800F900F900F900F900F90DF91CF910895CE
S1131690CF92DF92FF920F931F93CF93DF9300D0EB
S11316A000D01F92CDB7DEB749835A836B837C8306
S11316B08D83122F423009F463C0433009F49FC074
S11316C0413009F003C10F2EF1E8CF2ED12CF02DBB
S11316D0F601808164E070D8082FF601808163E010
S11316E06BD8000F000F000FF4E08F9FC00111248E
S11316F0082B6894CC24C7F8D12CF601808161E0D2
S11317005BD8F82EF601808160E056D8802BFF0C60
S11317108F291130D9F028F0123021F1133039F12A
S1131720D5C0883038F4843061F060E08FE690E012
S11317302AD8CCC080FD05C065E08FE690E023D8B0
S1131740C5C061E08FE690E01ED8C0C0883018F4B0
S1131750843019F4BBC080FDB9C061E08FE690E02D
S113176012D8B4C062E08FE690E00DD8AFC08830E4
S113177010F080FFABC065E08FE690E004D8A6C00F
S11317808091B10063E018D8082F0F2EF0EBCF2E14
S1131790D12CF02DF601808161E00ED8000F000FEE
S11317A0880F082BF601808160E006D8802B113069
S11317B0A1F018F01230E9F089C0843040F482308E
S11317C031F060E080E790E00E94C3037FC061E0F5
S11317D080E790E00E94C30379C0843008F076C0AB
S11317E0823009F473C061E080E790E00E94C30393
S11317F06DC062E080E790E00E94C30367C00F2ED3
S1131800F1E9CF2ED12CF02DF601808164E00E9405
S1131810DC03082FF601808163E00E94DC03000FE3
S1131820000F000FF4E08F9FC0011124082B0F2E2E
S1131830F0E9CF2ED12CF02DF601808161E00E94D9
S1131840DC03F82EF601808160E00E94DC03FF0CCB
S1131850802B8F291130F1F028F0123041F1133030
S113186061F134C0883040F4843071F060E081E785
S113187090E00E94C3032AC080FD06C065E081E7B2
S113188090E00E94C30322C061E081E790E00E94DF
S1131890C3031CC0883018F4843019F417C080FDC9
S11318A015C061E081E790E00E94C3030FC062E0CD
S11318B081E790E00E94C30309C0883010F080FFE4
S11318C005C065E081E790E00E94C3030F900F908C
S11318D00F900F900F90DF91CF911F910F91FF9078
S11318E0DF90CF9008950F931F93CF93DF9300D091
S11318F000D01F92CDB7DEB7423069F04330A1F07B
S11319004130D1F4E22FF0E0EE0FFF1FE15BFE4F18
S11319101183008311C0E22FF0E0EE0FFF1FE75A9E
S1131920FE4F1183008308C0E22FF0E0EE0FFF1F8B
S1131930E95BFE4F118300830F900F900F900F907F
S11319400F90DF91CF911F910F9108954F925F9265
S11319506F927F928F929F92AF92BF92CF92DF92BB
S1131960EF92FF92CF93DF934B015C01EA010F2EBC
S1131970F0E24F2EF1EA5F2EF7E06F2E712CF02D7E
S1131980C301B201A50194010E94A71669017A015D
S1131990C301B2010E94A716CA01B901A5019401AD
S11319A00E94E403449730F4D701C6010197A109CA
S11319B0B1090FC081E0888360E472E48FE090E0B5
S11319C0A50194010E94A716DA01C9010197A10992
S11319D0B109DF91CF91FF90EF90DF90CF90BF904E
S11319E0AF909F908F907F906F905F904F900895ED
S11319F00F931F93CF93DF93CDB7DEB72B970FB61B
S1131A00F894DEBF0FBECDBF0A831B832C833D83B6
S1131A104E835F83688779878A879B871982011140
S1131A208FC0192FE2ECF0E080818F7380836B818B
S1131A307C818D819E81AE014F5F5F4F87DF9093E4
S1131A40C5008093C400498161E080EC90E00E946D
S1131A50AB038985823061F128F4882349F0813011
S1131A60B9F055C08330A1F1843009F441C04FC0AE
S1131A7061E082EC90E00E94CF0362E082EC90E0AF
S1131A800E94CF0362E081EC90E00E94CF033FC04C
S1131A9061E082EC90E00E94C30362E082EC90E09B
S1131AA00E94CF0362E081EC90E00E94CF032FC03C
S1131AB061E082EC90E00E94CF0362E082EC90E06F
S1131AC00E94C30362E081EC90E00E94CF031FC038
S1131AD061E082EC90E00E94C30362E082EC90E05B
S1131AE00E94C30362E081EC90E00E94CF030FC028
S1131AF061E082EC90E00E94C30362E082EC90E03B
S1131B000E94C30362E081EC90E00E94C3034A8513
S1131B1063E082EC90E00E94AB03123031F4E2EC1B
S1131B20F0E080818F7C80830BC065E082EC90E0E4
S1131B300E94C303412F64E082EC90E00E94AB0357
S1131B402B960FB6F894DEBF0FBECDBFDF91CF91B9
S1131B501F910F9108950F931F93CF93DF93CDB7E8
S1131B60DEB72A970FB6F894DEBF0FBECDBF6F83E2
S1131B7001110CC0452F64E081EC90E00E94AB039E
S1131B804F8163E081EC90E00E94AB032A960FB68C
S1131B90F894DEBF0FBECDBFDF91CF911F910F919F
S1131BA00895EF92FF920F931F93CF93DF93CDB7D6
S1131BB0DEB72A970FB6F894DEBF0FBECDBF0983F8
S1131BC01A832B833C834D835E836F837887898755
S1131BD09A87011115C000EC10E0F801808165E0DE
S1131BE00E94DC038823C9F38885843039F44F2D9F
S1131BF0417060E081EC90E00E94AB03E092C6008B
S1131C002A960FB6F894DEBF0FBECDBFDF91CF91F9
S1131C101F910F91FF90EF9008951F920F920FB6AE
S1131C200F9211240BB60F922F933F934F935F9310
S1131C306F937F938F939F93AF93BF93EF93FF9390
S1131C40E0915F01F09160010995FF91EF91BF91DF
S1131C50AF919F918F917F916F915F914F913F9140
S1131C602F910F900BBE0F900FBE0F901F901895E1
S1131C700F931F93E1E6F1E080E0182F81838BE45A
S1131C8082831382148283E0782F878311861082E3
S1131C901086158281E0682F868300E0209163011D
S1131CA0309164014091650150E080E090E0A0DE55
S1131CB000916101109162012091630130916401EE
S1131CC040916501509166016091670170916801CE
S1131CD08091690190916A013EDF1F910F910895EF
S1131CE0EF92FF920F931F93E82EF12C0091610164
S1131CF0109162012091630130916401409165016A
S1131D005091660160916701709168018091690149
S1131D1090916A0146DF1F910F91FF90EF90089513
S1131D20CF92DF92EF92FF920F931F93CF93DF93A3
S1131D30EC019C01329522952F7023273F702327B5
S1131D40A7E4B3E00E94D2167C01F694E794F694DB
S1131D50E794F694E7949701ADECBCEC0E94D2169C
S1131D609695879596958795969587959C01220FCC
S1131D70331F880F991F880F991F880F991F820F8F
S1131D80931FE81AF90A80E3E80EF11C009161013F
S1131D9010916201209163013091640140916501C9
S1131DA050916601609167017091680180916901A9
S1131DB090916A01F6DE9E01369527953695279512
S1131DC036952795A5ECB0E2EDD77C01F694E7941F
S1131DD0F694E794F694E794F694E7949701ADECBF
S1131DE0BCECE0D7969587959695879596958795BB
S1131DF09C01220F331F880F991F880F991F880F8A
S1131E00991F820F931FE81AF90A80E3E80EF11C68
S1131E10009161011091620120916301309164018C
S1131E20409165015091660160916701709168016C
S1131E308091690190916A01B4DE9E0136952795DF
S1131E4036952795ABE7B4E1ADD77C01F694E794DA
S1131E509701ADECBCECA6D796958795969587959A
S1131E60969587959C01220F331F880F991F880F21
S1131E70991F880F991F820F931FE81AF90A80E3AC
S1131E80E80EF11C0091610110916201209163013F
S1131E903091640140916501509166016091670140
S1131EA0709168018091690190916A017ADE9E01C6
S1131EB0ADECBCEC77D76C01D694C794D694C79498
S1131EC0D694C79496016ED79695879596958795DF
S1131ED0969587959C01220F331F880F991F880FB1
S1131EE0991F880F991F820F931F7601E81AF90A28
S1131EF080E3E80EF11C00916101109162012091D0
S1131F0063013091640140916501509166016091D3
S1131F106701709168018091690190916A0141DEC5
S1131F20C601880F991FCC0CDD1CCC0CDD1CCC0C1D
S1131F30DD1CC80ED91E7E01EC18FD0880E3E80EF6
S1131F40F11C0091610110916201209163013091B3
S1131F50640140916501509166016091670170913F
S1131F6068018091690190916A011BDEDF91CF9134
S1131F701F910F91FF90EF90DF90CF900895EF9213
S1131F80FF920F931F930F2EFAE0EF2EF12CF02DFA
S1131F90009161011091620120916301309164010B
S1131FA040916501509166016091670170916801EB
S1131FB08091690190916A01F4DD1F910F91FF9066
S1131FC0EF90089540910001509101016091020148
S1131FD070910301FC015187408708950F931F936B
S1131FE0FC014181528141155105C1F0009100016C
S1131FF010910101209102013091030180859185A6
S1132000081B190B2109310960E070E081E04017D9
S113201051076207730718F080E001C080E01F9148
S11320200F910895CF93DF93D62FC42FFC018081A5
S1132030880F0E94A8028D2F0E942E038C2F0E94CD
S11320402E030E940C03DF91CF9108951F93CF9329
S1132050DF93162FC42FD52FFC018081880F0E9497
S1132060A802812F0E942E038D2F0E942E038C2FF5
S11320700E942E030E940C03DF91CF911F910895BB
S1132080FF920F931F93CF93DF93F62EC22FD32F7C
S1132090142F052FFC018081880F0E94A8028F2D28
S11320A00E942E03802F0E942E03812F0E942E0354
S11320B08D2F0E942E038C2F0E942E030E940C034E
S11320C0DF91CF911F910F91FF9008951F93CF93AC
S11320D0DF93EC01162F8881880F0E94A802812FBC
S11320E00E942E038881880F81600E940A030E9447
S11320F08703C82F0E940C038C2FDF91CF911F916F
S113210008951F93CF93DF93EC01162F8881880FD6
S11321100E94A802812F0E942E038881880F81606B
S11321200E940A030E946303C82FD0E0DC2FCC274F
S11321300E948703C82B0E940C03CE01DF91CF912C
S11321401F910895EF92FF920F931F93CF93DF9304
S1132150D62F7A01C22FFC018081880F0E94A80229
S11321608D2F0E942E038FEF8C0FCC2369F0E70193
S1132170082F10E00F5F1F4F0E0D1F1D89910E9445
S11321802E03C017D107D1F70E940C03DF91CF9122
S11321901F910F91FF90EF900895EF92FF920F938C
S11321A01F93CF93DF938C01D62FE42EF52EC22FED
S11321B0FC018081880F0E94A8028D2F0E942E03AB
S11321C0F8018081880F81600E940A03CC2391F07A
S11321D00E2D1F2DC23028F00E946303F801808366
S11321E004C00E948703F8018083C1500F5F1F4F12
S11321F0C111F0CF0E940C03DF91CF911F910F9179
S1132200FF90EF900895EF92FF920F931F93CF9357
S1132210DF93EC017B018A0141E060E803DF41E0E8
S11322206FEFCE01FFDE40E060E0CE01FBDE46E072
S11322306FEFCE01F7DE63E8CE0148DF482F44603C
S113224063E8CE01EFDE47E06FEFCE01EBDE41E065
S113225061E8CE01E7DE41E060E8CE01E3DE4BE673
S113226064E9CE01DFDE40E063E8CE01DBDECE01CF
S1132270A9DE04C0CE01B2DE811137C063E8CE010D
S113228025DF8823B9F341E063E8CE01CBDE62E9C0
S1132290CE011CDF982F9F77F7019083881F882732
S11322A0881FF801808340E061E8CE01BBDE46E090
S11322B06FEFCE01B7DE63E8CE0108DF482F4B7F16
S11322C063E8CE01AFDE41E06FEFCE01ABDE41E06B
S11322D060E0CE01A7DE40E06FEFCE01A3DE40E078
S11322E060E8CE019FDE81E001C080E0DF91CF9104
S11322F01F910F91FF90EF900895CF93DF93EB011F
S113230061E0E4DE84FB992790F9988383FB9927A5
S113231090F99A8382FB992790F9998386FB9927F0
S113232090F99B83881F8827881F8C83DF91CF9126
S113233008950F931F93009719F1AC01415051096F
S113234060E070E0DB01CA018827892B8A2B8B2B84
S113235079F080E090E076956795579547950196DA
S11323608A019B010027012B022B032BA1F702C03A
S113237080E090E0982F88275527842B952B02C066
S113238080E090E01F910F9108959C013327A901EB
S113239002C0440F551F9A95E2F7CA0101960895A9
S11323A04F925F926F927F928F929F92AF92BF9261
S11323B0CF92DF92EF92FF923C01A62FB0E020E093
S11323C03FE24AE350E0FDD46B017C0124EFC20EEE
S11323D021E0D21EE11CF11C0F2EF8EE8F2EF3E04B
S11323E09F2EA12CB12CF02DC701B601A50194019B
S11323F0AED4D301E6D42B013C01C701B60120EDD4
S113240037E040E050E0A3D4C301B201620F731F70
S1132410841F951FA50194019AD4CA01B901FF90A4
S1132420EF90DF90CF90BF90AF909F908F907F9070
S11324306F905F904F900895611105C060E546DE8E
S11324408F5F880F0895613029F460E73FDE8F5F66
S1132450880F08958FEF0895EF92FF920F931F93C3
S1132460CF93DF938C017B01EA0160E0E5DF90E02C
S11324709983888366E4C80129DE90E001969D83F0
S11324808C8368818DDF6A877B878C879D8761E574
S1132490C80137DE7ADF9F838E83688181DF6E8790
S11324A07F87888B998B61E0C801C6DF90E09B83AE
S11324B08A8361E7C80125DE68DF99878887F70189
S11324C02381222331F02E813F81821B930B998734
S11324D088876A818885998563DF6A8B7B8B8C8B7F
S11324E09D8BDF91CF911F910F91FF90EF900895F5
S11324F08F929F92AF92BF92CF92DF92EF92FF9210
S11325004B015C01A42FB0E020E03FE24AE350E03D
S113251058D46B017C0124EFC20E21E0D21EE11CD1
S1132520F11CA8EEB3E0A50194014BD44B015C016E
S1132530C701B60120ED37E040E050E008D4820E38
S1132540931EA41EB51EC701B60128EE33E040E079
S113255050E0FDD3C501B401FAD3CA01B901FF901B
S1132560EF90DF90CF90BF90AF909F908F900895A1
S1132570CF93DF93EC01462F416060E053DDCE0141
S113258021DD04C0CE012ADD81110FC063E1CE013B
S11325909DDD8770B9F341E06BE0CE0143DD40E09F
S11325A060E0CE013FDD81E001C080E0DF91CF91AA
S11325B008958F929F92AF92BF92DF92EF92FF9213
S11325C00F931F93CF93DF93CDB7DEB76B970FB6FF
S11325D0F894DEBF0FBECDBF40322EE45207610532
S11325E0710508F474C04A015B017C01BE016F5F90
S11325F07F4F83DEAE014A5F5F4FBE016F5F7F4F47
S1132600C7012ADF8981882349F0088919892A8921
S11326103B890A5C144F2F4F3F4F04C008EE18E06B
S113262020E030E08B81882389F088899989AA8900
S1132630BB898E549D4FAF4FBF4F880F991FAA1F60
S1132640BB1F080F191F2A1F3B1F0FC08A81882335
S113265061F088899989AA89BB898C569D4FAF4FAF
S1132660BF4F080F191F2A1F3B1FDC80DD2061F0BC
S11326708C899D89AE89BF898C569D4FAF4FBF4FC2
S1132680080F191F2A1F3B1F8D81882311F10A5D32
S11326901D4F2F4F3F4F80169106A206B306D8F068
S11326A0C501B401601B710B820B930B488520DFBD
S11326B09B01DD2021F02C853D85260F371FC901A4
S11326C038DEAC0161E7C701C1DC81E005C080E010
S11326D003C081E001C080E06B960FB6F894DEBFC2
S11326E00FBECDBFDF91CF911F910F91FF90EF905F
S11326F0DF90BF90AF909F908F900895CF93DF931A
S1132700EC0180E89AE1A6E0B0E080936B0190933D
S11327106C01A0936D01B0936E0160E87AE186E0EC
S113272090E00E947A020E94A3021A8219821B82FC
S11327306C817D818E819F810E94AC01CE010496C3
S11327400E94DF016C817D818E819F810E94040241
S1132750DF91CF9108950F931F93CF93DF93CDB75C
S1132760DEB728970FB6F894DEBF0FBECDBF8C013D
S1132770FC0164817581868197810E94E8018FE95B
S11327809FE00197F1F700C0000069E8C8019EDCF2
S1132790482F416069E8C80145DC40E068E8C801A9
S11327A041DC41E060E8C8013DDC41E06FEFC80175
S11327B039DC40E060E0C80135DC61E9C80186DC51
S11327C0F801828741E060E0C8012CDC40E06FEF53
S11327D0C80128DC40E060E8C80124DC60E6C801E8
S11327E075DC482F426160E6C8011CDC40E250E021
S11327F064E4C8012BDC4FEF61E0C80113DCAE01D7
S11328004E5F5F4FBE016F5F7F4FC801FCDC8823C2
S113281009F4D2C126E0AE014D5F5F4F60EBC80101
S1132820BCDC41E06FEFC801FDDB40E06FE4C801B0
S1132830F9DB4CE26EE4C801F5DB40E06FEFC80160
S1132840F1DB44EB66EBC801EDDB8A81811102C048
S113285060E001C06CE0A98180E070E041E050E0FC
S1132860861710F0A71318C0982F969596959695ED
S1132870E3E0F0E0EC0FFD1FE90FF11D982F9770D6
S11328809A0102C0220F331F9A95E2F7922F909576
S113289020819223908315C0982F969596959695AE
S11328A0E3E0F0E0EC0FFD1FE90FF11D208130E0C3
S11328B0982F977002C0359527959A95E2F720FDD9
S11328C07F5F8F5F803361F626E0AE014D5F5F4F1F
S11328D060EBC80137DC41E06FEFC801A3DB40E0E7
S11328E060E0C8019FDB40E06FEFC8019BDB40E084
S11328F069E0C80197DB40E060E1C80193DB40E098
S113290061E1C8018FDB41E064E2C8018BDB4FEF7A
S113291065E2C80187DB40E065E7C80183DB41E08D
S11329206FEFC8017FDB4CE26EE4C8017BDB40E063
S113293068E4C80177DB40E260E3C80173DB40E090
S11329406FEFC8016FDB49E060E3C8016BDB40E077
S113295064E5C80167DB44E061E3C80163DB43E08D
S113296062E3C8015FDB43E860E4C8015BDB45E286
S113297066E4C80157DB40E060E6C80153DB40E091
S113298067E2C8014FDB46E060E5C8014BDB40E08D
S113299061E5C80147DB46E962E5C80143DB48E07D
S11329A066E5C8013FDB40E367E5C8013BDB40E087
S11329B061E6C80137DB40E062E6C80133DB40E092
S11329C064E6C8012FDB40E065E6C8012BDB40EA82
S11329D066E6C80127DB41E06FEFC80123DB42E371
S11329E062E2C8011FDB44E167E4C8011BDB4FEF6F
S11329F069E4C80117DB40E06AE4C80113DB40E086
S1132A006FEFC8010FDB4AE06AE7C8010BDB40E067
S1132A106BE7C80107DB41E268E7C80103DB41E07B
S1132A206FEFC801FFDA44E363E2C801FBDA40E078
S1132A3062E4C801F7DA4FEF64E4C801F3DA46E26E
S1132A4065E4C801EFDA45E066E4C801EBDA40E486
S1132A5060E4C801E7DA46E06EE0C801E3DA4AE17F
S1132A6060E2C801DFDA40E463E4C801DBDA40E095
S1132A706FEFC801D7DA43E064E3C801D3DA44E472
S1132A8065E3C801CFDA41E06FEFC801CBDA44E077
S1132A9061E3C801C7DA49E06BE4C801C3DA45E081
S1132AA06CE4C801BFDA44E06DE4C801BBDA40E07D
S1132AB06FEFC801B7DA40E064E4C801B3DA40E27A
S1132AC065E4C801AFDA48E067E4C801ABDA48E27C
S1132AD068E4C801A7DA40E067E6C801A3DA44E085
S1132AE060E7C8019FDA41E061E7C8019BDA4EEF75
S1132AF062E7C80197DA40E066E7C80193DA40E08C
S1132B0067E7C8018FDA41E06FEFC8018BDA41E073
S1132B106DE0C80187DA40E06FEFC80183DA41E075
S1132B2060E8C8017FDA48EF61E0C8017BDA41E080
S1132B306FEFC80177DA41E06EE8C80173DA41E06B
S1132B4060E0C8016FDA40E06FEFC8016BDA40E083
S1132B5060E8C80167DA44E06AE0C80163DA64E85F
S1132B60C801B4DA482F4F7E64E8C8015BDA41E05B
S1132B706BE0C80157DA48EE61E0C80153DA4EE170
S1132B8050E060E070E0C80114DD41E061E0C8019C
S1132B9049DA60E4C801ECDC882371F042E061E0CA
S1132BA0C80140DA60E0C801E3DC882329F048EE7C
S1132BB061E0C80137DA81E028960FB6F894DEBFE9
S1132BC00FBECDBFDF91CF911F910F9108951F9339
S1132BD0CF93DF93EC01162F462F4F776AE822DA62
S1132BE01883DF91CF911F910895CF93DF93EC0168
S1132BF0613089F028F06230C9F0633011F12CC0E3
S1132C0040E250E064E422DA40E355E760E070E03B
S1132C10CE01CFDC22C040E250E064E417DA40E4A5
S1132C205DE063E070E0CE01C4DC17C04CE050E02E
S1132C3064E40CDA48EE50E860E070E0CE01B9DC00
S1132C400CC040E250E064E401DA40E25EE460E09B
S1132C5070E0CE01AEDC01C080E0DF91CF91089539
S1132C60CF92DF92EF92FF92CF93DF93EC016A0150
S1132C707B0141E060E8D6D941E06FEFCE01D2D9C3
S1132C8040E060E0CE01CED94A8561E9CE01CAD9DF
S1132C9041E060E0CE01C6D940E06FEFCE01C2D979
S1132CA040E060E8CE01BED9C114D104E104F104CE
S1132CB0A9F068EFCE0125DA009731F0DC01A70115
S1132CC096017FD06B017C01A701960164E0CE01DF
S1132CD0D7D944E060E0CE01A5D904C042E060E069
S1132CE0CE01A0D9DF91CF91FF90EF90DF90CF90EC
S1132CF008950F931F93CF93DF93EC0163E1E6D91B
S1132D00877049F06EE1CE01FCD98C0141E06BE0A3
S1132D10CE0188D902C00FEF1FEFC801DF91CF9118
S1132D201F910F9108958091000190910101A0914C
S1132D300201B09103010196A11DB11D8093000110
S1132D4090930101A0930201B09303010895A1E2BD
S1132D501A2EAA1BBB1BFD010DC0AA1FBB1FEE1F11
S1132D60FF1FA217B307E407F50720F0A21BB30B5C
S1132D70E40BF50B661F771F881F991F1A9469F7D8
S1132D8060957095809590959B01AC01BD01CF0134
S1132D900895EE0FFF1F0024001C0BBE0790F69150
S1132DA0E02D0994A29FB001B39FC001A39F700DB1
S1132DB0811D1124911DB29F700D811D1124911D3F
S1132DC00895F0DFA59F900DB49F900DA49F800DF2
S10D2DD0911D11240895F894FFCF1B
S9030000FC
