S0160000496D706C656D656E746174696F6E2E7372656348
S113000045C0000085C100008DC1000095C10000FD
S1130010D3C00000FCC0000025C100004EC1000098
S1130020DCC6000014C400004EC40000E5C3000098
S113003086C30000F9C2000057C30000CAC2000012
S113004043C0000041C000003FC0000079C200006E
S11300503BC0000039C0000037C0000035C00000BC
S113006033C0000031C000002FC000002DC00000CC
S11300702BC0000029C0000027C0000005C50000F7
S113008078C40000D6C4000049C4000011241FBE77
S1130090CFEFD0E4DEBFCDBF11E0A0E0B1E0E8E4F3
S11300A0F1E100E00BBF02C007900D92A230B1074E
S11300B0D9F721E0A2E0B1E001C01D92AB35B2074F
S11300C0E1F74ED00C94A2089BCF6091020170918D
S11300D0030180910401909105016BD180E091E0CE
S11300E03EC70895CF93DF93E2E0F1E0D3E0D083FD
S11300F085E08183C1E0C283138260910201709123
S11301000301809104019091050120D1E6E0F1E022
S11301102D2FD08387E0382F818313826C2FC483E3
S113012085E690E0978386834091080150E07091C2
S11301300B0190910D017CD62091060130910701AD
S1130140409108015091090160910A0170910B01DD
S113015080910C0190910D0191D6DF91CF9108957A
S113016007D0C5D6BFDF78948091730052D7FFCFF4
S113017080E885BF85BF0895613061F028F0623062
S113018079F0633099F00895482F672F81E290E069
S113019080C10895482F672F84E290E07AC10895C2
S11301A0482F672F87E290E074C10895482F672F86
S11301B08AE290E06EC108951F920F920FB60F92DB
S11301C011240BB60F922F933F934F935F936F932A
S11301D07F938F939F93AF93BF93EF93FF93E0919C
S11301E01401F09115010995FF91EF91BF91AF9121
S11301F09F918F917F916F915F914F913F912F913B
S11302000F900BBE0F900FBE0F901F9018951F926A
S11302100F920FB60F9211240BB60F922F933F93A8
S11302204F935F936F937F938F939F93AF93BF93FA
S1130230EF93FF93E0911701F09118010995FF9155
S1130240EF91BF91AF919F918F917F916F915F914A
S11302504F913F912F910F900BBE0F900FBE0F90B7
S11302601F9018951F920F920FB60F9211240BB680
S11302700F922F933F934F935F936F937F938F933B
S11302809F93AF93BF93EF93FF93E0910E01F0918F
S11302900F010995FF91EF91BF91AF919F918F91BC
S11302A07F916F915F914F913F912F910F900BBE72
S11302B00F900FBE0F901F9018951F920F920FB6BC
S11302C00F9211240BB60F922F933F934F935F938A
S11302D06F937F938F939F93AF93BF93EF93FF930A
S11302E0E0911001F09111010995FF91EF91BF91F7
S11302F0AF919F918F917F916F915F914F913F91BA
S11303002F910F900BBE0F900FBE0F901F9018955A
S11303101F920F920FB60F9211240F900FBE0F90E1
S11303201F9018951F920F920FB60F9211240F90E1
S11303300FBE0F901F9018951F920F920FB60F9239
S113034011240F900FBE0F901F9018950F931F93B9
S1130350CF93DF93C62F172FD82F092F0DDFD1117D
S113036023C0C13081F028F0C23099F0C330B9F015
S11303701BC0402F612F82E290E08BD0612F8EE76B
S113038090E0ABD011C0402F612F85E290E081D086
S11303900BC0402F612F88E290E07BD005C0402F36
S11303A0612F8BE290E075D0DF91CF911F910F9177
S11303B00895613059F028F0623069F0633081F0BB
S11303C00895672F82E290E07CC00895672F85E24C
S11303D090E077C00895672F88E290E072C0089596
S11303E0672F8BE290E06DC00895CF93C72F6130E3
S11303F079F028F06230A9F06330E1F023C060E0C6
S113040088E690E05ED06C2F8BE690E05AD01AC05C
S113041061E088E690E055D06C2F8CE690E051D0F6
S113042011C062E088E690E04CD06C2F8DE690E03D
S113043048D008C063E088E690E043D06C2F83E79F
S113044090E03FD0CF910895613071F028F0623090
S113045099F06330C9F00895309315012093140185
S113046082B18093130108953093180120931701EA
S113047085B180931601089530930F0120930E01E6
S113048088B18093120108953093110120931001D3
S11304900895FC01942F208141E050E0062E02C013
S11304A0440F551F0A94E2F7409550952423492F91
S11304B050E002C0440F551F6A95E2F7422B408377
S11304C00895FC01408121E030E002C0220F331F77
S11304D06A95E2F7242B20830895FC01908121E0A2
S11304E030E002C0220F331F6A95E2F720952923DA
S11304F02083089590E002C0959587956A95E2F768
S113050081700895CF92DF92EF92FF9269017A0190
S11305109B01AC012C193D094E095F09A8EEB3E01B
S113052007D6A7019601D3D5C901992324F48827B6
S11305309927821B930BFF90EF90DF90CF90089543
S11305401F920F920FB60F9211240BB60F928F9336
S11305509F93EF93FF93E0911F01F0E08EB5E05E6F
S1130560FE4F808380911F01893030F480911F01F8
S11305708F5F80931F0102C010921F0181E080935E
S11305801E0190911C01809135019817A1F0E09112
S11305901C01F0E0E65DFE4F80818EBD80911C0160
S11305A0893030F480911C018F5F80931C0106C058
S11305B010921C0103C081E080933401FF91EF91FC
S11305C09F918F910F900BBE0F900FBE0F901F90B5
S11305D018951F920F920FB60F9211240BB60F921B
S11305E02F933F934F935F936F937F938F939F9337
S11305F0AF93BF93EF93FF93E0913F01F0914001DC
S11306000995FF91EF91BF91AF919F918F917F9148
S11306106F915F914F913F912F910F900BBE0F906F
S11306200FBE0F901F9018951F920F920FB60F9246
S113063011240BB60F920F931F932F933F934F9355
S11306405F936F937F938F939F93AF93BF93CF9356
S1130650DF93EF93FF93C1E8D0E0888164E04ADF41
S1130660182F888163E046DFC12FCC0FCC0FCC0F4D
S113067024E0829FC0011124C82B00E810E0F80197
S1130680808161E037DFD82FF801808160E032DFBC
S1130690DD0F8C2B8D2B883018F4843019F408C0AE
S11306A080FD06C0E0914101F0914201099505C029
S11306B0E0913F01F09140010995FF91EF91DF91A5
S11306C0CF91BF91AF919F918F917F916F915F91E6
S11306D04F913F912F911F910F910F900BBE0F904F
S11306E00FBE0F901F9018951F920F920FB60F9286
S11306F011240BB60F922F933F934F935F936F93F5
S11307007F938F939F93AF93BF93EF93FF93E09166
S11307104301F09144010995FF91EF91BF91AF918D
S11307209F918F917F916F915F914F913F912F9105
S11307300F900BBE0F900FBE0F901F9018951F9235
S11307400F920FB60F9211240BB60F920F931F93B3
S11307502F933F934F935F936F937F938F939F93C5
S1130760AF93BF93CF93DF93EF93FF93C1E8D0E0B0
S1130770888164E0BFDE182F888163E0BBDEC12F6F
S1130780CC0FCC0FCC0F24E0829FC0011124C82BC6
S113079000E810E0F801808161E0ACDED82FF801B8
S11307A0808160E0A7DEDD0F8C2B8D2B883010F06C
S11307B080FF06C0E0914501F0914601099505C00E
S11307C0E0913F01F09140010995FF91EF91DF9194
S11307D0CF91BF91AF919F918F917F916F915F91D5
S11307E04F913F912F911F910F910F900BBE0F903E
S11307F00FBE0F901F9018951F920F920FB60F9275
S113080011240BB60F922F933F934F935F936F93E3
S11308107F938F939F93AF93BF93EF93FF93E09155
S11308204901F0914A010995FF91EF91BF91AF9170
S11308309F918F917F916F915F914F913F912F91F4
S11308400F900BBE0F900FBE0F901F9018951F9224
S11308500F920FB60F9211240BB60F922F933F9362
S11308604F935F936F937F938F939F93AF93BF93B4
S1130870EF93FF938091B10063E03CDE81110BC0E4
S11308808091B0008370823031F0E0914B01F0919F
S11308904C01099505C0E0914901F0914A0109957F
S11308A0FF91EF91BF91AF919F918F917F916F9144
S11308B05F914F913F912F910F900BBE0F900FBE00
S11308C00F901F9018951F920F920FB60F9211243C
S11308D00BB60F922F933F934F935F936F937F9336
S11308E08F939F93AF93BF93EF93FF93E0914D0149
S11308F0F0914E010995FF91EF91BF91AF919F91B6
S11309008F917F916F915F914F913F912F910F90B4
S11309100BBE0F900FBE0F901F9018951F920F9251
S11309200FB60F9211240BB60F922F933F934F9350
S11309305F936F937F938F939F93AF93BF93EF9343
S1130940FF93E0913701F09138010995FF91EF9100
S1130950BF91AF919F918F917F916F915F914F91D3
S11309603F912F910F900BBE0F900FBE0F901F90D1
S113097018951F920F920FB60F9211240BB60F9277
S11309800F931F932F933F934F935F936F937F9393
S11309908F939F93AF93BF93CF93DF93EF93FF9383
S11309A0C1E9D0E0888164E0A5DD182F888163E087
S11309B0A1DDC12FCC0FCC0FCC0F24E0829FC0014E
S11309C01124C82B00E910E0F801808161E092DD78
S11309D0D82FF801808160E08DDDDD0F8C2B8D2B0D
S11309E0883018F4843019F408C080FD06C0E09102
S11309F03901F0913A01099505C0E0913701F09170
S1130A0038010995FF91EF91DF91CF91BF91AF919B
S1130A109F918F917F916F915F914F913F912F9112
S1130A201F910F910F900BBE0F900FBE0F901F9050
S1130A3018951F920F920FB60F9211240BB60F92B6
S1130A402F933F934F935F936F937F938F939F93D2
S1130A50AF93BF93EF93FF93E0913B01F0913C017F
S1130A600995FF91EF91BF91AF919F918F917F91E4
S1130A706F915F914F913F912F910F900BBE0F900B
S1130A800FBE0F901F9018951F920F920FB60F92E2
S1130A9011240BB60F920F931F932F933F934F93F1
S1130AA05F936F937F938F939F93AF93BF93CF93F2
S1130AB0DF93EF93FF93C1E9D0E0888164E01ADD0E
S1130AC0182F888163E016DDC12FCC0FCC0FCC0F1B
S1130AD024E0829FC0011124C82B00E910E0F80132
S1130AE0808161E007DDD82FF801808160E002DDBC
S1130AF0DD0F8C2B8D2B883010F080FF06C0E09129
S1130B003D01F0913E01099505C0E0913701F09156
S1130B1038010995FF91EF91DF91CF91BF91AF918A
S1130B209F918F917F916F915F914F913F912F9101
S1130B301F910F910F900BBE0F900FBE0F901F903F
S1130B4018954F925F926F927F928F929F92AF927D
S1130B50BF92CF92DF92EF92FF92CF93DF934B013C
S1130B605C01EA010F2EF0E24F2EF1EA5F2EF7E06E
S1130B706F2E712CF02DC301B201A5019401A7D2EF
S1130B8069017A01C301B201A2D2CA01B901A50166
S1130B909401B8DC449730F4D701C6010197A10948
S1130BA0B1090EC081E0888360E472E48FE090E0D4
S1130BB0A50194018CD2DA01C9010197A109B109F7
S1130BC0DF91CF91FF90EF90DF90CF90BF90AF90E7
S1130BD09F908F907F906F905F904F9008950F93A8
S1130BE01F93CF93DF93CDB7DEB72B970FB6F8944F
S1130BF0DEBF0FBECDBF0A831B832C833D834E8390
S1130C005F83688779878A879B87198201117CC0F3
S1130C10192FE2ECF0E080818F7380836B817C81FB
S1130C208D819E81AE014F5F5F4F8BDF9093C50036
S1130C308093C400498161E080EC90E02ADC8985DE
S1130C40823031F128F4882349F08130A1F046C084
S1130C50833059F1843009F435C040C061E082EC3E
S1130C6090E03BDC62E082EC90E037DC62E081EC17
S1130C7090E033DC33C061E082EC90E022DC62E09F
S1130C8082EC90E02ADC62E081EC90E026DC26C075
S1130C9061E082EC90E021DC62E082EC90E011DC27
S1130CA062E081EC90E019DC19C061E082EC90E034
S1130CB008DC62E082EC90E004DC62E081EC90E02D
S1130CC00CDC0CC061E082EC90E0FBDB62E082ECC7
S1130CD090E0F7DB62E081EC90E0F3DB4A8563E0CF
S1130CE082EC90E0D6DB123031F4E2ECF0E080816B
S1130CF08F7C808309C065E082EC90E0E2DB412FC9
S1130D0064E082EC90E0C5DB2B960FB6F894DEBF6E
S1130D100FBECDBFDF91CF911F910F9108950F9317
S1130D201F93CF93DF93CDB7DEB72A970FB6F8940E
S1130D30DEBF0FBECDBF6F8301110AC0452F64E033
S1130D4081EC90E0A6DB4F8163E081EC90E0A1DBD5
S1130D502A960FB6F894DEBF0FBECDBFDF91CF91B8
S1130D601F910F910895EF92FF920F931F93CF93CA
S1130D70DF93CDB7DEB72A970FB6F894DEBF0FBE68
S1130D80CDBF09831A832B833C834D835E836F839A
S1130D90788789879A87011113C000EC10E0F80165
S1130DA0808165E0A7DB8823D1F38885843031F422
S1130DB04F2D417060E081EC90E06BDBE092C60067
S1130DC02A960FB6F894DEBF0FBECDBFDF91CF9148
S1130DD01F910F91FF90EF9008951F920F920FB6FD
S1130DE00F9211240BB60F922F933F934F935F935F
S1130DF06F937F938F939F93AF93BF93EF93FF93DF
S1130E00E0914F01F09150010995FF91EF91BF914D
S1130E10AF919F918F917F916F915F914F913F918E
S1130E202F910F900BBE0F900FBE0F901F9018952F
S1130E30CF93DF93CDB7DEB728970FB6F894DEBF14
S1130E400FBECDBF29833A835C838F8398871B822F
S1130E5069817A818B819C8179DA2F8138856981D6
S1130E607A818B819C8141E0EFDA28960FB6F89461
S1130E70DEBF0FBECDBFDF91CF910895CF93DF9337
S1130E80CDB7DEB728970FB6F894DEBF0FBECDBF3F
S1130E9029833A834B835C8369817A818B819C812A
S1130EA041E0A3DA28960FB6F894DEBF0FBECDBF9B
S1130EB0DF91CF910895FC01962F92959F70292F71
S1130EC030E0205D3F4F2A33310514F0995C01C0B6
S1130ED0905D90836F70262F30E0205D3F4F2A3362
S1130EE0310514F0695C01C0605D618308950F935E
S1130EF01F93E1E5F1E080E0182F81838BE4828386
S1130F001382148283E0782F8783118610821086DF
S1130F10158281E0682F868300E02091530130918F
S1130F2054014091550150E080E090E058DE00917A
S1130F30510110915201209153013091540140917B
S1130F40550150915601609157017091580180915B
S1130F50590190915A01E3DE1F910F910895AF92C8
S1130F60BF92CF92DF92EF92FF920F931F93CF9392
S1130F70DF93EC016C01A12CB12C1CC0F601E190B3
S1130F806F01F12C009151011091520120915301F4
S1130F90309154014091550150915601609157018F
S1130FA0709158018091590190915A01DCDEFFEF54
S1130FB0AF1ABF0AFE0101900020E9F73197EC1B3C
S1130FC0FD0BAE16BF06D0F20F2EFAE0EF2EF12C79
S1130FD0F02D009151011091520120915301309153
S1130FE054014091550150915601609157017091FF
S1130FF058018091590190915A01B5DEDF91CF914A
S11310001F910F91FF90EF90DF90CF90BF90AF9022
S11310100895EF92FF920F931F93CF93DF9300D025
S1131020CDB7DEB7682FCE01019645DFE980F12CFC
S113103000915101109152012091530130915401BA
S1131040409155015091560160915701709158019A
S11310508091590190915A0186DEEA80F12C009129
S1131060510110915201209153013091540140914A
S1131070550150915601609157017091580180912A
S1131080590190915A016FDE0F2EFAE0EF2EF12CE8
S1131090F02D009151011091520120915301309192
S11310A0540140915501509156016091570170913E
S11310B058018091590190915A0155DE0F900F907B
S11310C0DF91CF911F910F91FF90EF900895A1E2CE
S11310D01A2EAA1BBB1BFD010DC0AA1FBB1FEE1FAE
S11310E0FF1FA217B307E407F50720F0A21BB30BF9
S11310F0E40BF50B661F771F881F991F1A9469F775
S113110060957095809590959B01AC01BD01CF01D0
S11311100895A29FB001B39FC001A39F700D811DCC
S11311201124911DB29F700D811D1124911D0895EC
S1131130F0DFA59F900DB49F900DA49F800D911D8D
S10B114011240895F894FFCF77
S10511485A0047
S9030000FC
